{
	"contracts/Marketplace.sol": {
		"NFTMarketplace": {
			"abi": [
				{
					"inputs": [
						{
							"internalType": "address",
							"name": "_erc20Address",
							"type": "address"
						}
					],
					"stateMutability": "nonpayable",
					"type": "constructor"
				},
				{
					"inputs": [
						{
							"internalType": "string",
							"name": "message",
							"type": "string"
						}
					],
					"name": "NFTMarketplace__ItemPriceIsZero",
					"type": "error"
				},
				{
					"inputs": [
						{
							"internalType": "string",
							"name": "message",
							"type": "string"
						}
					],
					"name": "NFTMarketplace__ListingPriceIsNotMet",
					"type": "error"
				},
				{
					"inputs": [
						{
							"internalType": "string",
							"name": "message",
							"type": "string"
						}
					],
					"name": "NFTMarketplace__YouAreNotOwnerOfThisItem",
					"type": "error"
				},
				{
					"anonymous": false,
					"inputs": [
						{
							"indexed": true,
							"internalType": "address",
							"name": "nftAddress",
							"type": "address"
						},
						{
							"indexed": true,
							"internalType": "uint256",
							"name": "tokenId",
							"type": "uint256"
						},
						{
							"indexed": false,
							"internalType": "address",
							"name": "seller",
							"type": "address"
						},
						{
							"indexed": false,
							"internalType": "address",
							"name": "owner",
							"type": "address"
						},
						{
							"indexed": false,
							"internalType": "uint256",
							"name": "price",
							"type": "uint256"
						},
						{
							"indexed": false,
							"internalType": "bool",
							"name": "sold",
							"type": "bool"
						}
					],
					"name": "ItemBought",
					"type": "event"
				},
				{
					"anonymous": false,
					"inputs": [
						{
							"indexed": true,
							"internalType": "uint256",
							"name": "itemId",
							"type": "uint256"
						},
						{
							"indexed": true,
							"internalType": "address",
							"name": "nftAddress",
							"type": "address"
						},
						{
							"indexed": true,
							"internalType": "uint256",
							"name": "tokenId",
							"type": "uint256"
						},
						{
							"indexed": false,
							"internalType": "address",
							"name": "seller",
							"type": "address"
						},
						{
							"indexed": false,
							"internalType": "address",
							"name": "owner",
							"type": "address"
						},
						{
							"indexed": false,
							"internalType": "uint256",
							"name": "price",
							"type": "uint256"
						},
						{
							"indexed": false,
							"internalType": "bool",
							"name": "sold",
							"type": "bool"
						}
					],
					"name": "ItemList",
					"type": "event"
				},
				{
					"anonymous": false,
					"inputs": [
						{
							"indexed": true,
							"internalType": "address",
							"name": "nftAddress",
							"type": "address"
						},
						{
							"indexed": true,
							"internalType": "uint256",
							"name": "tokenId",
							"type": "uint256"
						},
						{
							"indexed": false,
							"internalType": "address",
							"name": "seller",
							"type": "address"
						},
						{
							"indexed": false,
							"internalType": "address",
							"name": "owner",
							"type": "address"
						},
						{
							"indexed": false,
							"internalType": "uint256",
							"name": "price",
							"type": "uint256"
						},
						{
							"indexed": false,
							"internalType": "bool",
							"name": "sold",
							"type": "bool"
						}
					],
					"name": "ItemResell",
					"type": "event"
				},
				{
					"inputs": [
						{
							"internalType": "address",
							"name": "_nftAddress",
							"type": "address"
						},
						{
							"internalType": "uint256",
							"name": "_itemId",
							"type": "uint256"
						}
					],
					"name": "buyItem",
					"outputs": [],
					"stateMutability": "nonpayable",
					"type": "function"
				},
				{
					"inputs": [],
					"name": "getAllListedItems",
					"outputs": [
						{
							"components": [
								{
									"internalType": "uint256",
									"name": "itemId",
									"type": "uint256"
								},
								{
									"internalType": "address",
									"name": "nftContract",
									"type": "address"
								},
								{
									"internalType": "uint256",
									"name": "tokenId",
									"type": "uint256"
								},
								{
									"internalType": "address",
									"name": "seller",
									"type": "address"
								},
								{
									"internalType": "address",
									"name": "owner",
									"type": "address"
								},
								{
									"internalType": "uint256",
									"name": "price",
									"type": "uint256"
								},
								{
									"internalType": "bool",
									"name": "sold",
									"type": "bool"
								}
							],
							"internalType": "struct NFTMarketplace.Item[]",
							"name": "",
							"type": "tuple[]"
						}
					],
					"stateMutability": "view",
					"type": "function"
				},
				{
					"inputs": [],
					"name": "getListingPrice",
					"outputs": [
						{
							"internalType": "uint256",
							"name": "",
							"type": "uint256"
						}
					],
					"stateMutability": "view",
					"type": "function"
				},
				{
					"inputs": [],
					"name": "getOwnerListedItems",
					"outputs": [
						{
							"components": [
								{
									"internalType": "uint256",
									"name": "itemId",
									"type": "uint256"
								},
								{
									"internalType": "address",
									"name": "nftContract",
									"type": "address"
								},
								{
									"internalType": "uint256",
									"name": "tokenId",
									"type": "uint256"
								},
								{
									"internalType": "address",
									"name": "seller",
									"type": "address"
								},
								{
									"internalType": "address",
									"name": "owner",
									"type": "address"
								},
								{
									"internalType": "uint256",
									"name": "price",
									"type": "uint256"
								},
								{
									"internalType": "bool",
									"name": "sold",
									"type": "bool"
								}
							],
							"internalType": "struct NFTMarketplace.Item[]",
							"name": "",
							"type": "tuple[]"
						}
					],
					"stateMutability": "view",
					"type": "function"
				},
				{
					"inputs": [
						{
							"internalType": "uint256",
							"name": "_itemId",
							"type": "uint256"
						}
					],
					"name": "getParticularItem",
					"outputs": [
						{
							"components": [
								{
									"internalType": "uint256",
									"name": "itemId",
									"type": "uint256"
								},
								{
									"internalType": "address",
									"name": "nftContract",
									"type": "address"
								},
								{
									"internalType": "uint256",
									"name": "tokenId",
									"type": "uint256"
								},
								{
									"internalType": "address",
									"name": "seller",
									"type": "address"
								},
								{
									"internalType": "address",
									"name": "owner",
									"type": "address"
								},
								{
									"internalType": "uint256",
									"name": "price",
									"type": "uint256"
								},
								{
									"internalType": "bool",
									"name": "sold",
									"type": "bool"
								}
							],
							"internalType": "struct NFTMarketplace.Item",
							"name": "",
							"type": "tuple"
						}
					],
					"stateMutability": "view",
					"type": "function"
				},
				{
					"inputs": [],
					"name": "getSellerListedItems",
					"outputs": [
						{
							"components": [
								{
									"internalType": "uint256",
									"name": "itemId",
									"type": "uint256"
								},
								{
									"internalType": "address",
									"name": "nftContract",
									"type": "address"
								},
								{
									"internalType": "uint256",
									"name": "tokenId",
									"type": "uint256"
								},
								{
									"internalType": "address",
									"name": "seller",
									"type": "address"
								},
								{
									"internalType": "address",
									"name": "owner",
									"type": "address"
								},
								{
									"internalType": "uint256",
									"name": "price",
									"type": "uint256"
								},
								{
									"internalType": "bool",
									"name": "sold",
									"type": "bool"
								}
							],
							"internalType": "struct NFTMarketplace.Item[]",
							"name": "",
							"type": "tuple[]"
						}
					],
					"stateMutability": "view",
					"type": "function"
				},
				{
					"inputs": [
						{
							"internalType": "address",
							"name": "_nftAddress",
							"type": "address"
						},
						{
							"internalType": "uint256",
							"name": "_tokenId",
							"type": "uint256"
						},
						{
							"internalType": "uint256",
							"name": "_price",
							"type": "uint256"
						}
					],
					"name": "listItem",
					"outputs": [],
					"stateMutability": "nonpayable",
					"type": "function"
				},
				{
					"inputs": [
						{
							"internalType": "address",
							"name": "_nftAddress",
							"type": "address"
						},
						{
							"internalType": "uint256",
							"name": "_itemId",
							"type": "uint256"
						},
						{
							"internalType": "uint256",
							"name": "_price",
							"type": "uint256"
						}
					],
					"name": "resellItem",
					"outputs": [],
					"stateMutability": "nonpayable",
					"type": "function"
				},
				{
					"inputs": [],
					"name": "tradingToken",
					"outputs": [
						{
							"internalType": "contract IERC20",
							"name": "",
							"type": "address"
						}
					],
					"stateMutability": "view",
					"type": "function"
				},
				{
					"inputs": [
						{
							"internalType": "uint256",
							"name": "_itemId",
							"type": "uint256"
						}
					],
					"name": "unlistItem",
					"outputs": [],
					"stateMutability": "nonpayable",
					"type": "function"
				}
			],
			"devdoc": {
				"kind": "dev",
				"methods": {},
				"version": 1
			},
			"evm": {
				"assembly": "    /* \"contracts/Marketplace.sol\":566:9332  contract NFTMarketplace is ReentrancyGuard {... */\n  mstore(0x40, 0x80)\n    /* \"contracts/Marketplace.sol\":837:855  0.025 * (10 ** 18) */\n  0x58d15e17628000\n    /* \"contracts/Marketplace.sol\":814:855  uint256 listingPrice = 0.025 * (10 ** 18) */\n  0x04\n  sstore\n    /* \"contracts/Marketplace.sol\":968:1096  constructor(address _erc20Address) {... */\n  callvalue\n  dup1\n  iszero\n  tag_1\n  jumpi\n  0x00\n  dup1\n  revert\ntag_1:\n  pop\n  mload(0x40)\n  sub(codesize, bytecodeSize)\n  dup1\n  bytecodeSize\n  dup4\n  codecopy\n  dup2\n  add\n  0x40\n  dup2\n  swap1\n  mstore\n  tag_2\n  swap2\n  tag_3\n  jump\t// in\ntag_2:\n    /* \"@openzeppelin/contracts/security/ReentrancyGuard.sol\":1716:1717  1 */\n  0x01\n    /* \"@openzeppelin/contracts/security/ReentrancyGuard.sol\":1821:1828  _status */\n  0x00\n    /* \"@openzeppelin/contracts/security/ReentrancyGuard.sol\":1821:1843  _status = _NOT_ENTERED */\n  sstore\n    /* \"contracts/Marketplace.sol\":1014:1026  tradingToken */\n  0x05\n    /* \"contracts/Marketplace.sol\":1014:1050  tradingToken = IERC20(_erc20Address) */\n  dup1\n  sload\n  sub(shl(0xa0, 0x01), 0x01)\n  swap1\n  swap3\n  and\n  not(sub(shl(0xa0, 0x01), 0x01))\n  swap3\n  dup4\n  and\n  or\n  swap1\n  sstore\n    /* \"contracts/Marketplace.sol\":1061:1066  owner */\n  0x03\n    /* \"contracts/Marketplace.sol\":1061:1088  owner = payable(msg.sender) */\n  dup1\n  sload\n  swap1\n  swap2\n  and\n    /* \"contracts/Marketplace.sol\":1077:1087  msg.sender */\n  caller\n    /* \"contracts/Marketplace.sol\":1061:1088  owner = payable(msg.sender) */\n  or\n  swap1\n  sstore\n    /* \"contracts/Marketplace.sol\":566:9332  contract NFTMarketplace is ReentrancyGuard {... */\n  jump(tag_9)\n    /* \"#utility.yul\":14:304   */\ntag_3:\n    /* \"#utility.yul\":84:90   */\n  0x00\n    /* \"#utility.yul\":137:139   */\n  0x20\n    /* \"#utility.yul\":125:134   */\n  dup3\n    /* \"#utility.yul\":116:123   */\n  dup5\n    /* \"#utility.yul\":112:135   */\n  sub\n    /* \"#utility.yul\":108:140   */\n  slt\n    /* \"#utility.yul\":105:157   */\n  iszero\n  tag_11\n  jumpi\n    /* \"#utility.yul\":153:154   */\n  0x00\n    /* \"#utility.yul\":150:151   */\n  dup1\n    /* \"#utility.yul\":143:155   */\n  revert\n    /* \"#utility.yul\":105:157   */\ntag_11:\n    /* \"#utility.yul\":179:195   */\n  dup2\n  mload\n  sub(shl(0xa0, 0x01), 0x01)\n    /* \"#utility.yul\":224:255   */\n  dup2\n  and\n    /* \"#utility.yul\":214:256   */\n  dup2\n  eq\n    /* \"#utility.yul\":204:274   */\n  tag_12\n  jumpi\n    /* \"#utility.yul\":270:271   */\n  0x00\n    /* \"#utility.yul\":267:268   */\n  dup1\n    /* \"#utility.yul\":260:272   */\n  revert\n    /* \"#utility.yul\":204:274   */\ntag_12:\n    /* \"#utility.yul\":293:298   */\n  swap4\n    /* \"#utility.yul\":14:304   */\n  swap3\n  pop\n  pop\n  pop\n  jump\t// out\ntag_9:\n    /* \"contracts/Marketplace.sol\":566:9332  contract NFTMarketplace is ReentrancyGuard {... */\n  dataSize(sub_0)\n  dup1\n  dataOffset(sub_0)\n  0x00\n  codecopy\n  0x00\n  return\nstop\n\nsub_0: assembly {\n        /* \"contracts/Marketplace.sol\":566:9332  contract NFTMarketplace is ReentrancyGuard {... */\n      mstore(0x40, 0x80)\n      callvalue\n      dup1\n      iszero\n      tag_1\n      jumpi\n      0x00\n      dup1\n      revert\n    tag_1:\n      pop\n      jumpi(tag_2, lt(calldatasize, 0x04))\n      shr(0xe0, calldataload(0x00))\n      dup1\n      0x89bfd38f\n      gt\n      tag_13\n      jumpi\n      dup1\n      0x89bfd38f\n      eq\n      tag_8\n      jumpi\n      dup1\n      0x8f0af0f9\n      eq\n      tag_9\n      jumpi\n      dup1\n      0x9f37092a\n      eq\n      tag_10\n      jumpi\n      dup1\n      0xf2a7a2b4\n      eq\n      tag_11\n      jumpi\n      dup1\n      0xf9319c53\n      eq\n      tag_12\n      jumpi\n      0x00\n      dup1\n      revert\n    tag_13:\n      dup1\n      0x12e85585\n      eq\n      tag_3\n      jumpi\n      dup1\n      0x2ad8a220\n      eq\n      tag_4\n      jumpi\n      dup1\n      0x3b1b1ad0\n      eq\n      tag_5\n      jumpi\n      dup1\n      0x4d757a1c\n      eq\n      tag_6\n      jumpi\n      dup1\n      0x5a599da8\n      eq\n      tag_7\n      jumpi\n    tag_2:\n      0x00\n      dup1\n      revert\n        /* \"contracts/Marketplace.sol\":2008:2105  function getListingPrice() external view returns (uint256) {... */\n    tag_3:\n        /* \"contracts/Marketplace.sol\":2085:2097  listingPrice */\n      sload(0x04)\n        /* \"contracts/Marketplace.sol\":2008:2105  function getListingPrice() external view returns (uint256) {... */\n      mload(0x40)\n        /* \"#utility.yul\":160:185   */\n      swap1\n      dup2\n      mstore\n        /* \"#utility.yul\":148:150   */\n      0x20\n        /* \"#utility.yul\":133:151   */\n      add\n        /* \"contracts/Marketplace.sol\":2008:2105  function getListingPrice() external view returns (uint256) {... */\n    tag_16:\n      mload(0x40)\n      dup1\n      swap2\n      sub\n      swap1\n      return\n        /* \"contracts/Marketplace.sol\":933:959  IERC20 public tradingToken */\n    tag_4:\n      sload(0x05)\n      tag_18\n      swap1\n      sub(shl(0xa0, 0x01), 0x01)\n      and\n      dup2\n      jump\n    tag_18:\n      mload(0x40)\n      sub(shl(0xa0, 0x01), 0x01)\n        /* \"#utility.yul\":374:406   */\n      swap1\n      swap2\n      and\n        /* \"#utility.yul\":356:407   */\n      dup2\n      mstore\n        /* \"#utility.yul\":344:346   */\n      0x20\n        /* \"#utility.yul\":329:347   */\n      add\n        /* \"contracts/Marketplace.sol\":933:959  IERC20 public tradingToken */\n      tag_16\n        /* \"#utility.yul\":196:413   */\n      jump\n        /* \"contracts/Marketplace.sol\":2142:2792  function getAllListedItems() external view returns (Item[] memory) {... */\n    tag_5:\n      tag_22\n      tag_23\n      jump\t// in\n    tag_22:\n      mload(0x40)\n      tag_16\n      swap2\n      swap1\n      tag_25\n      jump\t// in\n        /* \"contracts/Marketplace.sol\":2861:3641  function getOwnerListedItems() external view returns (Item[] memory) {... */\n    tag_6:\n      tag_22\n      tag_27\n      jump\t// in\n        /* \"contracts/Marketplace.sol\":8970:9329  function unlistItem(uint256 _itemId) external {... */\n    tag_7:\n      tag_29\n      tag_30\n      calldatasize\n      0x04\n      tag_31\n      jump\t// in\n    tag_30:\n      tag_32\n      jump\t// in\n    tag_29:\n      stop\n        /* \"contracts/Marketplace.sol\":4644:6286  function listItem(... */\n    tag_8:\n      tag_29\n      tag_34\n      calldatasize\n      0x04\n      tag_35\n      jump\t// in\n    tag_34:\n      tag_36\n      jump\t// in\n        /* \"contracts/Marketplace.sol\":7586:8962  function resellItem(... */\n    tag_9:\n      tag_29\n      tag_38\n      calldatasize\n      0x04\n      tag_35\n      jump\t// in\n    tag_38:\n      tag_39\n      jump\t// in\n        /* \"contracts/Marketplace.sol\":6311:7563  function buyItem(address _nftAddress, uint256 _itemId)... */\n    tag_10:\n      tag_29\n      tag_41\n      calldatasize\n      0x04\n      tag_42\n      jump\t// in\n    tag_41:\n      tag_43\n      jump\t// in\n        /* \"contracts/Marketplace.sol\":4497:4615  function getParticularItem(uint256 _itemId) external view returns(Item memory){... */\n    tag_11:\n      tag_44\n      tag_45\n      calldatasize\n      0x04\n      tag_31\n      jump\t// in\n    tag_45:\n      tag_46\n      jump\t// in\n    tag_44:\n      mload(0x40)\n      tag_16\n      swap2\n      swap1\n      tag_48\n      jump\t// in\n        /* \"contracts/Marketplace.sol\":3704:4489  function getSellerListedItems() external view returns (Item[] memory) {... */\n    tag_12:\n      tag_22\n      tag_50\n      jump\t// in\n        /* \"contracts/Marketplace.sol\":2142:2792  function getAllListedItems() external view returns (Item[] memory) {... */\n    tag_23:\n        /* \"contracts/Marketplace.sol\":2194:2207  Item[] memory */\n      0x60\n        /* \"contracts/Marketplace.sol\":2220:2234  uint itemCount */\n      0x00\n        /* \"contracts/Marketplace.sol\":2237:2255  s_nftIds.current() */\n      tag_54\n        /* \"contracts/Marketplace.sol\":2237:2245  s_nftIds */\n      0x01\n        /* \"@openzeppelin/contracts/utils/Counters.sol\":918:932  counter._value */\n      sload\n      swap1\n        /* \"@openzeppelin/contracts/utils/Counters.sol\":827:939  function current(Counter storage counter) internal view returns (uint256) {... */\n      jump\n        /* \"contracts/Marketplace.sol\":2237:2255  s_nftIds.current() */\n    tag_54:\n        /* \"contracts/Marketplace.sol\":2220:2255  uint itemCount = s_nftIds.current() */\n      swap1\n      pop\n        /* \"contracts/Marketplace.sol\":2266:2287  uint unSoldItemsCount */\n      0x00\n        /* \"contracts/Marketplace.sol\":2311:2330  s_nftSold.current() */\n      tag_56\n        /* \"contracts/Marketplace.sol\":2311:2320  s_nftSold */\n      0x02\n        /* \"@openzeppelin/contracts/utils/Counters.sol\":918:932  counter._value */\n      sload\n      swap1\n        /* \"@openzeppelin/contracts/utils/Counters.sol\":827:939  function current(Counter storage counter) internal view returns (uint256) {... */\n      jump\n        /* \"contracts/Marketplace.sol\":2311:2330  s_nftSold.current() */\n    tag_56:\n        /* \"contracts/Marketplace.sol\":2290:2298  s_nftIds */\n      0x01\n        /* \"@openzeppelin/contracts/utils/Counters.sol\":918:932  counter._value */\n      sload\n        /* \"contracts/Marketplace.sol\":2290:2330  s_nftIds.current() - s_nftSold.current() */\n      tag_58\n      swap2\n      swap1\n      tag_59\n      jump\t// in\n    tag_58:\n        /* \"contracts/Marketplace.sol\":2266:2330  uint unSoldItemsCount = s_nftIds.current() - s_nftSold.current() */\n      swap1\n      pop\n        /* \"contracts/Marketplace.sol\":2341:2358  uint currentIndex */\n      0x00\n        /* \"contracts/Marketplace.sol\":2375:2394  Item[] memory items */\n      dup1\n        /* \"contracts/Marketplace.sol\":2408:2424  unSoldItemsCount */\n      dup3\n        /* \"contracts/Marketplace.sol\":2397:2425  new Item[](unSoldItemsCount) */\n      0xffffffffffffffff\n      dup2\n      gt\n      iszero\n      tag_61\n      jumpi\n      tag_61\n      tag_62\n      jump\t// in\n    tag_61:\n      mload(0x40)\n      swap1\n      dup1\n      dup3\n      mstore\n      dup1\n      0x20\n      mul\n      0x20\n      add\n      dup3\n      add\n      0x40\n      mstore\n      dup1\n      iszero\n      tag_63\n      jumpi\n      dup2\n      0x20\n      add\n    tag_64:\n      tag_65\n      tag_66\n      jump\t// in\n    tag_65:\n      dup2\n      mstore\n      0x20\n      add\n      swap1\n      0x01\n      swap1\n      sub\n      swap1\n      dup2\n      tag_64\n      jumpi\n      swap1\n      pop\n    tag_63:\n      pop\n        /* \"contracts/Marketplace.sol\":2375:2425  Item[] memory items = new Item[](unSoldItemsCount) */\n      swap1\n      pop\n        /* \"contracts/Marketplace.sol\":2441:2447  uint i */\n      0x00\n        /* \"contracts/Marketplace.sol\":2436:2760  for (uint i = 0; i < itemCount; i++) {... */\n    tag_67:\n        /* \"contracts/Marketplace.sol\":2457:2466  itemCount */\n      dup5\n        /* \"contracts/Marketplace.sol\":2453:2454  i */\n      dup2\n        /* \"contracts/Marketplace.sol\":2453:2466  i < itemCount */\n      lt\n        /* \"contracts/Marketplace.sol\":2436:2760  for (uint i = 0; i < itemCount; i++) {... */\n      iszero\n      tag_68\n      jumpi\n        /* \"contracts/Marketplace.sol\":2522:2526  this */\n      address\n        /* \"contracts/Marketplace.sol\":2492:2497  Items */\n      0x06\n        /* \"contracts/Marketplace.sol\":2492:2504  Items[i + 1] */\n      0x00\n        /* \"contracts/Marketplace.sol\":2498:2503  i + 1 */\n      tag_70\n        /* \"contracts/Marketplace.sol\":2498:2499  i */\n      dup5\n        /* \"contracts/Marketplace.sol\":2502:2503  1 */\n      0x01\n        /* \"contracts/Marketplace.sol\":2498:2503  i + 1 */\n      tag_71\n      jump\t// in\n    tag_70:\n        /* \"contracts/Marketplace.sol\":2492:2504  Items[i + 1] */\n      dup2\n      mstore\n      0x20\n      dup2\n      add\n      swap2\n      swap1\n      swap2\n      mstore\n      0x40\n      add\n      0x00\n      keccak256\n        /* \"contracts/Marketplace.sol\":2492:2510  Items[i + 1].owner */\n      0x04\n      add\n      sload\n      sub(shl(0xa0, 0x01), 0x01)\n      and\n        /* \"contracts/Marketplace.sol\":2492:2527  Items[i + 1].owner == address(this) */\n      sub\n        /* \"contracts/Marketplace.sol\":2488:2749  if (Items[i + 1].owner == address(this)) {... */\n      tag_72\n      jumpi\n        /* \"contracts/Marketplace.sol\":2548:2562  uint currentId */\n      0x00\n        /* \"contracts/Marketplace.sol\":2565:2570  Items */\n      0x06\n        /* \"contracts/Marketplace.sol\":2548:2562  uint currentId */\n      dup2\n        /* \"contracts/Marketplace.sol\":2571:2576  i + 1 */\n      tag_73\n        /* \"contracts/Marketplace.sol\":2571:2572  i */\n      dup5\n        /* \"contracts/Marketplace.sol\":2575:2576  1 */\n      0x01\n        /* \"contracts/Marketplace.sol\":2571:2576  i + 1 */\n      tag_71\n      jump\t// in\n    tag_73:\n        /* \"contracts/Marketplace.sol\":2565:2577  Items[i + 1] */\n      dup2\n      mstore\n      0x20\n      dup1\n      dup3\n      add\n      swap3\n      swap1\n      swap3\n      mstore\n      0x40\n      swap1\n      dup2\n      add\n      0x00\n      swap1\n      dup2\n      keccak256\n        /* \"contracts/Marketplace.sol\":2565:2584  Items[i + 1].itemId */\n      sload\n        /* \"contracts/Marketplace.sol\":2629:2645  Items[currentId] */\n      dup1\n      dup3\n      mstore\n        /* \"contracts/Marketplace.sol\":2629:2634  Items */\n      0x06\n        /* \"contracts/Marketplace.sol\":2629:2645  Items[currentId] */\n      dup1\n      dup6\n      mstore\n      swap2\n      dup4\n      swap1\n      keccak256\n        /* \"contracts/Marketplace.sol\":2603:2645  Item memory currentItem = Items[currentId] */\n      dup4\n      mload\n      0xe0\n      dup2\n      add\n      dup6\n      mstore\n      dup2\n      sload\n      dup2\n      mstore\n      0x01\n      dup3\n      add\n      sload\n      sub(shl(0xa0, 0x01), 0x01)\n      swap1\n      dup2\n      and\n      swap7\n      dup3\n      add\n      swap7\n      swap1\n      swap7\n      mstore\n      0x02\n      dup3\n      add\n      sload\n      swap5\n      dup2\n      add\n      swap5\n      swap1\n      swap5\n      mstore\n      0x03\n      dup2\n      add\n      sload\n      dup6\n      and\n      0x60\n      dup6\n      add\n      mstore\n      0x04\n      dup2\n      add\n      sload\n      swap1\n      swap5\n      and\n      0x80\n      dup5\n      add\n      mstore\n      0x05\n      dup5\n      add\n      sload\n      0xa0\n      dup5\n      add\n      mstore\n      swap3\n      add\n      sload\n      0xff\n      and\n      iszero\n      iszero\n      0xc0\n      dup3\n      add\n      mstore\n        /* \"contracts/Marketplace.sol\":2664:2683  items[currentIndex] */\n      dup5\n      mload\n        /* \"contracts/Marketplace.sol\":2565:2584  Items[i + 1].itemId */\n      swap2\n      swap3\n      pop\n        /* \"contracts/Marketplace.sol\":2603:2645  Item memory currentItem = Items[currentId] */\n      swap1\n      dup2\n      swap1\n        /* \"contracts/Marketplace.sol\":2664:2669  items */\n      dup6\n      swap1\n        /* \"contracts/Marketplace.sol\":2670:2682  currentIndex */\n      dup8\n      swap1\n        /* \"contracts/Marketplace.sol\":2664:2683  items[currentIndex] */\n      dup2\n      lt\n      tag_75\n      jumpi\n      tag_75\n      tag_76\n      jump\t// in\n    tag_75:\n      0x20\n      swap1\n      dup2\n      mul\n      swap2\n      swap1\n      swap2\n      add\n      add\n        /* \"contracts/Marketplace.sol\":2664:2697  items[currentIndex] = currentItem */\n      mstore\n        /* \"contracts/Marketplace.sol\":2716:2733  currentIndex += 1 */\n      tag_77\n        /* \"contracts/Marketplace.sol\":2732:2733  1 */\n      0x01\n        /* \"contracts/Marketplace.sol\":2716:2733  currentIndex += 1 */\n      dup7\n      tag_71\n      jump\t// in\n    tag_77:\n      swap5\n      pop\n        /* \"contracts/Marketplace.sol\":2529:2749  {... */\n      pop\n      pop\n        /* \"contracts/Marketplace.sol\":2488:2749  if (Items[i + 1].owner == address(this)) {... */\n    tag_72:\n        /* \"contracts/Marketplace.sol\":2468:2471  i++ */\n      0x01\n      add\n        /* \"contracts/Marketplace.sol\":2436:2760  for (uint i = 0; i < itemCount; i++) {... */\n      jump(tag_67)\n    tag_68:\n      pop\n        /* \"contracts/Marketplace.sol\":2779:2784  items */\n      swap5\n        /* \"contracts/Marketplace.sol\":2142:2792  function getAllListedItems() external view returns (Item[] memory) {... */\n      swap4\n      pop\n      pop\n      pop\n      pop\n      jump\t// out\n        /* \"contracts/Marketplace.sol\":2861:3641  function getOwnerListedItems() external view returns (Item[] memory) {... */\n    tag_27:\n        /* \"contracts/Marketplace.sol\":2915:2928  Item[] memory */\n      0x60\n        /* \"contracts/Marketplace.sol\":2941:2962  uint totalListedItems */\n      0x00\n        /* \"contracts/Marketplace.sol\":2965:2983  s_nftIds.current() */\n      tag_79\n        /* \"contracts/Marketplace.sol\":2965:2973  s_nftIds */\n      0x01\n        /* \"@openzeppelin/contracts/utils/Counters.sol\":918:932  counter._value */\n      sload\n      swap1\n        /* \"@openzeppelin/contracts/utils/Counters.sol\":827:939  function current(Counter storage counter) internal view returns (uint256) {... */\n      jump\n        /* \"contracts/Marketplace.sol\":2965:2983  s_nftIds.current() */\n    tag_79:\n        /* \"contracts/Marketplace.sol\":2941:2983  uint totalListedItems = s_nftIds.current() */\n      swap1\n      pop\n        /* \"contracts/Marketplace.sol\":2994:3008  uint itemCount */\n      0x00\n        /* \"contracts/Marketplace.sol\":3023:3040  uint currentIndex */\n      dup1\n        /* \"contracts/Marketplace.sol\":3062:3071  uint256 i */\n      0x00\n        /* \"contracts/Marketplace.sol\":3057:3217  for (uint256 i = 0; i < totalListedItems; i++) {... */\n    tag_80:\n        /* \"contracts/Marketplace.sol\":3081:3097  totalListedItems */\n      dup4\n        /* \"contracts/Marketplace.sol\":3077:3078  i */\n      dup2\n        /* \"contracts/Marketplace.sol\":3077:3097  i < totalListedItems */\n      lt\n        /* \"contracts/Marketplace.sol\":3057:3217  for (uint256 i = 0; i < totalListedItems; i++) {... */\n      iszero\n      tag_81\n      jumpi\n        /* \"contracts/Marketplace.sol\":3145:3155  msg.sender */\n      caller\n        /* \"contracts/Marketplace.sol\":3123:3128  Items */\n      0x06\n        /* \"contracts/Marketplace.sol\":3123:3135  Items[i + 1] */\n      0x00\n        /* \"contracts/Marketplace.sol\":3129:3134  i + 1 */\n      tag_83\n        /* \"contracts/Marketplace.sol\":3129:3130  i */\n      dup5\n        /* \"contracts/Marketplace.sol\":3133:3134  1 */\n      0x01\n        /* \"contracts/Marketplace.sol\":3129:3134  i + 1 */\n      tag_71\n      jump\t// in\n    tag_83:\n        /* \"contracts/Marketplace.sol\":3123:3135  Items[i + 1] */\n      dup2\n      mstore\n      0x20\n      dup2\n      add\n      swap2\n      swap1\n      swap2\n      mstore\n      0x40\n      add\n      0x00\n      keccak256\n        /* \"contracts/Marketplace.sol\":3123:3141  Items[i + 1].owner */\n      0x04\n      add\n      sload\n      sub(shl(0xa0, 0x01), 0x01)\n      and\n        /* \"contracts/Marketplace.sol\":3123:3155  Items[i + 1].owner == msg.sender */\n      sub\n        /* \"contracts/Marketplace.sol\":3119:3206  if (Items[i + 1].owner == msg.sender) {... */\n      tag_84\n      jumpi\n        /* \"contracts/Marketplace.sol\":3176:3190  itemCount += 1 */\n      tag_85\n        /* \"contracts/Marketplace.sol\":3189:3190  1 */\n      0x01\n        /* \"contracts/Marketplace.sol\":3176:3190  itemCount += 1 */\n      dup5\n      tag_71\n      jump\t// in\n    tag_85:\n      swap3\n      pop\n        /* \"contracts/Marketplace.sol\":3119:3206  if (Items[i + 1].owner == msg.sender) {... */\n    tag_84:\n        /* \"contracts/Marketplace.sol\":3099:3102  i++ */\n      0x01\n      add\n        /* \"contracts/Marketplace.sol\":3057:3217  for (uint256 i = 0; i < totalListedItems; i++) {... */\n      jump(tag_80)\n    tag_81:\n      pop\n        /* \"contracts/Marketplace.sol\":3229:3248  Item[] memory items */\n      0x00\n        /* \"contracts/Marketplace.sol\":3262:3271  itemCount */\n      dup3\n        /* \"contracts/Marketplace.sol\":3251:3272  new Item[](itemCount) */\n      0xffffffffffffffff\n      dup2\n      gt\n      iszero\n      tag_87\n      jumpi\n      tag_87\n      tag_62\n      jump\t// in\n    tag_87:\n      mload(0x40)\n      swap1\n      dup1\n      dup3\n      mstore\n      dup1\n      0x20\n      mul\n      0x20\n      add\n      dup3\n      add\n      0x40\n      mstore\n      dup1\n      iszero\n      tag_88\n      jumpi\n      dup2\n      0x20\n      add\n    tag_89:\n      tag_90\n      tag_66\n      jump\t// in\n    tag_90:\n      dup2\n      mstore\n      0x20\n      add\n      swap1\n      0x01\n      swap1\n      sub\n      swap1\n      dup2\n      tag_89\n      jumpi\n      swap1\n      pop\n    tag_88:\n      pop\n        /* \"contracts/Marketplace.sol\":3229:3272  Item[] memory items = new Item[](itemCount) */\n      swap1\n      pop\n        /* \"contracts/Marketplace.sol\":3288:3294  uint i */\n      0x00\n        /* \"contracts/Marketplace.sol\":3283:3611  for (uint i = 0; i < totalListedItems; i++) {... */\n    tag_91:\n        /* \"contracts/Marketplace.sol\":3304:3320  totalListedItems */\n      dup5\n        /* \"contracts/Marketplace.sol\":3300:3301  i */\n      dup2\n        /* \"contracts/Marketplace.sol\":3300:3320  i < totalListedItems */\n      lt\n        /* \"contracts/Marketplace.sol\":3283:3611  for (uint i = 0; i < totalListedItems; i++) {... */\n      iszero\n      tag_68\n      jumpi\n        /* \"contracts/Marketplace.sol\":3368:3378  msg.sender */\n      caller\n        /* \"contracts/Marketplace.sol\":3346:3351  Items */\n      0x06\n        /* \"contracts/Marketplace.sol\":3346:3358  Items[i + 1] */\n      0x00\n        /* \"contracts/Marketplace.sol\":3352:3357  i + 1 */\n      tag_94\n        /* \"contracts/Marketplace.sol\":3352:3353  i */\n      dup5\n        /* \"contracts/Marketplace.sol\":3356:3357  1 */\n      0x01\n        /* \"contracts/Marketplace.sol\":3352:3357  i + 1 */\n      tag_71\n      jump\t// in\n    tag_94:\n        /* \"contracts/Marketplace.sol\":3346:3358  Items[i + 1] */\n      dup2\n      mstore\n      0x20\n      dup2\n      add\n      swap2\n      swap1\n      swap2\n      mstore\n      0x40\n      add\n      0x00\n      keccak256\n        /* \"contracts/Marketplace.sol\":3346:3364  Items[i + 1].owner */\n      0x04\n      add\n      sload\n      sub(shl(0xa0, 0x01), 0x01)\n      and\n        /* \"contracts/Marketplace.sol\":3346:3378  Items[i + 1].owner == msg.sender */\n      sub\n        /* \"contracts/Marketplace.sol\":3342:3600  if (Items[i + 1].owner == msg.sender) {... */\n      tag_95\n      jumpi\n        /* \"contracts/Marketplace.sol\":3399:3413  uint currentId */\n      0x00\n        /* \"contracts/Marketplace.sol\":3416:3421  Items */\n      0x06\n        /* \"contracts/Marketplace.sol\":3399:3413  uint currentId */\n      dup2\n        /* \"contracts/Marketplace.sol\":3422:3427  i + 1 */\n      tag_96\n        /* \"contracts/Marketplace.sol\":3422:3423  i */\n      dup5\n        /* \"contracts/Marketplace.sol\":3426:3427  1 */\n      0x01\n        /* \"contracts/Marketplace.sol\":3422:3427  i + 1 */\n      tag_71\n      jump\t// in\n    tag_96:\n        /* \"contracts/Marketplace.sol\":3416:3428  Items[i + 1] */\n      dup2\n      mstore\n      0x20\n      dup1\n      dup3\n      add\n      swap3\n      swap1\n      swap3\n      mstore\n      0x40\n      swap1\n      dup2\n      add\n      0x00\n      swap1\n      dup2\n      keccak256\n        /* \"contracts/Marketplace.sol\":3416:3435  Items[i + 1].itemId */\n      sload\n        /* \"contracts/Marketplace.sol\":3480:3496  Items[currentId] */\n      dup1\n      dup3\n      mstore\n        /* \"contracts/Marketplace.sol\":3480:3485  Items */\n      0x06\n        /* \"contracts/Marketplace.sol\":3480:3496  Items[currentId] */\n      dup1\n      dup6\n      mstore\n      swap2\n      dup4\n      swap1\n      keccak256\n        /* \"contracts/Marketplace.sol\":3454:3496  Item memory currentItem = Items[currentId] */\n      dup4\n      mload\n      0xe0\n      dup2\n      add\n      dup6\n      mstore\n      dup2\n      sload\n      dup2\n      mstore\n      0x01\n      dup3\n      add\n      sload\n      sub(shl(0xa0, 0x01), 0x01)\n      swap1\n      dup2\n      and\n      swap7\n      dup3\n      add\n      swap7\n      swap1\n      swap7\n      mstore\n      0x02\n      dup3\n      add\n      sload\n      swap5\n      dup2\n      add\n      swap5\n      swap1\n      swap5\n      mstore\n      0x03\n      dup2\n      add\n      sload\n      dup6\n      and\n      0x60\n      dup6\n      add\n      mstore\n      0x04\n      dup2\n      add\n      sload\n      swap1\n      swap5\n      and\n      0x80\n      dup5\n      add\n      mstore\n      0x05\n      dup5\n      add\n      sload\n      0xa0\n      dup5\n      add\n      mstore\n      swap3\n      add\n      sload\n      0xff\n      and\n      iszero\n      iszero\n      0xc0\n      dup3\n      add\n      mstore\n        /* \"contracts/Marketplace.sol\":3515:3534  items[currentIndex] */\n      dup5\n      mload\n        /* \"contracts/Marketplace.sol\":3416:3435  Items[i + 1].itemId */\n      swap2\n      swap3\n      pop\n        /* \"contracts/Marketplace.sol\":3454:3496  Item memory currentItem = Items[currentId] */\n      swap1\n      dup2\n      swap1\n        /* \"contracts/Marketplace.sol\":3515:3520  items */\n      dup6\n      swap1\n        /* \"contracts/Marketplace.sol\":3521:3533  currentIndex */\n      dup8\n      swap1\n        /* \"contracts/Marketplace.sol\":3515:3534  items[currentIndex] */\n      dup2\n      lt\n      tag_98\n      jumpi\n      tag_98\n      tag_76\n      jump\t// in\n    tag_98:\n      0x20\n      swap1\n      dup2\n      mul\n      swap2\n      swap1\n      swap2\n      add\n      add\n        /* \"contracts/Marketplace.sol\":3515:3548  items[currentIndex] = currentItem */\n      mstore\n        /* \"contracts/Marketplace.sol\":3567:3584  currentIndex += 1 */\n      tag_99\n        /* \"contracts/Marketplace.sol\":3583:3584  1 */\n      0x01\n        /* \"contracts/Marketplace.sol\":3567:3584  currentIndex += 1 */\n      dup7\n      tag_71\n      jump\t// in\n    tag_99:\n      swap5\n      pop\n        /* \"contracts/Marketplace.sol\":3380:3600  {... */\n      pop\n      pop\n        /* \"contracts/Marketplace.sol\":3342:3600  if (Items[i + 1].owner == msg.sender) {... */\n    tag_95:\n        /* \"contracts/Marketplace.sol\":3322:3325  i++ */\n      0x01\n      add\n        /* \"contracts/Marketplace.sol\":3283:3611  for (uint i = 0; i < totalListedItems; i++) {... */\n      jump(tag_91)\n        /* \"contracts/Marketplace.sol\":8970:9329  function unlistItem(uint256 _itemId) external {... */\n    tag_32:\n        /* \"contracts/Marketplace.sol\":9031:9045  Items[_itemId] */\n      0x00\n      dup2\n      dup2\n      mstore\n        /* \"contracts/Marketplace.sol\":9031:9036  Items */\n      0x06\n        /* \"contracts/Marketplace.sol\":9031:9045  Items[_itemId] */\n      0x20\n      mstore\n      0x40\n      swap1\n      keccak256\n        /* \"contracts/Marketplace.sol\":9031:9052  Items[_itemId].seller */\n      0x03\n      add\n      sload\n      sub(shl(0xa0, 0x01), 0x01)\n      and\n        /* \"contracts/Marketplace.sol\":9056:9066  msg.sender */\n      caller\n        /* \"contracts/Marketplace.sol\":9031:9066  Items[_itemId].seller != msg.sender */\n      eq\n      dup1\n      iszero\n      swap1\n        /* \"contracts/Marketplace.sol\":9031:9104  Items[_itemId].seller != msg.sender && Items[_itemId].owner != msg.sender */\n      tag_101\n      jumpi\n      pop\n        /* \"contracts/Marketplace.sol\":9070:9084  Items[_itemId] */\n      0x00\n      dup2\n      dup2\n      mstore\n        /* \"contracts/Marketplace.sol\":9070:9075  Items */\n      0x06\n        /* \"contracts/Marketplace.sol\":9070:9084  Items[_itemId] */\n      0x20\n      mstore\n      0x40\n      swap1\n      keccak256\n        /* \"contracts/Marketplace.sol\":9070:9090  Items[_itemId].owner */\n      0x04\n      add\n      sload\n      sub(shl(0xa0, 0x01), 0x01)\n      and\n        /* \"contracts/Marketplace.sol\":9094:9104  msg.sender */\n      caller\n        /* \"contracts/Marketplace.sol\":9070:9104  Items[_itemId].owner != msg.sender */\n      eq\n      iszero\n        /* \"contracts/Marketplace.sol\":9031:9104  Items[_itemId].seller != msg.sender && Items[_itemId].owner != msg.sender */\n    tag_101:\n        /* \"contracts/Marketplace.sol\":9027:9218  if (Items[_itemId].seller != msg.sender && Items[_itemId].owner != msg.sender) {... */\n      iszero\n      tag_102\n      jumpi\n        /* \"contracts/Marketplace.sol\":9128:9206  NFTMarketplace__YouAreNotOwnerOfThisItem(\"You are not the owner of this item\") */\n      mload(0x40)\n      shl(0xe0, 0x47ad5e4f)\n      dup2\n      mstore\n      0x04\n      add\n      tag_103\n      swap1\n      tag_104\n      jump\t// in\n    tag_103:\n      mload(0x40)\n      dup1\n      swap2\n      sub\n      swap1\n      revert\n        /* \"contracts/Marketplace.sol\":9027:9218  if (Items[_itemId].seller != msg.sender && Items[_itemId].owner != msg.sender) {... */\n    tag_102:\n        /* \"contracts/Marketplace.sol\":9307:9321  Items[_itemId] */\n      0x00\n      swap1\n      dup2\n      mstore\n        /* \"contracts/Marketplace.sol\":9307:9312  Items */\n      0x06\n        /* \"contracts/Marketplace.sol\":9307:9321  Items[_itemId] */\n      0x20\n      dup2\n      swap1\n      mstore\n      0x40\n      dup3\n      keccak256\n        /* \"contracts/Marketplace.sol\":9300:9321  delete Items[_itemId] */\n      dup3\n      dup2\n      sstore\n      0x01\n      dup2\n      add\n      dup1\n      sload\n      not(sub(shl(0xa0, 0x01), 0x01))\n      swap1\n      dup2\n      and\n      swap1\n      swap2\n      sstore\n      0x02\n      dup3\n      add\n      dup5\n      swap1\n      sstore\n      0x03\n      dup3\n      add\n      dup1\n      sload\n      dup3\n      and\n      swap1\n      sstore\n      0x04\n      dup3\n      add\n      dup1\n      sload\n      swap1\n      swap2\n      and\n      swap1\n      sstore\n      0x05\n      dup2\n      add\n      swap3\n      swap1\n      swap3\n      sstore\n      add\n      dup1\n      sload\n      not(0xff)\n      and\n      swap1\n      sstore\n        /* \"contracts/Marketplace.sol\":8970:9329  function unlistItem(uint256 _itemId) external {... */\n      jump\t// out\n        /* \"contracts/Marketplace.sol\":4644:6286  function listItem(... */\n    tag_36:\n        /* \"@openzeppelin/contracts/security/ReentrancyGuard.sol\":2261:2282  _nonReentrantBefore() */\n      tag_106\n        /* \"@openzeppelin/contracts/security/ReentrancyGuard.sol\":2261:2280  _nonReentrantBefore */\n      tag_107\n        /* \"@openzeppelin/contracts/security/ReentrancyGuard.sol\":2261:2282  _nonReentrantBefore() */\n      jump\t// in\n    tag_106:\n        /* \"contracts/Marketplace.sol\":4786:4792  _price */\n      dup1\n        /* \"contracts/Marketplace.sol\":4796:4797  0 */\n      0x00\n        /* \"contracts/Marketplace.sol\":4786:4797  _price == 0 */\n      sub\n        /* \"contracts/Marketplace.sol\":4782:4902  if (_price == 0) { // price in wei... */\n      tag_109\n      jumpi\n        /* \"contracts/Marketplace.sol\":4837:4890  NFTMarketplace__ItemPriceIsZero(\"Item Price is zero\") */\n      mload(0x40)\n      shl(0xe1, 0x0cc29701)\n      dup2\n      mstore\n        /* \"#utility.yul\":4266:4268   */\n      0x20\n        /* \"contracts/Marketplace.sol\":4837:4890  NFTMarketplace__ItemPriceIsZero(\"Item Price is zero\") */\n      0x04\n      dup3\n      add\n        /* \"#utility.yul\":4248:4269   */\n      mstore\n        /* \"#utility.yul\":4305:4307   */\n      0x12\n        /* \"#utility.yul\":4285:4303   */\n      0x24\n      dup3\n      add\n        /* \"#utility.yul\":4278:4308   */\n      mstore\n      shl(0x70, 0x4974656d205072696365206973207a65726f)\n        /* \"#utility.yul\":4324:4342   */\n      0x44\n      dup3\n      add\n        /* \"#utility.yul\":4317:4365   */\n      mstore\n        /* \"#utility.yul\":4382:4400   */\n      0x64\n      add\n        /* \"contracts/Marketplace.sol\":4837:4890  NFTMarketplace__ItemPriceIsZero(\"Item Price is zero\") */\n      tag_103\n        /* \"#utility.yul\":4064:4406   */\n      jump\n        /* \"contracts/Marketplace.sol\":4782:4902  if (_price == 0) { // price in wei... */\n    tag_109:\n        /* \"contracts/Marketplace.sol\":5217:5229  listingPrice */\n      0x04\n      dup1\n      sload\n        /* \"contracts/Marketplace.sol\":5165:5177  tradingToken */\n      sload(0x05)\n        /* \"contracts/Marketplace.sol\":5165:5214  tradingToken.allowance(msg.sender, address(this)) */\n      mload(0x40)\n      shl(0xe1, 0x6eb1769f)\n      dup2\n      mstore\n        /* \"contracts/Marketplace.sol\":5188:5198  msg.sender */\n      caller\n        /* \"contracts/Marketplace.sol\":5165:5214  tradingToken.allowance(msg.sender, address(this)) */\n      swap4\n      dup2\n      add\n        /* \"#utility.yul\":4585:4636   */\n      swap4\n      swap1\n      swap4\n      mstore\n        /* \"contracts/Marketplace.sol\":5208:5212  this */\n      address\n        /* \"#utility.yul\":4652:4670   */\n      0x24\n      dup5\n      add\n        /* \"#utility.yul\":4645:4705   */\n      mstore\n        /* \"contracts/Marketplace.sol\":5217:5229  listingPrice */\n      swap1\n      swap2\n      sub(shl(0xa0, 0x01), 0x01)\n        /* \"contracts/Marketplace.sol\":5165:5177  tradingToken */\n      swap1\n      swap2\n      and\n      swap1\n        /* \"contracts/Marketplace.sol\":5165:5187  tradingToken.allowance */\n      0xdd62ed3e\n      swap1\n        /* \"#utility.yul\":4558:4576   */\n      0x44\n      add\n        /* \"contracts/Marketplace.sol\":5165:5214  tradingToken.allowance(msg.sender, address(this)) */\n      0x20\n      mload(0x40)\n      dup1\n      dup4\n      sub\n      dup2\n      dup7\n      gas\n      staticcall\n      iszero\n      dup1\n      iszero\n      tag_115\n      jumpi\n      returndatasize\n      0x00\n      dup1\n      returndatacopy\n      revert(0x00, returndatasize)\n    tag_115:\n      pop\n      pop\n      pop\n      pop\n      mload(0x40)\n      returndatasize\n      not(0x1f)\n      0x1f\n      dup3\n      add\n      and\n      dup3\n      add\n      dup1\n      0x40\n      mstore\n      pop\n      dup2\n      add\n      swap1\n      tag_116\n      swap2\n      swap1\n      tag_117\n      jump\t// in\n    tag_116:\n        /* \"contracts/Marketplace.sol\":5165:5229  tradingToken.allowance(msg.sender, address(this)) < listingPrice */\n      lt\n        /* \"contracts/Marketplace.sol\":5161:5329  if (tradingToken.allowance(msg.sender, address(this)) < listingPrice) {... */\n      iszero\n      tag_118\n      jumpi\n        /* \"contracts/Marketplace.sol\":5253:5317  NFTMarketplace__ListingPriceIsNotMet(\"Listing price is not met\") */\n      mload(0x40)\n      shl(0xe1, 0x03f36f1b)\n      dup2\n      mstore\n        /* \"#utility.yul\":5107:5109   */\n      0x20\n        /* \"contracts/Marketplace.sol\":5253:5317  NFTMarketplace__ListingPriceIsNotMet(\"Listing price is not met\") */\n      0x04\n      dup3\n      add\n        /* \"#utility.yul\":5089:5110   */\n      mstore\n        /* \"#utility.yul\":5146:5148   */\n      0x18\n        /* \"#utility.yul\":5126:5144   */\n      0x24\n      dup3\n      add\n        /* \"#utility.yul\":5119:5149   */\n      mstore\n      shl(0x42, 0x131a5cdd1a5b99c81c1c9a58d9481a5cc81b9bdd081b595d)\n        /* \"#utility.yul\":5165:5183   */\n      0x44\n      dup3\n      add\n        /* \"#utility.yul\":5158:5212   */\n      mstore\n        /* \"#utility.yul\":5229:5247   */\n      0x64\n      add\n        /* \"contracts/Marketplace.sol\":5253:5317  NFTMarketplace__ListingPriceIsNotMet(\"Listing price is not met\") */\n      tag_103\n        /* \"#utility.yul\":4905:5253   */\n      jump\n        /* \"contracts/Marketplace.sol\":5161:5329  if (tradingToken.allowance(msg.sender, address(this)) < listingPrice) {... */\n    tag_118:\n        /* \"contracts/Marketplace.sol\":5411:5423  tradingToken */\n      sload(0x05)\n        /* \"contracts/Marketplace.sol\":5464:5476  listingPrice */\n      0x04\n      dup1\n      sload\n        /* \"contracts/Marketplace.sol\":5411:5477  tradingToken.transferFrom(msg.sender, address(this), listingPrice) */\n      mload(0x40)\n      shl(0xe0, 0x23b872dd)\n      dup2\n      mstore\n      sub(shl(0xa0, 0x01), 0x01)\n        /* \"contracts/Marketplace.sol\":5411:5423  tradingToken */\n      swap1\n      swap4\n      and\n      swap3\n        /* \"contracts/Marketplace.sol\":5411:5436  tradingToken.transferFrom */\n      0x23b872dd\n      swap3\n        /* \"contracts/Marketplace.sol\":5411:5477  tradingToken.transferFrom(msg.sender, address(this), listingPrice) */\n      tag_121\n      swap3\n        /* \"contracts/Marketplace.sol\":5437:5447  msg.sender */\n      caller\n      swap3\n        /* \"contracts/Marketplace.sol\":5457:5461  this */\n      address\n      swap3\n        /* \"contracts/Marketplace.sol\":5411:5477  tradingToken.transferFrom(msg.sender, address(this), listingPrice) */\n      add\n      tag_122\n      jump\t// in\n    tag_121:\n      0x20\n      mload(0x40)\n      dup1\n      dup4\n      sub\n      dup2\n      0x00\n      dup8\n      gas\n      call\n      iszero\n      dup1\n      iszero\n      tag_124\n      jumpi\n      returndatasize\n      0x00\n      dup1\n      returndatacopy\n      revert(0x00, returndatasize)\n    tag_124:\n      pop\n      pop\n      pop\n      pop\n      mload(0x40)\n      returndatasize\n      not(0x1f)\n      0x1f\n      dup3\n      add\n      and\n      dup3\n      add\n      dup1\n      0x40\n      mstore\n      pop\n      dup2\n      add\n      swap1\n      tag_125\n      swap2\n      swap1\n      tag_126\n      jump\t// in\n    tag_125:\n      pop\n        /* \"contracts/Marketplace.sol\":5488:5508  s_nftIds.increment() */\n      tag_127\n        /* \"contracts/Marketplace.sol\":5488:5496  s_nftIds */\n      0x01\n        /* \"@openzeppelin/contracts/utils/Counters.sol\":1032:1051  counter._value += 1 */\n      dup1\n      sload\n        /* \"@openzeppelin/contracts/utils/Counters.sol\":1050:1051  1 */\n      0x01\n        /* \"@openzeppelin/contracts/utils/Counters.sol\":1032:1051  counter._value += 1 */\n      add\n      swap1\n      sstore\n        /* \"@openzeppelin/contracts/utils/Counters.sol\":945:1068  function increment(Counter storage counter) internal {... */\n      jump\n        /* \"contracts/Marketplace.sol\":5488:5508  s_nftIds.increment() */\n    tag_127:\n        /* \"contracts/Marketplace.sol\":5519:5532  uint newNftId */\n      0x00\n        /* \"contracts/Marketplace.sol\":5535:5553  s_nftIds.current() */\n      tag_129\n        /* \"contracts/Marketplace.sol\":5535:5543  s_nftIds */\n      0x01\n        /* \"@openzeppelin/contracts/utils/Counters.sol\":918:932  counter._value */\n      sload\n      swap1\n        /* \"@openzeppelin/contracts/utils/Counters.sol\":827:939  function current(Counter storage counter) internal view returns (uint256) {... */\n      jump\n        /* \"contracts/Marketplace.sol\":5535:5553  s_nftIds.current() */\n    tag_129:\n        /* \"contracts/Marketplace.sol\":5584:5765  Item(... */\n      0x40\n      dup1\n      mload\n      0xe0\n      dup2\n      add\n      dup3\n      mstore\n      dup3\n      dup2\n      mstore\n      sub(shl(0xa0, 0x01), 0x01)\n      dup1\n      dup9\n      and\n      0x20\n      dup1\n      dup5\n      add\n      dup3\n      dup2\n      mstore\n      dup5\n      dup7\n      add\n      dup11\n      dup2\n      mstore\n        /* \"contracts/Marketplace.sol\":5675:5685  msg.sender */\n      caller\n        /* \"contracts/Marketplace.sol\":5584:5765  Item(... */\n      0x60\n      dup8\n      add\n      dup2\n      dup2\n      mstore\n        /* \"contracts/Marketplace.sol\":5708:5712  this */\n      address\n        /* \"contracts/Marketplace.sol\":5584:5765  Item(... */\n      0x80\n      dup10\n      add\n      dup2\n      dup2\n      mstore\n      0xa0\n      dup11\n      add\n      dup15\n      dup2\n      mstore\n      0x00\n      0xc0\n      dup13\n      add\n      dup2\n      dup2\n      mstore\n        /* \"contracts/Marketplace.sol\":5566:5581  Items[newNftId] */\n      dup15\n      dup3\n      mstore\n        /* \"contracts/Marketplace.sol\":5566:5571  Items */\n      0x06\n        /* \"contracts/Marketplace.sol\":5566:5581  Items[newNftId] */\n      swap10\n      dup11\n      swap1\n      mstore\n      swap1\n      dup14\n      swap1\n      keccak256\n        /* \"contracts/Marketplace.sol\":5566:5765  Items[newNftId] = Item(... */\n      swap12\n      mload\n      dup13\n      sstore\n      swap7\n      mload\n        /* \"contracts/Marketplace.sol\":5584:5765  Item(... */\n      0x01\n        /* \"contracts/Marketplace.sol\":5566:5765  Items[newNftId] = Item(... */\n      dup13\n      add\n      dup1\n      sload\n      swap2\n      dup13\n      and\n      not(sub(shl(0xa0, 0x01), 0x01))\n      swap3\n      dup4\n      and\n      or\n      swap1\n      sstore\n      swap6\n      mload\n      0x02\n      dup13\n      add\n      sstore\n      swap3\n      mload\n      0x03\n      dup12\n      add\n      dup1\n      sload\n      swap2\n      dup12\n      and\n      swap2\n      dup8\n      and\n      swap2\n      swap1\n      swap2\n      or\n      swap1\n      sstore\n      mload\n      0x04\n      dup1\n      dup12\n      add\n      dup1\n      sload\n      swap3\n      swap1\n      swap11\n      and\n      swap2\n      swap1\n      swap6\n      and\n      or\n      swap1\n      swap8\n      sstore\n      mload\n      0x05\n      dup9\n      add\n      sstore\n      swap2\n      mload\n      swap6\n      swap1\n      swap3\n      add\n      dup1\n      sload\n      swap6\n      iszero\n      iszero\n      not(0xff)\n      swap1\n      swap7\n      and\n      swap6\n      swap1\n      swap6\n      or\n      swap1\n      swap5\n      sstore\n        /* \"contracts/Marketplace.sol\":5778:5848  IERC721(_nftAddress).transferFrom(msg.sender, address(this), _tokenId) */\n      swap4\n      mload\n      shl(0xe0, 0x23b872dd)\n      dup2\n      mstore\n        /* \"contracts/Marketplace.sol\":5519:5553  uint newNftId = s_nftIds.current() */\n      swap5\n      swap6\n      pop\n        /* \"contracts/Marketplace.sol\":5584:5765  Item(... */\n      swap4\n        /* \"contracts/Marketplace.sol\":5778:5811  IERC721(_nftAddress).transferFrom */\n      0x23b872dd\n      swap4\n        /* \"contracts/Marketplace.sol\":5778:5848  IERC721(_nftAddress).transferFrom(msg.sender, address(this), _tokenId) */\n      tag_130\n      swap4\n        /* \"contracts/Marketplace.sol\":5675:5685  msg.sender */\n      swap3\n        /* \"contracts/Marketplace.sol\":5708:5712  this */\n      swap2\n        /* \"contracts/Marketplace.sol\":5652:5660  _tokenId */\n      dup10\n      swap2\n        /* \"contracts/Marketplace.sol\":5778:5848  IERC721(_nftAddress).transferFrom(msg.sender, address(this), _tokenId) */\n      add\n      tag_122\n      jump\t// in\n    tag_130:\n      0x00\n      mload(0x40)\n      dup1\n      dup4\n      sub\n      dup2\n      0x00\n      dup8\n      dup1\n      extcodesize\n      iszero\n      dup1\n      iszero\n      tag_131\n      jumpi\n      0x00\n      dup1\n      revert\n    tag_131:\n      pop\n      gas\n      call\n      iszero\n      dup1\n      iszero\n      tag_133\n      jumpi\n      returndatasize\n      0x00\n      dup1\n      returndatacopy\n      revert(0x00, returndatasize)\n    tag_133:\n      pop\n      pop\n      pop\n      pop\n        /* \"contracts/Marketplace.sol\":5938:5946  _tokenId */\n      dup3\n        /* \"contracts/Marketplace.sol\":5912:5923  _nftAddress */\n      dup5\n      sub(shl(0xa0, 0x01), 0x01)\n        /* \"contracts/Marketplace.sol\":5866:6051  ItemList(... */\n      and\n        /* \"contracts/Marketplace.sol\":5889:5897  newNftId */\n      dup3\n        /* \"contracts/Marketplace.sol\":5866:6051  ItemList(... */\n      0xf8551f8be25732324fcda411a126b3c851e038b0ff8d097a3951dded3772f43f\n        /* \"contracts/Marketplace.sol\":5961:5971  msg.sender */\n      caller\n        /* \"contracts/Marketplace.sol\":5994:5998  this */\n      address\n        /* \"contracts/Marketplace.sol\":6014:6020  _price */\n      dup8\n        /* \"contracts/Marketplace.sol\":6035:6040  false */\n      0x00\n        /* \"contracts/Marketplace.sol\":5866:6051  ItemList(... */\n      mload(0x40)\n      tag_134\n      swap5\n      swap4\n      swap3\n      swap2\n      swap1\n      tag_135\n      jump\t// in\n    tag_134:\n      mload(0x40)\n      dup1\n      swap2\n      sub\n      swap1\n      log4\n        /* \"contracts/Marketplace.sol\":6215:6227  tradingToken */\n      sload(0x05)\n        /* \"contracts/Marketplace.sol\":6237:6242  owner */\n      sload(0x03)\n        /* \"contracts/Marketplace.sol\":6244:6256  listingPrice */\n      0x04\n      dup1\n      sload\n        /* \"contracts/Marketplace.sol\":6215:6257  tradingToken.transfer(owner, listingPrice) */\n      mload(0x40)\n      shl(0xe0, 0xa9059cbb)\n      dup2\n      mstore\n      sub(shl(0xa0, 0x01), 0x01)\n        /* \"contracts/Marketplace.sol\":6237:6242  owner */\n      swap4\n      dup5\n      and\n        /* \"contracts/Marketplace.sol\":6215:6257  tradingToken.transfer(owner, listingPrice) */\n      swap3\n      dup2\n      add\n        /* \"#utility.yul\":6556:6607   */\n      swap3\n      swap1\n      swap3\n      mstore\n        /* \"#utility.yul\":6623:6641   */\n      0x24\n      dup3\n      add\n        /* \"#utility.yul\":6616:6650   */\n      mstore\n        /* \"contracts/Marketplace.sol\":6215:6227  tradingToken */\n      swap2\n      and\n      swap1\n        /* \"contracts/Marketplace.sol\":6215:6236  tradingToken.transfer */\n      0xa9059cbb\n      swap1\n        /* \"#utility.yul\":6529:6547   */\n      0x44\n      add\n        /* \"contracts/Marketplace.sol\":6215:6257  tradingToken.transfer(owner, listingPrice) */\n    tag_136:\n      0x20\n      mload(0x40)\n      dup1\n      dup4\n      sub\n      dup2\n      0x00\n      dup8\n      gas\n      call\n      iszero\n      dup1\n      iszero\n      tag_139\n      jumpi\n      returndatasize\n      0x00\n      dup1\n      returndatacopy\n      revert(0x00, returndatasize)\n    tag_139:\n      pop\n      pop\n      pop\n      pop\n      mload(0x40)\n      returndatasize\n      not(0x1f)\n      0x1f\n      dup3\n      add\n      and\n      dup3\n      add\n      dup1\n      0x40\n      mstore\n      pop\n      dup2\n      add\n      swap1\n      tag_140\n      swap2\n      swap1\n      tag_126\n      jump\t// in\n    tag_140:\n      pop\n        /* \"contracts/Marketplace.sol\":4771:6286  {... */\n      pop\n        /* \"@openzeppelin/contracts/security/ReentrancyGuard.sol\":2303:2323  _nonReentrantAfter() */\n      tag_141\n        /* \"@openzeppelin/contracts/security/ReentrancyGuard.sol\":1716:1717  1 */\n      0x01\n        /* \"@openzeppelin/contracts/security/ReentrancyGuard.sol\":2809:2816  _status */\n      0x00\n        /* \"@openzeppelin/contracts/security/ReentrancyGuard.sol\":2809:2831  _status = _NOT_ENTERED */\n      sstore\n        /* \"@openzeppelin/contracts/security/ReentrancyGuard.sol\":2629:2838  function _nonReentrantAfter() private {... */\n      jump\n        /* \"@openzeppelin/contracts/security/ReentrancyGuard.sol\":2303:2323  _nonReentrantAfter() */\n    tag_141:\n        /* \"contracts/Marketplace.sol\":4644:6286  function listItem(... */\n      pop\n      pop\n      pop\n      jump\t// out\n        /* \"contracts/Marketplace.sol\":7586:8962  function resellItem(... */\n    tag_39:\n        /* \"@openzeppelin/contracts/security/ReentrancyGuard.sol\":2261:2282  _nonReentrantBefore() */\n      tag_144\n        /* \"@openzeppelin/contracts/security/ReentrancyGuard.sol\":2261:2280  _nonReentrantBefore */\n      tag_107\n        /* \"@openzeppelin/contracts/security/ReentrancyGuard.sol\":2261:2282  _nonReentrantBefore() */\n      jump\t// in\n    tag_144:\n        /* \"contracts/Marketplace.sol\":7729:7743  Items[_itemId] */\n      0x00\n      dup3\n      dup2\n      mstore\n        /* \"contracts/Marketplace.sol\":7729:7734  Items */\n      0x06\n        /* \"contracts/Marketplace.sol\":7729:7743  Items[_itemId] */\n      0x20\n      mstore\n      0x40\n      swap1\n      keccak256\n        /* \"contracts/Marketplace.sol\":7729:7749  Items[_itemId].owner */\n      0x04\n      add\n      sload\n      sub(shl(0xa0, 0x01), 0x01)\n      and\n        /* \"contracts/Marketplace.sol\":7753:7763  msg.sender */\n      caller\n        /* \"contracts/Marketplace.sol\":7729:7763  Items[_itemId].owner != msg.sender */\n      eq\n        /* \"contracts/Marketplace.sol\":7725:7877  if (Items[_itemId].owner != msg.sender) {... */\n      tag_146\n      jumpi\n        /* \"contracts/Marketplace.sol\":7787:7865  NFTMarketplace__YouAreNotOwnerOfThisItem(\"You are not the owner of this item\") */\n      mload(0x40)\n      shl(0xe0, 0x47ad5e4f)\n      dup2\n      mstore\n      0x04\n      add\n      tag_103\n      swap1\n      tag_104\n      jump\t// in\n        /* \"contracts/Marketplace.sol\":7725:7877  if (Items[_itemId].owner != msg.sender) {... */\n    tag_146:\n        /* \"contracts/Marketplace.sol\":8135:8147  listingPrice */\n      0x04\n      dup1\n      sload\n        /* \"contracts/Marketplace.sol\":8083:8095  tradingToken */\n      sload(0x05)\n        /* \"contracts/Marketplace.sol\":8083:8132  tradingToken.allowance(msg.sender, address(this)) */\n      mload(0x40)\n      shl(0xe1, 0x6eb1769f)\n      dup2\n      mstore\n        /* \"contracts/Marketplace.sol\":8106:8116  msg.sender */\n      caller\n        /* \"contracts/Marketplace.sol\":8083:8132  tradingToken.allowance(msg.sender, address(this)) */\n      swap4\n      dup2\n      add\n        /* \"#utility.yul\":4585:4636   */\n      swap4\n      swap1\n      swap4\n      mstore\n        /* \"contracts/Marketplace.sol\":8126:8130  this */\n      address\n        /* \"#utility.yul\":4652:4670   */\n      0x24\n      dup5\n      add\n        /* \"#utility.yul\":4645:4705   */\n      mstore\n        /* \"contracts/Marketplace.sol\":8135:8147  listingPrice */\n      swap1\n      swap2\n      sub(shl(0xa0, 0x01), 0x01)\n        /* \"contracts/Marketplace.sol\":8083:8095  tradingToken */\n      swap1\n      swap2\n      and\n      swap1\n        /* \"contracts/Marketplace.sol\":8083:8105  tradingToken.allowance */\n      0xdd62ed3e\n      swap1\n        /* \"#utility.yul\":4558:4576   */\n      0x44\n      add\n        /* \"contracts/Marketplace.sol\":8083:8132  tradingToken.allowance(msg.sender, address(this)) */\n      0x20\n      mload(0x40)\n      dup1\n      dup4\n      sub\n      dup2\n      dup7\n      gas\n      staticcall\n      iszero\n      dup1\n      iszero\n      tag_150\n      jumpi\n      returndatasize\n      0x00\n      dup1\n      returndatacopy\n      revert(0x00, returndatasize)\n    tag_150:\n      pop\n      pop\n      pop\n      pop\n      mload(0x40)\n      returndatasize\n      not(0x1f)\n      0x1f\n      dup3\n      add\n      and\n      dup3\n      add\n      dup1\n      0x40\n      mstore\n      pop\n      dup2\n      add\n      swap1\n      tag_151\n      swap2\n      swap1\n      tag_117\n      jump\t// in\n    tag_151:\n        /* \"contracts/Marketplace.sol\":8083:8147  tradingToken.allowance(msg.sender, address(this)) < listingPrice */\n      lt\n        /* \"contracts/Marketplace.sol\":8079:8247  if (tradingToken.allowance(msg.sender, address(this)) < listingPrice) {... */\n      iszero\n      tag_152\n      jumpi\n        /* \"contracts/Marketplace.sol\":8171:8235  NFTMarketplace__ListingPriceIsNotMet(\"Listing price is not met\") */\n      mload(0x40)\n      shl(0xe1, 0x03f36f1b)\n      dup2\n      mstore\n        /* \"#utility.yul\":5107:5109   */\n      0x20\n        /* \"contracts/Marketplace.sol\":8171:8235  NFTMarketplace__ListingPriceIsNotMet(\"Listing price is not met\") */\n      0x04\n      dup3\n      add\n        /* \"#utility.yul\":5089:5110   */\n      mstore\n        /* \"#utility.yul\":5146:5148   */\n      0x18\n        /* \"#utility.yul\":5126:5144   */\n      0x24\n      dup3\n      add\n        /* \"#utility.yul\":5119:5149   */\n      mstore\n      shl(0x42, 0x131a5cdd1a5b99c81c1c9a58d9481a5cc81b9bdd081b595d)\n        /* \"#utility.yul\":5165:5183   */\n      0x44\n      dup3\n      add\n        /* \"#utility.yul\":5158:5212   */\n      mstore\n        /* \"#utility.yul\":5229:5247   */\n      0x64\n      add\n        /* \"contracts/Marketplace.sol\":8171:8235  NFTMarketplace__ListingPriceIsNotMet(\"Listing price is not met\") */\n      tag_103\n        /* \"#utility.yul\":4905:5253   */\n      jump\n        /* \"contracts/Marketplace.sol\":8079:8247  if (tradingToken.allowance(msg.sender, address(this)) < listingPrice) {... */\n    tag_152:\n        /* \"contracts/Marketplace.sol\":8329:8341  tradingToken */\n      sload(0x05)\n        /* \"contracts/Marketplace.sol\":8382:8394  listingPrice */\n      0x04\n      dup1\n      sload\n        /* \"contracts/Marketplace.sol\":8329:8395  tradingToken.transferFrom(msg.sender, address(this), listingPrice) */\n      mload(0x40)\n      shl(0xe0, 0x23b872dd)\n      dup2\n      mstore\n      sub(shl(0xa0, 0x01), 0x01)\n        /* \"contracts/Marketplace.sol\":8329:8341  tradingToken */\n      swap1\n      swap4\n      and\n      swap3\n        /* \"contracts/Marketplace.sol\":8329:8354  tradingToken.transferFrom */\n      0x23b872dd\n      swap3\n        /* \"contracts/Marketplace.sol\":8329:8395  tradingToken.transferFrom(msg.sender, address(this), listingPrice) */\n      tag_154\n      swap3\n        /* \"contracts/Marketplace.sol\":8355:8365  msg.sender */\n      caller\n      swap3\n        /* \"contracts/Marketplace.sol\":8375:8379  this */\n      address\n      swap3\n        /* \"contracts/Marketplace.sol\":8329:8395  tradingToken.transferFrom(msg.sender, address(this), listingPrice) */\n      add\n      tag_122\n      jump\t// in\n    tag_154:\n      0x20\n      mload(0x40)\n      dup1\n      dup4\n      sub\n      dup2\n      0x00\n      dup8\n      gas\n      call\n      iszero\n      dup1\n      iszero\n      tag_156\n      jumpi\n      returndatasize\n      0x00\n      dup1\n      returndatacopy\n      revert(0x00, returndatasize)\n    tag_156:\n      pop\n      pop\n      pop\n      pop\n      mload(0x40)\n      returndatasize\n      not(0x1f)\n      0x1f\n      dup3\n      add\n      and\n      dup3\n      add\n      dup1\n      0x40\n      mstore\n      pop\n      dup2\n      add\n      swap1\n      tag_157\n      swap2\n      swap1\n      tag_126\n      jump\t// in\n    tag_157:\n      pop\n        /* \"contracts/Marketplace.sol\":8428:8433  false */\n      0x00\n        /* \"contracts/Marketplace.sol\":8406:8420  Items[_itemId] */\n      dup3\n      dup2\n      mstore\n        /* \"contracts/Marketplace.sol\":8406:8411  Items */\n      0x06\n        /* \"contracts/Marketplace.sol\":8406:8420  Items[_itemId] */\n      0x20\n      dup2\n      swap1\n      mstore\n      0x40\n      swap1\n      swap2\n      keccak256\n        /* \"contracts/Marketplace.sol\":8406:8425  Items[_itemId].sold */\n      swap1\n      dup2\n      add\n        /* \"contracts/Marketplace.sol\":8406:8433  Items[_itemId].sold = false */\n      dup1\n      sload\n      not(0xff)\n      and\n      swap1\n      sstore\n        /* \"contracts/Marketplace.sol\":8444:8464  Items[_itemId].price */\n      0x05\n      dup2\n      add\n        /* \"contracts/Marketplace.sol\":8444:8473  Items[_itemId].price = _price */\n      dup3\n      swap1\n      sstore\n        /* \"contracts/Marketplace.sol\":8484:8505  Items[_itemId].seller */\n      0x03\n      dup2\n      add\n        /* \"contracts/Marketplace.sol\":8484:8518  Items[_itemId].seller = msg.sender */\n      dup1\n      sload\n      not(sub(shl(0xa0, 0x01), 0x01))\n      swap1\n      dup2\n      and\n        /* \"contracts/Marketplace.sol\":8508:8518  msg.sender */\n      caller\n        /* \"contracts/Marketplace.sol\":8484:8518  Items[_itemId].seller = msg.sender */\n      or\n      swap1\n      swap2\n      sstore\n        /* \"contracts/Marketplace.sol\":8529:8549  Items[_itemId].owner */\n      0x04\n      swap1\n      swap2\n      add\n        /* \"contracts/Marketplace.sol\":8529:8565  Items[_itemId].owner = address(this) */\n      dup1\n      sload\n      swap1\n      swap2\n      and\n        /* \"contracts/Marketplace.sol\":8560:8564  this */\n      address\n        /* \"contracts/Marketplace.sol\":8529:8565  Items[_itemId].owner = address(this) */\n      or\n      swap1\n      sstore\n        /* \"contracts/Marketplace.sol\":8576:8597  s_nftSold.decrement() */\n      tag_158\n      0x02\n        /* \"contracts/Marketplace.sol\":8576:8595  s_nftSold.decrement */\n      tag_159\n        /* \"contracts/Marketplace.sol\":8576:8597  s_nftSold.decrement() */\n      jump\t// in\n    tag_158:\n        /* \"contracts/Marketplace.sol\":8610:8623  uint _tokenId */\n      0x00\n        /* \"contracts/Marketplace.sol\":8626:8640  Items[_itemId] */\n      dup3\n      dup2\n      mstore\n        /* \"contracts/Marketplace.sol\":8626:8631  Items */\n      0x06\n        /* \"contracts/Marketplace.sol\":8626:8640  Items[_itemId] */\n      0x20\n      mstore\n      0x40\n      swap1\n      dup2\n      swap1\n      keccak256\n        /* \"contracts/Marketplace.sol\":8626:8648  Items[_itemId].tokenId */\n      0x02\n      add\n      sload\n        /* \"contracts/Marketplace.sol\":8659:8729  IERC721(_nftAddress).transferFrom(msg.sender, address(this), _tokenId) */\n      swap1\n      mload\n      shl(0xe0, 0x23b872dd)\n      dup2\n      mstore\n      sub(shl(0xa0, 0x01), 0x01)\n        /* \"contracts/Marketplace.sol\":8659:8692  IERC721(_nftAddress).transferFrom */\n      dup6\n      and\n      swap1\n      0x23b872dd\n      swap1\n        /* \"contracts/Marketplace.sol\":8659:8729  IERC721(_nftAddress).transferFrom(msg.sender, address(this), _tokenId) */\n      tag_160\n      swap1\n        /* \"contracts/Marketplace.sol\":8693:8703  msg.sender */\n      caller\n      swap1\n        /* \"contracts/Marketplace.sol\":8713:8717  this */\n      address\n      swap1\n        /* \"contracts/Marketplace.sol\":8626:8648  Items[_itemId].tokenId */\n      dup7\n      swap1\n        /* \"contracts/Marketplace.sol\":8659:8729  IERC721(_nftAddress).transferFrom(msg.sender, address(this), _tokenId) */\n      0x04\n      add\n      tag_122\n      jump\t// in\n    tag_160:\n      0x00\n      mload(0x40)\n      dup1\n      dup4\n      sub\n      dup2\n      0x00\n      dup8\n      dup1\n      extcodesize\n      iszero\n      dup1\n      iszero\n      tag_161\n      jumpi\n      0x00\n      dup1\n      revert\n    tag_161:\n      pop\n      gas\n      call\n      iszero\n      dup1\n      iszero\n      tag_163\n      jumpi\n      returndatasize\n      0x00\n      dup1\n      returndatacopy\n      revert(0x00, returndatasize)\n    tag_163:\n      pop\n      pop\n      pop\n      pop\n        /* \"contracts/Marketplace.sol\":8771:8779  _tokenId */\n      dup1\n        /* \"contracts/Marketplace.sol\":8758:8769  _nftAddress */\n      dup5\n      sub(shl(0xa0, 0x01), 0x01)\n        /* \"contracts/Marketplace.sol\":8747:8822  ItemResell(_nftAddress, _tokenId, msg.sender, address(this), _price, false) */\n      and\n      0x052679d6cf973dff612de0d67ad1642e7b8b401dcb1c41ea86bf35b82ac6bf88\n        /* \"contracts/Marketplace.sol\":8781:8791  msg.sender */\n      caller\n        /* \"contracts/Marketplace.sol\":8801:8805  this */\n      address\n        /* \"contracts/Marketplace.sol\":8808:8814  _price */\n      dup7\n        /* \"contracts/Marketplace.sol\":8816:8821  false */\n      0x00\n        /* \"contracts/Marketplace.sol\":8747:8822  ItemResell(_nftAddress, _tokenId, msg.sender, address(this), _price, false) */\n      mload(0x40)\n      tag_164\n      swap5\n      swap4\n      swap3\n      swap2\n      swap1\n      tag_135\n      jump\t// in\n    tag_164:\n      mload(0x40)\n      dup1\n      swap2\n      sub\n      swap1\n      log3\n        /* \"contracts/Marketplace.sol\":8891:8903  tradingToken */\n      sload(0x05)\n        /* \"contracts/Marketplace.sol\":8913:8918  owner */\n      sload(0x03)\n        /* \"contracts/Marketplace.sol\":8920:8932  listingPrice */\n      0x04\n      dup1\n      sload\n        /* \"contracts/Marketplace.sol\":8891:8933  tradingToken.transfer(owner, listingPrice) */\n      mload(0x40)\n      shl(0xe0, 0xa9059cbb)\n      dup2\n      mstore\n      sub(shl(0xa0, 0x01), 0x01)\n        /* \"contracts/Marketplace.sol\":8913:8918  owner */\n      swap4\n      dup5\n      and\n        /* \"contracts/Marketplace.sol\":8891:8933  tradingToken.transfer(owner, listingPrice) */\n      swap3\n      dup2\n      add\n        /* \"#utility.yul\":6556:6607   */\n      swap3\n      swap1\n      swap3\n      mstore\n        /* \"#utility.yul\":6623:6641   */\n      0x24\n      dup3\n      add\n        /* \"#utility.yul\":6616:6650   */\n      mstore\n        /* \"contracts/Marketplace.sol\":8891:8903  tradingToken */\n      swap2\n      and\n      swap1\n        /* \"contracts/Marketplace.sol\":8891:8912  tradingToken.transfer */\n      0xa9059cbb\n      swap1\n        /* \"#utility.yul\":6529:6547   */\n      0x44\n      add\n        /* \"contracts/Marketplace.sol\":8891:8933  tradingToken.transfer(owner, listingPrice) */\n      tag_136\n        /* \"#utility.yul\":6374:6656   */\n      jump\n        /* \"contracts/Marketplace.sol\":6311:7563  function buyItem(address _nftAddress, uint256 _itemId)... */\n    tag_43:\n        /* \"@openzeppelin/contracts/security/ReentrancyGuard.sol\":2261:2282  _nonReentrantBefore() */\n      tag_171\n        /* \"@openzeppelin/contracts/security/ReentrancyGuard.sol\":2261:2280  _nonReentrantBefore */\n      tag_107\n        /* \"@openzeppelin/contracts/security/ReentrancyGuard.sol\":2261:2282  _nonReentrantBefore() */\n      jump\t// in\n    tag_171:\n        /* \"contracts/Marketplace.sol\":6422:6435  uint256 price */\n      0x00\n        /* \"contracts/Marketplace.sol\":6438:6452  Items[_itemId] */\n      dup2\n      dup2\n      mstore\n        /* \"contracts/Marketplace.sol\":6438:6443  Items */\n      0x06\n        /* \"contracts/Marketplace.sol\":6438:6452  Items[_itemId] */\n      0x20\n      mstore\n      0x40\n      swap1\n      dup2\n      swap1\n      keccak256\n        /* \"contracts/Marketplace.sol\":6438:6458  Items[_itemId].price */\n      0x05\n      dup1\n      dup3\n      add\n      sload\n        /* \"contracts/Marketplace.sol\":6487:6509  Items[_itemId].tokenId */\n      0x02\n      dup4\n      add\n      sload\n        /* \"contracts/Marketplace.sol\":6537:6558  Items[_itemId].seller */\n      0x03\n      swap1\n      swap4\n      add\n      sload\n        /* \"contracts/Marketplace.sol\":6745:6757  tradingToken */\n      swap2\n      sload\n        /* \"contracts/Marketplace.sol\":6745:6794  tradingToken.allowance(msg.sender, address(this)) */\n      swap4\n      mload\n      shl(0xe1, 0x6eb1769f)\n      dup2\n      mstore\n        /* \"contracts/Marketplace.sol\":6768:6778  msg.sender */\n      caller\n        /* \"contracts/Marketplace.sol\":6745:6794  tradingToken.allowance(msg.sender, address(this)) */\n      0x04\n      dup3\n      add\n        /* \"#utility.yul\":4585:4636   */\n      mstore\n        /* \"contracts/Marketplace.sol\":6788:6792  this */\n      address\n        /* \"#utility.yul\":4652:4670   */\n      0x24\n      dup3\n      add\n        /* \"#utility.yul\":4645:4705   */\n      mstore\n        /* \"contracts/Marketplace.sol\":6438:6458  Items[_itemId].price */\n      swap1\n      swap4\n      sub(shl(0xa0, 0x01), 0x01)\n        /* \"contracts/Marketplace.sol\":6537:6558  Items[_itemId].seller */\n      swap3\n      dup4\n      and\n      swap3\n        /* \"contracts/Marketplace.sol\":6438:6458  Items[_itemId].price */\n      dup6\n      swap3\n        /* \"contracts/Marketplace.sol\":6745:6757  tradingToken */\n      swap2\n      and\n      swap1\n        /* \"contracts/Marketplace.sol\":6745:6767  tradingToken.allowance */\n      0xdd62ed3e\n      swap1\n        /* \"#utility.yul\":4558:4576   */\n      0x44\n      add\n        /* \"contracts/Marketplace.sol\":6745:6794  tradingToken.allowance(msg.sender, address(this)) */\n      0x20\n      mload(0x40)\n      dup1\n      dup4\n      sub\n      dup2\n      dup7\n      gas\n      staticcall\n      iszero\n      dup1\n      iszero\n      tag_175\n      jumpi\n      returndatasize\n      0x00\n      dup1\n      returndatacopy\n      revert(0x00, returndatasize)\n    tag_175:\n      pop\n      pop\n      pop\n      pop\n      mload(0x40)\n      returndatasize\n      not(0x1f)\n      0x1f\n      dup3\n      add\n      and\n      dup3\n      add\n      dup1\n      0x40\n      mstore\n      pop\n      dup2\n      add\n      swap1\n      tag_176\n      swap2\n      swap1\n      tag_117\n      jump\t// in\n    tag_176:\n        /* \"contracts/Marketplace.sol\":6745:6802  tradingToken.allowance(msg.sender, address(this)) < price */\n      lt\n        /* \"contracts/Marketplace.sol\":6741:6902  if (tradingToken.allowance(msg.sender, address(this)) < price) {... */\n      iszero\n      tag_177\n      jumpi\n        /* \"contracts/Marketplace.sol\":6826:6890  NFTMarketplace__ListingPriceIsNotMet(\"Listing Price is not met\") */\n      mload(0x40)\n      shl(0xe1, 0x03f36f1b)\n      dup2\n      mstore\n        /* \"#utility.yul\":6863:6865   */\n      0x20\n        /* \"contracts/Marketplace.sol\":6826:6890  NFTMarketplace__ListingPriceIsNotMet(\"Listing Price is not met\") */\n      0x04\n      dup3\n      add\n        /* \"#utility.yul\":6845:6866   */\n      mstore\n        /* \"#utility.yul\":6902:6904   */\n      0x18\n        /* \"#utility.yul\":6882:6900   */\n      0x24\n      dup3\n      add\n        /* \"#utility.yul\":6875:6905   */\n      mstore\n        /* \"#utility.yul\":6941:6967   */\n      0x4c697374696e67205072696365206973206e6f74206d65740000000000000000\n        /* \"#utility.yul\":6921:6939   */\n      0x44\n      dup3\n      add\n        /* \"#utility.yul\":6914:6968   */\n      mstore\n        /* \"#utility.yul\":6985:7003   */\n      0x64\n      add\n        /* \"contracts/Marketplace.sol\":6826:6890  NFTMarketplace__ListingPriceIsNotMet(\"Listing Price is not met\") */\n      tag_103\n        /* \"#utility.yul\":6661:7009   */\n      jump\n        /* \"contracts/Marketplace.sol\":6741:6902  if (tradingToken.allowance(msg.sender, address(this)) < price) {... */\n    tag_177:\n        /* \"contracts/Marketplace.sol\":6984:6996  tradingToken */\n      sload(0x05)\n        /* \"contracts/Marketplace.sol\":6984:7043  tradingToken.transferFrom(msg.sender, address(this), price) */\n      mload(0x40)\n      shl(0xe0, 0x23b872dd)\n      dup2\n      mstore\n      sub(shl(0xa0, 0x01), 0x01)\n        /* \"contracts/Marketplace.sol\":6984:6996  tradingToken */\n      swap1\n      swap2\n      and\n      swap1\n        /* \"contracts/Marketplace.sol\":6984:7009  tradingToken.transferFrom */\n      0x23b872dd\n      swap1\n        /* \"contracts/Marketplace.sol\":6984:7043  tradingToken.transferFrom(msg.sender, address(this), price) */\n      tag_180\n      swap1\n        /* \"contracts/Marketplace.sol\":7010:7020  msg.sender */\n      caller\n      swap1\n        /* \"contracts/Marketplace.sol\":7030:7034  this */\n      address\n      swap1\n        /* \"contracts/Marketplace.sol\":7037:7042  price */\n      dup9\n      swap1\n        /* \"contracts/Marketplace.sol\":6984:7043  tradingToken.transferFrom(msg.sender, address(this), price) */\n      0x04\n      add\n      tag_122\n      jump\t// in\n    tag_180:\n      0x20\n      mload(0x40)\n      dup1\n      dup4\n      sub\n      dup2\n      0x00\n      dup8\n      gas\n      call\n      iszero\n      dup1\n      iszero\n      tag_182\n      jumpi\n      returndatasize\n      0x00\n      dup1\n      returndatacopy\n      revert(0x00, returndatasize)\n    tag_182:\n      pop\n      pop\n      pop\n      pop\n      mload(0x40)\n      returndatasize\n      not(0x1f)\n      0x1f\n      dup3\n      add\n      and\n      dup3\n      add\n      dup1\n      0x40\n      mstore\n      pop\n      dup2\n      add\n      swap1\n      tag_183\n      swap2\n      swap1\n      tag_126\n      jump\t// in\n    tag_183:\n      pop\n        /* \"contracts/Marketplace.sol\":7096:7165  IERC721(_nftAddress).transferFrom(address(this), msg.sender, tokenId) */\n      mload(0x40)\n      shl(0xe0, 0x23b872dd)\n      dup2\n      mstore\n      sub(shl(0xa0, 0x01), 0x01)\n        /* \"contracts/Marketplace.sol\":7096:7129  IERC721(_nftAddress).transferFrom */\n      dup7\n      and\n      swap1\n      0x23b872dd\n      swap1\n        /* \"contracts/Marketplace.sol\":7096:7165  IERC721(_nftAddress).transferFrom(address(this), msg.sender, tokenId) */\n      tag_184\n      swap1\n        /* \"contracts/Marketplace.sol\":7138:7142  this */\n      address\n      swap1\n        /* \"contracts/Marketplace.sol\":7145:7155  msg.sender */\n      caller\n      swap1\n        /* \"contracts/Marketplace.sol\":7157:7164  tokenId */\n      dup8\n      swap1\n        /* \"contracts/Marketplace.sol\":7096:7165  IERC721(_nftAddress).transferFrom(address(this), msg.sender, tokenId) */\n      0x04\n      add\n      tag_122\n      jump\t// in\n    tag_184:\n      0x00\n      mload(0x40)\n      dup1\n      dup4\n      sub\n      dup2\n      0x00\n      dup8\n      dup1\n      extcodesize\n      iszero\n      dup1\n      iszero\n      tag_185\n      jumpi\n      0x00\n      dup1\n      revert\n    tag_185:\n      pop\n      gas\n      call\n      iszero\n      dup1\n      iszero\n      tag_187\n      jumpi\n      returndatasize\n      0x00\n      dup1\n      returndatacopy\n      revert(0x00, returndatasize)\n    tag_187:\n      pop\n      pop\n        /* \"contracts/Marketplace.sol\":7176:7188  tradingToken */\n      sload(0x05)\n        /* \"contracts/Marketplace.sol\":7176:7212  tradingToken.transfer(seller, price) */\n      mload(0x40)\n      shl(0xe0, 0xa9059cbb)\n      dup2\n      mstore\n      sub(shl(0xa0, 0x01), 0x01)\n        /* \"#utility.yul\":6574:6606   */\n      dup6\n      dup2\n      and\n        /* \"contracts/Marketplace.sol\":7176:7212  tradingToken.transfer(seller, price) */\n      0x04\n      dup4\n      add\n        /* \"#utility.yul\":6556:6607   */\n      mstore\n        /* \"#utility.yul\":6623:6641   */\n      0x24\n      dup3\n      add\n        /* \"#utility.yul\":6616:6650   */\n      dup9\n      swap1\n      mstore\n        /* \"contracts/Marketplace.sol\":7176:7188  tradingToken */\n      swap1\n      swap2\n      and\n      swap3\n      pop\n        /* \"contracts/Marketplace.sol\":7176:7197  tradingToken.transfer */\n      0xa9059cbb\n      swap2\n      pop\n        /* \"#utility.yul\":6529:6547   */\n      0x44\n      add\n        /* \"contracts/Marketplace.sol\":7176:7212  tradingToken.transfer(seller, price) */\n      0x20\n      mload(0x40)\n      dup1\n      dup4\n      sub\n      dup2\n      0x00\n      dup8\n      gas\n      call\n      iszero\n      dup1\n      iszero\n      tag_191\n      jumpi\n      returndatasize\n      0x00\n      dup1\n      returndatacopy\n      revert(0x00, returndatasize)\n    tag_191:\n      pop\n      pop\n      pop\n      pop\n      mload(0x40)\n      returndatasize\n      not(0x1f)\n      0x1f\n      dup3\n      add\n      and\n      dup3\n      add\n      dup1\n      0x40\n      mstore\n      pop\n      dup2\n      add\n      swap1\n      tag_192\n      swap2\n      swap1\n      tag_126\n      jump\t// in\n    tag_192:\n      pop\n        /* \"contracts/Marketplace.sol\":7274:7288  Items[_itemId] */\n      0x00\n      dup5\n      dup2\n      mstore\n        /* \"contracts/Marketplace.sol\":7274:7279  Items */\n      0x06\n        /* \"contracts/Marketplace.sol\":7274:7288  Items[_itemId] */\n      0x20\n      dup2\n      swap1\n      mstore\n      0x40\n      swap1\n      swap2\n      keccak256\n        /* \"contracts/Marketplace.sol\":7274:7294  Items[_itemId].owner */\n      0x04\n      dup2\n      add\n        /* \"contracts/Marketplace.sol\":7274:7307  Items[_itemId].owner = msg.sender */\n      dup1\n      sload\n      not(sub(shl(0xa0, 0x01), 0x01))\n      and\n        /* \"contracts/Marketplace.sol\":7297:7307  msg.sender */\n      caller\n        /* \"contracts/Marketplace.sol\":7274:7307  Items[_itemId].owner = msg.sender */\n      or\n      swap1\n      sstore\n        /* \"contracts/Marketplace.sol\":7318:7337  Items[_itemId].sold */\n      add\n        /* \"contracts/Marketplace.sol\":7318:7344  Items[_itemId].sold = true */\n      dup1\n      sload\n      not(0xff)\n      and\n        /* \"contracts/Marketplace.sol\":7274:7307  Items[_itemId].owner = msg.sender */\n      0x01\n        /* \"contracts/Marketplace.sol\":7318:7344  Items[_itemId].sold = true */\n      or\n      swap1\n      sstore\n        /* \"contracts/Marketplace.sol\":7355:7376  s_nftSold.increment() */\n      tag_193\n        /* \"contracts/Marketplace.sol\":7355:7364  s_nftSold */\n      0x02\n        /* \"@openzeppelin/contracts/utils/Counters.sol\":1032:1051  counter._value += 1 */\n      dup1\n      sload\n        /* \"@openzeppelin/contracts/utils/Counters.sol\":1050:1051  1 */\n      0x01\n        /* \"@openzeppelin/contracts/utils/Counters.sol\":1032:1051  counter._value += 1 */\n      add\n      swap1\n      sstore\n        /* \"@openzeppelin/contracts/utils/Counters.sol\":945:1068  function increment(Counter storage counter) internal {... */\n      jump\n        /* \"contracts/Marketplace.sol\":7355:7376  s_nftSold.increment() */\n    tag_193:\n        /* \"contracts/Marketplace.sol\":7445:7452  tokenId */\n      dup2\n        /* \"contracts/Marketplace.sol\":7419:7430  _nftAddress */\n      dup6\n      sub(shl(0xa0, 0x01), 0x01)\n        /* \"contracts/Marketplace.sol\":7394:7555  ItemBought(... */\n      and\n      0x9a9f9faf9d964b2fb1888cdf05202baf5a1b99d45f7afd6a5e062ac544b3c150\n        /* \"contracts/Marketplace.sol\":7475:7479  this */\n      address\n        /* \"contracts/Marketplace.sol\":7495:7505  msg.sender */\n      caller\n        /* \"contracts/Marketplace.sol\":7520:7525  price */\n      dup8\n        /* \"contracts/Marketplace.sol\":7540:7544  true */\n      0x01\n        /* \"contracts/Marketplace.sol\":7394:7555  ItemBought(... */\n      mload(0x40)\n      tag_194\n      swap5\n      swap4\n      swap3\n      swap2\n      swap1\n      tag_135\n      jump\t// in\n    tag_194:\n      mload(0x40)\n      dup1\n      swap2\n      sub\n      swap1\n      log3\n        /* \"contracts/Marketplace.sol\":6411:7563  {... */\n      pop\n      pop\n      pop\n        /* \"@openzeppelin/contracts/security/ReentrancyGuard.sol\":2303:2323  _nonReentrantAfter() */\n      tag_195\n        /* \"@openzeppelin/contracts/security/ReentrancyGuard.sol\":1716:1717  1 */\n      0x01\n        /* \"@openzeppelin/contracts/security/ReentrancyGuard.sol\":2809:2816  _status */\n      0x00\n        /* \"@openzeppelin/contracts/security/ReentrancyGuard.sol\":2809:2831  _status = _NOT_ENTERED */\n      sstore\n        /* \"@openzeppelin/contracts/security/ReentrancyGuard.sol\":2629:2838  function _nonReentrantAfter() private {... */\n      jump\n        /* \"@openzeppelin/contracts/security/ReentrancyGuard.sol\":2303:2323  _nonReentrantAfter() */\n    tag_195:\n        /* \"contracts/Marketplace.sol\":6311:7563  function buyItem(address _nftAddress, uint256 _itemId)... */\n      pop\n      pop\n      jump\t// out\n        /* \"contracts/Marketplace.sol\":4497:4615  function getParticularItem(uint256 _itemId) external view returns(Item memory){... */\n    tag_46:\n        /* \"contracts/Marketplace.sol\":4563:4574  Item memory */\n      tag_196\n      tag_66\n      jump\t// in\n    tag_196:\n      pop\n        /* \"contracts/Marketplace.sol\":4593:4607  Items[_itemId] */\n      0x00\n      swap1\n      dup2\n      mstore\n        /* \"contracts/Marketplace.sol\":4593:4598  Items */\n      0x06\n        /* \"contracts/Marketplace.sol\":4593:4607  Items[_itemId] */\n      0x20\n      dup2\n      dup2\n      mstore\n      0x40\n      swap3\n      dup4\n      swap1\n      keccak256\n        /* \"contracts/Marketplace.sol\":4586:4607  return Items[_itemId] */\n      dup4\n      mload\n      0xe0\n      dup2\n      add\n      dup6\n      mstore\n      dup2\n      sload\n      dup2\n      mstore\n      0x01\n      dup3\n      add\n      sload\n      sub(shl(0xa0, 0x01), 0x01)\n      swap1\n      dup2\n      and\n      swap4\n      dup3\n      add\n      swap4\n      swap1\n      swap4\n      mstore\n      0x02\n      dup3\n      add\n      sload\n      swap5\n      dup2\n      add\n      swap5\n      swap1\n      swap5\n      mstore\n      0x03\n      dup2\n      add\n      sload\n      dup3\n      and\n      0x60\n      dup6\n      add\n      mstore\n      0x04\n      dup2\n      add\n      sload\n      swap1\n      swap2\n      and\n      0x80\n      dup5\n      add\n      mstore\n      0x05\n      dup2\n      add\n      sload\n      0xa0\n      dup5\n      add\n      mstore\n      add\n      sload\n      0xff\n      and\n      iszero\n      iszero\n      0xc0\n      dup3\n      add\n      mstore\n      swap1\n        /* \"contracts/Marketplace.sol\":4497:4615  function getParticularItem(uint256 _itemId) external view returns(Item memory){... */\n      jump\t// out\n        /* \"contracts/Marketplace.sol\":3704:4489  function getSellerListedItems() external view returns (Item[] memory) {... */\n    tag_50:\n        /* \"contracts/Marketplace.sol\":3759:3772  Item[] memory */\n      0x60\n        /* \"contracts/Marketplace.sol\":3785:3806  uint totalListedItems */\n      0x00\n        /* \"contracts/Marketplace.sol\":3809:3827  s_nftIds.current() */\n      tag_199\n        /* \"contracts/Marketplace.sol\":3809:3817  s_nftIds */\n      0x01\n        /* \"@openzeppelin/contracts/utils/Counters.sol\":918:932  counter._value */\n      sload\n      swap1\n        /* \"@openzeppelin/contracts/utils/Counters.sol\":827:939  function current(Counter storage counter) internal view returns (uint256) {... */\n      jump\n        /* \"contracts/Marketplace.sol\":3809:3827  s_nftIds.current() */\n    tag_199:\n        /* \"contracts/Marketplace.sol\":3785:3827  uint totalListedItems = s_nftIds.current() */\n      swap1\n      pop\n        /* \"contracts/Marketplace.sol\":3838:3852  uint itemCount */\n      0x00\n        /* \"contracts/Marketplace.sol\":3867:3884  uint currentIndex */\n      dup1\n        /* \"contracts/Marketplace.sol\":3906:3915  uint256 i */\n      0x00\n        /* \"contracts/Marketplace.sol\":3901:4062  for (uint256 i = 0; i < totalListedItems; i++) {... */\n    tag_200:\n        /* \"contracts/Marketplace.sol\":3925:3941  totalListedItems */\n      dup4\n        /* \"contracts/Marketplace.sol\":3921:3922  i */\n      dup2\n        /* \"contracts/Marketplace.sol\":3921:3941  i < totalListedItems */\n      lt\n        /* \"contracts/Marketplace.sol\":3901:4062  for (uint256 i = 0; i < totalListedItems; i++) {... */\n      iszero\n      tag_201\n      jumpi\n        /* \"contracts/Marketplace.sol\":3990:4000  msg.sender */\n      caller\n        /* \"contracts/Marketplace.sol\":3967:3972  Items */\n      0x06\n        /* \"contracts/Marketplace.sol\":3967:3979  Items[i + 1] */\n      0x00\n        /* \"contracts/Marketplace.sol\":3973:3978  i + 1 */\n      tag_203\n        /* \"contracts/Marketplace.sol\":3973:3974  i */\n      dup5\n        /* \"contracts/Marketplace.sol\":3977:3978  1 */\n      0x01\n        /* \"contracts/Marketplace.sol\":3973:3978  i + 1 */\n      tag_71\n      jump\t// in\n    tag_203:\n        /* \"contracts/Marketplace.sol\":3967:3979  Items[i + 1] */\n      dup2\n      mstore\n      0x20\n      dup2\n      add\n      swap2\n      swap1\n      swap2\n      mstore\n      0x40\n      add\n      0x00\n      keccak256\n        /* \"contracts/Marketplace.sol\":3967:3986  Items[i + 1].seller */\n      0x03\n      add\n      sload\n      sub(shl(0xa0, 0x01), 0x01)\n      and\n        /* \"contracts/Marketplace.sol\":3967:4000  Items[i + 1].seller == msg.sender */\n      sub\n        /* \"contracts/Marketplace.sol\":3963:4051  if (Items[i + 1].seller == msg.sender) {... */\n      tag_204\n      jumpi\n        /* \"contracts/Marketplace.sol\":4021:4035  itemCount += 1 */\n      tag_205\n        /* \"contracts/Marketplace.sol\":4034:4035  1 */\n      0x01\n        /* \"contracts/Marketplace.sol\":4021:4035  itemCount += 1 */\n      dup5\n      tag_71\n      jump\t// in\n    tag_205:\n      swap3\n      pop\n        /* \"contracts/Marketplace.sol\":3963:4051  if (Items[i + 1].seller == msg.sender) {... */\n    tag_204:\n        /* \"contracts/Marketplace.sol\":3943:3946  i++ */\n      0x01\n      add\n        /* \"contracts/Marketplace.sol\":3901:4062  for (uint256 i = 0; i < totalListedItems; i++) {... */\n      jump(tag_200)\n    tag_201:\n      pop\n        /* \"contracts/Marketplace.sol\":4074:4093  Item[] memory items */\n      0x00\n        /* \"contracts/Marketplace.sol\":4107:4116  itemCount */\n      dup3\n        /* \"contracts/Marketplace.sol\":4096:4117  new Item[](itemCount) */\n      0xffffffffffffffff\n      dup2\n      gt\n      iszero\n      tag_207\n      jumpi\n      tag_207\n      tag_62\n      jump\t// in\n    tag_207:\n      mload(0x40)\n      swap1\n      dup1\n      dup3\n      mstore\n      dup1\n      0x20\n      mul\n      0x20\n      add\n      dup3\n      add\n      0x40\n      mstore\n      dup1\n      iszero\n      tag_208\n      jumpi\n      dup2\n      0x20\n      add\n    tag_209:\n      tag_210\n      tag_66\n      jump\t// in\n    tag_210:\n      dup2\n      mstore\n      0x20\n      add\n      swap1\n      0x01\n      swap1\n      sub\n      swap1\n      dup2\n      tag_209\n      jumpi\n      swap1\n      pop\n    tag_208:\n      pop\n        /* \"contracts/Marketplace.sol\":4074:4117  Item[] memory items = new Item[](itemCount) */\n      swap1\n      pop\n        /* \"contracts/Marketplace.sol\":4133:4139  uint i */\n      0x00\n        /* \"contracts/Marketplace.sol\":4128:4457  for (uint i = 0; i < totalListedItems; i++) {... */\n    tag_211:\n        /* \"contracts/Marketplace.sol\":4149:4165  totalListedItems */\n      dup5\n        /* \"contracts/Marketplace.sol\":4145:4146  i */\n      dup2\n        /* \"contracts/Marketplace.sol\":4145:4165  i < totalListedItems */\n      lt\n        /* \"contracts/Marketplace.sol\":4128:4457  for (uint i = 0; i < totalListedItems; i++) {... */\n      iszero\n      tag_68\n      jumpi\n        /* \"contracts/Marketplace.sol\":4214:4224  msg.sender */\n      caller\n        /* \"contracts/Marketplace.sol\":4191:4196  Items */\n      0x06\n        /* \"contracts/Marketplace.sol\":4191:4203  Items[i + 1] */\n      0x00\n        /* \"contracts/Marketplace.sol\":4197:4202  i + 1 */\n      tag_214\n        /* \"contracts/Marketplace.sol\":4197:4198  i */\n      dup5\n        /* \"contracts/Marketplace.sol\":4201:4202  1 */\n      0x01\n        /* \"contracts/Marketplace.sol\":4197:4202  i + 1 */\n      tag_71\n      jump\t// in\n    tag_214:\n        /* \"contracts/Marketplace.sol\":4191:4203  Items[i + 1] */\n      dup2\n      mstore\n      0x20\n      dup2\n      add\n      swap2\n      swap1\n      swap2\n      mstore\n      0x40\n      add\n      0x00\n      keccak256\n        /* \"contracts/Marketplace.sol\":4191:4210  Items[i + 1].seller */\n      0x03\n      add\n      sload\n      sub(shl(0xa0, 0x01), 0x01)\n      and\n        /* \"contracts/Marketplace.sol\":4191:4224  Items[i + 1].seller == msg.sender */\n      sub\n        /* \"contracts/Marketplace.sol\":4187:4446  if (Items[i + 1].seller == msg.sender) {... */\n      tag_215\n      jumpi\n        /* \"contracts/Marketplace.sol\":4245:4259  uint currentId */\n      0x00\n        /* \"contracts/Marketplace.sol\":4262:4267  Items */\n      0x06\n        /* \"contracts/Marketplace.sol\":4245:4259  uint currentId */\n      dup2\n        /* \"contracts/Marketplace.sol\":4268:4273  i + 1 */\n      tag_216\n        /* \"contracts/Marketplace.sol\":4268:4269  i */\n      dup5\n        /* \"contracts/Marketplace.sol\":4272:4273  1 */\n      0x01\n        /* \"contracts/Marketplace.sol\":4268:4273  i + 1 */\n      tag_71\n      jump\t// in\n    tag_216:\n        /* \"contracts/Marketplace.sol\":4262:4274  Items[i + 1] */\n      dup2\n      mstore\n      0x20\n      dup1\n      dup3\n      add\n      swap3\n      swap1\n      swap3\n      mstore\n      0x40\n      swap1\n      dup2\n      add\n      0x00\n      swap1\n      dup2\n      keccak256\n        /* \"contracts/Marketplace.sol\":4262:4281  Items[i + 1].itemId */\n      sload\n        /* \"contracts/Marketplace.sol\":4326:4342  Items[currentId] */\n      dup1\n      dup3\n      mstore\n        /* \"contracts/Marketplace.sol\":4326:4331  Items */\n      0x06\n        /* \"contracts/Marketplace.sol\":4326:4342  Items[currentId] */\n      dup1\n      dup6\n      mstore\n      swap2\n      dup4\n      swap1\n      keccak256\n        /* \"contracts/Marketplace.sol\":4300:4342  Item memory currentItem = Items[currentId] */\n      dup4\n      mload\n      0xe0\n      dup2\n      add\n      dup6\n      mstore\n      dup2\n      sload\n      dup2\n      mstore\n      0x01\n      dup3\n      add\n      sload\n      sub(shl(0xa0, 0x01), 0x01)\n      swap1\n      dup2\n      and\n      swap7\n      dup3\n      add\n      swap7\n      swap1\n      swap7\n      mstore\n      0x02\n      dup3\n      add\n      sload\n      swap5\n      dup2\n      add\n      swap5\n      swap1\n      swap5\n      mstore\n      0x03\n      dup2\n      add\n      sload\n      dup6\n      and\n      0x60\n      dup6\n      add\n      mstore\n      0x04\n      dup2\n      add\n      sload\n      swap1\n      swap5\n      and\n      0x80\n      dup5\n      add\n      mstore\n      0x05\n      dup5\n      add\n      sload\n      0xa0\n      dup5\n      add\n      mstore\n      swap3\n      add\n      sload\n      0xff\n      and\n      iszero\n      iszero\n      0xc0\n      dup3\n      add\n      mstore\n        /* \"contracts/Marketplace.sol\":4361:4380  items[currentIndex] */\n      dup5\n      mload\n        /* \"contracts/Marketplace.sol\":4262:4281  Items[i + 1].itemId */\n      swap2\n      swap3\n      pop\n        /* \"contracts/Marketplace.sol\":4300:4342  Item memory currentItem = Items[currentId] */\n      swap1\n      dup2\n      swap1\n        /* \"contracts/Marketplace.sol\":4361:4366  items */\n      dup6\n      swap1\n        /* \"contracts/Marketplace.sol\":4367:4379  currentIndex */\n      dup8\n      swap1\n        /* \"contracts/Marketplace.sol\":4361:4380  items[currentIndex] */\n      dup2\n      lt\n      tag_218\n      jumpi\n      tag_218\n      tag_76\n      jump\t// in\n    tag_218:\n      0x20\n      swap1\n      dup2\n      mul\n      swap2\n      swap1\n      swap2\n      add\n      add\n        /* \"contracts/Marketplace.sol\":4361:4394  items[currentIndex] = currentItem */\n      mstore\n        /* \"contracts/Marketplace.sol\":4413:4430  currentIndex += 1 */\n      tag_219\n        /* \"contracts/Marketplace.sol\":4429:4430  1 */\n      0x01\n        /* \"contracts/Marketplace.sol\":4413:4430  currentIndex += 1 */\n      dup7\n      tag_71\n      jump\t// in\n    tag_219:\n      swap5\n      pop\n        /* \"contracts/Marketplace.sol\":4226:4446  {... */\n      pop\n      pop\n        /* \"contracts/Marketplace.sol\":4187:4446  if (Items[i + 1].seller == msg.sender) {... */\n    tag_215:\n        /* \"contracts/Marketplace.sol\":4167:4170  i++ */\n      0x01\n      add\n        /* \"contracts/Marketplace.sol\":4128:4457  for (uint i = 0; i < totalListedItems; i++) {... */\n      jump(tag_211)\n        /* \"@openzeppelin/contracts/security/ReentrancyGuard.sol\":2336:2623  function _nonReentrantBefore() private {... */\n    tag_107:\n        /* \"@openzeppelin/contracts/security/ReentrancyGuard.sol\":1759:1760  2 */\n      0x02\n        /* \"@openzeppelin/contracts/security/ReentrancyGuard.sol\":2468:2475  _status */\n      sload(0x00)\n        /* \"@openzeppelin/contracts/security/ReentrancyGuard.sol\":2468:2487  _status != _ENTERED */\n      sub\n        /* \"@openzeppelin/contracts/security/ReentrancyGuard.sol\":2460:2523  require(_status != _ENTERED, \"ReentrancyGuard: reentrant call\") */\n      tag_222\n      jumpi\n      mload(0x40)\n      shl(0xe5, 0x461bcd)\n      dup2\n      mstore\n        /* \"#utility.yul\":7495:7497   */\n      0x20\n        /* \"@openzeppelin/contracts/security/ReentrancyGuard.sol\":2460:2523  require(_status != _ENTERED, \"ReentrancyGuard: reentrant call\") */\n      0x04\n      dup3\n      add\n        /* \"#utility.yul\":7477:7498   */\n      mstore\n        /* \"#utility.yul\":7534:7536   */\n      0x1f\n        /* \"#utility.yul\":7514:7532   */\n      0x24\n      dup3\n      add\n        /* \"#utility.yul\":7507:7537   */\n      mstore\n        /* \"#utility.yul\":7573:7606   */\n      0x5265656e7472616e637947756172643a207265656e7472616e742063616c6c00\n        /* \"#utility.yul\":7553:7571   */\n      0x44\n      dup3\n      add\n        /* \"#utility.yul\":7546:7607   */\n      mstore\n        /* \"#utility.yul\":7624:7642   */\n      0x64\n      add\n        /* \"@openzeppelin/contracts/security/ReentrancyGuard.sol\":2460:2523  require(_status != _ENTERED, \"ReentrancyGuard: reentrant call\") */\n      tag_103\n        /* \"#utility.yul\":7293:7648   */\n      jump\n        /* \"@openzeppelin/contracts/security/ReentrancyGuard.sol\":2460:2523  require(_status != _ENTERED, \"ReentrancyGuard: reentrant call\") */\n    tag_222:\n        /* \"@openzeppelin/contracts/security/ReentrancyGuard.sol\":1759:1760  2 */\n      0x02\n        /* \"@openzeppelin/contracts/security/ReentrancyGuard.sol\":2598:2605  _status */\n      0x00\n        /* \"@openzeppelin/contracts/security/ReentrancyGuard.sol\":2598:2616  _status = _ENTERED */\n      sstore\n        /* \"@openzeppelin/contracts/security/ReentrancyGuard.sol\":2336:2623  function _nonReentrantBefore() private {... */\n      jump\t// out\n        /* \"@openzeppelin/contracts/utils/Counters.sol\":1074:1303  function decrement(Counter storage counter) internal {... */\n    tag_159:\n        /* \"@openzeppelin/contracts/utils/Counters.sol\":1153:1167  counter._value */\n      dup1\n      sload\n        /* \"@openzeppelin/contracts/utils/Counters.sol\":1185:1194  value > 0 */\n      dup1\n        /* \"@openzeppelin/contracts/utils/Counters.sol\":1177:1226  require(value > 0, \"Counter: decrement overflow\") */\n      tag_228\n      jumpi\n      mload(0x40)\n      shl(0xe5, 0x461bcd)\n      dup2\n      mstore\n        /* \"#utility.yul\":7855:7857   */\n      0x20\n        /* \"@openzeppelin/contracts/utils/Counters.sol\":1177:1226  require(value > 0, \"Counter: decrement overflow\") */\n      0x04\n      dup3\n      add\n        /* \"#utility.yul\":7837:7858   */\n      mstore\n        /* \"#utility.yul\":7894:7896   */\n      0x1b\n        /* \"#utility.yul\":7874:7892   */\n      0x24\n      dup3\n      add\n        /* \"#utility.yul\":7867:7897   */\n      mstore\n        /* \"#utility.yul\":7933:7962   */\n      0x436f756e7465723a2064656372656d656e74206f766572666c6f770000000000\n        /* \"#utility.yul\":7913:7931   */\n      0x44\n      dup3\n      add\n        /* \"#utility.yul\":7906:7963   */\n      mstore\n        /* \"#utility.yul\":7980:7998   */\n      0x64\n      add\n        /* \"@openzeppelin/contracts/utils/Counters.sol\":1177:1226  require(value > 0, \"Counter: decrement overflow\") */\n      tag_103\n        /* \"#utility.yul\":7653:8004   */\n      jump\n        /* \"@openzeppelin/contracts/utils/Counters.sol\":1177:1226  require(value > 0, \"Counter: decrement overflow\") */\n    tag_228:\n      not(0x00)\n        /* \"@openzeppelin/contracts/utils/Counters.sol\":1277:1286  value - 1 */\n      add\n        /* \"@openzeppelin/contracts/utils/Counters.sol\":1260:1286  counter._value = value - 1 */\n      swap1\n      sstore\n        /* \"@openzeppelin/contracts/utils/Counters.sol\":1074:1303  function decrement(Counter storage counter) internal {... */\n      jump\t// out\n    tag_66:\n      0x40\n      dup1\n      mload\n      0xe0\n      dup2\n      add\n      dup3\n      mstore\n      0x00\n      dup1\n      dup3\n      mstore\n      0x20\n      dup3\n      add\n      dup2\n      swap1\n      mstore\n      swap2\n      dup2\n      add\n      dup3\n      swap1\n      mstore\n      0x60\n      dup2\n      add\n      dup3\n      swap1\n      mstore\n      0x80\n      dup2\n      add\n      dup3\n      swap1\n      mstore\n      0xa0\n      dup2\n      add\n      dup3\n      swap1\n      mstore\n      0xc0\n      dup2\n      add\n      swap2\n      swap1\n      swap2\n      mstore\n      swap1\n      jump\t// out\n        /* \"#utility.yul\":418:937   */\n    tag_231:\n        /* \"#utility.yul\":488:500   */\n      dup1\n      mload\n        /* \"#utility.yul\":476:501   */\n      dup3\n      mstore\n        /* \"#utility.yul\":554:558   */\n      0x20\n        /* \"#utility.yul\":543:559   */\n      dup1\n      dup3\n      add\n        /* \"#utility.yul\":537:560   */\n      mload\n      sub(shl(0xa0, 0x01), 0x01)\n        /* \"#utility.yul\":533:582   */\n      swap1\n      dup2\n      and\n        /* \"#utility.yul\":517:531   */\n      swap2\n      dup5\n      add\n        /* \"#utility.yul\":510:583   */\n      swap2\n      swap1\n      swap2\n      mstore\n        /* \"#utility.yul\":632:636   */\n      0x40\n        /* \"#utility.yul\":621:637   */\n      dup1\n      dup4\n      add\n        /* \"#utility.yul\":615:638   */\n      mload\n        /* \"#utility.yul\":599:613   */\n      swap1\n      dup5\n      add\n        /* \"#utility.yul\":592:639   */\n      mstore\n        /* \"#utility.yul\":692:696   */\n      0x60\n        /* \"#utility.yul\":681:697   */\n      dup1\n      dup4\n      add\n        /* \"#utility.yul\":675:698   */\n      mload\n        /* \"#utility.yul\":671:720   */\n      dup3\n      and\n        /* \"#utility.yul\":655:669   */\n      swap1\n      dup5\n      add\n        /* \"#utility.yul\":648:721   */\n      mstore\n        /* \"#utility.yul\":774:778   */\n      0x80\n        /* \"#utility.yul\":763:779   */\n      dup1\n      dup4\n      add\n        /* \"#utility.yul\":757:780   */\n      mload\n        /* \"#utility.yul\":753:802   */\n      swap1\n      swap2\n      and\n        /* \"#utility.yul\":737:751   */\n      swap1\n      dup4\n      add\n        /* \"#utility.yul\":730:803   */\n      mstore\n        /* \"#utility.yul\":570:573   */\n      0xa0\n        /* \"#utility.yul\":841:857   */\n      dup1\n      dup3\n      add\n        /* \"#utility.yul\":835:858   */\n      mload\n        /* \"#utility.yul\":819:833   */\n      swap1\n      dup4\n      add\n        /* \"#utility.yul\":812:859   */\n      mstore\n        /* \"#utility.yul\":922:926   */\n      0xc0\n        /* \"#utility.yul\":911:927   */\n      swap1\n      dup2\n      add\n        /* \"#utility.yul\":905:928   */\n      mload\n        /* \"#utility.yul\":898:929   */\n      iszero\n        /* \"#utility.yul\":891:930   */\n      iszero\n        /* \"#utility.yul\":875:889   */\n      swap2\n      add\n        /* \"#utility.yul\":868:931   */\n      mstore\n        /* \"#utility.yul\":418:937   */\n      jump\t// out\n        /* \"#utility.yul\":942:1615   */\n    tag_25:\n        /* \"#utility.yul\":1176:1178   */\n      0x20\n        /* \"#utility.yul\":1188:1209   */\n      dup1\n      dup3\n      mstore\n        /* \"#utility.yul\":1258:1271   */\n      dup3\n      mload\n        /* \"#utility.yul\":1161:1179   */\n      dup3\n      dup3\n      add\n        /* \"#utility.yul\":1280:1302   */\n      dup2\n      swap1\n      mstore\n        /* \"#utility.yul\":1128:1132   */\n      0x00\n      swap2\n        /* \"#utility.yul\":1359:1374   */\n      dup5\n      add\n      swap1\n        /* \"#utility.yul\":1333:1335   */\n      0x40\n        /* \"#utility.yul\":1318:1336   */\n      dup5\n      add\n      swap1\n        /* \"#utility.yul\":1128:1132   */\n      dup4\n        /* \"#utility.yul\":1402:1589   */\n    tag_239:\n        /* \"#utility.yul\":1416:1422   */\n      dup2\n        /* \"#utility.yul\":1413:1414   */\n      dup2\n        /* \"#utility.yul\":1410:1423   */\n      lt\n        /* \"#utility.yul\":1402:1589   */\n      iszero\n      tag_241\n      jumpi\n        /* \"#utility.yul\":1465:1507   */\n      tag_242\n        /* \"#utility.yul\":1503:1506   */\n      dup4\n        /* \"#utility.yul\":1494:1500   */\n      dup6\n        /* \"#utility.yul\":1488:1501   */\n      mload\n        /* \"#utility.yul\":1465:1507   */\n      tag_231\n      jump\t// in\n    tag_242:\n        /* \"#utility.yul\":1576:1578   */\n      0x20\n        /* \"#utility.yul\":1564:1579   */\n      swap4\n      swap1\n      swap4\n      add\n      swap3\n        /* \"#utility.yul\":1536:1540   */\n      0xe0\n        /* \"#utility.yul\":1527:1541   */\n      swap3\n      swap1\n      swap3\n      add\n      swap2\n        /* \"#utility.yul\":1438:1439   */\n      0x01\n        /* \"#utility.yul\":1431:1440   */\n      add\n        /* \"#utility.yul\":1402:1589   */\n      jump(tag_239)\n    tag_241:\n      pop\n        /* \"#utility.yul\":1606:1609   */\n      swap1\n      swap6\n        /* \"#utility.yul\":942:1615   */\n      swap5\n      pop\n      pop\n      pop\n      pop\n      pop\n      jump\t// out\n        /* \"#utility.yul\":1620:1846   */\n    tag_31:\n        /* \"#utility.yul\":1679:1685   */\n      0x00\n        /* \"#utility.yul\":1732:1734   */\n      0x20\n        /* \"#utility.yul\":1720:1729   */\n      dup3\n        /* \"#utility.yul\":1711:1718   */\n      dup5\n        /* \"#utility.yul\":1707:1730   */\n      sub\n        /* \"#utility.yul\":1703:1735   */\n      slt\n        /* \"#utility.yul\":1700:1752   */\n      iszero\n      tag_244\n      jumpi\n        /* \"#utility.yul\":1748:1749   */\n      0x00\n        /* \"#utility.yul\":1745:1746   */\n      dup1\n        /* \"#utility.yul\":1738:1750   */\n      revert\n        /* \"#utility.yul\":1700:1752   */\n    tag_244:\n      pop\n        /* \"#utility.yul\":1793:1816   */\n      calldataload\n      swap2\n        /* \"#utility.yul\":1620:1846   */\n      swap1\n      pop\n      jump\t// out\n        /* \"#utility.yul\":1851:2024   */\n    tag_232:\n        /* \"#utility.yul\":1919:1939   */\n      dup1\n      calldataload\n      sub(shl(0xa0, 0x01), 0x01)\n        /* \"#utility.yul\":1968:1999   */\n      dup2\n      and\n        /* \"#utility.yul\":1958:2000   */\n      dup2\n      eq\n        /* \"#utility.yul\":1948:2018   */\n      tag_246\n      jumpi\n        /* \"#utility.yul\":2014:2015   */\n      0x00\n        /* \"#utility.yul\":2011:2012   */\n      dup1\n        /* \"#utility.yul\":2004:2016   */\n      revert\n        /* \"#utility.yul\":1948:2018   */\n    tag_246:\n        /* \"#utility.yul\":1851:2024   */\n      swap2\n      swap1\n      pop\n      jump\t// out\n        /* \"#utility.yul\":2029:2449   */\n    tag_35:\n        /* \"#utility.yul\":2106:2112   */\n      0x00\n        /* \"#utility.yul\":2114:2120   */\n      dup1\n        /* \"#utility.yul\":2122:2128   */\n      0x00\n        /* \"#utility.yul\":2175:2177   */\n      0x60\n        /* \"#utility.yul\":2163:2172   */\n      dup5\n        /* \"#utility.yul\":2154:2161   */\n      dup7\n        /* \"#utility.yul\":2150:2173   */\n      sub\n        /* \"#utility.yul\":2146:2178   */\n      slt\n        /* \"#utility.yul\":2143:2195   */\n      iszero\n      tag_248\n      jumpi\n        /* \"#utility.yul\":2191:2192   */\n      0x00\n        /* \"#utility.yul\":2188:2189   */\n      dup1\n        /* \"#utility.yul\":2181:2193   */\n      revert\n        /* \"#utility.yul\":2143:2195   */\n    tag_248:\n        /* \"#utility.yul\":2214:2243   */\n      tag_249\n        /* \"#utility.yul\":2233:2242   */\n      dup5\n        /* \"#utility.yul\":2214:2243   */\n      tag_232\n      jump\t// in\n    tag_249:\n        /* \"#utility.yul\":2204:2243   */\n      swap6\n        /* \"#utility.yul\":2312:2314   */\n      0x20\n        /* \"#utility.yul\":2297:2315   */\n      dup6\n      add\n        /* \"#utility.yul\":2284:2316   */\n      calldataload\n      swap6\n      pop\n        /* \"#utility.yul\":2413:2415   */\n      0x40\n        /* \"#utility.yul\":2398:2416   */\n      swap1\n      swap5\n      add\n        /* \"#utility.yul\":2385:2417   */\n      calldataload\n      swap4\n        /* \"#utility.yul\":2029:2449   */\n      swap3\n      pop\n      pop\n      pop\n      jump\t// out\n        /* \"#utility.yul\":2454:2754   */\n    tag_42:\n        /* \"#utility.yul\":2522:2528   */\n      0x00\n        /* \"#utility.yul\":2530:2536   */\n      dup1\n        /* \"#utility.yul\":2583:2585   */\n      0x40\n        /* \"#utility.yul\":2571:2580   */\n      dup4\n        /* \"#utility.yul\":2562:2569   */\n      dup6\n        /* \"#utility.yul\":2558:2581   */\n      sub\n        /* \"#utility.yul\":2554:2586   */\n      slt\n        /* \"#utility.yul\":2551:2603   */\n      iszero\n      tag_251\n      jumpi\n        /* \"#utility.yul\":2599:2600   */\n      0x00\n        /* \"#utility.yul\":2596:2597   */\n      dup1\n        /* \"#utility.yul\":2589:2601   */\n      revert\n        /* \"#utility.yul\":2551:2603   */\n    tag_251:\n        /* \"#utility.yul\":2622:2651   */\n      tag_252\n        /* \"#utility.yul\":2641:2650   */\n      dup4\n        /* \"#utility.yul\":2622:2651   */\n      tag_232\n      jump\t// in\n    tag_252:\n        /* \"#utility.yul\":2612:2651   */\n      swap5\n        /* \"#utility.yul\":2720:2722   */\n      0x20\n        /* \"#utility.yul\":2705:2723   */\n      swap4\n      swap1\n      swap4\n      add\n        /* \"#utility.yul\":2692:2724   */\n      calldataload\n      swap4\n      pop\n      pop\n      pop\n        /* \"#utility.yul\":2454:2754   */\n      jump\t// out\n        /* \"#utility.yul\":2759:2997   */\n    tag_48:\n        /* \"#utility.yul\":2937:2940   */\n      0xe0\n        /* \"#utility.yul\":2922:2941   */\n      dup2\n      add\n        /* \"#utility.yul\":2950:2991   */\n      tag_254\n        /* \"#utility.yul\":2926:2935   */\n      dup3\n        /* \"#utility.yul\":2973:2979   */\n      dup5\n        /* \"#utility.yul\":2950:2991   */\n      tag_231\n      jump\t// in\n    tag_254:\n        /* \"#utility.yul\":2759:2997   */\n      swap3\n      swap2\n      pop\n      pop\n      jump\t// out\n        /* \"#utility.yul\":3002:3129   */\n    tag_233:\n        /* \"#utility.yul\":3063:3073   */\n      0x4e487b71\n        /* \"#utility.yul\":3058:3061   */\n      0xe0\n        /* \"#utility.yul\":3054:3074   */\n      shl\n        /* \"#utility.yul\":3051:3052   */\n      0x00\n        /* \"#utility.yul\":3044:3075   */\n      mstore\n        /* \"#utility.yul\":3094:3098   */\n      0x11\n        /* \"#utility.yul\":3091:3092   */\n      0x04\n        /* \"#utility.yul\":3084:3099   */\n      mstore\n        /* \"#utility.yul\":3118:3122   */\n      0x24\n        /* \"#utility.yul\":3115:3116   */\n      0x00\n        /* \"#utility.yul\":3108:3123   */\n      revert\n        /* \"#utility.yul\":3134:3262   */\n    tag_59:\n        /* \"#utility.yul\":3201:3210   */\n      dup2\n      dup2\n      sub\n        /* \"#utility.yul\":3222:3233   */\n      dup2\n      dup2\n      gt\n        /* \"#utility.yul\":3219:3256   */\n      iszero\n      tag_254\n      jumpi\n        /* \"#utility.yul\":3236:3254   */\n      tag_254\n      tag_233\n      jump\t// in\n        /* \"#utility.yul\":3267:3394   */\n    tag_62:\n        /* \"#utility.yul\":3328:3338   */\n      0x4e487b71\n        /* \"#utility.yul\":3323:3326   */\n      0xe0\n        /* \"#utility.yul\":3319:3339   */\n      shl\n        /* \"#utility.yul\":3316:3317   */\n      0x00\n        /* \"#utility.yul\":3309:3340   */\n      mstore\n        /* \"#utility.yul\":3359:3363   */\n      0x41\n        /* \"#utility.yul\":3356:3357   */\n      0x04\n        /* \"#utility.yul\":3349:3364   */\n      mstore\n        /* \"#utility.yul\":3383:3387   */\n      0x24\n        /* \"#utility.yul\":3380:3381   */\n      0x00\n        /* \"#utility.yul\":3373:3388   */\n      revert\n        /* \"#utility.yul\":3399:3524   */\n    tag_71:\n        /* \"#utility.yul\":3464:3473   */\n      dup1\n      dup3\n      add\n        /* \"#utility.yul\":3485:3495   */\n      dup1\n      dup3\n      gt\n        /* \"#utility.yul\":3482:3518   */\n      iszero\n      tag_254\n      jumpi\n        /* \"#utility.yul\":3498:3516   */\n      tag_254\n      tag_233\n      jump\t// in\n        /* \"#utility.yul\":3529:3656   */\n    tag_76:\n        /* \"#utility.yul\":3590:3600   */\n      0x4e487b71\n        /* \"#utility.yul\":3585:3588   */\n      0xe0\n        /* \"#utility.yul\":3581:3601   */\n      shl\n        /* \"#utility.yul\":3578:3579   */\n      0x00\n        /* \"#utility.yul\":3571:3602   */\n      mstore\n        /* \"#utility.yul\":3621:3625   */\n      0x32\n        /* \"#utility.yul\":3618:3619   */\n      0x04\n        /* \"#utility.yul\":3611:3626   */\n      mstore\n        /* \"#utility.yul\":3645:3649   */\n      0x24\n        /* \"#utility.yul\":3642:3643   */\n      0x00\n        /* \"#utility.yul\":3635:3650   */\n      revert\n        /* \"#utility.yul\":3661:4059   */\n    tag_104:\n        /* \"#utility.yul\":3863:3865   */\n      0x20\n        /* \"#utility.yul\":3845:3866   */\n      dup1\n      dup3\n      mstore\n        /* \"#utility.yul\":3902:3904   */\n      0x22\n        /* \"#utility.yul\":3882:3900   */\n      swap1\n      dup3\n      add\n        /* \"#utility.yul\":3875:3905   */\n      mstore\n        /* \"#utility.yul\":3941:3975   */\n      0x596f7520617265206e6f7420746865206f776e6572206f662074686973206974\n        /* \"#utility.yul\":3936:3938   */\n      0x40\n        /* \"#utility.yul\":3921:3939   */\n      dup3\n      add\n        /* \"#utility.yul\":3914:3976   */\n      mstore\n      shl(0xf0, 0x656d)\n        /* \"#utility.yul\":4007:4009   */\n      0x60\n        /* \"#utility.yul\":3992:4010   */\n      dup3\n      add\n        /* \"#utility.yul\":3985:4017   */\n      mstore\n        /* \"#utility.yul\":4049:4052   */\n      0x80\n        /* \"#utility.yul\":4034:4053   */\n      add\n      swap1\n        /* \"#utility.yul\":3661:4059   */\n      jump\t// out\n        /* \"#utility.yul\":4716:4900   */\n    tag_117:\n        /* \"#utility.yul\":4786:4792   */\n      0x00\n        /* \"#utility.yul\":4839:4841   */\n      0x20\n        /* \"#utility.yul\":4827:4836   */\n      dup3\n        /* \"#utility.yul\":4818:4825   */\n      dup5\n        /* \"#utility.yul\":4814:4837   */\n      sub\n        /* \"#utility.yul\":4810:4842   */\n      slt\n        /* \"#utility.yul\":4807:4859   */\n      iszero\n      tag_268\n      jumpi\n        /* \"#utility.yul\":4855:4856   */\n      0x00\n        /* \"#utility.yul\":4852:4853   */\n      dup1\n        /* \"#utility.yul\":4845:4857   */\n      revert\n        /* \"#utility.yul\":4807:4859   */\n    tag_268:\n      pop\n        /* \"#utility.yul\":4878:4894   */\n      mload\n      swap2\n        /* \"#utility.yul\":4716:4900   */\n      swap1\n      pop\n      jump\t// out\n        /* \"#utility.yul\":5258:5629   */\n    tag_122:\n      sub(shl(0xa0, 0x01), 0x01)\n        /* \"#utility.yul\":5478:5510   */\n      swap4\n      dup5\n      and\n        /* \"#utility.yul\":5460:5511   */\n      dup2\n      mstore\n        /* \"#utility.yul\":5547:5579   */\n      swap2\n      swap1\n      swap3\n      and\n        /* \"#utility.yul\":5542:5544   */\n      0x20\n        /* \"#utility.yul\":5527:5545   */\n      dup3\n      add\n        /* \"#utility.yul\":5520:5580   */\n      mstore\n        /* \"#utility.yul\":5611:5613   */\n      0x40\n        /* \"#utility.yul\":5596:5614   */\n      dup2\n      add\n        /* \"#utility.yul\":5589:5623   */\n      swap2\n      swap1\n      swap2\n      mstore\n        /* \"#utility.yul\":5448:5450   */\n      0x60\n        /* \"#utility.yul\":5433:5451   */\n      add\n      swap1\n        /* \"#utility.yul\":5258:5629   */\n      jump\t// out\n        /* \"#utility.yul\":5634:5911   */\n    tag_126:\n        /* \"#utility.yul\":5701:5707   */\n      0x00\n        /* \"#utility.yul\":5754:5756   */\n      0x20\n        /* \"#utility.yul\":5742:5751   */\n      dup3\n        /* \"#utility.yul\":5733:5740   */\n      dup5\n        /* \"#utility.yul\":5729:5752   */\n      sub\n        /* \"#utility.yul\":5725:5757   */\n      slt\n        /* \"#utility.yul\":5722:5774   */\n      iszero\n      tag_272\n      jumpi\n        /* \"#utility.yul\":5770:5771   */\n      0x00\n        /* \"#utility.yul\":5767:5768   */\n      dup1\n        /* \"#utility.yul\":5760:5772   */\n      revert\n        /* \"#utility.yul\":5722:5774   */\n    tag_272:\n        /* \"#utility.yul\":5802:5811   */\n      dup2\n        /* \"#utility.yul\":5796:5812   */\n      mload\n        /* \"#utility.yul\":5855:5860   */\n      dup1\n        /* \"#utility.yul\":5848:5861   */\n      iszero\n        /* \"#utility.yul\":5841:5862   */\n      iszero\n        /* \"#utility.yul\":5834:5839   */\n      dup2\n        /* \"#utility.yul\":5831:5863   */\n      eq\n        /* \"#utility.yul\":5821:5881   */\n      tag_273\n      jumpi\n        /* \"#utility.yul\":5877:5878   */\n      0x00\n        /* \"#utility.yul\":5874:5875   */\n      dup1\n        /* \"#utility.yul\":5867:5879   */\n      revert\n        /* \"#utility.yul\":5821:5881   */\n    tag_273:\n        /* \"#utility.yul\":5900:5905   */\n      swap4\n        /* \"#utility.yul\":5634:5911   */\n      swap3\n      pop\n      pop\n      pop\n      jump\t// out\n        /* \"#utility.yul\":5916:6369   */\n    tag_135:\n      sub(shl(0xa0, 0x01), 0x01)\n        /* \"#utility.yul\":6159:6191   */\n      swap5\n      dup6\n      and\n        /* \"#utility.yul\":6141:6192   */\n      dup2\n      mstore\n        /* \"#utility.yul\":6228:6260   */\n      swap3\n      swap1\n      swap4\n      and\n        /* \"#utility.yul\":6223:6225   */\n      0x20\n        /* \"#utility.yul\":6208:6226   */\n      dup4\n      add\n        /* \"#utility.yul\":6201:6261   */\n      mstore\n        /* \"#utility.yul\":6292:6294   */\n      0x40\n        /* \"#utility.yul\":6277:6295   */\n      dup3\n      add\n        /* \"#utility.yul\":6270:6304   */\n      mstore\n        /* \"#utility.yul\":6347:6361   */\n      swap1\n      iszero\n        /* \"#utility.yul\":6340:6362   */\n      iszero\n        /* \"#utility.yul\":6335:6337   */\n      0x60\n        /* \"#utility.yul\":6320:6338   */\n      dup3\n      add\n        /* \"#utility.yul\":6313:6363   */\n      mstore\n        /* \"#utility.yul\":6128:6131   */\n      0x80\n        /* \"#utility.yul\":6113:6132   */\n      add\n      swap1\n        /* \"#utility.yul\":5916:6369   */\n      jump\t// out\n\n    auxdata: 0xa2646970667358221220be722109414db35402ceb552184be9bf3575d6917b1a0f07aecd414452fbb34064736f6c634300081a0033\n}\n",
				"bytecode": {
					"linkReferences": {},
					"object": "60806040526658d15e176280006004553480156019575f80fd5b506040516114e73803806114e78339810160408190526036916067565b60015f55600580546001600160a01b039092166001600160a01b031992831617905560038054909116331790556092565b5f602082840312156076575f80fd5b81516001600160a01b0381168114608b575f80fd5b9392505050565b6114488061009f5f395ff3fe608060405234801561000f575f80fd5b506004361061009b575f3560e01c806389bfd38f1161006357806389bfd38f146101125780638f0af0f9146101255780639f37092a14610138578063f2a7a2b41461014b578063f9319c531461016b575f80fd5b806312e855851461009f5780632ad8a220146100b55780633b1b1ad0146100e05780634d757a1c146100f55780635a599da8146100fd575b5f80fd5b6004546040519081526020015b60405180910390f35b6005546100c8906001600160a01b031681565b6040516001600160a01b0390911681526020016100ac565b6100e8610173565b6040516100ac91906111f9565b6100e8610300565b61011061010b366004611246565b6104bd565b005b610110610120366004611278565b61057c565b610110610133366004611278565b6108fa565b6101106101463660046112a8565b610bb9565b61015e610159366004611246565b610e83565b6040516100ac91906112d0565b6100e8610efe565b60605f61017f60015490565b90505f61018b60025490565b60015461019891906112f8565b90505f808267ffffffffffffffff8111156101b5576101b561130b565b6040519080825280602002602001820160405280156101ee57816020015b6101db611168565b8152602001906001900390816101d35790505b5090505f5b848110156102f7573060065f61020a84600161131f565b815260208101919091526040015f20600401546001600160a01b0316036102ef575f60068161023a84600161131f565b815260208082019290925260409081015f90812054808252600680855291839020835160e0810185528154815260018201546001600160a01b039081169682019690965260028201549481019490945260038101548516606085015260048101549094166080840152600584015460a084015292015460ff16151560c082015284519192509081908590879081106102d4576102d4611332565b60209081029190910101526102ea60018661131f565b945050505b6001016101f3565b50949350505050565b60605f61030c60015490565b90505f805f5b83811015610360573360065f61032984600161131f565b815260208101919091526040015f20600401546001600160a01b0316036103585761035560018461131f565b92505b600101610312565b505f8267ffffffffffffffff81111561037b5761037b61130b565b6040519080825280602002602001820160405280156103b457816020015b6103a1611168565b8152602001906001900390816103995790505b5090505f5b848110156102f7573360065f6103d084600161131f565b815260208101919091526040015f20600401546001600160a01b0316036104b5575f60068161040084600161131f565b815260208082019290925260409081015f90812054808252600680855291839020835160e0810185528154815260018201546001600160a01b039081169682019690965260028201549481019490945260038101548516606085015260048101549094166080840152600584015460a084015292015460ff16151560c0820152845191925090819085908790811061049a5761049a611332565b60209081029190910101526104b060018661131f565b945050505b6001016103b9565b5f818152600660205260409020600301546001600160a01b031633148015906104ff57505f818152600660205260409020600401546001600160a01b03163314155b15610526576040516347ad5e4f60e01b815260040161051d90611346565b60405180910390fd5b5f90815260066020819052604082208281556001810180546001600160a01b031990811690915560028201849055600382018054821690556004820180549091169055600581019290925501805460ff19169055565b6105846110bb565b805f036105c957604051630cc2970160e11b81526020600482015260126024820152714974656d205072696365206973207a65726f60701b604482015260640161051d565b60048054600554604051636eb1769f60e11b8152339381019390935230602484015290916001600160a01b039091169063dd62ed3e90604401602060405180830381865afa15801561061d573d5f803e3d5ffd5b505050506040513d601f19601f820116820180604052508101906106419190611388565b101561068b576040516303f36f1b60e11b8152602060048201526018602482015277131a5cdd1a5b99c81c1c9a58d9481a5cc81b9bdd081b595d60421b604482015260640161051d565b600554600480546040516323b872dd60e01b81526001600160a01b03909316926323b872dd926106bf92339230920161139f565b6020604051808303815f875af11580156106db573d5f803e3d5ffd5b505050506040513d601f19601f820116820180604052508101906106ff91906113c3565b5061070e600180546001019055565b5f61071860015490565b6040805160e0810182528281526001600160a01b0380881660208084018281528486018a81523360608701818152306080890181815260a08a018e81525f60c08c018181528e82526006998a9052908d90209b518c55965160018c018054918c166001600160a01b0319928316179055955160028c0155925160038b018054918b16918716919091179055516004808b01805492909a169190951617909755516005880155915195909201805495151560ff199096169590951790945593516323b872dd60e01b8152949550936323b872dd936107f993929189910161139f565b5f604051808303815f87803b158015610810575f80fd5b505af1158015610822573d5f803e3d5ffd5b5050505082846001600160a01b0316827ff8551f8be25732324fcda411a126b3c851e038b0ff8d097a3951dded3772f43f3330875f60405161086794939291906113e9565b60405180910390a46005546003546004805460405163a9059cbb60e01b81526001600160a01b0393841692810192909252602482015291169063a9059cbb906044015b6020604051808303815f875af11580156108c6573d5f803e3d5ffd5b505050506040513d601f19601f820116820180604052508101906108ea91906113c3565b50506108f560015f55565b505050565b6109026110bb565b5f828152600660205260409020600401546001600160a01b0316331461093b576040516347ad5e4f60e01b815260040161051d90611346565b60048054600554604051636eb1769f60e11b8152339381019390935230602484015290916001600160a01b039091169063dd62ed3e90604401602060405180830381865afa15801561098f573d5f803e3d5ffd5b505050506040513d601f19601f820116820180604052508101906109b39190611388565b10156109fd576040516303f36f1b60e11b8152602060048201526018602482015277131a5cdd1a5b99c81c1c9a58d9481a5cc81b9bdd081b595d60421b604482015260640161051d565b600554600480546040516323b872dd60e01b81526001600160a01b03909316926323b872dd92610a3192339230920161139f565b6020604051808303815f875af1158015610a4d573d5f803e3d5ffd5b505050506040513d601f19601f82011682018060405250810190610a7191906113c3565b505f828152600660208190526040909120908101805460ff19169055600581018290556003810180546001600160a01b031990811633179091556004909101805490911630179055610ac36002611112565b5f82815260066020526040908190206002015490516323b872dd60e01b81526001600160a01b038516906323b872dd90610b059033903090869060040161139f565b5f604051808303815f87803b158015610b1c575f80fd5b505af1158015610b2e573d5f803e3d5ffd5b5050505080846001600160a01b03167f052679d6cf973dff612de0d67ad1642e7b8b401dcb1c41ea86bf35b82ac6bf883330865f604051610b7294939291906113e9565b60405180910390a36005546003546004805460405163a9059cbb60e01b81526001600160a01b0393841692810192909252602482015291169063a9059cbb906044016108aa565b610bc16110bb565b5f8181526006602052604090819020600580820154600283015460039093015491549351636eb1769f60e11b815233600482015230602482015290936001600160a01b0392831692859291169063dd62ed3e90604401602060405180830381865afa158015610c32573d5f803e3d5ffd5b505050506040513d601f19601f82011682018060405250810190610c569190611388565b1015610ca5576040516303f36f1b60e11b815260206004820152601860248201527f4c697374696e67205072696365206973206e6f74206d65740000000000000000604482015260640161051d565b6005546040516323b872dd60e01b81526001600160a01b03909116906323b872dd90610cd99033903090889060040161139f565b6020604051808303815f875af1158015610cf5573d5f803e3d5ffd5b505050506040513d601f19601f82011682018060405250810190610d1991906113c3565b506040516323b872dd60e01b81526001600160a01b038616906323b872dd90610d4a9030903390879060040161139f565b5f604051808303815f87803b158015610d61575f80fd5b505af1158015610d73573d5f803e3d5ffd5b505060055460405163a9059cbb60e01b81526001600160a01b03858116600483015260248201889052909116925063a9059cbb91506044016020604051808303815f875af1158015610dc7573d5f803e3d5ffd5b505050506040513d601f19601f82011682018060405250810190610deb91906113c3565b505f8481526006602081905260409091206004810180546001600160a01b0319163317905501805460ff19166001179055610e2a600280546001019055565b81856001600160a01b03167f9a9f9faf9d964b2fb1888cdf05202baf5a1b99d45f7afd6a5e062ac544b3c1503033876001604051610e6b94939291906113e9565b60405180910390a3505050610e7f60015f55565b5050565b610e8b611168565b505f90815260066020818152604092839020835160e0810185528154815260018201546001600160a01b039081169382019390935260028201549481019490945260038101548216606085015260048101549091166080840152600581015460a0840152015460ff16151560c082015290565b60605f610f0a60015490565b90505f805f5b83811015610f5e573360065f610f2784600161131f565b815260208101919091526040015f20600301546001600160a01b031603610f5657610f5360018461131f565b92505b600101610f10565b505f8267ffffffffffffffff811115610f7957610f7961130b565b604051908082528060200260200182016040528015610fb257816020015b610f9f611168565b815260200190600190039081610f975790505b5090505f5b848110156102f7573360065f610fce84600161131f565b815260208101919091526040015f20600301546001600160a01b0316036110b3575f600681610ffe84600161131f565b815260208082019290925260409081015f90812054808252600680855291839020835160e0810185528154815260018201546001600160a01b039081169682019690965260028201549481019490945260038101548516606085015260048101549094166080840152600584015460a084015292015460ff16151560c0820152845191925090819085908790811061109857611098611332565b60209081029190910101526110ae60018661131f565b945050505b600101610fb7565b60025f540361110c5760405162461bcd60e51b815260206004820152601f60248201527f5265656e7472616e637947756172643a207265656e7472616e742063616c6c00604482015260640161051d565b60025f55565b8054806111615760405162461bcd60e51b815260206004820152601b60248201527f436f756e7465723a2064656372656d656e74206f766572666c6f770000000000604482015260640161051d565b5f19019055565b6040805160e0810182525f80825260208201819052918101829052606081018290526080810182905260a0810182905260c081019190915290565b805182526020808201516001600160a01b0390811691840191909152604080830151908401526060808301518216908401526080808301519091169083015260a0808201519083015260c0908101511515910152565b602080825282518282018190525f918401906040840190835b8181101561123b576112258385516111a3565b6020939093019260e09290920191600101611212565b509095945050505050565b5f60208284031215611256575f80fd5b5035919050565b80356001600160a01b0381168114611273575f80fd5b919050565b5f805f6060848603121561128a575f80fd5b6112938461125d565b95602085013595506040909401359392505050565b5f80604083850312156112b9575f80fd5b6112c28361125d565b946020939093013593505050565b60e081016112de82846111a3565b92915050565b634e487b7160e01b5f52601160045260245ffd5b818103818111156112de576112de6112e4565b634e487b7160e01b5f52604160045260245ffd5b808201808211156112de576112de6112e4565b634e487b7160e01b5f52603260045260245ffd5b60208082526022908201527f596f7520617265206e6f7420746865206f776e6572206f662074686973206974604082015261656d60f01b606082015260800190565b5f60208284031215611398575f80fd5b5051919050565b6001600160a01b039384168152919092166020820152604081019190915260600190565b5f602082840312156113d3575f80fd5b815180151581146113e2575f80fd5b9392505050565b6001600160a01b039485168152929093166020830152604082015290151560608201526080019056fea2646970667358221220be722109414db35402ceb552184be9bf3575d6917b1a0f07aecd414452fbb34064736f6c634300081a0033",
					"opcodes": "PUSH1 0x80 PUSH1 0x40 MSTORE PUSH7 0x58D15E17628000 PUSH1 0x4 SSTORE CALLVALUE DUP1 ISZERO PUSH1 0x19 JUMPI PUSH0 DUP1 REVERT JUMPDEST POP PUSH1 0x40 MLOAD PUSH2 0x14E7 CODESIZE SUB DUP1 PUSH2 0x14E7 DUP4 CODECOPY DUP2 ADD PUSH1 0x40 DUP2 SWAP1 MSTORE PUSH1 0x36 SWAP2 PUSH1 0x67 JUMP JUMPDEST PUSH1 0x1 PUSH0 SSTORE PUSH1 0x5 DUP1 SLOAD PUSH1 0x1 PUSH1 0x1 PUSH1 0xA0 SHL SUB SWAP1 SWAP3 AND PUSH1 0x1 PUSH1 0x1 PUSH1 0xA0 SHL SUB NOT SWAP3 DUP4 AND OR SWAP1 SSTORE PUSH1 0x3 DUP1 SLOAD SWAP1 SWAP2 AND CALLER OR SWAP1 SSTORE PUSH1 0x92 JUMP JUMPDEST PUSH0 PUSH1 0x20 DUP3 DUP5 SUB SLT ISZERO PUSH1 0x76 JUMPI PUSH0 DUP1 REVERT JUMPDEST DUP2 MLOAD PUSH1 0x1 PUSH1 0x1 PUSH1 0xA0 SHL SUB DUP2 AND DUP2 EQ PUSH1 0x8B JUMPI PUSH0 DUP1 REVERT JUMPDEST SWAP4 SWAP3 POP POP POP JUMP JUMPDEST PUSH2 0x1448 DUP1 PUSH2 0x9F PUSH0 CODECOPY PUSH0 RETURN INVALID PUSH1 0x80 PUSH1 0x40 MSTORE CALLVALUE DUP1 ISZERO PUSH2 0xF JUMPI PUSH0 DUP1 REVERT JUMPDEST POP PUSH1 0x4 CALLDATASIZE LT PUSH2 0x9B JUMPI PUSH0 CALLDATALOAD PUSH1 0xE0 SHR DUP1 PUSH4 0x89BFD38F GT PUSH2 0x63 JUMPI DUP1 PUSH4 0x89BFD38F EQ PUSH2 0x112 JUMPI DUP1 PUSH4 0x8F0AF0F9 EQ PUSH2 0x125 JUMPI DUP1 PUSH4 0x9F37092A EQ PUSH2 0x138 JUMPI DUP1 PUSH4 0xF2A7A2B4 EQ PUSH2 0x14B JUMPI DUP1 PUSH4 0xF9319C53 EQ PUSH2 0x16B JUMPI PUSH0 DUP1 REVERT JUMPDEST DUP1 PUSH4 0x12E85585 EQ PUSH2 0x9F JUMPI DUP1 PUSH4 0x2AD8A220 EQ PUSH2 0xB5 JUMPI DUP1 PUSH4 0x3B1B1AD0 EQ PUSH2 0xE0 JUMPI DUP1 PUSH4 0x4D757A1C EQ PUSH2 0xF5 JUMPI DUP1 PUSH4 0x5A599DA8 EQ PUSH2 0xFD JUMPI JUMPDEST PUSH0 DUP1 REVERT JUMPDEST PUSH1 0x4 SLOAD PUSH1 0x40 MLOAD SWAP1 DUP2 MSTORE PUSH1 0x20 ADD JUMPDEST PUSH1 0x40 MLOAD DUP1 SWAP2 SUB SWAP1 RETURN JUMPDEST PUSH1 0x5 SLOAD PUSH2 0xC8 SWAP1 PUSH1 0x1 PUSH1 0x1 PUSH1 0xA0 SHL SUB AND DUP2 JUMP JUMPDEST PUSH1 0x40 MLOAD PUSH1 0x1 PUSH1 0x1 PUSH1 0xA0 SHL SUB SWAP1 SWAP2 AND DUP2 MSTORE PUSH1 0x20 ADD PUSH2 0xAC JUMP JUMPDEST PUSH2 0xE8 PUSH2 0x173 JUMP JUMPDEST PUSH1 0x40 MLOAD PUSH2 0xAC SWAP2 SWAP1 PUSH2 0x11F9 JUMP JUMPDEST PUSH2 0xE8 PUSH2 0x300 JUMP JUMPDEST PUSH2 0x110 PUSH2 0x10B CALLDATASIZE PUSH1 0x4 PUSH2 0x1246 JUMP JUMPDEST PUSH2 0x4BD JUMP JUMPDEST STOP JUMPDEST PUSH2 0x110 PUSH2 0x120 CALLDATASIZE PUSH1 0x4 PUSH2 0x1278 JUMP JUMPDEST PUSH2 0x57C JUMP JUMPDEST PUSH2 0x110 PUSH2 0x133 CALLDATASIZE PUSH1 0x4 PUSH2 0x1278 JUMP JUMPDEST PUSH2 0x8FA JUMP JUMPDEST PUSH2 0x110 PUSH2 0x146 CALLDATASIZE PUSH1 0x4 PUSH2 0x12A8 JUMP JUMPDEST PUSH2 0xBB9 JUMP JUMPDEST PUSH2 0x15E PUSH2 0x159 CALLDATASIZE PUSH1 0x4 PUSH2 0x1246 JUMP JUMPDEST PUSH2 0xE83 JUMP JUMPDEST PUSH1 0x40 MLOAD PUSH2 0xAC SWAP2 SWAP1 PUSH2 0x12D0 JUMP JUMPDEST PUSH2 0xE8 PUSH2 0xEFE JUMP JUMPDEST PUSH1 0x60 PUSH0 PUSH2 0x17F PUSH1 0x1 SLOAD SWAP1 JUMP JUMPDEST SWAP1 POP PUSH0 PUSH2 0x18B PUSH1 0x2 SLOAD SWAP1 JUMP JUMPDEST PUSH1 0x1 SLOAD PUSH2 0x198 SWAP2 SWAP1 PUSH2 0x12F8 JUMP JUMPDEST SWAP1 POP PUSH0 DUP1 DUP3 PUSH8 0xFFFFFFFFFFFFFFFF DUP2 GT ISZERO PUSH2 0x1B5 JUMPI PUSH2 0x1B5 PUSH2 0x130B JUMP JUMPDEST PUSH1 0x40 MLOAD SWAP1 DUP1 DUP3 MSTORE DUP1 PUSH1 0x20 MUL PUSH1 0x20 ADD DUP3 ADD PUSH1 0x40 MSTORE DUP1 ISZERO PUSH2 0x1EE JUMPI DUP2 PUSH1 0x20 ADD JUMPDEST PUSH2 0x1DB PUSH2 0x1168 JUMP JUMPDEST DUP2 MSTORE PUSH1 0x20 ADD SWAP1 PUSH1 0x1 SWAP1 SUB SWAP1 DUP2 PUSH2 0x1D3 JUMPI SWAP1 POP JUMPDEST POP SWAP1 POP PUSH0 JUMPDEST DUP5 DUP2 LT ISZERO PUSH2 0x2F7 JUMPI ADDRESS PUSH1 0x6 PUSH0 PUSH2 0x20A DUP5 PUSH1 0x1 PUSH2 0x131F JUMP JUMPDEST DUP2 MSTORE PUSH1 0x20 DUP2 ADD SWAP2 SWAP1 SWAP2 MSTORE PUSH1 0x40 ADD PUSH0 KECCAK256 PUSH1 0x4 ADD SLOAD PUSH1 0x1 PUSH1 0x1 PUSH1 0xA0 SHL SUB AND SUB PUSH2 0x2EF JUMPI PUSH0 PUSH1 0x6 DUP2 PUSH2 0x23A DUP5 PUSH1 0x1 PUSH2 0x131F JUMP JUMPDEST DUP2 MSTORE PUSH1 0x20 DUP1 DUP3 ADD SWAP3 SWAP1 SWAP3 MSTORE PUSH1 0x40 SWAP1 DUP2 ADD PUSH0 SWAP1 DUP2 KECCAK256 SLOAD DUP1 DUP3 MSTORE PUSH1 0x6 DUP1 DUP6 MSTORE SWAP2 DUP4 SWAP1 KECCAK256 DUP4 MLOAD PUSH1 0xE0 DUP2 ADD DUP6 MSTORE DUP2 SLOAD DUP2 MSTORE PUSH1 0x1 DUP3 ADD SLOAD PUSH1 0x1 PUSH1 0x1 PUSH1 0xA0 SHL SUB SWAP1 DUP2 AND SWAP7 DUP3 ADD SWAP7 SWAP1 SWAP7 MSTORE PUSH1 0x2 DUP3 ADD SLOAD SWAP5 DUP2 ADD SWAP5 SWAP1 SWAP5 MSTORE PUSH1 0x3 DUP2 ADD SLOAD DUP6 AND PUSH1 0x60 DUP6 ADD MSTORE PUSH1 0x4 DUP2 ADD SLOAD SWAP1 SWAP5 AND PUSH1 0x80 DUP5 ADD MSTORE PUSH1 0x5 DUP5 ADD SLOAD PUSH1 0xA0 DUP5 ADD MSTORE SWAP3 ADD SLOAD PUSH1 0xFF AND ISZERO ISZERO PUSH1 0xC0 DUP3 ADD MSTORE DUP5 MLOAD SWAP2 SWAP3 POP SWAP1 DUP2 SWAP1 DUP6 SWAP1 DUP8 SWAP1 DUP2 LT PUSH2 0x2D4 JUMPI PUSH2 0x2D4 PUSH2 0x1332 JUMP JUMPDEST PUSH1 0x20 SWAP1 DUP2 MUL SWAP2 SWAP1 SWAP2 ADD ADD MSTORE PUSH2 0x2EA PUSH1 0x1 DUP7 PUSH2 0x131F JUMP JUMPDEST SWAP5 POP POP POP JUMPDEST PUSH1 0x1 ADD PUSH2 0x1F3 JUMP JUMPDEST POP SWAP5 SWAP4 POP POP POP POP JUMP JUMPDEST PUSH1 0x60 PUSH0 PUSH2 0x30C PUSH1 0x1 SLOAD SWAP1 JUMP JUMPDEST SWAP1 POP PUSH0 DUP1 PUSH0 JUMPDEST DUP4 DUP2 LT ISZERO PUSH2 0x360 JUMPI CALLER PUSH1 0x6 PUSH0 PUSH2 0x329 DUP5 PUSH1 0x1 PUSH2 0x131F JUMP JUMPDEST DUP2 MSTORE PUSH1 0x20 DUP2 ADD SWAP2 SWAP1 SWAP2 MSTORE PUSH1 0x40 ADD PUSH0 KECCAK256 PUSH1 0x4 ADD SLOAD PUSH1 0x1 PUSH1 0x1 PUSH1 0xA0 SHL SUB AND SUB PUSH2 0x358 JUMPI PUSH2 0x355 PUSH1 0x1 DUP5 PUSH2 0x131F JUMP JUMPDEST SWAP3 POP JUMPDEST PUSH1 0x1 ADD PUSH2 0x312 JUMP JUMPDEST POP PUSH0 DUP3 PUSH8 0xFFFFFFFFFFFFFFFF DUP2 GT ISZERO PUSH2 0x37B JUMPI PUSH2 0x37B PUSH2 0x130B JUMP JUMPDEST PUSH1 0x40 MLOAD SWAP1 DUP1 DUP3 MSTORE DUP1 PUSH1 0x20 MUL PUSH1 0x20 ADD DUP3 ADD PUSH1 0x40 MSTORE DUP1 ISZERO PUSH2 0x3B4 JUMPI DUP2 PUSH1 0x20 ADD JUMPDEST PUSH2 0x3A1 PUSH2 0x1168 JUMP JUMPDEST DUP2 MSTORE PUSH1 0x20 ADD SWAP1 PUSH1 0x1 SWAP1 SUB SWAP1 DUP2 PUSH2 0x399 JUMPI SWAP1 POP JUMPDEST POP SWAP1 POP PUSH0 JUMPDEST DUP5 DUP2 LT ISZERO PUSH2 0x2F7 JUMPI CALLER PUSH1 0x6 PUSH0 PUSH2 0x3D0 DUP5 PUSH1 0x1 PUSH2 0x131F JUMP JUMPDEST DUP2 MSTORE PUSH1 0x20 DUP2 ADD SWAP2 SWAP1 SWAP2 MSTORE PUSH1 0x40 ADD PUSH0 KECCAK256 PUSH1 0x4 ADD SLOAD PUSH1 0x1 PUSH1 0x1 PUSH1 0xA0 SHL SUB AND SUB PUSH2 0x4B5 JUMPI PUSH0 PUSH1 0x6 DUP2 PUSH2 0x400 DUP5 PUSH1 0x1 PUSH2 0x131F JUMP JUMPDEST DUP2 MSTORE PUSH1 0x20 DUP1 DUP3 ADD SWAP3 SWAP1 SWAP3 MSTORE PUSH1 0x40 SWAP1 DUP2 ADD PUSH0 SWAP1 DUP2 KECCAK256 SLOAD DUP1 DUP3 MSTORE PUSH1 0x6 DUP1 DUP6 MSTORE SWAP2 DUP4 SWAP1 KECCAK256 DUP4 MLOAD PUSH1 0xE0 DUP2 ADD DUP6 MSTORE DUP2 SLOAD DUP2 MSTORE PUSH1 0x1 DUP3 ADD SLOAD PUSH1 0x1 PUSH1 0x1 PUSH1 0xA0 SHL SUB SWAP1 DUP2 AND SWAP7 DUP3 ADD SWAP7 SWAP1 SWAP7 MSTORE PUSH1 0x2 DUP3 ADD SLOAD SWAP5 DUP2 ADD SWAP5 SWAP1 SWAP5 MSTORE PUSH1 0x3 DUP2 ADD SLOAD DUP6 AND PUSH1 0x60 DUP6 ADD MSTORE PUSH1 0x4 DUP2 ADD SLOAD SWAP1 SWAP5 AND PUSH1 0x80 DUP5 ADD MSTORE PUSH1 0x5 DUP5 ADD SLOAD PUSH1 0xA0 DUP5 ADD MSTORE SWAP3 ADD SLOAD PUSH1 0xFF AND ISZERO ISZERO PUSH1 0xC0 DUP3 ADD MSTORE DUP5 MLOAD SWAP2 SWAP3 POP SWAP1 DUP2 SWAP1 DUP6 SWAP1 DUP8 SWAP1 DUP2 LT PUSH2 0x49A JUMPI PUSH2 0x49A PUSH2 0x1332 JUMP JUMPDEST PUSH1 0x20 SWAP1 DUP2 MUL SWAP2 SWAP1 SWAP2 ADD ADD MSTORE PUSH2 0x4B0 PUSH1 0x1 DUP7 PUSH2 0x131F JUMP JUMPDEST SWAP5 POP POP POP JUMPDEST PUSH1 0x1 ADD PUSH2 0x3B9 JUMP JUMPDEST PUSH0 DUP2 DUP2 MSTORE PUSH1 0x6 PUSH1 0x20 MSTORE PUSH1 0x40 SWAP1 KECCAK256 PUSH1 0x3 ADD SLOAD PUSH1 0x1 PUSH1 0x1 PUSH1 0xA0 SHL SUB AND CALLER EQ DUP1 ISZERO SWAP1 PUSH2 0x4FF JUMPI POP PUSH0 DUP2 DUP2 MSTORE PUSH1 0x6 PUSH1 0x20 MSTORE PUSH1 0x40 SWAP1 KECCAK256 PUSH1 0x4 ADD SLOAD PUSH1 0x1 PUSH1 0x1 PUSH1 0xA0 SHL SUB AND CALLER EQ ISZERO JUMPDEST ISZERO PUSH2 0x526 JUMPI PUSH1 0x40 MLOAD PUSH4 0x47AD5E4F PUSH1 0xE0 SHL DUP2 MSTORE PUSH1 0x4 ADD PUSH2 0x51D SWAP1 PUSH2 0x1346 JUMP JUMPDEST PUSH1 0x40 MLOAD DUP1 SWAP2 SUB SWAP1 REVERT JUMPDEST PUSH0 SWAP1 DUP2 MSTORE PUSH1 0x6 PUSH1 0x20 DUP2 SWAP1 MSTORE PUSH1 0x40 DUP3 KECCAK256 DUP3 DUP2 SSTORE PUSH1 0x1 DUP2 ADD DUP1 SLOAD PUSH1 0x1 PUSH1 0x1 PUSH1 0xA0 SHL SUB NOT SWAP1 DUP2 AND SWAP1 SWAP2 SSTORE PUSH1 0x2 DUP3 ADD DUP5 SWAP1 SSTORE PUSH1 0x3 DUP3 ADD DUP1 SLOAD DUP3 AND SWAP1 SSTORE PUSH1 0x4 DUP3 ADD DUP1 SLOAD SWAP1 SWAP2 AND SWAP1 SSTORE PUSH1 0x5 DUP2 ADD SWAP3 SWAP1 SWAP3 SSTORE ADD DUP1 SLOAD PUSH1 0xFF NOT AND SWAP1 SSTORE JUMP JUMPDEST PUSH2 0x584 PUSH2 0x10BB JUMP JUMPDEST DUP1 PUSH0 SUB PUSH2 0x5C9 JUMPI PUSH1 0x40 MLOAD PUSH4 0xCC29701 PUSH1 0xE1 SHL DUP2 MSTORE PUSH1 0x20 PUSH1 0x4 DUP3 ADD MSTORE PUSH1 0x12 PUSH1 0x24 DUP3 ADD MSTORE PUSH18 0x4974656D205072696365206973207A65726F PUSH1 0x70 SHL PUSH1 0x44 DUP3 ADD MSTORE PUSH1 0x64 ADD PUSH2 0x51D JUMP JUMPDEST PUSH1 0x4 DUP1 SLOAD PUSH1 0x5 SLOAD PUSH1 0x40 MLOAD PUSH4 0x6EB1769F PUSH1 0xE1 SHL DUP2 MSTORE CALLER SWAP4 DUP2 ADD SWAP4 SWAP1 SWAP4 MSTORE ADDRESS PUSH1 0x24 DUP5 ADD MSTORE SWAP1 SWAP2 PUSH1 0x1 PUSH1 0x1 PUSH1 0xA0 SHL SUB SWAP1 SWAP2 AND SWAP1 PUSH4 0xDD62ED3E SWAP1 PUSH1 0x44 ADD PUSH1 0x20 PUSH1 0x40 MLOAD DUP1 DUP4 SUB DUP2 DUP7 GAS STATICCALL ISZERO DUP1 ISZERO PUSH2 0x61D JUMPI RETURNDATASIZE PUSH0 DUP1 RETURNDATACOPY RETURNDATASIZE PUSH0 REVERT JUMPDEST POP POP POP POP PUSH1 0x40 MLOAD RETURNDATASIZE PUSH1 0x1F NOT PUSH1 0x1F DUP3 ADD AND DUP3 ADD DUP1 PUSH1 0x40 MSTORE POP DUP2 ADD SWAP1 PUSH2 0x641 SWAP2 SWAP1 PUSH2 0x1388 JUMP JUMPDEST LT ISZERO PUSH2 0x68B JUMPI PUSH1 0x40 MLOAD PUSH4 0x3F36F1B PUSH1 0xE1 SHL DUP2 MSTORE PUSH1 0x20 PUSH1 0x4 DUP3 ADD MSTORE PUSH1 0x18 PUSH1 0x24 DUP3 ADD MSTORE PUSH24 0x131A5CDD1A5B99C81C1C9A58D9481A5CC81B9BDD081B595D PUSH1 0x42 SHL PUSH1 0x44 DUP3 ADD MSTORE PUSH1 0x64 ADD PUSH2 0x51D JUMP JUMPDEST PUSH1 0x5 SLOAD PUSH1 0x4 DUP1 SLOAD PUSH1 0x40 MLOAD PUSH4 0x23B872DD PUSH1 0xE0 SHL DUP2 MSTORE PUSH1 0x1 PUSH1 0x1 PUSH1 0xA0 SHL SUB SWAP1 SWAP4 AND SWAP3 PUSH4 0x23B872DD SWAP3 PUSH2 0x6BF SWAP3 CALLER SWAP3 ADDRESS SWAP3 ADD PUSH2 0x139F JUMP JUMPDEST PUSH1 0x20 PUSH1 0x40 MLOAD DUP1 DUP4 SUB DUP2 PUSH0 DUP8 GAS CALL ISZERO DUP1 ISZERO PUSH2 0x6DB JUMPI RETURNDATASIZE PUSH0 DUP1 RETURNDATACOPY RETURNDATASIZE PUSH0 REVERT JUMPDEST POP POP POP POP PUSH1 0x40 MLOAD RETURNDATASIZE PUSH1 0x1F NOT PUSH1 0x1F DUP3 ADD AND DUP3 ADD DUP1 PUSH1 0x40 MSTORE POP DUP2 ADD SWAP1 PUSH2 0x6FF SWAP2 SWAP1 PUSH2 0x13C3 JUMP JUMPDEST POP PUSH2 0x70E PUSH1 0x1 DUP1 SLOAD PUSH1 0x1 ADD SWAP1 SSTORE JUMP JUMPDEST PUSH0 PUSH2 0x718 PUSH1 0x1 SLOAD SWAP1 JUMP JUMPDEST PUSH1 0x40 DUP1 MLOAD PUSH1 0xE0 DUP2 ADD DUP3 MSTORE DUP3 DUP2 MSTORE PUSH1 0x1 PUSH1 0x1 PUSH1 0xA0 SHL SUB DUP1 DUP9 AND PUSH1 0x20 DUP1 DUP5 ADD DUP3 DUP2 MSTORE DUP5 DUP7 ADD DUP11 DUP2 MSTORE CALLER PUSH1 0x60 DUP8 ADD DUP2 DUP2 MSTORE ADDRESS PUSH1 0x80 DUP10 ADD DUP2 DUP2 MSTORE PUSH1 0xA0 DUP11 ADD DUP15 DUP2 MSTORE PUSH0 PUSH1 0xC0 DUP13 ADD DUP2 DUP2 MSTORE DUP15 DUP3 MSTORE PUSH1 0x6 SWAP10 DUP11 SWAP1 MSTORE SWAP1 DUP14 SWAP1 KECCAK256 SWAP12 MLOAD DUP13 SSTORE SWAP7 MLOAD PUSH1 0x1 DUP13 ADD DUP1 SLOAD SWAP2 DUP13 AND PUSH1 0x1 PUSH1 0x1 PUSH1 0xA0 SHL SUB NOT SWAP3 DUP4 AND OR SWAP1 SSTORE SWAP6 MLOAD PUSH1 0x2 DUP13 ADD SSTORE SWAP3 MLOAD PUSH1 0x3 DUP12 ADD DUP1 SLOAD SWAP2 DUP12 AND SWAP2 DUP8 AND SWAP2 SWAP1 SWAP2 OR SWAP1 SSTORE MLOAD PUSH1 0x4 DUP1 DUP12 ADD DUP1 SLOAD SWAP3 SWAP1 SWAP11 AND SWAP2 SWAP1 SWAP6 AND OR SWAP1 SWAP8 SSTORE MLOAD PUSH1 0x5 DUP9 ADD SSTORE SWAP2 MLOAD SWAP6 SWAP1 SWAP3 ADD DUP1 SLOAD SWAP6 ISZERO ISZERO PUSH1 0xFF NOT SWAP1 SWAP7 AND SWAP6 SWAP1 SWAP6 OR SWAP1 SWAP5 SSTORE SWAP4 MLOAD PUSH4 0x23B872DD PUSH1 0xE0 SHL DUP2 MSTORE SWAP5 SWAP6 POP SWAP4 PUSH4 0x23B872DD SWAP4 PUSH2 0x7F9 SWAP4 SWAP3 SWAP2 DUP10 SWAP2 ADD PUSH2 0x139F JUMP JUMPDEST PUSH0 PUSH1 0x40 MLOAD DUP1 DUP4 SUB DUP2 PUSH0 DUP8 DUP1 EXTCODESIZE ISZERO DUP1 ISZERO PUSH2 0x810 JUMPI PUSH0 DUP1 REVERT JUMPDEST POP GAS CALL ISZERO DUP1 ISZERO PUSH2 0x822 JUMPI RETURNDATASIZE PUSH0 DUP1 RETURNDATACOPY RETURNDATASIZE PUSH0 REVERT JUMPDEST POP POP POP POP DUP3 DUP5 PUSH1 0x1 PUSH1 0x1 PUSH1 0xA0 SHL SUB AND DUP3 PUSH32 0xF8551F8BE25732324FCDA411A126B3C851E038B0FF8D097A3951DDED3772F43F CALLER ADDRESS DUP8 PUSH0 PUSH1 0x40 MLOAD PUSH2 0x867 SWAP5 SWAP4 SWAP3 SWAP2 SWAP1 PUSH2 0x13E9 JUMP JUMPDEST PUSH1 0x40 MLOAD DUP1 SWAP2 SUB SWAP1 LOG4 PUSH1 0x5 SLOAD PUSH1 0x3 SLOAD PUSH1 0x4 DUP1 SLOAD PUSH1 0x40 MLOAD PUSH4 0xA9059CBB PUSH1 0xE0 SHL DUP2 MSTORE PUSH1 0x1 PUSH1 0x1 PUSH1 0xA0 SHL SUB SWAP4 DUP5 AND SWAP3 DUP2 ADD SWAP3 SWAP1 SWAP3 MSTORE PUSH1 0x24 DUP3 ADD MSTORE SWAP2 AND SWAP1 PUSH4 0xA9059CBB SWAP1 PUSH1 0x44 ADD JUMPDEST PUSH1 0x20 PUSH1 0x40 MLOAD DUP1 DUP4 SUB DUP2 PUSH0 DUP8 GAS CALL ISZERO DUP1 ISZERO PUSH2 0x8C6 JUMPI RETURNDATASIZE PUSH0 DUP1 RETURNDATACOPY RETURNDATASIZE PUSH0 REVERT JUMPDEST POP POP POP POP PUSH1 0x40 MLOAD RETURNDATASIZE PUSH1 0x1F NOT PUSH1 0x1F DUP3 ADD AND DUP3 ADD DUP1 PUSH1 0x40 MSTORE POP DUP2 ADD SWAP1 PUSH2 0x8EA SWAP2 SWAP1 PUSH2 0x13C3 JUMP JUMPDEST POP POP PUSH2 0x8F5 PUSH1 0x1 PUSH0 SSTORE JUMP JUMPDEST POP POP POP JUMP JUMPDEST PUSH2 0x902 PUSH2 0x10BB JUMP JUMPDEST PUSH0 DUP3 DUP2 MSTORE PUSH1 0x6 PUSH1 0x20 MSTORE PUSH1 0x40 SWAP1 KECCAK256 PUSH1 0x4 ADD SLOAD PUSH1 0x1 PUSH1 0x1 PUSH1 0xA0 SHL SUB AND CALLER EQ PUSH2 0x93B JUMPI PUSH1 0x40 MLOAD PUSH4 0x47AD5E4F PUSH1 0xE0 SHL DUP2 MSTORE PUSH1 0x4 ADD PUSH2 0x51D SWAP1 PUSH2 0x1346 JUMP JUMPDEST PUSH1 0x4 DUP1 SLOAD PUSH1 0x5 SLOAD PUSH1 0x40 MLOAD PUSH4 0x6EB1769F PUSH1 0xE1 SHL DUP2 MSTORE CALLER SWAP4 DUP2 ADD SWAP4 SWAP1 SWAP4 MSTORE ADDRESS PUSH1 0x24 DUP5 ADD MSTORE SWAP1 SWAP2 PUSH1 0x1 PUSH1 0x1 PUSH1 0xA0 SHL SUB SWAP1 SWAP2 AND SWAP1 PUSH4 0xDD62ED3E SWAP1 PUSH1 0x44 ADD PUSH1 0x20 PUSH1 0x40 MLOAD DUP1 DUP4 SUB DUP2 DUP7 GAS STATICCALL ISZERO DUP1 ISZERO PUSH2 0x98F JUMPI RETURNDATASIZE PUSH0 DUP1 RETURNDATACOPY RETURNDATASIZE PUSH0 REVERT JUMPDEST POP POP POP POP PUSH1 0x40 MLOAD RETURNDATASIZE PUSH1 0x1F NOT PUSH1 0x1F DUP3 ADD AND DUP3 ADD DUP1 PUSH1 0x40 MSTORE POP DUP2 ADD SWAP1 PUSH2 0x9B3 SWAP2 SWAP1 PUSH2 0x1388 JUMP JUMPDEST LT ISZERO PUSH2 0x9FD JUMPI PUSH1 0x40 MLOAD PUSH4 0x3F36F1B PUSH1 0xE1 SHL DUP2 MSTORE PUSH1 0x20 PUSH1 0x4 DUP3 ADD MSTORE PUSH1 0x18 PUSH1 0x24 DUP3 ADD MSTORE PUSH24 0x131A5CDD1A5B99C81C1C9A58D9481A5CC81B9BDD081B595D PUSH1 0x42 SHL PUSH1 0x44 DUP3 ADD MSTORE PUSH1 0x64 ADD PUSH2 0x51D JUMP JUMPDEST PUSH1 0x5 SLOAD PUSH1 0x4 DUP1 SLOAD PUSH1 0x40 MLOAD PUSH4 0x23B872DD PUSH1 0xE0 SHL DUP2 MSTORE PUSH1 0x1 PUSH1 0x1 PUSH1 0xA0 SHL SUB SWAP1 SWAP4 AND SWAP3 PUSH4 0x23B872DD SWAP3 PUSH2 0xA31 SWAP3 CALLER SWAP3 ADDRESS SWAP3 ADD PUSH2 0x139F JUMP JUMPDEST PUSH1 0x20 PUSH1 0x40 MLOAD DUP1 DUP4 SUB DUP2 PUSH0 DUP8 GAS CALL ISZERO DUP1 ISZERO PUSH2 0xA4D JUMPI RETURNDATASIZE PUSH0 DUP1 RETURNDATACOPY RETURNDATASIZE PUSH0 REVERT JUMPDEST POP POP POP POP PUSH1 0x40 MLOAD RETURNDATASIZE PUSH1 0x1F NOT PUSH1 0x1F DUP3 ADD AND DUP3 ADD DUP1 PUSH1 0x40 MSTORE POP DUP2 ADD SWAP1 PUSH2 0xA71 SWAP2 SWAP1 PUSH2 0x13C3 JUMP JUMPDEST POP PUSH0 DUP3 DUP2 MSTORE PUSH1 0x6 PUSH1 0x20 DUP2 SWAP1 MSTORE PUSH1 0x40 SWAP1 SWAP2 KECCAK256 SWAP1 DUP2 ADD DUP1 SLOAD PUSH1 0xFF NOT AND SWAP1 SSTORE PUSH1 0x5 DUP2 ADD DUP3 SWAP1 SSTORE PUSH1 0x3 DUP2 ADD DUP1 SLOAD PUSH1 0x1 PUSH1 0x1 PUSH1 0xA0 SHL SUB NOT SWAP1 DUP2 AND CALLER OR SWAP1 SWAP2 SSTORE PUSH1 0x4 SWAP1 SWAP2 ADD DUP1 SLOAD SWAP1 SWAP2 AND ADDRESS OR SWAP1 SSTORE PUSH2 0xAC3 PUSH1 0x2 PUSH2 0x1112 JUMP JUMPDEST PUSH0 DUP3 DUP2 MSTORE PUSH1 0x6 PUSH1 0x20 MSTORE PUSH1 0x40 SWAP1 DUP2 SWAP1 KECCAK256 PUSH1 0x2 ADD SLOAD SWAP1 MLOAD PUSH4 0x23B872DD PUSH1 0xE0 SHL DUP2 MSTORE PUSH1 0x1 PUSH1 0x1 PUSH1 0xA0 SHL SUB DUP6 AND SWAP1 PUSH4 0x23B872DD SWAP1 PUSH2 0xB05 SWAP1 CALLER SWAP1 ADDRESS SWAP1 DUP7 SWAP1 PUSH1 0x4 ADD PUSH2 0x139F JUMP JUMPDEST PUSH0 PUSH1 0x40 MLOAD DUP1 DUP4 SUB DUP2 PUSH0 DUP8 DUP1 EXTCODESIZE ISZERO DUP1 ISZERO PUSH2 0xB1C JUMPI PUSH0 DUP1 REVERT JUMPDEST POP GAS CALL ISZERO DUP1 ISZERO PUSH2 0xB2E JUMPI RETURNDATASIZE PUSH0 DUP1 RETURNDATACOPY RETURNDATASIZE PUSH0 REVERT JUMPDEST POP POP POP POP DUP1 DUP5 PUSH1 0x1 PUSH1 0x1 PUSH1 0xA0 SHL SUB AND PUSH32 0x52679D6CF973DFF612DE0D67AD1642E7B8B401DCB1C41EA86BF35B82AC6BF88 CALLER ADDRESS DUP7 PUSH0 PUSH1 0x40 MLOAD PUSH2 0xB72 SWAP5 SWAP4 SWAP3 SWAP2 SWAP1 PUSH2 0x13E9 JUMP JUMPDEST PUSH1 0x40 MLOAD DUP1 SWAP2 SUB SWAP1 LOG3 PUSH1 0x5 SLOAD PUSH1 0x3 SLOAD PUSH1 0x4 DUP1 SLOAD PUSH1 0x40 MLOAD PUSH4 0xA9059CBB PUSH1 0xE0 SHL DUP2 MSTORE PUSH1 0x1 PUSH1 0x1 PUSH1 0xA0 SHL SUB SWAP4 DUP5 AND SWAP3 DUP2 ADD SWAP3 SWAP1 SWAP3 MSTORE PUSH1 0x24 DUP3 ADD MSTORE SWAP2 AND SWAP1 PUSH4 0xA9059CBB SWAP1 PUSH1 0x44 ADD PUSH2 0x8AA JUMP JUMPDEST PUSH2 0xBC1 PUSH2 0x10BB JUMP JUMPDEST PUSH0 DUP2 DUP2 MSTORE PUSH1 0x6 PUSH1 0x20 MSTORE PUSH1 0x40 SWAP1 DUP2 SWAP1 KECCAK256 PUSH1 0x5 DUP1 DUP3 ADD SLOAD PUSH1 0x2 DUP4 ADD SLOAD PUSH1 0x3 SWAP1 SWAP4 ADD SLOAD SWAP2 SLOAD SWAP4 MLOAD PUSH4 0x6EB1769F PUSH1 0xE1 SHL DUP2 MSTORE CALLER PUSH1 0x4 DUP3 ADD MSTORE ADDRESS PUSH1 0x24 DUP3 ADD MSTORE SWAP1 SWAP4 PUSH1 0x1 PUSH1 0x1 PUSH1 0xA0 SHL SUB SWAP3 DUP4 AND SWAP3 DUP6 SWAP3 SWAP2 AND SWAP1 PUSH4 0xDD62ED3E SWAP1 PUSH1 0x44 ADD PUSH1 0x20 PUSH1 0x40 MLOAD DUP1 DUP4 SUB DUP2 DUP7 GAS STATICCALL ISZERO DUP1 ISZERO PUSH2 0xC32 JUMPI RETURNDATASIZE PUSH0 DUP1 RETURNDATACOPY RETURNDATASIZE PUSH0 REVERT JUMPDEST POP POP POP POP PUSH1 0x40 MLOAD RETURNDATASIZE PUSH1 0x1F NOT PUSH1 0x1F DUP3 ADD AND DUP3 ADD DUP1 PUSH1 0x40 MSTORE POP DUP2 ADD SWAP1 PUSH2 0xC56 SWAP2 SWAP1 PUSH2 0x1388 JUMP JUMPDEST LT ISZERO PUSH2 0xCA5 JUMPI PUSH1 0x40 MLOAD PUSH4 0x3F36F1B PUSH1 0xE1 SHL DUP2 MSTORE PUSH1 0x20 PUSH1 0x4 DUP3 ADD MSTORE PUSH1 0x18 PUSH1 0x24 DUP3 ADD MSTORE PUSH32 0x4C697374696E67205072696365206973206E6F74206D65740000000000000000 PUSH1 0x44 DUP3 ADD MSTORE PUSH1 0x64 ADD PUSH2 0x51D JUMP JUMPDEST PUSH1 0x5 SLOAD PUSH1 0x40 MLOAD PUSH4 0x23B872DD PUSH1 0xE0 SHL DUP2 MSTORE PUSH1 0x1 PUSH1 0x1 PUSH1 0xA0 SHL SUB SWAP1 SWAP2 AND SWAP1 PUSH4 0x23B872DD SWAP1 PUSH2 0xCD9 SWAP1 CALLER SWAP1 ADDRESS SWAP1 DUP9 SWAP1 PUSH1 0x4 ADD PUSH2 0x139F JUMP JUMPDEST PUSH1 0x20 PUSH1 0x40 MLOAD DUP1 DUP4 SUB DUP2 PUSH0 DUP8 GAS CALL ISZERO DUP1 ISZERO PUSH2 0xCF5 JUMPI RETURNDATASIZE PUSH0 DUP1 RETURNDATACOPY RETURNDATASIZE PUSH0 REVERT JUMPDEST POP POP POP POP PUSH1 0x40 MLOAD RETURNDATASIZE PUSH1 0x1F NOT PUSH1 0x1F DUP3 ADD AND DUP3 ADD DUP1 PUSH1 0x40 MSTORE POP DUP2 ADD SWAP1 PUSH2 0xD19 SWAP2 SWAP1 PUSH2 0x13C3 JUMP JUMPDEST POP PUSH1 0x40 MLOAD PUSH4 0x23B872DD PUSH1 0xE0 SHL DUP2 MSTORE PUSH1 0x1 PUSH1 0x1 PUSH1 0xA0 SHL SUB DUP7 AND SWAP1 PUSH4 0x23B872DD SWAP1 PUSH2 0xD4A SWAP1 ADDRESS SWAP1 CALLER SWAP1 DUP8 SWAP1 PUSH1 0x4 ADD PUSH2 0x139F JUMP JUMPDEST PUSH0 PUSH1 0x40 MLOAD DUP1 DUP4 SUB DUP2 PUSH0 DUP8 DUP1 EXTCODESIZE ISZERO DUP1 ISZERO PUSH2 0xD61 JUMPI PUSH0 DUP1 REVERT JUMPDEST POP GAS CALL ISZERO DUP1 ISZERO PUSH2 0xD73 JUMPI RETURNDATASIZE PUSH0 DUP1 RETURNDATACOPY RETURNDATASIZE PUSH0 REVERT JUMPDEST POP POP PUSH1 0x5 SLOAD PUSH1 0x40 MLOAD PUSH4 0xA9059CBB PUSH1 0xE0 SHL DUP2 MSTORE PUSH1 0x1 PUSH1 0x1 PUSH1 0xA0 SHL SUB DUP6 DUP2 AND PUSH1 0x4 DUP4 ADD MSTORE PUSH1 0x24 DUP3 ADD DUP9 SWAP1 MSTORE SWAP1 SWAP2 AND SWAP3 POP PUSH4 0xA9059CBB SWAP2 POP PUSH1 0x44 ADD PUSH1 0x20 PUSH1 0x40 MLOAD DUP1 DUP4 SUB DUP2 PUSH0 DUP8 GAS CALL ISZERO DUP1 ISZERO PUSH2 0xDC7 JUMPI RETURNDATASIZE PUSH0 DUP1 RETURNDATACOPY RETURNDATASIZE PUSH0 REVERT JUMPDEST POP POP POP POP PUSH1 0x40 MLOAD RETURNDATASIZE PUSH1 0x1F NOT PUSH1 0x1F DUP3 ADD AND DUP3 ADD DUP1 PUSH1 0x40 MSTORE POP DUP2 ADD SWAP1 PUSH2 0xDEB SWAP2 SWAP1 PUSH2 0x13C3 JUMP JUMPDEST POP PUSH0 DUP5 DUP2 MSTORE PUSH1 0x6 PUSH1 0x20 DUP2 SWAP1 MSTORE PUSH1 0x40 SWAP1 SWAP2 KECCAK256 PUSH1 0x4 DUP2 ADD DUP1 SLOAD PUSH1 0x1 PUSH1 0x1 PUSH1 0xA0 SHL SUB NOT AND CALLER OR SWAP1 SSTORE ADD DUP1 SLOAD PUSH1 0xFF NOT AND PUSH1 0x1 OR SWAP1 SSTORE PUSH2 0xE2A PUSH1 0x2 DUP1 SLOAD PUSH1 0x1 ADD SWAP1 SSTORE JUMP JUMPDEST DUP2 DUP6 PUSH1 0x1 PUSH1 0x1 PUSH1 0xA0 SHL SUB AND PUSH32 0x9A9F9FAF9D964B2FB1888CDF05202BAF5A1B99D45F7AFD6A5E062AC544B3C150 ADDRESS CALLER DUP8 PUSH1 0x1 PUSH1 0x40 MLOAD PUSH2 0xE6B SWAP5 SWAP4 SWAP3 SWAP2 SWAP1 PUSH2 0x13E9 JUMP JUMPDEST PUSH1 0x40 MLOAD DUP1 SWAP2 SUB SWAP1 LOG3 POP POP POP PUSH2 0xE7F PUSH1 0x1 PUSH0 SSTORE JUMP JUMPDEST POP POP JUMP JUMPDEST PUSH2 0xE8B PUSH2 0x1168 JUMP JUMPDEST POP PUSH0 SWAP1 DUP2 MSTORE PUSH1 0x6 PUSH1 0x20 DUP2 DUP2 MSTORE PUSH1 0x40 SWAP3 DUP4 SWAP1 KECCAK256 DUP4 MLOAD PUSH1 0xE0 DUP2 ADD DUP6 MSTORE DUP2 SLOAD DUP2 MSTORE PUSH1 0x1 DUP3 ADD SLOAD PUSH1 0x1 PUSH1 0x1 PUSH1 0xA0 SHL SUB SWAP1 DUP2 AND SWAP4 DUP3 ADD SWAP4 SWAP1 SWAP4 MSTORE PUSH1 0x2 DUP3 ADD SLOAD SWAP5 DUP2 ADD SWAP5 SWAP1 SWAP5 MSTORE PUSH1 0x3 DUP2 ADD SLOAD DUP3 AND PUSH1 0x60 DUP6 ADD MSTORE PUSH1 0x4 DUP2 ADD SLOAD SWAP1 SWAP2 AND PUSH1 0x80 DUP5 ADD MSTORE PUSH1 0x5 DUP2 ADD SLOAD PUSH1 0xA0 DUP5 ADD MSTORE ADD SLOAD PUSH1 0xFF AND ISZERO ISZERO PUSH1 0xC0 DUP3 ADD MSTORE SWAP1 JUMP JUMPDEST PUSH1 0x60 PUSH0 PUSH2 0xF0A PUSH1 0x1 SLOAD SWAP1 JUMP JUMPDEST SWAP1 POP PUSH0 DUP1 PUSH0 JUMPDEST DUP4 DUP2 LT ISZERO PUSH2 0xF5E JUMPI CALLER PUSH1 0x6 PUSH0 PUSH2 0xF27 DUP5 PUSH1 0x1 PUSH2 0x131F JUMP JUMPDEST DUP2 MSTORE PUSH1 0x20 DUP2 ADD SWAP2 SWAP1 SWAP2 MSTORE PUSH1 0x40 ADD PUSH0 KECCAK256 PUSH1 0x3 ADD SLOAD PUSH1 0x1 PUSH1 0x1 PUSH1 0xA0 SHL SUB AND SUB PUSH2 0xF56 JUMPI PUSH2 0xF53 PUSH1 0x1 DUP5 PUSH2 0x131F JUMP JUMPDEST SWAP3 POP JUMPDEST PUSH1 0x1 ADD PUSH2 0xF10 JUMP JUMPDEST POP PUSH0 DUP3 PUSH8 0xFFFFFFFFFFFFFFFF DUP2 GT ISZERO PUSH2 0xF79 JUMPI PUSH2 0xF79 PUSH2 0x130B JUMP JUMPDEST PUSH1 0x40 MLOAD SWAP1 DUP1 DUP3 MSTORE DUP1 PUSH1 0x20 MUL PUSH1 0x20 ADD DUP3 ADD PUSH1 0x40 MSTORE DUP1 ISZERO PUSH2 0xFB2 JUMPI DUP2 PUSH1 0x20 ADD JUMPDEST PUSH2 0xF9F PUSH2 0x1168 JUMP JUMPDEST DUP2 MSTORE PUSH1 0x20 ADD SWAP1 PUSH1 0x1 SWAP1 SUB SWAP1 DUP2 PUSH2 0xF97 JUMPI SWAP1 POP JUMPDEST POP SWAP1 POP PUSH0 JUMPDEST DUP5 DUP2 LT ISZERO PUSH2 0x2F7 JUMPI CALLER PUSH1 0x6 PUSH0 PUSH2 0xFCE DUP5 PUSH1 0x1 PUSH2 0x131F JUMP JUMPDEST DUP2 MSTORE PUSH1 0x20 DUP2 ADD SWAP2 SWAP1 SWAP2 MSTORE PUSH1 0x40 ADD PUSH0 KECCAK256 PUSH1 0x3 ADD SLOAD PUSH1 0x1 PUSH1 0x1 PUSH1 0xA0 SHL SUB AND SUB PUSH2 0x10B3 JUMPI PUSH0 PUSH1 0x6 DUP2 PUSH2 0xFFE DUP5 PUSH1 0x1 PUSH2 0x131F JUMP JUMPDEST DUP2 MSTORE PUSH1 0x20 DUP1 DUP3 ADD SWAP3 SWAP1 SWAP3 MSTORE PUSH1 0x40 SWAP1 DUP2 ADD PUSH0 SWAP1 DUP2 KECCAK256 SLOAD DUP1 DUP3 MSTORE PUSH1 0x6 DUP1 DUP6 MSTORE SWAP2 DUP4 SWAP1 KECCAK256 DUP4 MLOAD PUSH1 0xE0 DUP2 ADD DUP6 MSTORE DUP2 SLOAD DUP2 MSTORE PUSH1 0x1 DUP3 ADD SLOAD PUSH1 0x1 PUSH1 0x1 PUSH1 0xA0 SHL SUB SWAP1 DUP2 AND SWAP7 DUP3 ADD SWAP7 SWAP1 SWAP7 MSTORE PUSH1 0x2 DUP3 ADD SLOAD SWAP5 DUP2 ADD SWAP5 SWAP1 SWAP5 MSTORE PUSH1 0x3 DUP2 ADD SLOAD DUP6 AND PUSH1 0x60 DUP6 ADD MSTORE PUSH1 0x4 DUP2 ADD SLOAD SWAP1 SWAP5 AND PUSH1 0x80 DUP5 ADD MSTORE PUSH1 0x5 DUP5 ADD SLOAD PUSH1 0xA0 DUP5 ADD MSTORE SWAP3 ADD SLOAD PUSH1 0xFF AND ISZERO ISZERO PUSH1 0xC0 DUP3 ADD MSTORE DUP5 MLOAD SWAP2 SWAP3 POP SWAP1 DUP2 SWAP1 DUP6 SWAP1 DUP8 SWAP1 DUP2 LT PUSH2 0x1098 JUMPI PUSH2 0x1098 PUSH2 0x1332 JUMP JUMPDEST PUSH1 0x20 SWAP1 DUP2 MUL SWAP2 SWAP1 SWAP2 ADD ADD MSTORE PUSH2 0x10AE PUSH1 0x1 DUP7 PUSH2 0x131F JUMP JUMPDEST SWAP5 POP POP POP JUMPDEST PUSH1 0x1 ADD PUSH2 0xFB7 JUMP JUMPDEST PUSH1 0x2 PUSH0 SLOAD SUB PUSH2 0x110C JUMPI PUSH1 0x40 MLOAD PUSH3 0x461BCD PUSH1 0xE5 SHL DUP2 MSTORE PUSH1 0x20 PUSH1 0x4 DUP3 ADD MSTORE PUSH1 0x1F PUSH1 0x24 DUP3 ADD MSTORE PUSH32 0x5265656E7472616E637947756172643A207265656E7472616E742063616C6C00 PUSH1 0x44 DUP3 ADD MSTORE PUSH1 0x64 ADD PUSH2 0x51D JUMP JUMPDEST PUSH1 0x2 PUSH0 SSTORE JUMP JUMPDEST DUP1 SLOAD DUP1 PUSH2 0x1161 JUMPI PUSH1 0x40 MLOAD PUSH3 0x461BCD PUSH1 0xE5 SHL DUP2 MSTORE PUSH1 0x20 PUSH1 0x4 DUP3 ADD MSTORE PUSH1 0x1B PUSH1 0x24 DUP3 ADD MSTORE PUSH32 0x436F756E7465723A2064656372656D656E74206F766572666C6F770000000000 PUSH1 0x44 DUP3 ADD MSTORE PUSH1 0x64 ADD PUSH2 0x51D JUMP JUMPDEST PUSH0 NOT ADD SWAP1 SSTORE JUMP JUMPDEST PUSH1 0x40 DUP1 MLOAD PUSH1 0xE0 DUP2 ADD DUP3 MSTORE PUSH0 DUP1 DUP3 MSTORE PUSH1 0x20 DUP3 ADD DUP2 SWAP1 MSTORE SWAP2 DUP2 ADD DUP3 SWAP1 MSTORE PUSH1 0x60 DUP2 ADD DUP3 SWAP1 MSTORE PUSH1 0x80 DUP2 ADD DUP3 SWAP1 MSTORE PUSH1 0xA0 DUP2 ADD DUP3 SWAP1 MSTORE PUSH1 0xC0 DUP2 ADD SWAP2 SWAP1 SWAP2 MSTORE SWAP1 JUMP JUMPDEST DUP1 MLOAD DUP3 MSTORE PUSH1 0x20 DUP1 DUP3 ADD MLOAD PUSH1 0x1 PUSH1 0x1 PUSH1 0xA0 SHL SUB SWAP1 DUP2 AND SWAP2 DUP5 ADD SWAP2 SWAP1 SWAP2 MSTORE PUSH1 0x40 DUP1 DUP4 ADD MLOAD SWAP1 DUP5 ADD MSTORE PUSH1 0x60 DUP1 DUP4 ADD MLOAD DUP3 AND SWAP1 DUP5 ADD MSTORE PUSH1 0x80 DUP1 DUP4 ADD MLOAD SWAP1 SWAP2 AND SWAP1 DUP4 ADD MSTORE PUSH1 0xA0 DUP1 DUP3 ADD MLOAD SWAP1 DUP4 ADD MSTORE PUSH1 0xC0 SWAP1 DUP2 ADD MLOAD ISZERO ISZERO SWAP2 ADD MSTORE JUMP JUMPDEST PUSH1 0x20 DUP1 DUP3 MSTORE DUP3 MLOAD DUP3 DUP3 ADD DUP2 SWAP1 MSTORE PUSH0 SWAP2 DUP5 ADD SWAP1 PUSH1 0x40 DUP5 ADD SWAP1 DUP4 JUMPDEST DUP2 DUP2 LT ISZERO PUSH2 0x123B JUMPI PUSH2 0x1225 DUP4 DUP6 MLOAD PUSH2 0x11A3 JUMP JUMPDEST PUSH1 0x20 SWAP4 SWAP1 SWAP4 ADD SWAP3 PUSH1 0xE0 SWAP3 SWAP1 SWAP3 ADD SWAP2 PUSH1 0x1 ADD PUSH2 0x1212 JUMP JUMPDEST POP SWAP1 SWAP6 SWAP5 POP POP POP POP POP JUMP JUMPDEST PUSH0 PUSH1 0x20 DUP3 DUP5 SUB SLT ISZERO PUSH2 0x1256 JUMPI PUSH0 DUP1 REVERT JUMPDEST POP CALLDATALOAD SWAP2 SWAP1 POP JUMP JUMPDEST DUP1 CALLDATALOAD PUSH1 0x1 PUSH1 0x1 PUSH1 0xA0 SHL SUB DUP2 AND DUP2 EQ PUSH2 0x1273 JUMPI PUSH0 DUP1 REVERT JUMPDEST SWAP2 SWAP1 POP JUMP JUMPDEST PUSH0 DUP1 PUSH0 PUSH1 0x60 DUP5 DUP7 SUB SLT ISZERO PUSH2 0x128A JUMPI PUSH0 DUP1 REVERT JUMPDEST PUSH2 0x1293 DUP5 PUSH2 0x125D JUMP JUMPDEST SWAP6 PUSH1 0x20 DUP6 ADD CALLDATALOAD SWAP6 POP PUSH1 0x40 SWAP1 SWAP5 ADD CALLDATALOAD SWAP4 SWAP3 POP POP POP JUMP JUMPDEST PUSH0 DUP1 PUSH1 0x40 DUP4 DUP6 SUB SLT ISZERO PUSH2 0x12B9 JUMPI PUSH0 DUP1 REVERT JUMPDEST PUSH2 0x12C2 DUP4 PUSH2 0x125D JUMP JUMPDEST SWAP5 PUSH1 0x20 SWAP4 SWAP1 SWAP4 ADD CALLDATALOAD SWAP4 POP POP POP JUMP JUMPDEST PUSH1 0xE0 DUP2 ADD PUSH2 0x12DE DUP3 DUP5 PUSH2 0x11A3 JUMP JUMPDEST SWAP3 SWAP2 POP POP JUMP JUMPDEST PUSH4 0x4E487B71 PUSH1 0xE0 SHL PUSH0 MSTORE PUSH1 0x11 PUSH1 0x4 MSTORE PUSH1 0x24 PUSH0 REVERT JUMPDEST DUP2 DUP2 SUB DUP2 DUP2 GT ISZERO PUSH2 0x12DE JUMPI PUSH2 0x12DE PUSH2 0x12E4 JUMP JUMPDEST PUSH4 0x4E487B71 PUSH1 0xE0 SHL PUSH0 MSTORE PUSH1 0x41 PUSH1 0x4 MSTORE PUSH1 0x24 PUSH0 REVERT JUMPDEST DUP1 DUP3 ADD DUP1 DUP3 GT ISZERO PUSH2 0x12DE JUMPI PUSH2 0x12DE PUSH2 0x12E4 JUMP JUMPDEST PUSH4 0x4E487B71 PUSH1 0xE0 SHL PUSH0 MSTORE PUSH1 0x32 PUSH1 0x4 MSTORE PUSH1 0x24 PUSH0 REVERT JUMPDEST PUSH1 0x20 DUP1 DUP3 MSTORE PUSH1 0x22 SWAP1 DUP3 ADD MSTORE PUSH32 0x596F7520617265206E6F7420746865206F776E6572206F662074686973206974 PUSH1 0x40 DUP3 ADD MSTORE PUSH2 0x656D PUSH1 0xF0 SHL PUSH1 0x60 DUP3 ADD MSTORE PUSH1 0x80 ADD SWAP1 JUMP JUMPDEST PUSH0 PUSH1 0x20 DUP3 DUP5 SUB SLT ISZERO PUSH2 0x1398 JUMPI PUSH0 DUP1 REVERT JUMPDEST POP MLOAD SWAP2 SWAP1 POP JUMP JUMPDEST PUSH1 0x1 PUSH1 0x1 PUSH1 0xA0 SHL SUB SWAP4 DUP5 AND DUP2 MSTORE SWAP2 SWAP1 SWAP3 AND PUSH1 0x20 DUP3 ADD MSTORE PUSH1 0x40 DUP2 ADD SWAP2 SWAP1 SWAP2 MSTORE PUSH1 0x60 ADD SWAP1 JUMP JUMPDEST PUSH0 PUSH1 0x20 DUP3 DUP5 SUB SLT ISZERO PUSH2 0x13D3 JUMPI PUSH0 DUP1 REVERT JUMPDEST DUP2 MLOAD DUP1 ISZERO ISZERO DUP2 EQ PUSH2 0x13E2 JUMPI PUSH0 DUP1 REVERT JUMPDEST SWAP4 SWAP3 POP POP POP JUMP JUMPDEST PUSH1 0x1 PUSH1 0x1 PUSH1 0xA0 SHL SUB SWAP5 DUP6 AND DUP2 MSTORE SWAP3 SWAP1 SWAP4 AND PUSH1 0x20 DUP4 ADD MSTORE PUSH1 0x40 DUP3 ADD MSTORE SWAP1 ISZERO ISZERO PUSH1 0x60 DUP3 ADD MSTORE PUSH1 0x80 ADD SWAP1 JUMP INVALID LOG2 PUSH5 0x6970667358 0x22 SLT KECCAK256 0xBE PUSH19 0x2109414DB35402CEB552184BE9BF3575D6917B BYTE 0xF SMOD 0xAE 0xCD COINBASE PREVRANDAO MSTORE 0xFB 0xB3 BLOCKHASH PUSH5 0x736F6C6343 STOP ADDMOD BYTE STOP CALLER "
				},
				"gasEstimates": {
					"creation": {
						"codeDepositCost": "1038400",
						"executionCost": "infinite",
						"totalCost": "infinite"
					},
					"external": {
						"buyItem(address,uint256)": "infinite",
						"getAllListedItems()": "infinite",
						"getListingPrice()": "2269",
						"getOwnerListedItems()": "infinite",
						"getParticularItem(uint256)": "15857",
						"getSellerListedItems()": "infinite",
						"listItem(address,uint256,uint256)": "infinite",
						"resellItem(address,uint256,uint256)": "infinite",
						"tradingToken()": "2359",
						"unlistItem(uint256)": "116768"
					}
				},
				"methodIdentifiers": {
					"buyItem(address,uint256)": "9f37092a",
					"getAllListedItems()": "3b1b1ad0",
					"getListingPrice()": "12e85585",
					"getOwnerListedItems()": "4d757a1c",
					"getParticularItem(uint256)": "f2a7a2b4",
					"getSellerListedItems()": "f9319c53",
					"listItem(address,uint256,uint256)": "89bfd38f",
					"resellItem(address,uint256,uint256)": "8f0af0f9",
					"tradingToken()": "2ad8a220",
					"unlistItem(uint256)": "5a599da8"
				}
			},
			"storageLayout": {
				"storage": [
					{
						"astId": 147,
						"contract": "contracts/Marketplace.sol:NFTMarketplace",
						"label": "_status",
						"offset": 0,
						"slot": "0",
						"type": "t_uint256"
					},
					{
						"astId": 3061,
						"contract": "contracts/Marketplace.sol:NFTMarketplace",
						"label": "s_nftIds",
						"offset": 0,
						"slot": "1",
						"type": "t_struct(Counter)1512_storage"
					},
					{
						"astId": 3064,
						"contract": "contracts/Marketplace.sol:NFTMarketplace",
						"label": "s_nftSold",
						"offset": 0,
						"slot": "2",
						"type": "t_struct(Counter)1512_storage"
					},
					{
						"astId": 3066,
						"contract": "contracts/Marketplace.sol:NFTMarketplace",
						"label": "owner",
						"offset": 0,
						"slot": "3",
						"type": "t_address_payable"
					},
					{
						"astId": 3074,
						"contract": "contracts/Marketplace.sol:NFTMarketplace",
						"label": "listingPrice",
						"offset": 0,
						"slot": "4",
						"type": "t_uint256"
					},
					{
						"astId": 3077,
						"contract": "contracts/Marketplace.sol:NFTMarketplace",
						"label": "tradingToken",
						"offset": 0,
						"slot": "5",
						"type": "t_contract(IERC20)279"
					},
					{
						"astId": 3117,
						"contract": "contracts/Marketplace.sol:NFTMarketplace",
						"label": "Items",
						"offset": 0,
						"slot": "6",
						"type": "t_mapping(t_uint256,t_struct(Item)3112_storage)"
					}
				],
				"types": {
					"t_address": {
						"encoding": "inplace",
						"label": "address",
						"numberOfBytes": "20"
					},
					"t_address_payable": {
						"encoding": "inplace",
						"label": "address payable",
						"numberOfBytes": "20"
					},
					"t_bool": {
						"encoding": "inplace",
						"label": "bool",
						"numberOfBytes": "1"
					},
					"t_contract(IERC20)279": {
						"encoding": "inplace",
						"label": "contract IERC20",
						"numberOfBytes": "20"
					},
					"t_mapping(t_uint256,t_struct(Item)3112_storage)": {
						"encoding": "mapping",
						"key": "t_uint256",
						"label": "mapping(uint256 => struct NFTMarketplace.Item)",
						"numberOfBytes": "32",
						"value": "t_struct(Item)3112_storage"
					},
					"t_struct(Counter)1512_storage": {
						"encoding": "inplace",
						"label": "struct Counters.Counter",
						"members": [
							{
								"astId": 1511,
								"contract": "contracts/Marketplace.sol:NFTMarketplace",
								"label": "_value",
								"offset": 0,
								"slot": "0",
								"type": "t_uint256"
							}
						],
						"numberOfBytes": "32"
					},
					"t_struct(Item)3112_storage": {
						"encoding": "inplace",
						"label": "struct NFTMarketplace.Item",
						"members": [
							{
								"astId": 3099,
								"contract": "contracts/Marketplace.sol:NFTMarketplace",
								"label": "itemId",
								"offset": 0,
								"slot": "0",
								"type": "t_uint256"
							},
							{
								"astId": 3101,
								"contract": "contracts/Marketplace.sol:NFTMarketplace",
								"label": "nftContract",
								"offset": 0,
								"slot": "1",
								"type": "t_address"
							},
							{
								"astId": 3103,
								"contract": "contracts/Marketplace.sol:NFTMarketplace",
								"label": "tokenId",
								"offset": 0,
								"slot": "2",
								"type": "t_uint256"
							},
							{
								"astId": 3105,
								"contract": "contracts/Marketplace.sol:NFTMarketplace",
								"label": "seller",
								"offset": 0,
								"slot": "3",
								"type": "t_address"
							},
							{
								"astId": 3107,
								"contract": "contracts/Marketplace.sol:NFTMarketplace",
								"label": "owner",
								"offset": 0,
								"slot": "4",
								"type": "t_address"
							},
							{
								"astId": 3109,
								"contract": "contracts/Marketplace.sol:NFTMarketplace",
								"label": "price",
								"offset": 0,
								"slot": "5",
								"type": "t_uint256"
							},
							{
								"astId": 3111,
								"contract": "contracts/Marketplace.sol:NFTMarketplace",
								"label": "sold",
								"offset": 0,
								"slot": "6",
								"type": "t_bool"
							}
						],
						"numberOfBytes": "224"
					},
					"t_uint256": {
						"encoding": "inplace",
						"label": "uint256",
						"numberOfBytes": "32"
					}
				}
			},
			"userdoc": {
				"kind": "user",
				"methods": {},
				"version": 1
			}
		}
	}
}