{
	"contracts/NFT.sol": {
		"NFT": {
			"abi": [
				{
					"inputs": [
						{
							"internalType": "address",
							"name": "_marketplaceAddress",
							"type": "address"
						}
					],
					"stateMutability": "nonpayable",
					"type": "constructor"
				},
				{
					"inputs": [
						{
							"internalType": "address",
							"name": "sender",
							"type": "address"
						},
						{
							"internalType": "uint256",
							"name": "tokenId",
							"type": "uint256"
						},
						{
							"internalType": "address",
							"name": "owner",
							"type": "address"
						}
					],
					"name": "ERC721IncorrectOwner",
					"type": "error"
				},
				{
					"inputs": [
						{
							"internalType": "address",
							"name": "operator",
							"type": "address"
						},
						{
							"internalType": "uint256",
							"name": "tokenId",
							"type": "uint256"
						}
					],
					"name": "ERC721InsufficientApproval",
					"type": "error"
				},
				{
					"inputs": [
						{
							"internalType": "address",
							"name": "approver",
							"type": "address"
						}
					],
					"name": "ERC721InvalidApprover",
					"type": "error"
				},
				{
					"inputs": [
						{
							"internalType": "address",
							"name": "operator",
							"type": "address"
						}
					],
					"name": "ERC721InvalidOperator",
					"type": "error"
				},
				{
					"inputs": [
						{
							"internalType": "address",
							"name": "owner",
							"type": "address"
						}
					],
					"name": "ERC721InvalidOwner",
					"type": "error"
				},
				{
					"inputs": [
						{
							"internalType": "address",
							"name": "receiver",
							"type": "address"
						}
					],
					"name": "ERC721InvalidReceiver",
					"type": "error"
				},
				{
					"inputs": [
						{
							"internalType": "address",
							"name": "sender",
							"type": "address"
						}
					],
					"name": "ERC721InvalidSender",
					"type": "error"
				},
				{
					"inputs": [
						{
							"internalType": "uint256",
							"name": "tokenId",
							"type": "uint256"
						}
					],
					"name": "ERC721NonexistentToken",
					"type": "error"
				},
				{
					"anonymous": false,
					"inputs": [
						{
							"indexed": true,
							"internalType": "address",
							"name": "owner",
							"type": "address"
						},
						{
							"indexed": true,
							"internalType": "address",
							"name": "approved",
							"type": "address"
						},
						{
							"indexed": true,
							"internalType": "uint256",
							"name": "tokenId",
							"type": "uint256"
						}
					],
					"name": "Approval",
					"type": "event"
				},
				{
					"anonymous": false,
					"inputs": [
						{
							"indexed": true,
							"internalType": "address",
							"name": "owner",
							"type": "address"
						},
						{
							"indexed": true,
							"internalType": "address",
							"name": "operator",
							"type": "address"
						},
						{
							"indexed": false,
							"internalType": "bool",
							"name": "approved",
							"type": "bool"
						}
					],
					"name": "ApprovalForAll",
					"type": "event"
				},
				{
					"anonymous": false,
					"inputs": [
						{
							"indexed": false,
							"internalType": "uint256",
							"name": "_fromTokenId",
							"type": "uint256"
						},
						{
							"indexed": false,
							"internalType": "uint256",
							"name": "_toTokenId",
							"type": "uint256"
						}
					],
					"name": "BatchMetadataUpdate",
					"type": "event"
				},
				{
					"anonymous": false,
					"inputs": [
						{
							"indexed": false,
							"internalType": "uint256",
							"name": "_tokenId",
							"type": "uint256"
						}
					],
					"name": "MetadataUpdate",
					"type": "event"
				},
				{
					"anonymous": false,
					"inputs": [
						{
							"indexed": true,
							"internalType": "address",
							"name": "from",
							"type": "address"
						},
						{
							"indexed": true,
							"internalType": "address",
							"name": "to",
							"type": "address"
						},
						{
							"indexed": true,
							"internalType": "uint256",
							"name": "tokenId",
							"type": "uint256"
						}
					],
					"name": "Transfer",
					"type": "event"
				},
				{
					"inputs": [
						{
							"internalType": "address",
							"name": "to",
							"type": "address"
						},
						{
							"internalType": "uint256",
							"name": "tokenId",
							"type": "uint256"
						}
					],
					"name": "approve",
					"outputs": [],
					"stateMutability": "nonpayable",
					"type": "function"
				},
				{
					"inputs": [
						{
							"internalType": "address",
							"name": "owner",
							"type": "address"
						}
					],
					"name": "balanceOf",
					"outputs": [
						{
							"internalType": "uint256",
							"name": "",
							"type": "uint256"
						}
					],
					"stateMutability": "view",
					"type": "function"
				},
				{
					"inputs": [
						{
							"internalType": "uint256",
							"name": "tokenId",
							"type": "uint256"
						}
					],
					"name": "burn",
					"outputs": [],
					"stateMutability": "nonpayable",
					"type": "function"
				},
				{
					"inputs": [
						{
							"internalType": "uint256",
							"name": "tokenId",
							"type": "uint256"
						}
					],
					"name": "getApproved",
					"outputs": [
						{
							"internalType": "address",
							"name": "",
							"type": "address"
						}
					],
					"stateMutability": "view",
					"type": "function"
				},
				{
					"inputs": [
						{
							"internalType": "address",
							"name": "owner",
							"type": "address"
						},
						{
							"internalType": "address",
							"name": "operator",
							"type": "address"
						}
					],
					"name": "isApprovedForAll",
					"outputs": [
						{
							"internalType": "bool",
							"name": "",
							"type": "bool"
						}
					],
					"stateMutability": "view",
					"type": "function"
				},
				{
					"inputs": [
						{
							"internalType": "string",
							"name": "_tokenURI",
							"type": "string"
						}
					],
					"name": "mintToken",
					"outputs": [
						{
							"internalType": "uint256",
							"name": "",
							"type": "uint256"
						}
					],
					"stateMutability": "nonpayable",
					"type": "function"
				},
				{
					"inputs": [],
					"name": "name",
					"outputs": [
						{
							"internalType": "string",
							"name": "",
							"type": "string"
						}
					],
					"stateMutability": "view",
					"type": "function"
				},
				{
					"inputs": [
						{
							"internalType": "uint256",
							"name": "tokenId",
							"type": "uint256"
						}
					],
					"name": "ownerOf",
					"outputs": [
						{
							"internalType": "address",
							"name": "",
							"type": "address"
						}
					],
					"stateMutability": "view",
					"type": "function"
				},
				{
					"inputs": [
						{
							"internalType": "address",
							"name": "from",
							"type": "address"
						},
						{
							"internalType": "address",
							"name": "to",
							"type": "address"
						},
						{
							"internalType": "uint256",
							"name": "tokenId",
							"type": "uint256"
						}
					],
					"name": "safeTransferFrom",
					"outputs": [],
					"stateMutability": "nonpayable",
					"type": "function"
				},
				{
					"inputs": [
						{
							"internalType": "address",
							"name": "from",
							"type": "address"
						},
						{
							"internalType": "address",
							"name": "to",
							"type": "address"
						},
						{
							"internalType": "uint256",
							"name": "tokenId",
							"type": "uint256"
						},
						{
							"internalType": "bytes",
							"name": "data",
							"type": "bytes"
						}
					],
					"name": "safeTransferFrom",
					"outputs": [],
					"stateMutability": "nonpayable",
					"type": "function"
				},
				{
					"inputs": [
						{
							"internalType": "address",
							"name": "operator",
							"type": "address"
						},
						{
							"internalType": "bool",
							"name": "approved",
							"type": "bool"
						}
					],
					"name": "setApprovalForAll",
					"outputs": [],
					"stateMutability": "nonpayable",
					"type": "function"
				},
				{
					"inputs": [
						{
							"internalType": "bytes4",
							"name": "interfaceId",
							"type": "bytes4"
						}
					],
					"name": "supportsInterface",
					"outputs": [
						{
							"internalType": "bool",
							"name": "",
							"type": "bool"
						}
					],
					"stateMutability": "view",
					"type": "function"
				},
				{
					"inputs": [],
					"name": "symbol",
					"outputs": [
						{
							"internalType": "string",
							"name": "",
							"type": "string"
						}
					],
					"stateMutability": "view",
					"type": "function"
				},
				{
					"inputs": [
						{
							"internalType": "uint256",
							"name": "tokenId",
							"type": "uint256"
						}
					],
					"name": "tokenURI",
					"outputs": [
						{
							"internalType": "string",
							"name": "",
							"type": "string"
						}
					],
					"stateMutability": "view",
					"type": "function"
				},
				{
					"inputs": [
						{
							"internalType": "address",
							"name": "from",
							"type": "address"
						},
						{
							"internalType": "address",
							"name": "to",
							"type": "address"
						},
						{
							"internalType": "uint256",
							"name": "tokenId",
							"type": "uint256"
						}
					],
					"name": "transferFrom",
					"outputs": [],
					"stateMutability": "nonpayable",
					"type": "function"
				}
			],
			"devdoc": {
				"errors": {
					"ERC721IncorrectOwner(address,uint256,address)": [
						{
							"details": "Indicates an error related to the ownership over a particular token. Used in transfers.",
							"params": {
								"owner": "Address of the current owner of a token.",
								"sender": "Address whose tokens are being transferred.",
								"tokenId": "Identifier number of a token."
							}
						}
					],
					"ERC721InsufficientApproval(address,uint256)": [
						{
							"details": "Indicates a failure with the `operator`’s approval. Used in transfers.",
							"params": {
								"operator": "Address that may be allowed to operate on tokens without being their owner.",
								"tokenId": "Identifier number of a token."
							}
						}
					],
					"ERC721InvalidApprover(address)": [
						{
							"details": "Indicates a failure with the `approver` of a token to be approved. Used in approvals.",
							"params": {
								"approver": "Address initiating an approval operation."
							}
						}
					],
					"ERC721InvalidOperator(address)": [
						{
							"details": "Indicates a failure with the `operator` to be approved. Used in approvals.",
							"params": {
								"operator": "Address that may be allowed to operate on tokens without being their owner."
							}
						}
					],
					"ERC721InvalidOwner(address)": [
						{
							"details": "Indicates that an address can't be an owner. For example, `address(0)` is a forbidden owner in EIP-20. Used in balance queries.",
							"params": {
								"owner": "Address of the current owner of a token."
							}
						}
					],
					"ERC721InvalidReceiver(address)": [
						{
							"details": "Indicates a failure with the token `receiver`. Used in transfers.",
							"params": {
								"receiver": "Address to which tokens are being transferred."
							}
						}
					],
					"ERC721InvalidSender(address)": [
						{
							"details": "Indicates a failure with the token `sender`. Used in transfers.",
							"params": {
								"sender": "Address whose tokens are being transferred."
							}
						}
					],
					"ERC721NonexistentToken(uint256)": [
						{
							"details": "Indicates a `tokenId` whose `owner` is the zero address.",
							"params": {
								"tokenId": "Identifier number of a token."
							}
						}
					]
				},
				"events": {
					"Approval(address,address,uint256)": {
						"details": "Emitted when `owner` enables `approved` to manage the `tokenId` token."
					},
					"ApprovalForAll(address,address,bool)": {
						"details": "Emitted when `owner` enables or disables (`approved`) `operator` to manage all of its assets."
					},
					"BatchMetadataUpdate(uint256,uint256)": {
						"details": "This event emits when the metadata of a range of tokens is changed. So that the third-party platforms such as NFT market could timely update the images and related attributes of the NFTs."
					},
					"MetadataUpdate(uint256)": {
						"details": "This event emits when the metadata of a token is changed. So that the third-party platforms such as NFT market could timely update the images and related attributes of the NFT."
					},
					"Transfer(address,address,uint256)": {
						"details": "Emitted when `tokenId` token is transferred from `from` to `to`."
					}
				},
				"kind": "dev",
				"methods": {
					"approve(address,uint256)": {
						"details": "See {IERC721-approve}."
					},
					"balanceOf(address)": {
						"details": "See {IERC721-balanceOf}."
					},
					"getApproved(uint256)": {
						"details": "See {IERC721-getApproved}."
					},
					"isApprovedForAll(address,address)": {
						"details": "See {IERC721-isApprovedForAll}."
					},
					"name()": {
						"details": "See {IERC721Metadata-name}."
					},
					"ownerOf(uint256)": {
						"details": "See {IERC721-ownerOf}."
					},
					"safeTransferFrom(address,address,uint256)": {
						"details": "See {IERC721-safeTransferFrom}."
					},
					"safeTransferFrom(address,address,uint256,bytes)": {
						"details": "See {IERC721-safeTransferFrom}."
					},
					"setApprovalForAll(address,bool)": {
						"details": "See {IERC721-setApprovalForAll}."
					},
					"supportsInterface(bytes4)": {
						"details": "See {IERC165-supportsInterface}"
					},
					"symbol()": {
						"details": "See {IERC721Metadata-symbol}."
					},
					"tokenURI(uint256)": {
						"details": "See {IERC721Metadata-tokenURI}."
					},
					"transferFrom(address,address,uint256)": {
						"details": "See {IERC721-transferFrom}."
					}
				},
				"version": 1
			},
			"evm": {
				"assembly": "    /* \"contracts/NFT.sol\":270:1073  contract NFT is ERC721URIStorage {... */\n  mstore(0x40, 0x80)\n    /* \"contracts/NFT.sol\":434:560  constructor(address _marketplaceAddress) ERC721(\"CSDP NFT\", \"CSDP\") {... */\n  callvalue\n  dup1\n  iszero\n  tag_1\n  jumpi\n  0x00\n  dup1\n  revert\ntag_1:\n  pop\n  mload(0x40)\n  sub(codesize, bytecodeSize)\n  dup1\n  bytecodeSize\n  dup4\n  codecopy\n  dup2\n  add\n  0x40\n  dup2\n  swap1\n  mstore\n  tag_2\n  swap2\n  tag_3\n  jump\t// in\ntag_2:\n    /* \"@openzeppelin/contracts/token/ERC721/ERC721.sol\":1380:1493  constructor(string memory name_, string memory symbol_) {... */\n  mload(0x40)\n  dup1\n  0x40\n  add\n  0x40\n  mstore\n  dup1\n  0x08\n  dup2\n  mstore\n  0x20\n  add\n  shl(0xc2, 0x10d4d11408139195)\n  dup2\n  mstore\n  pop\n  mload(0x40)\n  dup1\n  0x40\n  add\n  0x40\n  mstore\n  dup1\n  0x04\n  dup2\n  mstore\n  0x20\n  add\n  shl(0xe4, 0x04353445)\n  dup2\n  mstore\n  pop\n    /* \"@openzeppelin/contracts/token/ERC721/ERC721.sol\":1454:1459  name_ */\n  dup2\n    /* \"@openzeppelin/contracts/token/ERC721/ERC721.sol\":1446:1451  _name */\n  0x00\n    /* \"@openzeppelin/contracts/token/ERC721/ERC721.sol\":1446:1459  _name = name_ */\n  swap1\n  dup2\n  tag_7\n  swap2\n  swap1\n  tag_8\n  jump\t// in\ntag_7:\n  pop\n    /* \"@openzeppelin/contracts/token/ERC721/ERC721.sol\":1469:1476  _symbol */\n  0x01\n    /* \"@openzeppelin/contracts/token/ERC721/ERC721.sol\":1469:1486  _symbol = symbol_ */\n  tag_9\n    /* \"@openzeppelin/contracts/token/ERC721/ERC721.sol\":1479:1486  symbol_ */\n  dup3\n    /* \"@openzeppelin/contracts/token/ERC721/ERC721.sol\":1469:1476  _symbol */\n  dup3\n    /* \"@openzeppelin/contracts/token/ERC721/ERC721.sol\":1469:1486  _symbol = symbol_ */\n  tag_8\n  jump\t// in\ntag_9:\n  pop\n  pop\n    /* \"contracts/NFT.sol\":510:530  s_marketplaceAddress */\n  0x08\n    /* \"contracts/NFT.sol\":510:552  s_marketplaceAddress = _marketplaceAddress */\n  dup1\n  sload\n  not(sub(shl(0xa0, 0x01), 0x01))\n  and\n  sub(shl(0xa0, 0x01), 0x01)\n  swap4\n  swap1\n  swap4\n  and\n  swap3\n  swap1\n  swap3\n  or\n  swap1\n  swap2\n  sstore\n  pop\n    /* \"contracts/NFT.sol\":270:1073  contract NFT is ERC721URIStorage {... */\n  jump(tag_17)\n    /* \"#utility.yul\":14:304   */\ntag_3:\n    /* \"#utility.yul\":84:90   */\n  0x00\n    /* \"#utility.yul\":137:139   */\n  0x20\n    /* \"#utility.yul\":125:134   */\n  dup3\n    /* \"#utility.yul\":116:123   */\n  dup5\n    /* \"#utility.yul\":112:135   */\n  sub\n    /* \"#utility.yul\":108:140   */\n  slt\n    /* \"#utility.yul\":105:157   */\n  iszero\n  tag_19\n  jumpi\n    /* \"#utility.yul\":153:154   */\n  0x00\n    /* \"#utility.yul\":150:151   */\n  dup1\n    /* \"#utility.yul\":143:155   */\n  revert\n    /* \"#utility.yul\":105:157   */\ntag_19:\n    /* \"#utility.yul\":179:195   */\n  dup2\n  mload\n  sub(shl(0xa0, 0x01), 0x01)\n    /* \"#utility.yul\":224:255   */\n  dup2\n  and\n    /* \"#utility.yul\":214:256   */\n  dup2\n  eq\n    /* \"#utility.yul\":204:274   */\n  tag_20\n  jumpi\n    /* \"#utility.yul\":270:271   */\n  0x00\n    /* \"#utility.yul\":267:268   */\n  dup1\n    /* \"#utility.yul\":260:272   */\n  revert\n    /* \"#utility.yul\":204:274   */\ntag_20:\n    /* \"#utility.yul\":293:298   */\n  swap4\n    /* \"#utility.yul\":14:304   */\n  swap3\n  pop\n  pop\n  pop\n  jump\t// out\n    /* \"#utility.yul\":309:436   */\ntag_12:\n    /* \"#utility.yul\":370:380   */\n  0x4e487b71\n    /* \"#utility.yul\":365:368   */\n  0xe0\n    /* \"#utility.yul\":361:381   */\n  shl\n    /* \"#utility.yul\":358:359   */\n  0x00\n    /* \"#utility.yul\":351:382   */\n  mstore\n    /* \"#utility.yul\":401:405   */\n  0x41\n    /* \"#utility.yul\":398:399   */\n  0x04\n    /* \"#utility.yul\":391:406   */\n  mstore\n    /* \"#utility.yul\":425:429   */\n  0x24\n    /* \"#utility.yul\":422:423   */\n  0x00\n    /* \"#utility.yul\":415:430   */\n  revert\n    /* \"#utility.yul\":441:821   */\ntag_13:\n    /* \"#utility.yul\":520:521   */\n  0x01\n    /* \"#utility.yul\":516:528   */\n  dup2\n  dup2\n  shr\n  swap1\n    /* \"#utility.yul\":563:575   */\n  dup3\n  and\n  dup1\n    /* \"#utility.yul\":584:645   */\n  tag_23\n  jumpi\n    /* \"#utility.yul\":638:642   */\n  0x7f\n    /* \"#utility.yul\":630:636   */\n  dup3\n    /* \"#utility.yul\":626:643   */\n  and\n    /* \"#utility.yul\":616:643   */\n  swap2\n  pop\n    /* \"#utility.yul\":584:645   */\ntag_23:\n    /* \"#utility.yul\":691:693   */\n  0x20\n    /* \"#utility.yul\":683:689   */\n  dup3\n    /* \"#utility.yul\":680:694   */\n  lt\n    /* \"#utility.yul\":660:678   */\n  dup2\n    /* \"#utility.yul\":657:695   */\n  sub\n    /* \"#utility.yul\":654:815   */\n  tag_24\n  jumpi\n    /* \"#utility.yul\":737:747   */\n  0x4e487b71\n    /* \"#utility.yul\":732:735   */\n  0xe0\n    /* \"#utility.yul\":728:748   */\n  shl\n    /* \"#utility.yul\":725:726   */\n  0x00\n    /* \"#utility.yul\":718:749   */\n  mstore\n    /* \"#utility.yul\":772:776   */\n  0x22\n    /* \"#utility.yul\":769:770   */\n  0x04\n    /* \"#utility.yul\":762:777   */\n  mstore\n    /* \"#utility.yul\":800:804   */\n  0x24\n    /* \"#utility.yul\":797:798   */\n  0x00\n    /* \"#utility.yul\":790:805   */\n  revert\n    /* \"#utility.yul\":654:815   */\ntag_24:\n  pop\n    /* \"#utility.yul\":441:821   */\n  swap2\n  swap1\n  pop\n  jump\t// out\n    /* \"#utility.yul\":952:1470   */\ntag_15:\n    /* \"#utility.yul\":1054:1056   */\n  0x1f\n    /* \"#utility.yul\":1049:1052   */\n  dup3\n    /* \"#utility.yul\":1046:1057   */\n  gt\n    /* \"#utility.yul\":1043:1464   */\n  iszero\n  tag_27\n  jumpi\n    /* \"#utility.yul\":1090:1095   */\n  dup1\n    /* \"#utility.yul\":1087:1088   */\n  0x00\n    /* \"#utility.yul\":1080:1096   */\n  mstore\n    /* \"#utility.yul\":1134:1138   */\n  0x20\n    /* \"#utility.yul\":1131:1132   */\n  0x00\n    /* \"#utility.yul\":1121:1139   */\n  keccak256\n    /* \"#utility.yul\":1204:1206   */\n  0x1f\n    /* \"#utility.yul\":1192:1202   */\n  dup5\n    /* \"#utility.yul\":1188:1207   */\n  add\n    /* \"#utility.yul\":1185:1186   */\n  0x05\n    /* \"#utility.yul\":1181:1208   */\n  shr\n    /* \"#utility.yul\":1175:1179   */\n  dup2\n    /* \"#utility.yul\":1171:1209   */\n  add\n    /* \"#utility.yul\":1240:1244   */\n  0x20\n    /* \"#utility.yul\":1228:1238   */\n  dup6\n    /* \"#utility.yul\":1225:1245   */\n  lt\n    /* \"#utility.yul\":1222:1269   */\n  iszero\n  tag_28\n  jumpi\n  pop\n    /* \"#utility.yul\":1263:1267   */\n  dup1\n    /* \"#utility.yul\":1222:1269   */\ntag_28:\n    /* \"#utility.yul\":1318:1320   */\n  0x1f\n    /* \"#utility.yul\":1313:1316   */\n  dup5\n    /* \"#utility.yul\":1309:1321   */\n  add\n    /* \"#utility.yul\":1306:1307   */\n  0x05\n    /* \"#utility.yul\":1302:1322   */\n  shr\n    /* \"#utility.yul\":1296:1300   */\n  dup3\n    /* \"#utility.yul\":1292:1323   */\n  add\n    /* \"#utility.yul\":1282:1323   */\n  swap2\n  pop\n    /* \"#utility.yul\":1373:1454   */\ntag_29:\n    /* \"#utility.yul\":1391:1393   */\n  dup2\n    /* \"#utility.yul\":1384:1389   */\n  dup2\n    /* \"#utility.yul\":1381:1394   */\n  lt\n    /* \"#utility.yul\":1373:1454   */\n  iszero\n  tag_31\n  jumpi\n    /* \"#utility.yul\":1450:1451   */\n  0x00\n    /* \"#utility.yul\":1436:1452   */\n  dup2\n  sstore\n    /* \"#utility.yul\":1417:1418   */\n  0x01\n    /* \"#utility.yul\":1406:1419   */\n  add\n    /* \"#utility.yul\":1373:1454   */\n  jump(tag_29)\ntag_31:\n    /* \"#utility.yul\":1377:1380   */\n  pop\n  pop\n    /* \"#utility.yul\":1043:1464   */\ntag_27:\n    /* \"#utility.yul\":952:1470   */\n  pop\n  pop\n  pop\n  jump\t// out\n    /* \"#utility.yul\":1646:2945   */\ntag_8:\n    /* \"#utility.yul\":1766:1776   */\n  dup2\n  mload\n  sub(shl(0x40, 0x01), 0x01)\n    /* \"#utility.yul\":1788:1818   */\n  dup2\n  gt\n    /* \"#utility.yul\":1785:1841   */\n  iszero\n  tag_35\n  jumpi\n    /* \"#utility.yul\":1821:1839   */\n  tag_35\n  tag_12\n  jump\t// in\ntag_35:\n    /* \"#utility.yul\":1850:1947   */\n  tag_36\n    /* \"#utility.yul\":1940:1946   */\n  dup2\n    /* \"#utility.yul\":1900:1938   */\n  tag_37\n    /* \"#utility.yul\":1932:1936   */\n  dup5\n    /* \"#utility.yul\":1926:1937   */\n  sload\n    /* \"#utility.yul\":1900:1938   */\n  tag_13\n  jump\t// in\ntag_37:\n    /* \"#utility.yul\":1894:1898   */\n  dup5\n    /* \"#utility.yul\":1850:1947   */\n  tag_15\n  jump\t// in\ntag_36:\n    /* \"#utility.yul\":1996:2000   */\n  0x20\n    /* \"#utility.yul\":2027:2029   */\n  0x1f\n    /* \"#utility.yul\":2016:2030   */\n  dup3\n  gt\n    /* \"#utility.yul\":2044:2045   */\n  0x01\n    /* \"#utility.yul\":2039:2688   */\n  dup2\n  eq\n  tag_39\n  jumpi\n    /* \"#utility.yul\":2732:2733   */\n  0x00\n    /* \"#utility.yul\":2749:2755   */\n  dup4\n    /* \"#utility.yul\":2746:2835   */\n  iszero\n  tag_40\n  jumpi\n  pop\n    /* \"#utility.yul\":2801:2820   */\n  dup5\n  dup3\n  add\n    /* \"#utility.yul\":2795:2821   */\n  mload\n    /* \"#utility.yul\":2746:2835   */\ntag_40:\n  not(0x00)\n    /* \"#utility.yul\":1603:1604   */\n  0x03\n    /* \"#utility.yul\":1599:1610   */\n  dup6\n  swap1\n  shl\n    /* \"#utility.yul\":1595:1619   */\n  shr\n    /* \"#utility.yul\":1591:1620   */\n  not\n    /* \"#utility.yul\":1581:1621   */\n  and\n    /* \"#utility.yul\":1627:1628   */\n  0x01\n    /* \"#utility.yul\":1623:1634   */\n  dup5\n  swap1\n  shl\n    /* \"#utility.yul\":1578:1635   */\n  or\n    /* \"#utility.yul\":2848:2929   */\n  dup5\n  sstore\n    /* \"#utility.yul\":2009:2939   */\n  jump(tag_31)\n    /* \"#utility.yul\":2039:2688   */\ntag_39:\n    /* \"#utility.yul\":899:900   */\n  0x00\n    /* \"#utility.yul\":892:906   */\n  dup5\n  dup2\n  mstore\n    /* \"#utility.yul\":936:940   */\n  0x20\n    /* \"#utility.yul\":923:941   */\n  dup2\n  keccak256\n  not(0x1f)\n    /* \"#utility.yul\":2075:2095   */\n  dup6\n  and\n  swap2\n    /* \"#utility.yul\":2193:2415   */\ntag_43:\n    /* \"#utility.yul\":2207:2214   */\n  dup3\n    /* \"#utility.yul\":2204:2205   */\n  dup2\n    /* \"#utility.yul\":2201:2215   */\n  lt\n    /* \"#utility.yul\":2193:2415   */\n  iszero\n  tag_45\n  jumpi\n    /* \"#utility.yul\":2289:2308   */\n  dup8\n  dup6\n  add\n    /* \"#utility.yul\":2283:2309   */\n  mload\n    /* \"#utility.yul\":2268:2310   */\n  dup3\n  sstore\n    /* \"#utility.yul\":2396:2400   */\n  0x20\n    /* \"#utility.yul\":2381:2401   */\n  swap5\n  dup6\n  add\n  swap5\n    /* \"#utility.yul\":2349:2350   */\n  0x01\n    /* \"#utility.yul\":2337:2351   */\n  swap1\n  swap3\n  add\n  swap2\n    /* \"#utility.yul\":2223:2235   */\n  add\n    /* \"#utility.yul\":2193:2415   */\n  jump(tag_43)\ntag_45:\n    /* \"#utility.yul\":2197:2200   */\n  pop\n    /* \"#utility.yul\":2443:2449   */\n  dup5\n    /* \"#utility.yul\":2434:2441   */\n  dup3\n    /* \"#utility.yul\":2431:2450   */\n  lt\n    /* \"#utility.yul\":2428:2629   */\n  iszero\n  tag_46\n  jumpi\n    /* \"#utility.yul\":2504:2523   */\n  dup7\n  dup5\n  add\n    /* \"#utility.yul\":2498:2524   */\n  mload\n  not(0x00)\n    /* \"#utility.yul\":2587:2588   */\n  0x03\n    /* \"#utility.yul\":2583:2597   */\n  dup8\n  swap1\n  shl\n    /* \"#utility.yul\":2599:2602   */\n  0xf8\n    /* \"#utility.yul\":2579:2603   */\n  and\n    /* \"#utility.yul\":2575:2612   */\n  shr\n    /* \"#utility.yul\":2571:2613   */\n  not\n    /* \"#utility.yul\":2556:2614   */\n  and\n    /* \"#utility.yul\":2541:2615   */\n  dup2\n  sstore\n    /* \"#utility.yul\":2428:2629   */\ntag_46:\n  pop\n  pop\n  pop\n  pop\n    /* \"#utility.yul\":2675:2676   */\n  0x01\n    /* \"#utility.yul\":2659:2673   */\n  swap1\n  dup2\n  shl\n    /* \"#utility.yul\":2655:2677   */\n  add\n    /* \"#utility.yul\":2642:2678   */\n  swap1\n  sstore\n  pop\n    /* \"#utility.yul\":1646:2945   */\n  jump\t// out\ntag_17:\n    /* \"contracts/NFT.sol\":270:1073  contract NFT is ERC721URIStorage {... */\n  dataSize(sub_0)\n  dup1\n  dataOffset(sub_0)\n  0x00\n  codecopy\n  0x00\n  return\nstop\n\nsub_0: assembly {\n        /* \"contracts/NFT.sol\":270:1073  contract NFT is ERC721URIStorage {... */\n      mstore(0x40, 0x80)\n      callvalue\n      dup1\n      iszero\n      tag_1\n      jumpi\n      0x00\n      dup1\n      revert\n    tag_1:\n      pop\n      jumpi(tag_2, lt(calldatasize, 0x04))\n      shr(0xe0, calldataload(0x00))\n      dup1\n      0x42966c68\n      gt\n      tag_18\n      jumpi\n      dup1\n      0xa22cb465\n      gt\n      tag_19\n      jumpi\n      dup1\n      0xa22cb465\n      eq\n      tag_14\n      jumpi\n      dup1\n      0xb88d4fde\n      eq\n      tag_15\n      jumpi\n      dup1\n      0xc87b56dd\n      eq\n      tag_16\n      jumpi\n      dup1\n      0xe985e9c5\n      eq\n      tag_17\n      jumpi\n      0x00\n      dup1\n      revert\n    tag_19:\n      dup1\n      0x42966c68\n      eq\n      tag_10\n      jumpi\n      dup1\n      0x6352211e\n      eq\n      tag_11\n      jumpi\n      dup1\n      0x70a08231\n      eq\n      tag_12\n      jumpi\n      dup1\n      0x95d89b41\n      eq\n      tag_13\n      jumpi\n      0x00\n      dup1\n      revert\n    tag_18:\n      dup1\n      0x095ea7b3\n      gt\n      tag_20\n      jumpi\n      dup1\n      0x095ea7b3\n      eq\n      tag_6\n      jumpi\n      dup1\n      0x23b872dd\n      eq\n      tag_7\n      jumpi\n      dup1\n      0x33eba49a\n      eq\n      tag_8\n      jumpi\n      dup1\n      0x42842e0e\n      eq\n      tag_9\n      jumpi\n      0x00\n      dup1\n      revert\n    tag_20:\n      dup1\n      0x01ffc9a7\n      eq\n      tag_3\n      jumpi\n      dup1\n      0x06fdde03\n      eq\n      tag_4\n      jumpi\n      dup1\n      0x081812fc\n      eq\n      tag_5\n      jumpi\n    tag_2:\n      0x00\n      dup1\n      revert\n        /* \"@openzeppelin/contracts/token/ERC721/extensions/ERC721URIStorage.sol\":938:1145  function supportsInterface(bytes4 interfaceId) public view virtual override(ERC721, IERC165) returns (bool) {... */\n    tag_3:\n      tag_21\n      tag_22\n      calldatasize\n      0x04\n      tag_23\n      jump\t// in\n    tag_22:\n      tag_24\n      jump\t// in\n    tag_21:\n      mload(0x40)\n        /* \"#utility.yul\":565:579   */\n      swap1\n      iszero\n        /* \"#utility.yul\":558:580   */\n      iszero\n        /* \"#utility.yul\":540:581   */\n      dup2\n      mstore\n        /* \"#utility.yul\":528:530   */\n      0x20\n        /* \"#utility.yul\":513:531   */\n      add\n        /* \"@openzeppelin/contracts/token/ERC721/extensions/ERC721URIStorage.sol\":938:1145  function supportsInterface(bytes4 interfaceId) public view virtual override(ERC721, IERC165) returns (bool) {... */\n    tag_25:\n      mload(0x40)\n      dup1\n      swap2\n      sub\n      swap1\n      return\n        /* \"@openzeppelin/contracts/token/ERC721/ERC721.sol\":2364:2453  function name() public view virtual returns (string memory) {... */\n    tag_4:\n      tag_27\n      tag_28\n      jump\t// in\n    tag_27:\n      mload(0x40)\n      tag_25\n      swap2\n      swap1\n      tag_30\n      jump\t// in\n        /* \"@openzeppelin/contracts/token/ERC721/ERC721.sol\":3496:3650  function getApproved(uint256 tokenId) public view virtual returns (address) {... */\n    tag_5:\n      tag_31\n      tag_32\n      calldatasize\n      0x04\n      tag_33\n      jump\t// in\n    tag_32:\n      tag_34\n      jump\t// in\n    tag_31:\n      mload(0x40)\n      sub(shl(0xa0, 0x01), 0x01)\n        /* \"#utility.yul\":1528:1560   */\n      swap1\n      swap2\n      and\n        /* \"#utility.yul\":1510:1561   */\n      dup2\n      mstore\n        /* \"#utility.yul\":1498:1500   */\n      0x20\n        /* \"#utility.yul\":1483:1501   */\n      add\n        /* \"@openzeppelin/contracts/token/ERC721/ERC721.sol\":3496:3650  function getApproved(uint256 tokenId) public view virtual returns (address) {... */\n      tag_25\n        /* \"#utility.yul\":1364:1567   */\n      jump\n        /* \"@openzeppelin/contracts/token/ERC721/ERC721.sol\":3322:3435  function approve(address to, uint256 tokenId) public virtual {... */\n    tag_6:\n      tag_37\n      tag_38\n      calldatasize\n      0x04\n      tag_39\n      jump\t// in\n    tag_38:\n      tag_40\n      jump\t// in\n    tag_37:\n      stop\n        /* \"@openzeppelin/contracts/token/ERC721/ERC721.sol\":4142:4720  function transferFrom(address from, address to, uint256 tokenId) public virtual {... */\n    tag_7:\n      tag_37\n      tag_42\n      calldatasize\n      0x04\n      tag_43\n      jump\t// in\n    tag_42:\n      tag_44\n      jump\t// in\n        /* \"contracts/NFT.sol\":568:905  function mintToken(string memory _tokenURI) external returns (uint) {... */\n    tag_8:\n      tag_45\n      tag_46\n      calldatasize\n      0x04\n      tag_47\n      jump\t// in\n    tag_46:\n      tag_48\n      jump\t// in\n    tag_45:\n      mload(0x40)\n        /* \"#utility.yul\":3889:3914   */\n      swap1\n      dup2\n      mstore\n        /* \"#utility.yul\":3877:3879   */\n      0x20\n        /* \"#utility.yul\":3862:3880   */\n      add\n        /* \"contracts/NFT.sol\":568:905  function mintToken(string memory _tokenURI) external returns (uint) {... */\n      tag_25\n        /* \"#utility.yul\":3743:3920   */\n      jump\n        /* \"@openzeppelin/contracts/token/ERC721/ERC721.sol\":4786:4918  function safeTransferFrom(address from, address to, uint256 tokenId) public {... */\n    tag_9:\n      tag_37\n      tag_52\n      calldatasize\n      0x04\n      tag_43\n      jump\t// in\n    tag_52:\n      tag_53\n      jump\t// in\n        /* \"contracts/NFT.sol\":913:1070  function burn(uint256 tokenId) external {... */\n    tag_10:\n      tag_37\n      tag_55\n      calldatasize\n      0x04\n      tag_33\n      jump\t// in\n    tag_55:\n      tag_56\n      jump\t// in\n        /* \"@openzeppelin/contracts/token/ERC721/ERC721.sol\":2184:2302  function ownerOf(uint256 tokenId) public view virtual returns (address) {... */\n    tag_11:\n      tag_31\n      tag_58\n      calldatasize\n      0x04\n      tag_33\n      jump\t// in\n    tag_58:\n      tag_59\n      jump\t// in\n        /* \"@openzeppelin/contracts/token/ERC721/ERC721.sol\":1919:2127  function balanceOf(address owner) public view virtual returns (uint256) {... */\n    tag_12:\n      tag_45\n      tag_62\n      calldatasize\n      0x04\n      tag_63\n      jump\t// in\n    tag_62:\n      tag_64\n      jump\t// in\n        /* \"@openzeppelin/contracts/token/ERC721/ERC721.sol\":2517:2610  function symbol() public view virtual returns (string memory) {... */\n    tag_13:\n      tag_27\n      tag_67\n      jump\t// in\n        /* \"@openzeppelin/contracts/token/ERC721/ERC721.sol\":3717:3861  function setApprovalForAll(address operator, bool approved) public virtual {... */\n    tag_14:\n      tag_37\n      tag_70\n      calldatasize\n      0x04\n      tag_71\n      jump\t// in\n    tag_70:\n      tag_72\n      jump\t// in\n        /* \"@openzeppelin/contracts/token/ERC721/ERC721.sol\":4984:5217  function safeTransferFrom(address from, address to, uint256 tokenId, bytes memory data) public virtual {... */\n    tag_15:\n      tag_37\n      tag_74\n      calldatasize\n      0x04\n      tag_75\n      jump\t// in\n    tag_74:\n      tag_76\n      jump\t// in\n        /* \"@openzeppelin/contracts/token/ERC721/extensions/ERC721URIStorage.sol\":1211:1804  function tokenURI(uint256 tokenId) public view virtual override returns (string memory) {... */\n    tag_16:\n      tag_27\n      tag_78\n      calldatasize\n      0x04\n      tag_33\n      jump\t// in\n    tag_78:\n      tag_79\n      jump\t// in\n        /* \"@openzeppelin/contracts/token/ERC721/ERC721.sol\":3927:4080  function isApprovedForAll(address owner, address operator) public view virtual returns (bool) {... */\n    tag_17:\n      tag_21\n      tag_82\n      calldatasize\n      0x04\n      tag_83\n      jump\t// in\n    tag_82:\n      tag_84\n      jump\t// in\n        /* \"@openzeppelin/contracts/token/ERC721/extensions/ERC721URIStorage.sol\":938:1145  function supportsInterface(bytes4 interfaceId) public view virtual override(ERC721, IERC165) returns (bool) {... */\n    tag_24:\n        /* \"@openzeppelin/contracts/token/ERC721/extensions/ERC721URIStorage.sol\":1040:1044  bool */\n      0x00\n      not(sub(shl(0xe0, 0x01), 0x01))\n        /* \"@openzeppelin/contracts/token/ERC721/extensions/ERC721URIStorage.sol\":1063:1098  interfaceId == ERC4906_INTERFACE_ID */\n      dup3\n      and\n      shl(0xe1, 0x24832483)\n      eq\n      dup1\n        /* \"@openzeppelin/contracts/token/ERC721/extensions/ERC721URIStorage.sol\":1063:1138  interfaceId == ERC4906_INTERFACE_ID || super.supportsInterface(interfaceId) */\n      tag_88\n      jumpi\n      pop\n        /* \"@openzeppelin/contracts/token/ERC721/extensions/ERC721URIStorage.sol\":1102:1138  super.supportsInterface(interfaceId) */\n      tag_88\n        /* \"@openzeppelin/contracts/token/ERC721/extensions/ERC721URIStorage.sol\":1126:1137  interfaceId */\n      dup3\n        /* \"@openzeppelin/contracts/token/ERC721/extensions/ERC721URIStorage.sol\":1102:1125  super.supportsInterface */\n      tag_89\n        /* \"@openzeppelin/contracts/token/ERC721/extensions/ERC721URIStorage.sol\":1102:1138  super.supportsInterface(interfaceId) */\n      jump\t// in\n    tag_88:\n        /* \"@openzeppelin/contracts/token/ERC721/extensions/ERC721URIStorage.sol\":1056:1138  return interfaceId == ERC4906_INTERFACE_ID || super.supportsInterface(interfaceId) */\n      swap3\n        /* \"@openzeppelin/contracts/token/ERC721/extensions/ERC721URIStorage.sol\":938:1145  function supportsInterface(bytes4 interfaceId) public view virtual override(ERC721, IERC165) returns (bool) {... */\n      swap2\n      pop\n      pop\n      jump\t// out\n        /* \"@openzeppelin/contracts/token/ERC721/ERC721.sol\":2364:2453  function name() public view virtual returns (string memory) {... */\n    tag_28:\n        /* \"@openzeppelin/contracts/token/ERC721/ERC721.sol\":2409:2422  string memory */\n      0x60\n        /* \"@openzeppelin/contracts/token/ERC721/ERC721.sol\":2441:2446  _name */\n      0x00\n        /* \"@openzeppelin/contracts/token/ERC721/ERC721.sol\":2434:2446  return _name */\n      dup1\n      sload\n      tag_91\n      swap1\n      tag_92\n      jump\t// in\n    tag_91:\n      dup1\n      0x1f\n      add\n      0x20\n      dup1\n      swap2\n      div\n      mul\n      0x20\n      add\n      mload(0x40)\n      swap1\n      dup2\n      add\n      0x40\n      mstore\n      dup1\n      swap3\n      swap2\n      swap1\n      dup2\n      dup2\n      mstore\n      0x20\n      add\n      dup3\n      dup1\n      sload\n      tag_93\n      swap1\n      tag_92\n      jump\t// in\n    tag_93:\n      dup1\n      iszero\n      tag_94\n      jumpi\n      dup1\n      0x1f\n      lt\n      tag_95\n      jumpi\n      0x0100\n      dup1\n      dup4\n      sload\n      div\n      mul\n      dup4\n      mstore\n      swap2\n      0x20\n      add\n      swap2\n      jump(tag_94)\n    tag_95:\n      dup3\n      add\n      swap2\n      swap1\n      0x00\n      mstore\n      keccak256(0x00, 0x20)\n      swap1\n    tag_96:\n      dup2\n      sload\n      dup2\n      mstore\n      swap1\n      0x01\n      add\n      swap1\n      0x20\n      add\n      dup1\n      dup4\n      gt\n      tag_96\n      jumpi\n      dup3\n      swap1\n      sub\n      0x1f\n      and\n      dup3\n      add\n      swap2\n    tag_94:\n      pop\n      pop\n      pop\n      pop\n      pop\n      swap1\n      pop\n        /* \"@openzeppelin/contracts/token/ERC721/ERC721.sol\":2364:2453  function name() public view virtual returns (string memory) {... */\n      swap1\n      jump\t// out\n        /* \"@openzeppelin/contracts/token/ERC721/ERC721.sol\":3496:3650  function getApproved(uint256 tokenId) public view virtual returns (address) {... */\n    tag_34:\n        /* \"@openzeppelin/contracts/token/ERC721/ERC721.sol\":3563:3570  address */\n      0x00\n        /* \"@openzeppelin/contracts/token/ERC721/ERC721.sol\":3582:3604  _requireOwned(tokenId) */\n      tag_98\n        /* \"@openzeppelin/contracts/token/ERC721/ERC721.sol\":3596:3603  tokenId */\n      dup3\n        /* \"@openzeppelin/contracts/token/ERC721/ERC721.sol\":3582:3595  _requireOwned */\n      tag_99\n        /* \"@openzeppelin/contracts/token/ERC721/ERC721.sol\":3582:3604  _requireOwned(tokenId) */\n      jump\t// in\n    tag_98:\n      pop\n        /* \"@openzeppelin/contracts/token/ERC721/ERC721.sol\":6033:6040  address */\n      0x00\n        /* \"@openzeppelin/contracts/token/ERC721/ERC721.sol\":6059:6083  _tokenApprovals[tokenId] */\n      dup3\n      dup2\n      mstore\n        /* \"@openzeppelin/contracts/token/ERC721/ERC721.sol\":6059:6074  _tokenApprovals */\n      0x04\n        /* \"@openzeppelin/contracts/token/ERC721/ERC721.sol\":6059:6083  _tokenApprovals[tokenId] */\n      0x20\n      mstore\n      0x40\n      swap1\n      keccak256\n      sload\n      sub(shl(0xa0, 0x01), 0x01)\n      and\n        /* \"@openzeppelin/contracts/token/ERC721/ERC721.sol\":3622:3643  _getApproved(tokenId) */\n      tag_88\n        /* \"@openzeppelin/contracts/token/ERC721/ERC721.sol\":5963:6090  function _getApproved(uint256 tokenId) internal view virtual returns (address) {... */\n      jump\n        /* \"@openzeppelin/contracts/token/ERC721/ERC721.sol\":3322:3435  function approve(address to, uint256 tokenId) public virtual {... */\n    tag_40:\n        /* \"@openzeppelin/contracts/token/ERC721/ERC721.sol\":3393:3428  _approve(to, tokenId, _msgSender()) */\n      tag_103\n        /* \"@openzeppelin/contracts/token/ERC721/ERC721.sol\":3402:3404  to */\n      dup3\n        /* \"@openzeppelin/contracts/token/ERC721/ERC721.sol\":3406:3413  tokenId */\n      dup3\n        /* \"@openzeppelin/contracts/utils/Context.sol\":735:745  msg.sender */\n      caller\n        /* \"@openzeppelin/contracts/token/ERC721/ERC721.sol\":3393:3401  _approve */\n      tag_106\n        /* \"@openzeppelin/contracts/token/ERC721/ERC721.sol\":3393:3428  _approve(to, tokenId, _msgSender()) */\n      jump\t// in\n    tag_103:\n        /* \"@openzeppelin/contracts/token/ERC721/ERC721.sol\":3322:3435  function approve(address to, uint256 tokenId) public virtual {... */\n      pop\n      pop\n      jump\t// out\n        /* \"@openzeppelin/contracts/token/ERC721/ERC721.sol\":4142:4720  function transferFrom(address from, address to, uint256 tokenId) public virtual {... */\n    tag_44:\n      sub(shl(0xa0, 0x01), 0x01)\n        /* \"@openzeppelin/contracts/token/ERC721/ERC721.sol\":4236:4252  to == address(0) */\n      dup3\n      and\n        /* \"@openzeppelin/contracts/token/ERC721/ERC721.sol\":4232:4319  if (to == address(0)) {... */\n      tag_108\n      jumpi\n        /* \"@openzeppelin/contracts/token/ERC721/ERC721.sol\":4275:4308  ERC721InvalidReceiver(address(0)) */\n      mload(0x40)\n      shl(0xe1, 0x32505749)\n      dup2\n      mstore\n        /* \"@openzeppelin/contracts/token/ERC721/ERC721.sol\":4305:4306  0 */\n      0x00\n        /* \"@openzeppelin/contracts/token/ERC721/ERC721.sol\":4275:4308  ERC721InvalidReceiver(address(0)) */\n      0x04\n      dup3\n      add\n        /* \"#utility.yul\":1510:1561   */\n      mstore\n        /* \"#utility.yul\":1483:1501   */\n      0x24\n      add\n        /* \"@openzeppelin/contracts/token/ERC721/ERC721.sol\":4275:4308  ERC721InvalidReceiver(address(0)) */\n    tag_109:\n      mload(0x40)\n      dup1\n      swap2\n      sub\n      swap1\n      revert\n        /* \"@openzeppelin/contracts/token/ERC721/ERC721.sol\":4232:4319  if (to == address(0)) {... */\n    tag_108:\n        /* \"@openzeppelin/contracts/token/ERC721/ERC721.sol\":4537:4558  address previousOwner */\n      0x00\n        /* \"@openzeppelin/contracts/token/ERC721/ERC721.sol\":4561:4595  _update(to, tokenId, _msgSender()) */\n      tag_110\n        /* \"@openzeppelin/contracts/token/ERC721/ERC721.sol\":4569:4571  to */\n      dup4\n        /* \"@openzeppelin/contracts/token/ERC721/ERC721.sol\":4573:4580  tokenId */\n      dup4\n        /* \"@openzeppelin/contracts/utils/Context.sol\":735:745  msg.sender */\n      caller\n        /* \"@openzeppelin/contracts/token/ERC721/ERC721.sol\":4561:4568  _update */\n      tag_112\n        /* \"@openzeppelin/contracts/token/ERC721/ERC721.sol\":4561:4595  _update(to, tokenId, _msgSender()) */\n      jump\t// in\n    tag_110:\n        /* \"@openzeppelin/contracts/token/ERC721/ERC721.sol\":4537:4595  address previousOwner = _update(to, tokenId, _msgSender()) */\n      swap1\n      pop\n        /* \"@openzeppelin/contracts/token/ERC721/ERC721.sol\":4626:4630  from */\n      dup4\n      sub(shl(0xa0, 0x01), 0x01)\n        /* \"@openzeppelin/contracts/token/ERC721/ERC721.sol\":4609:4630  previousOwner != from */\n      and\n        /* \"@openzeppelin/contracts/token/ERC721/ERC721.sol\":4609:4622  previousOwner */\n      dup2\n      sub(shl(0xa0, 0x01), 0x01)\n        /* \"@openzeppelin/contracts/token/ERC721/ERC721.sol\":4609:4630  previousOwner != from */\n      and\n      eq\n        /* \"@openzeppelin/contracts/token/ERC721/ERC721.sol\":4605:4714  if (previousOwner != from) {... */\n      tag_113\n      jumpi\n        /* \"@openzeppelin/contracts/token/ERC721/ERC721.sol\":4653:4703  ERC721IncorrectOwner(from, tokenId, previousOwner) */\n      mload(0x40)\n      shl(0xe0, 0x64283d7b)\n      dup2\n      mstore\n      sub(shl(0xa0, 0x01), 0x01)\n        /* \"#utility.yul\":6056:6088   */\n      dup1\n      dup7\n      and\n        /* \"@openzeppelin/contracts/token/ERC721/ERC721.sol\":4653:4703  ERC721IncorrectOwner(from, tokenId, previousOwner) */\n      0x04\n      dup4\n      add\n        /* \"#utility.yul\":6038:6089   */\n      mstore\n        /* \"#utility.yul\":6105:6123   */\n      0x24\n      dup3\n      add\n        /* \"#utility.yul\":6098:6132   */\n      dup5\n      swap1\n      mstore\n        /* \"#utility.yul\":6168:6200   */\n      dup3\n      and\n        /* \"#utility.yul\":6148:6166   */\n      0x44\n      dup3\n      add\n        /* \"#utility.yul\":6141:6201   */\n      mstore\n        /* \"#utility.yul\":6011:6029   */\n      0x64\n      add\n        /* \"@openzeppelin/contracts/token/ERC721/ERC721.sol\":4653:4703  ERC721IncorrectOwner(from, tokenId, previousOwner) */\n      tag_109\n        /* \"#utility.yul\":5836:6207   */\n      jump\n        /* \"@openzeppelin/contracts/token/ERC721/ERC721.sol\":4605:4714  if (previousOwner != from) {... */\n    tag_113:\n        /* \"@openzeppelin/contracts/token/ERC721/ERC721.sol\":4222:4720  {... */\n      pop\n        /* \"@openzeppelin/contracts/token/ERC721/ERC721.sol\":4142:4720  function transferFrom(address from, address to, uint256 tokenId) public virtual {... */\n      pop\n      pop\n      pop\n      jump\t// out\n        /* \"contracts/NFT.sol\":568:905  function mintToken(string memory _tokenURI) external returns (uint) {... */\n    tag_48:\n        /* \"contracts/NFT.sol\":630:634  uint */\n      0x00\n        /* \"contracts/NFT.sol\":647:669  s_tokenIds.increment() */\n      tag_117\n        /* \"contracts/NFT.sol\":647:657  s_tokenIds */\n      0x07\n        /* \"@openzeppelin/contracts/utils/Counters.sol\":1032:1051  counter._value += 1 */\n      dup1\n      sload\n        /* \"@openzeppelin/contracts/utils/Counters.sol\":1050:1051  1 */\n      0x01\n        /* \"@openzeppelin/contracts/utils/Counters.sol\":1032:1051  counter._value += 1 */\n      add\n      swap1\n      sstore\n        /* \"@openzeppelin/contracts/utils/Counters.sol\":945:1068  function increment(Counter storage counter) internal {... */\n      jump\n        /* \"contracts/NFT.sol\":647:669  s_tokenIds.increment() */\n    tag_117:\n        /* \"contracts/NFT.sol\":680:698  uint256 newTokenId */\n      0x00\n        /* \"contracts/NFT.sol\":701:721  s_tokenIds.current() */\n      tag_119\n        /* \"contracts/NFT.sol\":701:711  s_tokenIds */\n      0x07\n        /* \"@openzeppelin/contracts/utils/Counters.sol\":918:932  counter._value */\n      sload\n      swap1\n        /* \"@openzeppelin/contracts/utils/Counters.sol\":827:939  function current(Counter storage counter) internal view returns (uint256) {... */\n      jump\n        /* \"contracts/NFT.sol\":701:721  s_tokenIds.current() */\n    tag_119:\n        /* \"contracts/NFT.sol\":680:721  uint256 newTokenId = s_tokenIds.current() */\n      swap1\n      pop\n        /* \"contracts/NFT.sol\":734:763  _mint(msg.sender, newTokenId) */\n      tag_121\n        /* \"contracts/NFT.sol\":740:750  msg.sender */\n      caller\n        /* \"contracts/NFT.sol\":752:762  newTokenId */\n      dup3\n        /* \"contracts/NFT.sol\":734:739  _mint */\n      tag_122\n        /* \"contracts/NFT.sol\":734:763  _mint(msg.sender, newTokenId) */\n      jump\t// in\n    tag_121:\n        /* \"contracts/NFT.sol\":776:811  _setTokenURI(newTokenId, _tokenURI) */\n      tag_123\n        /* \"contracts/NFT.sol\":789:799  newTokenId */\n      dup2\n        /* \"contracts/NFT.sol\":801:810  _tokenURI */\n      dup5\n        /* \"contracts/NFT.sol\":776:788  _setTokenURI */\n      tag_124\n        /* \"contracts/NFT.sol\":776:811  _setTokenURI(newTokenId, _tokenURI) */\n      jump\t// in\n    tag_123:\n        /* \"contracts/NFT.sol\":842:862  s_marketplaceAddress */\n      sload(0x08)\n        /* \"contracts/NFT.sol\":824:869  setApprovalForAll(s_marketplaceAddress, true) */\n      tag_88\n      swap1\n      sub(shl(0xa0, 0x01), 0x01)\n        /* \"contracts/NFT.sol\":842:862  s_marketplaceAddress */\n      and\n      0x01\n        /* \"contracts/NFT.sol\":824:841  setApprovalForAll */\n      tag_72\n        /* \"contracts/NFT.sol\":824:869  setApprovalForAll(s_marketplaceAddress, true) */\n      jump\t// in\n        /* \"@openzeppelin/contracts/token/ERC721/ERC721.sol\":4786:4918  function safeTransferFrom(address from, address to, uint256 tokenId) public {... */\n    tag_53:\n        /* \"@openzeppelin/contracts/token/ERC721/ERC721.sol\":4872:4911  safeTransferFrom(from, to, tokenId, \"\") */\n      tag_127\n        /* \"@openzeppelin/contracts/token/ERC721/ERC721.sol\":4889:4893  from */\n      dup4\n        /* \"@openzeppelin/contracts/token/ERC721/ERC721.sol\":4895:4897  to */\n      dup4\n        /* \"@openzeppelin/contracts/token/ERC721/ERC721.sol\":4899:4906  tokenId */\n      dup4\n        /* \"@openzeppelin/contracts/token/ERC721/ERC721.sol\":4872:4911  safeTransferFrom(from, to, tokenId, \"\") */\n      mload(0x40)\n      dup1\n      0x20\n      add\n      0x40\n      mstore\n      dup1\n      0x00\n      dup2\n      mstore\n      pop\n        /* \"@openzeppelin/contracts/token/ERC721/ERC721.sol\":4872:4888  safeTransferFrom */\n      tag_76\n        /* \"@openzeppelin/contracts/token/ERC721/ERC721.sol\":4872:4911  safeTransferFrom(from, to, tokenId, \"\") */\n      jump\t// in\n    tag_127:\n        /* \"@openzeppelin/contracts/token/ERC721/ERC721.sol\":4786:4918  function safeTransferFrom(address from, address to, uint256 tokenId) public {... */\n      pop\n      pop\n      pop\n      jump\t// out\n        /* \"contracts/NFT.sol\":913:1070  function burn(uint256 tokenId) external {... */\n    tag_56:\n        /* \"contracts/NFT.sol\":986:1002  ownerOf(tokenId) */\n      tag_129\n        /* \"contracts/NFT.sol\":994:1001  tokenId */\n      dup2\n        /* \"contracts/NFT.sol\":986:993  ownerOf */\n      tag_59\n        /* \"contracts/NFT.sol\":986:1002  ownerOf(tokenId) */\n      jump\t// in\n    tag_129:\n      sub(shl(0xa0, 0x01), 0x01)\n        /* \"contracts/NFT.sol\":972:1002  msg.sender == ownerOf(tokenId) */\n      and\n        /* \"contracts/NFT.sol\":972:982  msg.sender */\n      caller\n      sub(shl(0xa0, 0x01), 0x01)\n        /* \"contracts/NFT.sol\":972:1002  msg.sender == ownerOf(tokenId) */\n      and\n      eq\n        /* \"contracts/NFT.sol\":964:1037  require(msg.sender == ownerOf(tokenId), \"You are not the owner of token\") */\n      tag_130\n      jumpi\n      mload(0x40)\n      shl(0xe5, 0x461bcd)\n      dup2\n      mstore\n        /* \"#utility.yul\":6414:6416   */\n      0x20\n        /* \"contracts/NFT.sol\":964:1037  require(msg.sender == ownerOf(tokenId), \"You are not the owner of token\") */\n      0x04\n      dup3\n      add\n        /* \"#utility.yul\":6396:6417   */\n      mstore\n        /* \"#utility.yul\":6453:6455   */\n      0x1e\n        /* \"#utility.yul\":6433:6451   */\n      0x24\n      dup3\n      add\n        /* \"#utility.yul\":6426:6456   */\n      mstore\n        /* \"#utility.yul\":6492:6524   */\n      0x596f7520617265206e6f7420746865206f776e6572206f6620746f6b656e0000\n        /* \"#utility.yul\":6472:6490   */\n      0x44\n      dup3\n      add\n        /* \"#utility.yul\":6465:6525   */\n      mstore\n        /* \"#utility.yul\":6542:6560   */\n      0x64\n      add\n        /* \"contracts/NFT.sol\":964:1037  require(msg.sender == ownerOf(tokenId), \"You are not the owner of token\") */\n      tag_109\n        /* \"#utility.yul\":6212:6566   */\n      jump\n        /* \"contracts/NFT.sol\":964:1037  require(msg.sender == ownerOf(tokenId), \"You are not the owner of token\") */\n    tag_130:\n        /* \"contracts/NFT.sol\":1048:1062  _burn(tokenId) */\n      tag_133\n        /* \"contracts/NFT.sol\":1054:1061  tokenId */\n      dup2\n        /* \"contracts/NFT.sol\":1048:1053  _burn */\n      tag_134\n        /* \"contracts/NFT.sol\":1048:1062  _burn(tokenId) */\n      jump\t// in\n    tag_133:\n        /* \"contracts/NFT.sol\":913:1070  function burn(uint256 tokenId) external {... */\n      pop\n      jump\t// out\n        /* \"@openzeppelin/contracts/token/ERC721/ERC721.sol\":2184:2302  function ownerOf(uint256 tokenId) public view virtual returns (address) {... */\n    tag_59:\n        /* \"@openzeppelin/contracts/token/ERC721/ERC721.sol\":2247:2254  address */\n      0x00\n        /* \"@openzeppelin/contracts/token/ERC721/ERC721.sol\":2273:2295  _requireOwned(tokenId) */\n      tag_88\n        /* \"@openzeppelin/contracts/token/ERC721/ERC721.sol\":2287:2294  tokenId */\n      dup3\n        /* \"@openzeppelin/contracts/token/ERC721/ERC721.sol\":2273:2286  _requireOwned */\n      tag_99\n        /* \"@openzeppelin/contracts/token/ERC721/ERC721.sol\":2273:2295  _requireOwned(tokenId) */\n      jump\t// in\n        /* \"@openzeppelin/contracts/token/ERC721/ERC721.sol\":1919:2127  function balanceOf(address owner) public view virtual returns (uint256) {... */\n    tag_64:\n        /* \"@openzeppelin/contracts/token/ERC721/ERC721.sol\":1982:1989  uint256 */\n      0x00\n      sub(shl(0xa0, 0x01), 0x01)\n        /* \"@openzeppelin/contracts/token/ERC721/ERC721.sol\":2005:2024  owner == address(0) */\n      dup3\n      and\n        /* \"@openzeppelin/contracts/token/ERC721/ERC721.sol\":2001:2088  if (owner == address(0)) {... */\n      tag_138\n      jumpi\n        /* \"@openzeppelin/contracts/token/ERC721/ERC721.sol\":2047:2077  ERC721InvalidOwner(address(0)) */\n      mload(0x40)\n      shl(0xe2, 0x22718ad9)\n      dup2\n      mstore\n        /* \"@openzeppelin/contracts/token/ERC721/ERC721.sol\":2074:2075  0 */\n      0x00\n        /* \"@openzeppelin/contracts/token/ERC721/ERC721.sol\":2047:2077  ERC721InvalidOwner(address(0)) */\n      0x04\n      dup3\n      add\n        /* \"#utility.yul\":1510:1561   */\n      mstore\n        /* \"#utility.yul\":1483:1501   */\n      0x24\n      add\n        /* \"@openzeppelin/contracts/token/ERC721/ERC721.sol\":2047:2077  ERC721InvalidOwner(address(0)) */\n      tag_109\n        /* \"#utility.yul\":1364:1567   */\n      jump\n        /* \"@openzeppelin/contracts/token/ERC721/ERC721.sol\":2001:2088  if (owner == address(0)) {... */\n    tag_138:\n      pop\n      sub(shl(0xa0, 0x01), 0x01)\n        /* \"@openzeppelin/contracts/token/ERC721/ERC721.sol\":2104:2120  _balances[owner] */\n      and\n      0x00\n      swap1\n      dup2\n      mstore\n        /* \"@openzeppelin/contracts/token/ERC721/ERC721.sol\":2104:2113  _balances */\n      0x03\n        /* \"@openzeppelin/contracts/token/ERC721/ERC721.sol\":2104:2120  _balances[owner] */\n      0x20\n      mstore\n      0x40\n      swap1\n      keccak256\n      sload\n      swap1\n        /* \"@openzeppelin/contracts/token/ERC721/ERC721.sol\":1919:2127  function balanceOf(address owner) public view virtual returns (uint256) {... */\n      jump\t// out\n        /* \"@openzeppelin/contracts/token/ERC721/ERC721.sol\":2517:2610  function symbol() public view virtual returns (string memory) {... */\n    tag_67:\n        /* \"@openzeppelin/contracts/token/ERC721/ERC721.sol\":2564:2577  string memory */\n      0x60\n        /* \"@openzeppelin/contracts/token/ERC721/ERC721.sol\":2596:2603  _symbol */\n      0x01\n        /* \"@openzeppelin/contracts/token/ERC721/ERC721.sol\":2589:2603  return _symbol */\n      dup1\n      sload\n      tag_91\n      swap1\n      tag_92\n      jump\t// in\n        /* \"@openzeppelin/contracts/token/ERC721/ERC721.sol\":3717:3861  function setApprovalForAll(address operator, bool approved) public virtual {... */\n    tag_72:\n        /* \"@openzeppelin/contracts/token/ERC721/ERC721.sol\":3802:3854  _setApprovalForAll(_msgSender(), operator, approved) */\n      tag_103\n        /* \"@openzeppelin/contracts/utils/Context.sol\":735:745  msg.sender */\n      caller\n        /* \"@openzeppelin/contracts/token/ERC721/ERC721.sol\":3835:3843  operator */\n      dup4\n        /* \"@openzeppelin/contracts/token/ERC721/ERC721.sol\":3845:3853  approved */\n      dup4\n        /* \"@openzeppelin/contracts/token/ERC721/ERC721.sol\":3802:3820  _setApprovalForAll */\n      tag_149\n        /* \"@openzeppelin/contracts/token/ERC721/ERC721.sol\":3802:3854  _setApprovalForAll(_msgSender(), operator, approved) */\n      jump\t// in\n        /* \"@openzeppelin/contracts/token/ERC721/ERC721.sol\":4984:5217  function safeTransferFrom(address from, address to, uint256 tokenId, bytes memory data) public virtual {... */\n    tag_76:\n        /* \"@openzeppelin/contracts/token/ERC721/ERC721.sol\":5097:5128  transferFrom(from, to, tokenId) */\n      tag_151\n        /* \"@openzeppelin/contracts/token/ERC721/ERC721.sol\":5110:5114  from */\n      dup5\n        /* \"@openzeppelin/contracts/token/ERC721/ERC721.sol\":5116:5118  to */\n      dup5\n        /* \"@openzeppelin/contracts/token/ERC721/ERC721.sol\":5120:5127  tokenId */\n      dup5\n        /* \"@openzeppelin/contracts/token/ERC721/ERC721.sol\":5097:5109  transferFrom */\n      tag_44\n        /* \"@openzeppelin/contracts/token/ERC721/ERC721.sol\":5097:5128  transferFrom(from, to, tokenId) */\n      jump\t// in\n    tag_151:\n        /* \"@openzeppelin/contracts/token/ERC721/ERC721.sol\":5138:5210  ERC721Utils.checkOnERC721Received(_msgSender(), from, to, tokenId, data) */\n      tag_113\n        /* \"@openzeppelin/contracts/utils/Context.sol\":735:745  msg.sender */\n      caller\n        /* \"@openzeppelin/contracts/token/ERC721/ERC721.sol\":5186:5190  from */\n      dup6\n        /* \"@openzeppelin/contracts/token/ERC721/ERC721.sol\":5192:5194  to */\n      dup6\n        /* \"@openzeppelin/contracts/token/ERC721/ERC721.sol\":5196:5203  tokenId */\n      dup6\n        /* \"@openzeppelin/contracts/token/ERC721/ERC721.sol\":5205:5209  data */\n      dup6\n        /* \"@openzeppelin/contracts/token/ERC721/ERC721.sol\":5138:5171  ERC721Utils.checkOnERC721Received */\n      tag_154\n        /* \"@openzeppelin/contracts/token/ERC721/ERC721.sol\":5138:5210  ERC721Utils.checkOnERC721Received(_msgSender(), from, to, tokenId, data) */\n      jump\t// in\n        /* \"@openzeppelin/contracts/token/ERC721/extensions/ERC721URIStorage.sol\":1211:1804  function tokenURI(uint256 tokenId) public view virtual override returns (string memory) {... */\n    tag_79:\n        /* \"@openzeppelin/contracts/token/ERC721/extensions/ERC721URIStorage.sol\":1284:1297  string memory */\n      0x60\n        /* \"@openzeppelin/contracts/token/ERC721/extensions/ERC721URIStorage.sol\":1309:1331  _requireOwned(tokenId) */\n      tag_156\n        /* \"@openzeppelin/contracts/token/ERC721/extensions/ERC721URIStorage.sol\":1323:1330  tokenId */\n      dup3\n        /* \"@openzeppelin/contracts/token/ERC721/extensions/ERC721URIStorage.sol\":1309:1322  _requireOwned */\n      tag_99\n        /* \"@openzeppelin/contracts/token/ERC721/extensions/ERC721URIStorage.sol\":1309:1331  _requireOwned(tokenId) */\n      jump\t// in\n    tag_156:\n      pop\n        /* \"@openzeppelin/contracts/token/ERC721/extensions/ERC721URIStorage.sol\":1342:1365  string memory _tokenURI */\n      0x00\n        /* \"@openzeppelin/contracts/token/ERC721/extensions/ERC721URIStorage.sol\":1368:1387  _tokenURIs[tokenId] */\n      dup3\n      dup2\n      mstore\n        /* \"@openzeppelin/contracts/token/ERC721/extensions/ERC721URIStorage.sol\":1368:1378  _tokenURIs */\n      0x06\n        /* \"@openzeppelin/contracts/token/ERC721/extensions/ERC721URIStorage.sol\":1368:1387  _tokenURIs[tokenId] */\n      0x20\n      mstore\n      0x40\n      dup2\n      keccak256\n        /* \"@openzeppelin/contracts/token/ERC721/extensions/ERC721URIStorage.sol\":1342:1387  string memory _tokenURI = _tokenURIs[tokenId] */\n      dup1\n      sload\n      tag_157\n      swap1\n      tag_92\n      jump\t// in\n    tag_157:\n      dup1\n      0x1f\n      add\n      0x20\n      dup1\n      swap2\n      div\n      mul\n      0x20\n      add\n      mload(0x40)\n      swap1\n      dup2\n      add\n      0x40\n      mstore\n      dup1\n      swap3\n      swap2\n      swap1\n      dup2\n      dup2\n      mstore\n      0x20\n      add\n      dup3\n      dup1\n      sload\n      tag_158\n      swap1\n      tag_92\n      jump\t// in\n    tag_158:\n      dup1\n      iszero\n      tag_159\n      jumpi\n      dup1\n      0x1f\n      lt\n      tag_160\n      jumpi\n      0x0100\n      dup1\n      dup4\n      sload\n      div\n      mul\n      dup4\n      mstore\n      swap2\n      0x20\n      add\n      swap2\n      jump(tag_159)\n    tag_160:\n      dup3\n      add\n      swap2\n      swap1\n      0x00\n      mstore\n      keccak256(0x00, 0x20)\n      swap1\n    tag_161:\n      dup2\n      sload\n      dup2\n      mstore\n      swap1\n      0x01\n      add\n      swap1\n      0x20\n      add\n      dup1\n      dup4\n      gt\n      tag_161\n      jumpi\n      dup3\n      swap1\n      sub\n      0x1f\n      and\n      dup3\n      add\n      swap2\n    tag_159:\n      pop\n      pop\n      pop\n      pop\n      pop\n      swap1\n      pop\n        /* \"@openzeppelin/contracts/token/ERC721/extensions/ERC721URIStorage.sol\":1397:1415  string memory base */\n      0x00\n        /* \"@openzeppelin/contracts/token/ERC721/extensions/ERC721URIStorage.sol\":1418:1428  _baseURI() */\n      tag_162\n        /* \"@openzeppelin/contracts/token/ERC721/ERC721.sol\":3249:3258  return \"\" */\n      0x40\n      dup1\n      mload\n      0x20\n      dup2\n      add\n      swap1\n      swap2\n      mstore\n      0x00\n      dup2\n      mstore\n      swap1\n        /* \"@openzeppelin/contracts/token/ERC721/ERC721.sol\":3173:3265  function _baseURI() internal view virtual returns (string memory) {... */\n      jump\n        /* \"@openzeppelin/contracts/token/ERC721/extensions/ERC721URIStorage.sol\":1418:1428  _baseURI() */\n    tag_162:\n        /* \"@openzeppelin/contracts/token/ERC721/extensions/ERC721URIStorage.sol\":1397:1428  string memory base = _baseURI() */\n      swap1\n      pop\n        /* \"@openzeppelin/contracts/token/ERC721/extensions/ERC721URIStorage.sol\":1507:1511  base */\n      dup1\n        /* \"@openzeppelin/contracts/token/ERC721/extensions/ERC721URIStorage.sol\":1501:1519  bytes(base).length */\n      mload\n        /* \"@openzeppelin/contracts/token/ERC721/extensions/ERC721URIStorage.sol\":1523:1524  0 */\n      0x00\n        /* \"@openzeppelin/contracts/token/ERC721/extensions/ERC721URIStorage.sol\":1501:1524  bytes(base).length == 0 */\n      sub\n        /* \"@openzeppelin/contracts/token/ERC721/extensions/ERC721URIStorage.sol\":1497:1567  if (bytes(base).length == 0) {... */\n      tag_164\n      jumpi\n      pop\n        /* \"@openzeppelin/contracts/token/ERC721/extensions/ERC721URIStorage.sol\":1547:1556  _tokenURI */\n      swap3\n        /* \"@openzeppelin/contracts/token/ERC721/extensions/ERC721URIStorage.sol\":1211:1804  function tokenURI(uint256 tokenId) public view virtual override returns (string memory) {... */\n      swap2\n      pop\n      pop\n      jump\t// out\n        /* \"@openzeppelin/contracts/token/ERC721/extensions/ERC721URIStorage.sol\":1497:1567  if (bytes(base).length == 0) {... */\n    tag_164:\n        /* \"@openzeppelin/contracts/token/ERC721/extensions/ERC721URIStorage.sol\":1666:1689  bytes(_tokenURI).length */\n      dup2\n      mload\n        /* \"@openzeppelin/contracts/token/ERC721/extensions/ERC721URIStorage.sol\":1666:1693  bytes(_tokenURI).length > 0 */\n      iszero\n        /* \"@openzeppelin/contracts/token/ERC721/extensions/ERC721URIStorage.sol\":1662:1757  if (bytes(_tokenURI).length > 0) {... */\n      tag_165\n      jumpi\n        /* \"@openzeppelin/contracts/token/ERC721/extensions/ERC721URIStorage.sol\":1730:1734  base */\n      dup1\n        /* \"@openzeppelin/contracts/token/ERC721/extensions/ERC721URIStorage.sol\":1736:1745  _tokenURI */\n      dup3\n        /* \"@openzeppelin/contracts/token/ERC721/extensions/ERC721URIStorage.sol\":1716:1746  string.concat(base, _tokenURI) */\n      add(0x20, mload(0x40))\n      tag_166\n      swap3\n      swap2\n      swap1\n      tag_167\n      jump\t// in\n    tag_166:\n      mload(0x40)\n      0x20\n      dup2\n      dup4\n      sub\n      sub\n      dup2\n      mstore\n      swap1\n      0x40\n      mstore\n        /* \"@openzeppelin/contracts/token/ERC721/extensions/ERC721URIStorage.sol\":1709:1746  return string.concat(base, _tokenURI) */\n      swap3\n      pop\n      pop\n      pop\n        /* \"@openzeppelin/contracts/token/ERC721/extensions/ERC721URIStorage.sol\":1211:1804  function tokenURI(uint256 tokenId) public view virtual override returns (string memory) {... */\n      swap2\n      swap1\n      pop\n      jump\t// out\n        /* \"@openzeppelin/contracts/token/ERC721/extensions/ERC721URIStorage.sol\":1662:1757  if (bytes(_tokenURI).length > 0) {... */\n    tag_165:\n        /* \"@openzeppelin/contracts/token/ERC721/extensions/ERC721URIStorage.sol\":1774:1797  super.tokenURI(tokenId) */\n      tag_168\n        /* \"@openzeppelin/contracts/token/ERC721/extensions/ERC721URIStorage.sol\":1789:1796  tokenId */\n      dup5\n        /* \"@openzeppelin/contracts/token/ERC721/extensions/ERC721URIStorage.sol\":1774:1788  super.tokenURI */\n      tag_169\n        /* \"@openzeppelin/contracts/token/ERC721/extensions/ERC721URIStorage.sol\":1774:1797  super.tokenURI(tokenId) */\n      jump\t// in\n    tag_168:\n        /* \"@openzeppelin/contracts/token/ERC721/extensions/ERC721URIStorage.sol\":1767:1797  return super.tokenURI(tokenId) */\n      swap5\n        /* \"@openzeppelin/contracts/token/ERC721/extensions/ERC721URIStorage.sol\":1211:1804  function tokenURI(uint256 tokenId) public view virtual override returns (string memory) {... */\n      swap4\n      pop\n      pop\n      pop\n      pop\n      jump\t// out\n        /* \"@openzeppelin/contracts/token/ERC721/ERC721.sol\":3927:4080  function isApprovedForAll(address owner, address operator) public view virtual returns (bool) {... */\n    tag_84:\n      sub(shl(0xa0, 0x01), 0x01)\n        /* \"@openzeppelin/contracts/token/ERC721/ERC721.sol\":4038:4063  _operatorApprovals[owner] */\n      swap2\n      dup3\n      and\n        /* \"@openzeppelin/contracts/token/ERC721/ERC721.sol\":4015:4019  bool */\n      0x00\n        /* \"@openzeppelin/contracts/token/ERC721/ERC721.sol\":4038:4063  _operatorApprovals[owner] */\n      swap1\n      dup2\n      mstore\n        /* \"@openzeppelin/contracts/token/ERC721/ERC721.sol\":4038:4056  _operatorApprovals */\n      0x05\n        /* \"@openzeppelin/contracts/token/ERC721/ERC721.sol\":4038:4063  _operatorApprovals[owner] */\n      0x20\n      swap1\n      dup2\n      mstore\n      0x40\n      dup1\n      dup4\n      keccak256\n        /* \"@openzeppelin/contracts/token/ERC721/ERC721.sol\":4038:4073  _operatorApprovals[owner][operator] */\n      swap4\n      swap1\n      swap5\n      and\n      dup3\n      mstore\n      swap2\n      swap1\n      swap2\n      mstore\n      keccak256\n      sload\n      0xff\n      and\n      swap1\n        /* \"@openzeppelin/contracts/token/ERC721/ERC721.sol\":3927:4080  function isApprovedForAll(address owner, address operator) public view virtual returns (bool) {... */\n      jump\t// out\n        /* \"@openzeppelin/contracts/token/ERC721/ERC721.sol\":1560:1860  function supportsInterface(bytes4 interfaceId) public view virtual override(ERC165, IERC165) returns (bool) {... */\n    tag_89:\n        /* \"@openzeppelin/contracts/token/ERC721/ERC721.sol\":1662:1666  bool */\n      0x00\n      not(sub(shl(0xe0, 0x01), 0x01))\n        /* \"@openzeppelin/contracts/token/ERC721/ERC721.sol\":1697:1737  interfaceId == type(IERC721).interfaceId */\n      dup3\n      and\n      shl(0xe0, 0x80ac58cd)\n      eq\n      dup1\n        /* \"@openzeppelin/contracts/token/ERC721/ERC721.sol\":1697:1801  interfaceId == type(IERC721).interfaceId ||... */\n      tag_172\n      jumpi\n      pop\n      not(sub(shl(0xe0, 0x01), 0x01))\n        /* \"@openzeppelin/contracts/token/ERC721/ERC721.sol\":1753:1801  interfaceId == type(IERC721Metadata).interfaceId */\n      dup3\n      and\n      shl(0xe0, 0x5b5e139f)\n      eq\n        /* \"@openzeppelin/contracts/token/ERC721/ERC721.sol\":1697:1801  interfaceId == type(IERC721).interfaceId ||... */\n    tag_172:\n        /* \"@openzeppelin/contracts/token/ERC721/ERC721.sol\":1697:1853  interfaceId == type(IERC721).interfaceId ||... */\n      dup1\n      tag_88\n      jumpi\n      pop\n      shl(0xe0, 0x01ffc9a7)\n      not(sub(shl(0xe0, 0x01), 0x01))\n        /* \"@openzeppelin/contracts/utils/introspection/ERC165.sol\":862:902  interfaceId == type(IERC165).interfaceId */\n      dup4\n      and\n      eq\n        /* \"@openzeppelin/contracts/token/ERC721/ERC721.sol\":1817:1853  super.supportsInterface(interfaceId) */\n      tag_88\n        /* \"@openzeppelin/contracts/utils/introspection/ERC165.sol\":763:909  function supportsInterface(bytes4 interfaceId) public view virtual returns (bool) {... */\n      jump\n        /* \"@openzeppelin/contracts/token/ERC721/ERC721.sol\":16212:16453  function _requireOwned(uint256 tokenId) internal view returns (address) {... */\n    tag_99:\n        /* \"@openzeppelin/contracts/token/ERC721/ERC721.sol\":16275:16282  address */\n      0x00\n        /* \"@openzeppelin/contracts/token/ERC721/ERC721.sol\":5824:5840  _owners[tokenId] */\n      dup2\n      dup2\n      mstore\n        /* \"@openzeppelin/contracts/token/ERC721/ERC721.sol\":5824:5831  _owners */\n      0x02\n        /* \"@openzeppelin/contracts/token/ERC721/ERC721.sol\":5824:5840  _owners[tokenId] */\n      0x20\n      mstore\n      0x40\n      dup2\n      keccak256\n      sload\n      sub(shl(0xa0, 0x01), 0x01)\n      and\n      dup1\n        /* \"@openzeppelin/contracts/token/ERC721/ERC721.sol\":16337:16425  if (owner == address(0)) {... */\n      tag_88\n      jumpi\n        /* \"@openzeppelin/contracts/token/ERC721/ERC721.sol\":16383:16414  ERC721NonexistentToken(tokenId) */\n      mload(0x40)\n      shl(0xe0, 0x7e273289)\n      dup2\n      mstore\n      0x04\n      dup2\n      add\n        /* \"#utility.yul\":3889:3914   */\n      dup5\n      swap1\n      mstore\n        /* \"#utility.yul\":3862:3880   */\n      0x24\n      add\n        /* \"@openzeppelin/contracts/token/ERC721/ERC721.sol\":16383:16414  ERC721NonexistentToken(tokenId) */\n      tag_109\n        /* \"#utility.yul\":3743:3920   */\n      jump\n        /* \"@openzeppelin/contracts/token/ERC721/ERC721.sol\":14492:14612  function _approve(address to, uint256 tokenId, address auth) internal {... */\n    tag_106:\n        /* \"@openzeppelin/contracts/token/ERC721/ERC721.sol\":14572:14605  _approve(to, tokenId, auth, true) */\n      tag_127\n        /* \"@openzeppelin/contracts/token/ERC721/ERC721.sol\":14581:14583  to */\n      dup4\n        /* \"@openzeppelin/contracts/token/ERC721/ERC721.sol\":14585:14592  tokenId */\n      dup4\n        /* \"@openzeppelin/contracts/token/ERC721/ERC721.sol\":14594:14598  auth */\n      dup4\n        /* \"@openzeppelin/contracts/token/ERC721/ERC721.sol\":14600:14604  true */\n      0x01\n        /* \"@openzeppelin/contracts/token/ERC721/ERC721.sol\":14572:14580  _approve */\n      tag_185\n        /* \"@openzeppelin/contracts/token/ERC721/ERC721.sol\":14572:14605  _approve(to, tokenId, auth, true) */\n      jump\t// in\n        /* \"@openzeppelin/contracts/token/ERC721/ERC721.sol\":8861:9656  function _update(address to, uint256 tokenId, address auth) internal virtual returns (address) {... */\n    tag_112:\n        /* \"@openzeppelin/contracts/token/ERC721/ERC721.sol\":8947:8954  address */\n      0x00\n        /* \"@openzeppelin/contracts/token/ERC721/ERC721.sol\":5824:5840  _owners[tokenId] */\n      dup3\n      dup2\n      mstore\n        /* \"@openzeppelin/contracts/token/ERC721/ERC721.sol\":5824:5831  _owners */\n      0x02\n        /* \"@openzeppelin/contracts/token/ERC721/ERC721.sol\":5824:5840  _owners[tokenId] */\n      0x20\n      mstore\n      0x40\n      dup2\n      keccak256\n      sload\n      sub(shl(0xa0, 0x01), 0x01)\n      swap1\n      dup2\n      and\n      swap1\n        /* \"@openzeppelin/contracts/token/ERC721/ERC721.sol\":9058:9076  auth != address(0) */\n      dup4\n      and\n      iszero\n        /* \"@openzeppelin/contracts/token/ERC721/ERC721.sol\":9054:9140  if (auth != address(0)) {... */\n      tag_189\n      jumpi\n        /* \"@openzeppelin/contracts/token/ERC721/ERC721.sol\":9092:9129  _checkAuthorized(from, auth, tokenId) */\n      tag_189\n        /* \"@openzeppelin/contracts/token/ERC721/ERC721.sol\":9109:9113  from */\n      dup2\n        /* \"@openzeppelin/contracts/token/ERC721/ERC721.sol\":9115:9119  auth */\n      dup5\n        /* \"@openzeppelin/contracts/token/ERC721/ERC721.sol\":9121:9128  tokenId */\n      dup7\n        /* \"@openzeppelin/contracts/token/ERC721/ERC721.sol\":9092:9108  _checkAuthorized */\n      tag_190\n        /* \"@openzeppelin/contracts/token/ERC721/ERC721.sol\":9092:9129  _checkAuthorized(from, auth, tokenId) */\n      jump\t// in\n    tag_189:\n      sub(shl(0xa0, 0x01), 0x01)\n        /* \"@openzeppelin/contracts/token/ERC721/ERC721.sol\":9184:9202  from != address(0) */\n      dup2\n      and\n      iszero\n        /* \"@openzeppelin/contracts/token/ERC721/ERC721.sol\":9180:9436  if (from != address(0)) {... */\n      tag_191\n      jumpi\n        /* \"@openzeppelin/contracts/token/ERC721/ERC721.sol\":9300:9348  _approve(address(0), tokenId, address(0), false) */\n      tag_192\n        /* \"@openzeppelin/contracts/token/ERC721/ERC721.sol\":9317:9318  0 */\n      0x00\n        /* \"@openzeppelin/contracts/token/ERC721/ERC721.sol\":9321:9328  tokenId */\n      dup6\n        /* \"@openzeppelin/contracts/token/ERC721/ERC721.sol\":9338:9339  0 */\n      0x00\n        /* \"@openzeppelin/contracts/token/ERC721/ERC721.sol\":9342:9347  false */\n      dup1\n        /* \"@openzeppelin/contracts/token/ERC721/ERC721.sol\":9300:9308  _approve */\n      tag_185\n        /* \"@openzeppelin/contracts/token/ERC721/ERC721.sol\":9300:9348  _approve(address(0), tokenId, address(0), false) */\n      jump\t// in\n    tag_192:\n      sub(shl(0xa0, 0x01), 0x01)\n        /* \"@openzeppelin/contracts/token/ERC721/ERC721.sol\":9391:9406  _balances[from] */\n      dup2\n      and\n      0x00\n      swap1\n      dup2\n      mstore\n        /* \"@openzeppelin/contracts/token/ERC721/ERC721.sol\":9391:9400  _balances */\n      0x03\n        /* \"@openzeppelin/contracts/token/ERC721/ERC721.sol\":9391:9406  _balances[from] */\n      0x20\n      mstore\n      0x40\n      swap1\n      keccak256\n        /* \"@openzeppelin/contracts/token/ERC721/ERC721.sol\":9391:9411  _balances[from] -= 1 */\n      dup1\n      sload\n      not(0x00)\n      add\n      swap1\n      sstore\n        /* \"@openzeppelin/contracts/token/ERC721/ERC721.sol\":9180:9436  if (from != address(0)) {... */\n    tag_191:\n      sub(shl(0xa0, 0x01), 0x01)\n        /* \"@openzeppelin/contracts/token/ERC721/ERC721.sol\":9450:9466  to != address(0) */\n      dup6\n      and\n      iszero\n        /* \"@openzeppelin/contracts/token/ERC721/ERC721.sol\":9446:9553  if (to != address(0)) {... */\n      tag_193\n      jumpi\n      sub(shl(0xa0, 0x01), 0x01)\n        /* \"@openzeppelin/contracts/token/ERC721/ERC721.sol\":9510:9523  _balances[to] */\n      dup6\n      and\n      0x00\n      swap1\n      dup2\n      mstore\n        /* \"@openzeppelin/contracts/token/ERC721/ERC721.sol\":9510:9519  _balances */\n      0x03\n        /* \"@openzeppelin/contracts/token/ERC721/ERC721.sol\":9510:9523  _balances[to] */\n      0x20\n      mstore\n      0x40\n      swap1\n      keccak256\n        /* \"@openzeppelin/contracts/token/ERC721/ERC721.sol\":9510:9528  _balances[to] += 1 */\n      dup1\n      sload\n        /* \"@openzeppelin/contracts/token/ERC721/ERC721.sol\":9527:9528  1 */\n      0x01\n        /* \"@openzeppelin/contracts/token/ERC721/ERC721.sol\":9510:9528  _balances[to] += 1 */\n      add\n      swap1\n      sstore\n        /* \"@openzeppelin/contracts/token/ERC721/ERC721.sol\":9446:9553  if (to != address(0)) {... */\n    tag_193:\n        /* \"@openzeppelin/contracts/token/ERC721/ERC721.sol\":9563:9579  _owners[tokenId] */\n      0x00\n      dup5\n      dup2\n      mstore\n        /* \"@openzeppelin/contracts/token/ERC721/ERC721.sol\":9563:9570  _owners */\n      0x02\n        /* \"@openzeppelin/contracts/token/ERC721/ERC721.sol\":9563:9579  _owners[tokenId] */\n      0x20\n      mstore\n      0x40\n      dup1\n      dup3\n      keccak256\n        /* \"@openzeppelin/contracts/token/ERC721/ERC721.sol\":9563:9584  _owners[tokenId] = to */\n      dup1\n      sload\n      not(sub(shl(0xa0, 0x01), 0x01))\n      and\n      sub(shl(0xa0, 0x01), 0x01)\n      dup10\n      dup2\n      and\n      swap2\n      dup3\n      or\n      swap1\n      swap3\n      sstore\n        /* \"@openzeppelin/contracts/token/ERC721/ERC721.sol\":9600:9627  Transfer(from, to, tokenId) */\n      swap2\n      mload\n        /* \"@openzeppelin/contracts/token/ERC721/ERC721.sol\":9563:9579  _owners[tokenId] */\n      dup8\n      swap4\n        /* \"@openzeppelin/contracts/token/ERC721/ERC721.sol\":9600:9627  Transfer(from, to, tokenId) */\n      swap2\n      dup6\n      and\n      swap2\n      0xddf252ad1be2c89b69c2b068fc378daa952ba7f163c4a11628f55a4df523b3ef\n      swap2\n      log4\n        /* \"@openzeppelin/contracts/token/ERC721/ERC721.sol\":9645:9649  from */\n      swap5\n        /* \"@openzeppelin/contracts/token/ERC721/ERC721.sol\":8861:9656  function _update(address to, uint256 tokenId, address auth) internal virtual returns (address) {... */\n      swap4\n      pop\n      pop\n      pop\n      pop\n      jump\t// out\n        /* \"@openzeppelin/contracts/token/ERC721/ERC721.sol\":9978:10305  function _mint(address to, uint256 tokenId) internal {... */\n    tag_122:\n      sub(shl(0xa0, 0x01), 0x01)\n        /* \"@openzeppelin/contracts/token/ERC721/ERC721.sol\":10045:10061  to == address(0) */\n      dup3\n      and\n        /* \"@openzeppelin/contracts/token/ERC721/ERC721.sol\":10041:10128  if (to == address(0)) {... */\n      tag_197\n      jumpi\n        /* \"@openzeppelin/contracts/token/ERC721/ERC721.sol\":10084:10117  ERC721InvalidReceiver(address(0)) */\n      mload(0x40)\n      shl(0xe1, 0x32505749)\n      dup2\n      mstore\n        /* \"@openzeppelin/contracts/token/ERC721/ERC721.sol\":10114:10115  0 */\n      0x00\n        /* \"@openzeppelin/contracts/token/ERC721/ERC721.sol\":10084:10117  ERC721InvalidReceiver(address(0)) */\n      0x04\n      dup3\n      add\n        /* \"#utility.yul\":1510:1561   */\n      mstore\n        /* \"#utility.yul\":1483:1501   */\n      0x24\n      add\n        /* \"@openzeppelin/contracts/token/ERC721/ERC721.sol\":10084:10117  ERC721InvalidReceiver(address(0)) */\n      tag_109\n        /* \"#utility.yul\":1364:1567   */\n      jump\n        /* \"@openzeppelin/contracts/token/ERC721/ERC721.sol\":10041:10128  if (to == address(0)) {... */\n    tag_197:\n        /* \"@openzeppelin/contracts/token/ERC721/ERC721.sol\":10137:10158  address previousOwner */\n      0x00\n        /* \"@openzeppelin/contracts/token/ERC721/ERC721.sol\":10161:10193  _update(to, tokenId, address(0)) */\n      tag_199\n        /* \"@openzeppelin/contracts/token/ERC721/ERC721.sol\":10169:10171  to */\n      dup4\n        /* \"@openzeppelin/contracts/token/ERC721/ERC721.sol\":10173:10180  tokenId */\n      dup4\n        /* \"@openzeppelin/contracts/token/ERC721/ERC721.sol\":10190:10191  0 */\n      0x00\n        /* \"@openzeppelin/contracts/token/ERC721/ERC721.sol\":10161:10168  _update */\n      tag_112\n        /* \"@openzeppelin/contracts/token/ERC721/ERC721.sol\":10161:10193  _update(to, tokenId, address(0)) */\n      jump\t// in\n    tag_199:\n        /* \"@openzeppelin/contracts/token/ERC721/ERC721.sol\":10137:10193  address previousOwner = _update(to, tokenId, address(0)) */\n      swap1\n      pop\n      sub(shl(0xa0, 0x01), 0x01)\n        /* \"@openzeppelin/contracts/token/ERC721/ERC721.sol\":10207:10234  previousOwner != address(0) */\n      dup2\n      and\n      iszero\n        /* \"@openzeppelin/contracts/token/ERC721/ERC721.sol\":10203:10299  if (previousOwner != address(0)) {... */\n      tag_127\n      jumpi\n        /* \"@openzeppelin/contracts/token/ERC721/ERC721.sol\":10257:10288  ERC721InvalidSender(address(0)) */\n      mload(0x40)\n      shl(0xe1, 0x39e35637)\n      dup2\n      mstore\n        /* \"@openzeppelin/contracts/token/ERC721/ERC721.sol\":10285:10286  0 */\n      0x00\n        /* \"@openzeppelin/contracts/token/ERC721/ERC721.sol\":10257:10288  ERC721InvalidSender(address(0)) */\n      0x04\n      dup3\n      add\n        /* \"#utility.yul\":1510:1561   */\n      mstore\n        /* \"#utility.yul\":1483:1501   */\n      0x24\n      add\n        /* \"@openzeppelin/contracts/token/ERC721/ERC721.sol\":10257:10288  ERC721InvalidSender(address(0)) */\n      tag_109\n        /* \"#utility.yul\":1364:1567   */\n      jump\n        /* \"@openzeppelin/contracts/token/ERC721/extensions/ERC721URIStorage.sol\":1923:2090  function _setTokenURI(uint256 tokenId, string memory _tokenURI) internal virtual {... */\n    tag_124:\n        /* \"@openzeppelin/contracts/token/ERC721/extensions/ERC721URIStorage.sol\":2014:2033  _tokenURIs[tokenId] */\n      0x00\n      dup3\n      dup2\n      mstore\n        /* \"@openzeppelin/contracts/token/ERC721/extensions/ERC721URIStorage.sol\":2014:2024  _tokenURIs */\n      0x06\n        /* \"@openzeppelin/contracts/token/ERC721/extensions/ERC721URIStorage.sol\":2014:2033  _tokenURIs[tokenId] */\n      0x20\n      mstore\n      0x40\n      swap1\n      keccak256\n        /* \"@openzeppelin/contracts/token/ERC721/extensions/ERC721URIStorage.sol\":2014:2045  _tokenURIs[tokenId] = _tokenURI */\n      tag_203\n        /* \"@openzeppelin/contracts/token/ERC721/extensions/ERC721URIStorage.sol\":2036:2045  _tokenURI */\n      dup3\n        /* \"@openzeppelin/contracts/token/ERC721/extensions/ERC721URIStorage.sol\":2014:2033  _tokenURIs[tokenId] */\n      dup3\n        /* \"@openzeppelin/contracts/token/ERC721/extensions/ERC721URIStorage.sol\":2014:2045  _tokenURIs[tokenId] = _tokenURI */\n      tag_204\n      jump\t// in\n    tag_203:\n      pop\n        /* \"@openzeppelin/contracts/token/ERC721/extensions/ERC721URIStorage.sol\":2060:2083  MetadataUpdate(tokenId) */\n      mload(0x40)\n        /* \"#utility.yul\":3889:3914   */\n      dup3\n      dup2\n      mstore\n        /* \"@openzeppelin/contracts/token/ERC721/extensions/ERC721URIStorage.sol\":2060:2083  MetadataUpdate(tokenId) */\n      0xf8e1a15aba9398e019f0b49df1a4fde98ee17ae345cb5f6b5e2c27f5033e8ce7\n      swap1\n        /* \"#utility.yul\":3877:3879   */\n      0x20\n        /* \"#utility.yul\":3862:3880   */\n      add\n        /* \"@openzeppelin/contracts/token/ERC721/extensions/ERC721URIStorage.sol\":2060:2083  MetadataUpdate(tokenId) */\n      mload(0x40)\n      dup1\n      swap2\n      sub\n      swap1\n      log1\n        /* \"@openzeppelin/contracts/token/ERC721/extensions/ERC721URIStorage.sol\":1923:2090  function _setTokenURI(uint256 tokenId, string memory _tokenURI) internal virtual {... */\n      pop\n      pop\n      jump\t// out\n        /* \"@openzeppelin/contracts/token/ERC721/ERC721.sol\":11510:11737  function _burn(uint256 tokenId) internal {... */\n    tag_134:\n        /* \"@openzeppelin/contracts/token/ERC721/ERC721.sol\":11561:11582  address previousOwner */\n      0x00\n        /* \"@openzeppelin/contracts/token/ERC721/ERC721.sol\":11585:11625  _update(address(0), tokenId, address(0)) */\n      tag_207\n        /* \"@openzeppelin/contracts/token/ERC721/ERC721.sol\":11601:11602  0 */\n      0x00\n        /* \"@openzeppelin/contracts/token/ERC721/ERC721.sol\":11605:11612  tokenId */\n      dup4\n        /* \"@openzeppelin/contracts/token/ERC721/ERC721.sol\":11622:11623  0 */\n      0x00\n        /* \"@openzeppelin/contracts/token/ERC721/ERC721.sol\":11585:11592  _update */\n      tag_112\n        /* \"@openzeppelin/contracts/token/ERC721/ERC721.sol\":11585:11625  _update(address(0), tokenId, address(0)) */\n      jump\t// in\n    tag_207:\n        /* \"@openzeppelin/contracts/token/ERC721/ERC721.sol\":11561:11625  address previousOwner = _update(address(0), tokenId, address(0)) */\n      swap1\n      pop\n      sub(shl(0xa0, 0x01), 0x01)\n        /* \"@openzeppelin/contracts/token/ERC721/ERC721.sol\":11639:11666  previousOwner == address(0) */\n      dup2\n      and\n        /* \"@openzeppelin/contracts/token/ERC721/ERC721.sol\":11635:11731  if (previousOwner == address(0)) {... */\n      tag_103\n      jumpi\n        /* \"@openzeppelin/contracts/token/ERC721/ERC721.sol\":11689:11720  ERC721NonexistentToken(tokenId) */\n      mload(0x40)\n      shl(0xe0, 0x7e273289)\n      dup2\n      mstore\n      0x04\n      dup2\n      add\n        /* \"#utility.yul\":3889:3914   */\n      dup4\n      swap1\n      mstore\n        /* \"#utility.yul\":3862:3880   */\n      0x24\n      add\n        /* \"@openzeppelin/contracts/token/ERC721/ERC721.sol\":11689:11720  ERC721NonexistentToken(tokenId) */\n      tag_109\n        /* \"#utility.yul\":3743:3920   */\n      jump\n        /* \"@openzeppelin/contracts/token/ERC721/ERC721.sol\":15665:15977  function _setApprovalForAll(address owner, address operator, bool approved) internal virtual {... */\n    tag_149:\n      sub(shl(0xa0, 0x01), 0x01)\n        /* \"@openzeppelin/contracts/token/ERC721/ERC721.sol\":15772:15794  operator == address(0) */\n      dup3\n      and\n        /* \"@openzeppelin/contracts/token/ERC721/ERC721.sol\":15768:15859  if (operator == address(0)) {... */\n      tag_211\n      jumpi\n        /* \"@openzeppelin/contracts/token/ERC721/ERC721.sol\":15817:15848  ERC721InvalidOperator(operator) */\n      mload(0x40)\n      shl(0xe3, 0x0b611743)\n      dup2\n      mstore\n      sub(shl(0xa0, 0x01), 0x01)\n        /* \"#utility.yul\":1528:1560   */\n      dup4\n      and\n        /* \"@openzeppelin/contracts/token/ERC721/ERC721.sol\":15817:15848  ERC721InvalidOperator(operator) */\n      0x04\n      dup3\n      add\n        /* \"#utility.yul\":1510:1561   */\n      mstore\n        /* \"#utility.yul\":1483:1501   */\n      0x24\n      add\n        /* \"@openzeppelin/contracts/token/ERC721/ERC721.sol\":15817:15848  ERC721InvalidOperator(operator) */\n      tag_109\n        /* \"#utility.yul\":1364:1567   */\n      jump\n        /* \"@openzeppelin/contracts/token/ERC721/ERC721.sol\":15768:15859  if (operator == address(0)) {... */\n    tag_211:\n      sub(shl(0xa0, 0x01), 0x01)\n        /* \"@openzeppelin/contracts/token/ERC721/ERC721.sol\":15868:15893  _operatorApprovals[owner] */\n      dup4\n      dup2\n      and\n      0x00\n      dup2\n      dup2\n      mstore\n        /* \"@openzeppelin/contracts/token/ERC721/ERC721.sol\":15868:15886  _operatorApprovals */\n      0x05\n        /* \"@openzeppelin/contracts/token/ERC721/ERC721.sol\":15868:15893  _operatorApprovals[owner] */\n      0x20\n      swap1\n      dup2\n      mstore\n      0x40\n      dup1\n      dup4\n      keccak256\n        /* \"@openzeppelin/contracts/token/ERC721/ERC721.sol\":15868:15903  _operatorApprovals[owner][operator] */\n      swap5\n      dup8\n      and\n      dup1\n      dup5\n      mstore\n      swap5\n      dup3\n      mstore\n      swap2\n      dup3\n      swap1\n      keccak256\n        /* \"@openzeppelin/contracts/token/ERC721/ERC721.sol\":15868:15914  _operatorApprovals[owner][operator] = approved */\n      dup1\n      sload\n      not(0xff)\n      and\n      dup7\n      iszero\n      iszero\n      swap1\n      dup2\n      or\n      swap1\n      swap2\n      sstore\n        /* \"@openzeppelin/contracts/token/ERC721/ERC721.sol\":15929:15970  ApprovalForAll(owner, operator, approved) */\n      swap2\n      mload\n        /* \"#utility.yul\":540:581   */\n      swap2\n      dup3\n      mstore\n        /* \"@openzeppelin/contracts/token/ERC721/ERC721.sol\":15929:15970  ApprovalForAll(owner, operator, approved) */\n      0x17307eab39ab6107e8899845ad3d59bd9653f200f220920489ca2b5937696c31\n      swap2\n        /* \"#utility.yul\":513:531   */\n      add\n        /* \"@openzeppelin/contracts/token/ERC721/ERC721.sol\":15929:15970  ApprovalForAll(owner, operator, approved) */\n      mload(0x40)\n      dup1\n      swap2\n      sub\n      swap1\n      log3\n        /* \"@openzeppelin/contracts/token/ERC721/ERC721.sol\":15665:15977  function _setApprovalForAll(address owner, address operator, bool approved) internal virtual {... */\n      pop\n      pop\n      pop\n      jump\t// out\n        /* \"@openzeppelin/contracts/token/ERC721/utils/ERC721Utils.sol\":985:1909  function checkOnERC721Received(... */\n    tag_154:\n      sub(shl(0xa0, 0x01), 0x01)\n        /* \"@openzeppelin/contracts/token/ERC721/utils/ERC721Utils.sol\":1165:1179  to.code.length */\n      dup4\n      and\n      extcodesize\n        /* \"@openzeppelin/contracts/token/ERC721/utils/ERC721Utils.sol\":1165:1183  to.code.length > 0 */\n      iszero\n        /* \"@openzeppelin/contracts/token/ERC721/utils/ERC721Utils.sol\":1161:1903  if (to.code.length > 0) {... */\n      tag_230\n      jumpi\n        /* \"@openzeppelin/contracts/token/ERC721/utils/ERC721Utils.sol\":1203:1270  IERC721Receiver(to).onERC721Received(operator, from, tokenId, data) */\n      mload(0x40)\n      shl(0xe1, 0x0a85bd01)\n      dup2\n      mstore\n      sub(shl(0xa0, 0x01), 0x01)\n        /* \"@openzeppelin/contracts/token/ERC721/utils/ERC721Utils.sol\":1203:1239  IERC721Receiver(to).onERC721Received */\n      dup5\n      and\n      swap1\n      0x150b7a02\n      swap1\n        /* \"@openzeppelin/contracts/token/ERC721/utils/ERC721Utils.sol\":1203:1270  IERC721Receiver(to).onERC721Received(operator, from, tokenId, data) */\n      tag_216\n      swap1\n        /* \"@openzeppelin/contracts/token/ERC721/utils/ERC721Utils.sol\":1240:1248  operator */\n      dup9\n      swap1\n        /* \"@openzeppelin/contracts/token/ERC721/utils/ERC721Utils.sol\":1250:1254  from */\n      dup9\n      swap1\n        /* \"@openzeppelin/contracts/token/ERC721/utils/ERC721Utils.sol\":1256:1263  tokenId */\n      dup8\n      swap1\n        /* \"@openzeppelin/contracts/token/ERC721/utils/ERC721Utils.sol\":1265:1269  data */\n      dup8\n      swap1\n        /* \"@openzeppelin/contracts/token/ERC721/utils/ERC721Utils.sol\":1203:1270  IERC721Receiver(to).onERC721Received(operator, from, tokenId, data) */\n      0x04\n      add\n      tag_217\n      jump\t// in\n    tag_216:\n      0x20\n      mload(0x40)\n      dup1\n      dup4\n      sub\n      dup2\n      0x00\n      dup8\n      gas\n      call\n      swap3\n      pop\n      pop\n      pop\n      dup1\n      iszero\n      tag_218\n      jumpi\n      pop\n      0x40\n      dup1\n      mload\n      0x1f\n      returndatasize\n      swap1\n      dup2\n      add\n      not(0x1f)\n      and\n      dup3\n      add\n      swap1\n      swap3\n      mstore\n      tag_219\n      swap2\n      dup2\n      add\n      swap1\n      tag_220\n      jump\t// in\n    tag_219:\n      0x01\n    tag_218:\n        /* \"@openzeppelin/contracts/token/ERC721/utils/ERC721Utils.sol\":1199:1893  try IERC721Receiver(to).onERC721Received(operator, from, tokenId, data) returns (bytes4 retval) {... */\n      tag_221\n      jumpi\n      returndatasize\n      dup1\n      dup1\n      iszero\n      tag_226\n      jumpi\n      mload(0x40)\n      swap2\n      pop\n      and(add(returndatasize, 0x3f), not(0x1f))\n      dup3\n      add\n      0x40\n      mstore\n      returndatasize\n      dup3\n      mstore\n      returndatasize\n      0x00\n      0x20\n      dup5\n      add\n      returndatacopy\n      jump(tag_225)\n    tag_226:\n      0x60\n      swap2\n      pop\n    tag_225:\n      pop\n        /* \"@openzeppelin/contracts/token/ERC721/utils/ERC721Utils.sol\":1560:1566  reason */\n      dup1\n        /* \"@openzeppelin/contracts/token/ERC721/utils/ERC721Utils.sol\":1560:1573  reason.length */\n      mload\n        /* \"@openzeppelin/contracts/token/ERC721/utils/ERC721Utils.sol\":1577:1578  0 */\n      0x00\n        /* \"@openzeppelin/contracts/token/ERC721/utils/ERC721Utils.sol\":1560:1578  reason.length == 0 */\n      sub\n        /* \"@openzeppelin/contracts/token/ERC721/utils/ERC721Utils.sol\":1556:1879  if (reason.length == 0) {... */\n      tag_227\n      jumpi\n        /* \"@openzeppelin/contracts/token/ERC721/utils/ERC721Utils.sol\":1664:1703  IERC721Errors.ERC721InvalidReceiver(to) */\n      mload(0x40)\n      shl(0xe1, 0x32505749)\n      dup2\n      mstore\n      sub(shl(0xa0, 0x01), 0x01)\n        /* \"#utility.yul\":1528:1560   */\n      dup6\n      and\n        /* \"@openzeppelin/contracts/token/ERC721/utils/ERC721Utils.sol\":1664:1703  IERC721Errors.ERC721InvalidReceiver(to) */\n      0x04\n      dup3\n      add\n        /* \"#utility.yul\":1510:1561   */\n      mstore\n        /* \"#utility.yul\":1483:1501   */\n      0x24\n      add\n        /* \"@openzeppelin/contracts/token/ERC721/utils/ERC721Utils.sol\":1664:1703  IERC721Errors.ERC721InvalidReceiver(to) */\n      tag_109\n        /* \"#utility.yul\":1364:1567   */\n      jump\n        /* \"@openzeppelin/contracts/token/ERC721/utils/ERC721Utils.sol\":1556:1879  if (reason.length == 0) {... */\n    tag_227:\n        /* \"@openzeppelin/contracts/token/ERC721/utils/ERC721Utils.sol\":1831:1837  reason */\n      dup1\n        /* \"@openzeppelin/contracts/token/ERC721/utils/ERC721Utils.sol\":1825:1838  mload(reason) */\n      mload\n        /* \"@openzeppelin/contracts/token/ERC721/utils/ERC721Utils.sol\":1816:1822  reason */\n      dup2\n        /* \"@openzeppelin/contracts/token/ERC721/utils/ERC721Utils.sol\":1812:1814  32 */\n      0x20\n        /* \"@openzeppelin/contracts/token/ERC721/utils/ERC721Utils.sol\":1808:1823  add(32, reason) */\n      add\n        /* \"@openzeppelin/contracts/token/ERC721/utils/ERC721Utils.sol\":1801:1839  revert(add(32, reason), mload(reason)) */\n      revert\n        /* \"@openzeppelin/contracts/token/ERC721/utils/ERC721Utils.sol\":1199:1893  try IERC721Receiver(to).onERC721Received(operator, from, tokenId, data) returns (bytes4 retval) {... */\n    tag_221:\n      not(sub(shl(0xe0, 0x01), 0x01))\n        /* \"@openzeppelin/contracts/token/ERC721/utils/ERC721Utils.sol\":1317:1368  retval != IERC721Receiver.onERC721Received.selector */\n      dup2\n      and\n      shl(0xe1, 0x0a85bd01)\n      eq\n        /* \"@openzeppelin/contracts/token/ERC721/utils/ERC721Utils.sol\":1313:1495  if (retval != IERC721Receiver.onERC721Received.selector) {... */\n      tag_231\n      jumpi\n        /* \"@openzeppelin/contracts/token/ERC721/utils/ERC721Utils.sol\":1437:1476  IERC721Errors.ERC721InvalidReceiver(to) */\n      mload(0x40)\n      shl(0xe1, 0x32505749)\n      dup2\n      mstore\n      sub(shl(0xa0, 0x01), 0x01)\n        /* \"#utility.yul\":1528:1560   */\n      dup6\n      and\n        /* \"@openzeppelin/contracts/token/ERC721/utils/ERC721Utils.sol\":1437:1476  IERC721Errors.ERC721InvalidReceiver(to) */\n      0x04\n      dup3\n      add\n        /* \"#utility.yul\":1510:1561   */\n      mstore\n        /* \"#utility.yul\":1483:1501   */\n      0x24\n      add\n        /* \"@openzeppelin/contracts/token/ERC721/utils/ERC721Utils.sol\":1437:1476  IERC721Errors.ERC721InvalidReceiver(to) */\n      tag_109\n        /* \"#utility.yul\":1364:1567   */\n      jump\n        /* \"@openzeppelin/contracts/token/ERC721/utils/ERC721Utils.sol\":1313:1495  if (retval != IERC721Receiver.onERC721Received.selector) {... */\n    tag_231:\n        /* \"@openzeppelin/contracts/token/ERC721/utils/ERC721Utils.sol\":1271:1509  returns (bytes4 retval) {... */\n      pop\n        /* \"@openzeppelin/contracts/token/ERC721/utils/ERC721Utils.sol\":1199:1893  try IERC721Receiver(to).onERC721Received(operator, from, tokenId, data) returns (bytes4 retval) {... */\n    tag_230:\n        /* \"@openzeppelin/contracts/token/ERC721/utils/ERC721Utils.sol\":985:1909  function checkOnERC721Received(... */\n      pop\n      pop\n      pop\n      pop\n      pop\n      jump\t// out\n        /* \"@openzeppelin/contracts/token/ERC721/ERC721.sol\":2676:2931  function tokenURI(uint256 tokenId) public view virtual returns (string memory) {... */\n    tag_169:\n        /* \"@openzeppelin/contracts/token/ERC721/ERC721.sol\":2740:2753  string memory */\n      0x60\n        /* \"@openzeppelin/contracts/token/ERC721/ERC721.sol\":2765:2787  _requireOwned(tokenId) */\n      tag_235\n        /* \"@openzeppelin/contracts/token/ERC721/ERC721.sol\":2779:2786  tokenId */\n      dup3\n        /* \"@openzeppelin/contracts/token/ERC721/ERC721.sol\":2765:2778  _requireOwned */\n      tag_99\n        /* \"@openzeppelin/contracts/token/ERC721/ERC721.sol\":2765:2787  _requireOwned(tokenId) */\n      jump\t// in\n    tag_235:\n      pop\n        /* \"@openzeppelin/contracts/token/ERC721/ERC721.sol\":2798:2819  string memory baseURI */\n      0x00\n        /* \"@openzeppelin/contracts/token/ERC721/ERC721.sol\":2822:2832  _baseURI() */\n      tag_236\n        /* \"@openzeppelin/contracts/token/ERC721/ERC721.sol\":3249:3258  return \"\" */\n      0x40\n      dup1\n      mload\n      0x20\n      dup2\n      add\n      swap1\n      swap2\n      mstore\n      0x00\n      dup2\n      mstore\n      swap1\n        /* \"@openzeppelin/contracts/token/ERC721/ERC721.sol\":3173:3265  function _baseURI() internal view virtual returns (string memory) {... */\n      jump\n        /* \"@openzeppelin/contracts/token/ERC721/ERC721.sol\":2822:2832  _baseURI() */\n    tag_236:\n        /* \"@openzeppelin/contracts/token/ERC721/ERC721.sol\":2798:2832  string memory baseURI = _baseURI() */\n      swap1\n      pop\n        /* \"@openzeppelin/contracts/token/ERC721/ERC721.sol\":2873:2874  0 */\n      0x00\n        /* \"@openzeppelin/contracts/token/ERC721/ERC721.sol\":2855:2862  baseURI */\n      dup2\n        /* \"@openzeppelin/contracts/token/ERC721/ERC721.sol\":2849:2870  bytes(baseURI).length */\n      mload\n        /* \"@openzeppelin/contracts/token/ERC721/ERC721.sol\":2849:2874  bytes(baseURI).length > 0 */\n      gt\n        /* \"@openzeppelin/contracts/token/ERC721/ERC721.sol\":2849:2924  bytes(baseURI).length > 0 ? string.concat(baseURI, tokenId.toString()) : \"\" */\n      tag_237\n      jumpi\n      mload(0x40)\n      dup1\n      0x20\n      add\n      0x40\n      mstore\n      dup1\n      0x00\n      dup2\n      mstore\n      pop\n      jump(tag_238)\n    tag_237:\n        /* \"@openzeppelin/contracts/token/ERC721/ERC721.sol\":2891:2898  baseURI */\n      dup1\n        /* \"@openzeppelin/contracts/token/ERC721/ERC721.sol\":2900:2918  tokenId.toString() */\n      tag_239\n        /* \"@openzeppelin/contracts/token/ERC721/ERC721.sol\":2900:2907  tokenId */\n      dup5\n        /* \"@openzeppelin/contracts/token/ERC721/ERC721.sol\":2900:2916  tokenId.toString */\n      tag_240\n        /* \"@openzeppelin/contracts/token/ERC721/ERC721.sol\":2900:2918  tokenId.toString() */\n      jump\t// in\n    tag_239:\n        /* \"@openzeppelin/contracts/token/ERC721/ERC721.sol\":2877:2919  string.concat(baseURI, tokenId.toString()) */\n      add(0x20, mload(0x40))\n      tag_241\n      swap3\n      swap2\n      swap1\n      tag_167\n      jump\t// in\n    tag_241:\n      mload(0x40)\n      0x20\n      dup2\n      dup4\n      sub\n      sub\n      dup2\n      mstore\n      swap1\n      0x40\n      mstore\n        /* \"@openzeppelin/contracts/token/ERC721/ERC721.sol\":2849:2924  bytes(baseURI).length > 0 ? string.concat(baseURI, tokenId.toString()) : \"\" */\n    tag_238:\n        /* \"@openzeppelin/contracts/token/ERC721/ERC721.sol\":2842:2924  return bytes(baseURI).length > 0 ? string.concat(baseURI, tokenId.toString()) : \"\" */\n      swap4\n        /* \"@openzeppelin/contracts/token/ERC721/ERC721.sol\":2676:2931  function tokenURI(uint256 tokenId) public view virtual returns (string memory) {... */\n      swap3\n      pop\n      pop\n      pop\n      jump\t// out\n        /* \"@openzeppelin/contracts/token/ERC721/ERC721.sol\":14794:15456  function _approve(address to, uint256 tokenId, address auth, bool emitEvent) internal virtual {... */\n    tag_185:\n        /* \"@openzeppelin/contracts/token/ERC721/ERC721.sol\":14954:14963  emitEvent */\n      dup1\n        /* \"@openzeppelin/contracts/token/ERC721/ERC721.sol\":14954:14985  emitEvent || auth != address(0) */\n      dup1\n      tag_245\n      jumpi\n      pop\n      sub(shl(0xa0, 0x01), 0x01)\n        /* \"@openzeppelin/contracts/token/ERC721/ERC721.sol\":14967:14985  auth != address(0) */\n      dup3\n      and\n      iszero\n      iszero\n        /* \"@openzeppelin/contracts/token/ERC721/ERC721.sol\":14954:14985  emitEvent || auth != address(0) */\n    tag_245:\n        /* \"@openzeppelin/contracts/token/ERC721/ERC721.sol\":14950:15410  if (emitEvent || auth != address(0)) {... */\n      iszero\n      tag_246\n      jumpi\n        /* \"@openzeppelin/contracts/token/ERC721/ERC721.sol\":15001:15014  address owner */\n      0x00\n        /* \"@openzeppelin/contracts/token/ERC721/ERC721.sol\":15017:15039  _requireOwned(tokenId) */\n      tag_247\n        /* \"@openzeppelin/contracts/token/ERC721/ERC721.sol\":15031:15038  tokenId */\n      dup5\n        /* \"@openzeppelin/contracts/token/ERC721/ERC721.sol\":15017:15030  _requireOwned */\n      tag_99\n        /* \"@openzeppelin/contracts/token/ERC721/ERC721.sol\":15017:15039  _requireOwned(tokenId) */\n      jump\t// in\n    tag_247:\n        /* \"@openzeppelin/contracts/token/ERC721/ERC721.sol\":15001:15039  address owner = _requireOwned(tokenId) */\n      swap1\n      pop\n      sub(shl(0xa0, 0x01), 0x01)\n        /* \"@openzeppelin/contracts/token/ERC721/ERC721.sol\":15167:15185  auth != address(0) */\n      dup4\n      and\n      iszero\n      dup1\n      iszero\n      swap1\n        /* \"@openzeppelin/contracts/token/ERC721/ERC721.sol\":15167:15202  auth != address(0) && owner != auth */\n      tag_248\n      jumpi\n      pop\n        /* \"@openzeppelin/contracts/token/ERC721/ERC721.sol\":15198:15202  auth */\n      dup3\n      sub(shl(0xa0, 0x01), 0x01)\n        /* \"@openzeppelin/contracts/token/ERC721/ERC721.sol\":15189:15202  owner != auth */\n      and\n        /* \"@openzeppelin/contracts/token/ERC721/ERC721.sol\":15189:15194  owner */\n      dup2\n      sub(shl(0xa0, 0x01), 0x01)\n        /* \"@openzeppelin/contracts/token/ERC721/ERC721.sol\":15189:15202  owner != auth */\n      and\n      eq\n      iszero\n        /* \"@openzeppelin/contracts/token/ERC721/ERC721.sol\":15167:15202  auth != address(0) && owner != auth */\n    tag_248:\n        /* \"@openzeppelin/contracts/token/ERC721/ERC721.sol\":15167:15236  auth != address(0) && owner != auth && !isApprovedForAll(owner, auth) */\n      dup1\n      iszero\n      tag_249\n      jumpi\n      pop\n        /* \"@openzeppelin/contracts/token/ERC721/ERC721.sol\":15207:15236  isApprovedForAll(owner, auth) */\n      tag_250\n        /* \"@openzeppelin/contracts/token/ERC721/ERC721.sol\":15224:15229  owner */\n      dup2\n        /* \"@openzeppelin/contracts/token/ERC721/ERC721.sol\":15231:15235  auth */\n      dup5\n        /* \"@openzeppelin/contracts/token/ERC721/ERC721.sol\":15207:15223  isApprovedForAll */\n      tag_84\n        /* \"@openzeppelin/contracts/token/ERC721/ERC721.sol\":15207:15236  isApprovedForAll(owner, auth) */\n      jump\t// in\n    tag_250:\n        /* \"@openzeppelin/contracts/token/ERC721/ERC721.sol\":15206:15236  !isApprovedForAll(owner, auth) */\n      iszero\n        /* \"@openzeppelin/contracts/token/ERC721/ERC721.sol\":15167:15236  auth != address(0) && owner != auth && !isApprovedForAll(owner, auth) */\n    tag_249:\n        /* \"@openzeppelin/contracts/token/ERC721/ERC721.sol\":15163:15305  if (auth != address(0) && owner != auth && !isApprovedForAll(owner, auth)) {... */\n      iszero\n      tag_251\n      jumpi\n        /* \"@openzeppelin/contracts/token/ERC721/ERC721.sol\":15263:15290  ERC721InvalidApprover(auth) */\n      mload(0x40)\n      shl(0xe0, 0xa9fbf51f)\n      dup2\n      mstore\n      sub(shl(0xa0, 0x01), 0x01)\n        /* \"#utility.yul\":1528:1560   */\n      dup5\n      and\n        /* \"@openzeppelin/contracts/token/ERC721/ERC721.sol\":15263:15290  ERC721InvalidApprover(auth) */\n      0x04\n      dup3\n      add\n        /* \"#utility.yul\":1510:1561   */\n      mstore\n        /* \"#utility.yul\":1483:1501   */\n      0x24\n      add\n        /* \"@openzeppelin/contracts/token/ERC721/ERC721.sol\":15263:15290  ERC721InvalidApprover(auth) */\n      tag_109\n        /* \"#utility.yul\":1364:1567   */\n      jump\n        /* \"@openzeppelin/contracts/token/ERC721/ERC721.sol\":15163:15305  if (auth != address(0) && owner != auth && !isApprovedForAll(owner, auth)) {... */\n    tag_251:\n        /* \"@openzeppelin/contracts/token/ERC721/ERC721.sol\":15323:15332  emitEvent */\n      dup2\n        /* \"@openzeppelin/contracts/token/ERC721/ERC721.sol\":15319:15400  if (emitEvent) {... */\n      iszero\n      tag_253\n      jumpi\n        /* \"@openzeppelin/contracts/token/ERC721/ERC721.sol\":15377:15384  tokenId */\n      dup4\n        /* \"@openzeppelin/contracts/token/ERC721/ERC721.sol\":15373:15375  to */\n      dup6\n      sub(shl(0xa0, 0x01), 0x01)\n        /* \"@openzeppelin/contracts/token/ERC721/ERC721.sol\":15357:15385  Approval(owner, to, tokenId) */\n      and\n        /* \"@openzeppelin/contracts/token/ERC721/ERC721.sol\":15366:15371  owner */\n      dup3\n      sub(shl(0xa0, 0x01), 0x01)\n        /* \"@openzeppelin/contracts/token/ERC721/ERC721.sol\":15357:15385  Approval(owner, to, tokenId) */\n      and\n      0x8c5be1e5ebec7d5bd14f71427d1e84f3dd0314c0f7b2291e5b200ac8c7c3b925\n      mload(0x40)\n      mload(0x40)\n      dup1\n      swap2\n      sub\n      swap1\n      log4\n        /* \"@openzeppelin/contracts/token/ERC721/ERC721.sol\":15319:15400  if (emitEvent) {... */\n    tag_253:\n        /* \"@openzeppelin/contracts/token/ERC721/ERC721.sol\":14987:15410  {... */\n      pop\n        /* \"@openzeppelin/contracts/token/ERC721/ERC721.sol\":14950:15410  if (emitEvent || auth != address(0)) {... */\n    tag_246:\n      pop\n      pop\n        /* \"@openzeppelin/contracts/token/ERC721/ERC721.sol\":15420:15444  _tokenApprovals[tokenId] */\n      0x00\n      swap1\n      dup2\n      mstore\n        /* \"@openzeppelin/contracts/token/ERC721/ERC721.sol\":15420:15435  _tokenApprovals */\n      0x04\n        /* \"@openzeppelin/contracts/token/ERC721/ERC721.sol\":15420:15444  _tokenApprovals[tokenId] */\n      0x20\n      mstore\n      0x40\n      swap1\n      keccak256\n        /* \"@openzeppelin/contracts/token/ERC721/ERC721.sol\":15420:15449  _tokenApprovals[tokenId] = to */\n      dup1\n      sload\n      not(sub(shl(0xa0, 0x01), 0x01))\n      and\n      sub(shl(0xa0, 0x01), 0x01)\n      swap3\n      swap1\n      swap3\n      and\n      swap2\n      swap1\n      swap2\n      or\n      swap1\n      sstore\n        /* \"@openzeppelin/contracts/token/ERC721/ERC721.sol\":14794:15456  function _approve(address to, uint256 tokenId, address auth, bool emitEvent) internal virtual {... */\n      jump\t// out\n        /* \"@openzeppelin/contracts/token/ERC721/ERC721.sol\":7105:7473  function _checkAuthorized(address owner, address spender, uint256 tokenId) internal view virtual {... */\n    tag_190:\n        /* \"@openzeppelin/contracts/token/ERC721/ERC721.sol\":7217:7255  _isAuthorized(owner, spender, tokenId) */\n      tag_255\n        /* \"@openzeppelin/contracts/token/ERC721/ERC721.sol\":7231:7236  owner */\n      dup4\n        /* \"@openzeppelin/contracts/token/ERC721/ERC721.sol\":7238:7245  spender */\n      dup4\n        /* \"@openzeppelin/contracts/token/ERC721/ERC721.sol\":7247:7254  tokenId */\n      dup4\n        /* \"@openzeppelin/contracts/token/ERC721/ERC721.sol\":7217:7230  _isAuthorized */\n      tag_256\n        /* \"@openzeppelin/contracts/token/ERC721/ERC721.sol\":7217:7255  _isAuthorized(owner, spender, tokenId) */\n      jump\t// in\n    tag_255:\n        /* \"@openzeppelin/contracts/token/ERC721/ERC721.sol\":7212:7467  if (!_isAuthorized(owner, spender, tokenId)) {... */\n      tag_127\n      jumpi\n      sub(shl(0xa0, 0x01), 0x01)\n        /* \"@openzeppelin/contracts/token/ERC721/ERC721.sol\":7275:7294  owner == address(0) */\n      dup4\n      and\n        /* \"@openzeppelin/contracts/token/ERC721/ERC721.sol\":7271:7457  if (owner == address(0)) {... */\n      tag_258\n      jumpi\n        /* \"@openzeppelin/contracts/token/ERC721/ERC721.sol\":7321:7352  ERC721NonexistentToken(tokenId) */\n      mload(0x40)\n      shl(0xe0, 0x7e273289)\n      dup2\n      mstore\n      0x04\n      dup2\n      add\n        /* \"#utility.yul\":3889:3914   */\n      dup3\n      swap1\n      mstore\n        /* \"#utility.yul\":3862:3880   */\n      0x24\n      add\n        /* \"@openzeppelin/contracts/token/ERC721/ERC721.sol\":7321:7352  ERC721NonexistentToken(tokenId) */\n      tag_109\n        /* \"#utility.yul\":3743:3920   */\n      jump\n        /* \"@openzeppelin/contracts/token/ERC721/ERC721.sol\":7271:7457  if (owner == address(0)) {... */\n    tag_258:\n        /* \"@openzeppelin/contracts/token/ERC721/ERC721.sol\":7398:7442  ERC721InsufficientApproval(spender, tokenId) */\n      mload(0x40)\n      shl(0xe0, 0x177e802f)\n      dup2\n      mstore\n      sub(shl(0xa0, 0x01), 0x01)\n        /* \"#utility.yul\":10131:10163   */\n      dup4\n      and\n        /* \"@openzeppelin/contracts/token/ERC721/ERC721.sol\":7398:7442  ERC721InsufficientApproval(spender, tokenId) */\n      0x04\n      dup3\n      add\n        /* \"#utility.yul\":10113:10164   */\n      mstore\n        /* \"#utility.yul\":10180:10198   */\n      0x24\n      dup2\n      add\n        /* \"#utility.yul\":10173:10207   */\n      dup3\n      swap1\n      mstore\n        /* \"#utility.yul\":10086:10104   */\n      0x44\n      add\n        /* \"@openzeppelin/contracts/token/ERC721/ERC721.sol\":7398:7442  ERC721InsufficientApproval(spender, tokenId) */\n      tag_109\n        /* \"#utility.yul\":9939:10213   */\n      jump\n        /* \"@openzeppelin/contracts/utils/Strings.sol\":637:1335  function toString(uint256 value) internal pure returns (string memory) {... */\n    tag_240:\n        /* \"@openzeppelin/contracts/utils/Strings.sol\":693:706  string memory */\n      0x60\n        /* \"@openzeppelin/contracts/utils/Strings.sol\":742:756  uint256 length */\n      0x00\n        /* \"@openzeppelin/contracts/utils/Strings.sol\":759:776  Math.log10(value) */\n      tag_264\n        /* \"@openzeppelin/contracts/utils/Strings.sol\":770:775  value */\n      dup4\n        /* \"@openzeppelin/contracts/utils/Strings.sol\":759:769  Math.log10 */\n      tag_265\n        /* \"@openzeppelin/contracts/utils/Strings.sol\":759:776  Math.log10(value) */\n      jump\t// in\n    tag_264:\n        /* \"@openzeppelin/contracts/utils/Strings.sol\":779:780  1 */\n      0x01\n        /* \"@openzeppelin/contracts/utils/Strings.sol\":759:780  Math.log10(value) + 1 */\n      add\n        /* \"@openzeppelin/contracts/utils/Strings.sol\":742:780  uint256 length = Math.log10(value) + 1 */\n      swap1\n      pop\n        /* \"@openzeppelin/contracts/utils/Strings.sol\":794:814  string memory buffer */\n      0x00\n        /* \"@openzeppelin/contracts/utils/Strings.sol\":828:834  length */\n      dup2\n        /* \"@openzeppelin/contracts/utils/Strings.sol\":817:835  new string(length) */\n      0xffffffffffffffff\n      dup2\n      gt\n      iszero\n      tag_267\n      jumpi\n      tag_267\n      tag_268\n      jump\t// in\n    tag_267:\n      mload(0x40)\n      swap1\n      dup1\n      dup3\n      mstore\n      dup1\n      0x1f\n      add\n      not(0x1f)\n      and\n      0x20\n      add\n      dup3\n      add\n      0x40\n      mstore\n      dup1\n      iszero\n      tag_269\n      jumpi\n      0x20\n      dup3\n      add\n      dup2\n      dup1\n      calldatasize\n      dup4\n      calldatacopy\n      add\n      swap1\n      pop\n    tag_269:\n      pop\n        /* \"@openzeppelin/contracts/utils/Strings.sol\":794:835  string memory buffer = new string(length) */\n      swap1\n      pop\n        /* \"@openzeppelin/contracts/utils/Strings.sol\":955:983  add(buffer, add(32, length)) */\n      dup2\n      dup2\n      add\n        /* \"@openzeppelin/contracts/utils/Strings.sol\":971:973  32 */\n      0x20\n        /* \"@openzeppelin/contracts/utils/Strings.sol\":955:983  add(buffer, add(32, length)) */\n      add\n        /* \"@openzeppelin/contracts/utils/Strings.sol\":1010:1292  while (true) {... */\n    tag_270:\n      not(0x00)\n        /* \"@openzeppelin/contracts/utils/Strings.sol\":1041:1046  ptr-- */\n      add\n      shl(0x81, 0x181899199a1a9b1b9c1cb0b131b232b3)\n        /* \"@openzeppelin/contracts/utils/Strings.sol\":1175:1177  10 */\n      0x0a\n        /* \"@openzeppelin/contracts/utils/Strings.sol\":1164:1178  mod(value, 10) */\n      dup7\n      mod\n        /* \"@openzeppelin/contracts/utils/Strings.sol\":1159:1191  byte(mod(value, 10), HEX_DIGITS) */\n      byte\n        /* \"@openzeppelin/contracts/utils/Strings.sol\":1041:1046  ptr-- */\n      dup2\n        /* \"@openzeppelin/contracts/utils/Strings.sol\":1146:1192  mstore8(ptr, byte(mod(value, 10), HEX_DIGITS)) */\n      mstore8\n        /* \"@openzeppelin/contracts/utils/Strings.sol\":1236:1238  10 */\n      0x0a\n        /* \"@openzeppelin/contracts/utils/Strings.sol\":1227:1238  value /= 10 */\n      dup6\n      div\n      swap5\n      pop\n        /* \"@openzeppelin/contracts/utils/Strings.sol\":1256:1277  if (value == 0) break */\n      dup5\n        /* \"@openzeppelin/contracts/utils/Strings.sol\":1010:1292  while (true) {... */\n      tag_270\n        /* \"@openzeppelin/contracts/utils/Strings.sol\":1256:1277  if (value == 0) break */\n      jumpi\n      pop\n        /* \"@openzeppelin/contracts/utils/Strings.sol\":1312:1318  buffer */\n      swap4\n        /* \"@openzeppelin/contracts/utils/Strings.sol\":637:1335  function toString(uint256 value) internal pure returns (string memory) {... */\n      swap3\n      pop\n      pop\n      pop\n      jump\t// out\n        /* \"@openzeppelin/contracts/token/ERC721/ERC721.sol\":6401:6673  function _isAuthorized(address owner, address spender, uint256 tokenId) internal view virtual returns (bool) {... */\n    tag_256:\n        /* \"@openzeppelin/contracts/token/ERC721/ERC721.sol\":6504:6508  bool */\n      0x00\n      sub(shl(0xa0, 0x01), 0x01)\n        /* \"@openzeppelin/contracts/token/ERC721/ERC721.sol\":6539:6560  spender != address(0) */\n      dup4\n      and\n      iszero\n      dup1\n      iszero\n      swap1\n        /* \"@openzeppelin/contracts/token/ERC721/ERC721.sol\":6539:6666  spender != address(0) &&... */\n      tag_168\n      jumpi\n      pop\n        /* \"@openzeppelin/contracts/token/ERC721/ERC721.sol\":6586:6593  spender */\n      dup3\n      sub(shl(0xa0, 0x01), 0x01)\n        /* \"@openzeppelin/contracts/token/ERC721/ERC721.sol\":6577:6593  owner == spender */\n      and\n        /* \"@openzeppelin/contracts/token/ERC721/ERC721.sol\":6577:6582  owner */\n      dup5\n      sub(shl(0xa0, 0x01), 0x01)\n        /* \"@openzeppelin/contracts/token/ERC721/ERC721.sol\":6577:6593  owner == spender */\n      and\n      eq\n        /* \"@openzeppelin/contracts/token/ERC721/ERC721.sol\":6577:6629  owner == spender || isApprovedForAll(owner, spender) */\n      dup1\n      tag_279\n      jumpi\n      pop\n        /* \"@openzeppelin/contracts/token/ERC721/ERC721.sol\":6597:6629  isApprovedForAll(owner, spender) */\n      tag_279\n        /* \"@openzeppelin/contracts/token/ERC721/ERC721.sol\":6614:6619  owner */\n      dup5\n        /* \"@openzeppelin/contracts/token/ERC721/ERC721.sol\":6621:6628  spender */\n      dup5\n        /* \"@openzeppelin/contracts/token/ERC721/ERC721.sol\":6597:6613  isApprovedForAll */\n      tag_84\n        /* \"@openzeppelin/contracts/token/ERC721/ERC721.sol\":6597:6629  isApprovedForAll(owner, spender) */\n      jump\t// in\n    tag_279:\n        /* \"@openzeppelin/contracts/token/ERC721/ERC721.sol\":6577:6665  owner == spender || isApprovedForAll(owner, spender) || _getApproved(tokenId) == spender */\n      dup1\n      tag_168\n      jumpi\n      pop\n      pop\n        /* \"@openzeppelin/contracts/token/ERC721/ERC721.sol\":6033:6040  address */\n      0x00\n        /* \"@openzeppelin/contracts/token/ERC721/ERC721.sol\":6059:6083  _tokenApprovals[tokenId] */\n      swap1\n      dup2\n      mstore\n        /* \"@openzeppelin/contracts/token/ERC721/ERC721.sol\":6059:6074  _tokenApprovals */\n      0x04\n        /* \"@openzeppelin/contracts/token/ERC721/ERC721.sol\":6059:6083  _tokenApprovals[tokenId] */\n      0x20\n      mstore\n      0x40\n      swap1\n      keccak256\n      sload\n      sub(shl(0xa0, 0x01), 0x01)\n      swap1\n      dup2\n      and\n        /* \"@openzeppelin/contracts/token/ERC721/ERC721.sol\":6633:6665  _getApproved(tokenId) == spender */\n      swap2\n      and\n      eq\n      swap2\n        /* \"@openzeppelin/contracts/token/ERC721/ERC721.sol\":6520:6666  return... */\n      swap1\n      pop\n        /* \"@openzeppelin/contracts/token/ERC721/ERC721.sol\":6401:6673  function _isAuthorized(address owner, address spender, uint256 tokenId) internal view virtual returns (bool) {... */\n      jump\t// out\n        /* \"@openzeppelin/contracts/utils/math/Math.sol\":12214:13130  function log10(uint256 value) internal pure returns (uint256) {... */\n    tag_265:\n        /* \"@openzeppelin/contracts/utils/math/Math.sol\":12267:12274  uint256 */\n      0x00\n      dup1\n      shl(0x40, 0x184f03e93ff9f4daa797ed6e38ed64bf6a1f01)\n        /* \"@openzeppelin/contracts/utils/math/Math.sol\":12342:12359  value >= 10 ** 64 */\n      dup4\n      lt\n        /* \"@openzeppelin/contracts/utils/math/Math.sol\":12338:12441  if (value >= 10 ** 64) {... */\n      tag_283\n      jumpi\n      shl(0x40, 0x184f03e93ff9f4daa797ed6e38ed64bf6a1f01)\n        /* \"@openzeppelin/contracts/utils/math/Math.sol\":12379:12396  value /= 10 ** 64 */\n      dup4\n      div\n      swap3\n      pop\n        /* \"@openzeppelin/contracts/utils/math/Math.sol\":12424:12426  64 */\n      0x40\n        /* \"@openzeppelin/contracts/utils/math/Math.sol\":12414:12426  result += 64 */\n      add\n        /* \"@openzeppelin/contracts/utils/math/Math.sol\":12338:12441  if (value >= 10 ** 64) {... */\n    tag_283:\n        /* \"@openzeppelin/contracts/utils/math/Math.sol\":12467:12475  10 ** 32 */\n      0x04ee2d6d415b85acef8100000000\n        /* \"@openzeppelin/contracts/utils/math/Math.sol\":12458:12463  value */\n      dup4\n        /* \"@openzeppelin/contracts/utils/math/Math.sol\":12458:12475  value >= 10 ** 32 */\n      lt\n        /* \"@openzeppelin/contracts/utils/math/Math.sol\":12454:12557  if (value >= 10 ** 32) {... */\n      tag_286\n      jumpi\n        /* \"@openzeppelin/contracts/utils/math/Math.sol\":12504:12512  10 ** 32 */\n      0x04ee2d6d415b85acef8100000000\n        /* \"@openzeppelin/contracts/utils/math/Math.sol\":12495:12512  value /= 10 ** 32 */\n      dup4\n      div\n      swap3\n      pop\n        /* \"@openzeppelin/contracts/utils/math/Math.sol\":12540:12542  32 */\n      0x20\n        /* \"@openzeppelin/contracts/utils/math/Math.sol\":12530:12542  result += 32 */\n      add\n        /* \"@openzeppelin/contracts/utils/math/Math.sol\":12454:12557  if (value >= 10 ** 32) {... */\n    tag_286:\n        /* \"@openzeppelin/contracts/utils/math/Math.sol\":12583:12591  10 ** 16 */\n      0x2386f26fc10000\n        /* \"@openzeppelin/contracts/utils/math/Math.sol\":12574:12579  value */\n      dup4\n        /* \"@openzeppelin/contracts/utils/math/Math.sol\":12574:12591  value >= 10 ** 16 */\n      lt\n        /* \"@openzeppelin/contracts/utils/math/Math.sol\":12570:12673  if (value >= 10 ** 16) {... */\n      tag_289\n      jumpi\n        /* \"@openzeppelin/contracts/utils/math/Math.sol\":12620:12628  10 ** 16 */\n      0x2386f26fc10000\n        /* \"@openzeppelin/contracts/utils/math/Math.sol\":12611:12628  value /= 10 ** 16 */\n      dup4\n      div\n      swap3\n      pop\n        /* \"@openzeppelin/contracts/utils/math/Math.sol\":12656:12658  16 */\n      0x10\n        /* \"@openzeppelin/contracts/utils/math/Math.sol\":12646:12658  result += 16 */\n      add\n        /* \"@openzeppelin/contracts/utils/math/Math.sol\":12570:12673  if (value >= 10 ** 16) {... */\n    tag_289:\n        /* \"@openzeppelin/contracts/utils/math/Math.sol\":12699:12706  10 ** 8 */\n      0x05f5e100\n        /* \"@openzeppelin/contracts/utils/math/Math.sol\":12690:12695  value */\n      dup4\n        /* \"@openzeppelin/contracts/utils/math/Math.sol\":12690:12706  value >= 10 ** 8 */\n      lt\n        /* \"@openzeppelin/contracts/utils/math/Math.sol\":12686:12786  if (value >= 10 ** 8) {... */\n      tag_292\n      jumpi\n        /* \"@openzeppelin/contracts/utils/math/Math.sol\":12735:12742  10 ** 8 */\n      0x05f5e100\n        /* \"@openzeppelin/contracts/utils/math/Math.sol\":12726:12742  value /= 10 ** 8 */\n      dup4\n      div\n      swap3\n      pop\n        /* \"@openzeppelin/contracts/utils/math/Math.sol\":12770:12771  8 */\n      0x08\n        /* \"@openzeppelin/contracts/utils/math/Math.sol\":12760:12771  result += 8 */\n      add\n        /* \"@openzeppelin/contracts/utils/math/Math.sol\":12686:12786  if (value >= 10 ** 8) {... */\n    tag_292:\n        /* \"@openzeppelin/contracts/utils/math/Math.sol\":12812:12819  10 ** 4 */\n      0x2710\n        /* \"@openzeppelin/contracts/utils/math/Math.sol\":12803:12808  value */\n      dup4\n        /* \"@openzeppelin/contracts/utils/math/Math.sol\":12803:12819  value >= 10 ** 4 */\n      lt\n        /* \"@openzeppelin/contracts/utils/math/Math.sol\":12799:12899  if (value >= 10 ** 4) {... */\n      tag_295\n      jumpi\n        /* \"@openzeppelin/contracts/utils/math/Math.sol\":12848:12855  10 ** 4 */\n      0x2710\n        /* \"@openzeppelin/contracts/utils/math/Math.sol\":12839:12855  value /= 10 ** 4 */\n      dup4\n      div\n      swap3\n      pop\n        /* \"@openzeppelin/contracts/utils/math/Math.sol\":12883:12884  4 */\n      0x04\n        /* \"@openzeppelin/contracts/utils/math/Math.sol\":12873:12884  result += 4 */\n      add\n        /* \"@openzeppelin/contracts/utils/math/Math.sol\":12799:12899  if (value >= 10 ** 4) {... */\n    tag_295:\n        /* \"@openzeppelin/contracts/utils/math/Math.sol\":12925:12932  10 ** 2 */\n      0x64\n        /* \"@openzeppelin/contracts/utils/math/Math.sol\":12916:12921  value */\n      dup4\n        /* \"@openzeppelin/contracts/utils/math/Math.sol\":12916:12932  value >= 10 ** 2 */\n      lt\n        /* \"@openzeppelin/contracts/utils/math/Math.sol\":12912:13012  if (value >= 10 ** 2) {... */\n      tag_298\n      jumpi\n        /* \"@openzeppelin/contracts/utils/math/Math.sol\":12961:12968  10 ** 2 */\n      0x64\n        /* \"@openzeppelin/contracts/utils/math/Math.sol\":12952:12968  value /= 10 ** 2 */\n      dup4\n      div\n      swap3\n      pop\n        /* \"@openzeppelin/contracts/utils/math/Math.sol\":12996:12997  2 */\n      0x02\n        /* \"@openzeppelin/contracts/utils/math/Math.sol\":12986:12997  result += 2 */\n      add\n        /* \"@openzeppelin/contracts/utils/math/Math.sol\":12912:13012  if (value >= 10 ** 2) {... */\n    tag_298:\n        /* \"@openzeppelin/contracts/utils/math/Math.sol\":13038:13045  10 ** 1 */\n      0x0a\n        /* \"@openzeppelin/contracts/utils/math/Math.sol\":13029:13034  value */\n      dup4\n        /* \"@openzeppelin/contracts/utils/math/Math.sol\":13029:13045  value >= 10 ** 1 */\n      lt\n        /* \"@openzeppelin/contracts/utils/math/Math.sol\":13025:13091  if (value >= 10 ** 1) {... */\n      tag_88\n      jumpi\n        /* \"@openzeppelin/contracts/utils/math/Math.sol\":13075:13076  1 */\n      0x01\n        /* \"@openzeppelin/contracts/utils/math/Math.sol\":13065:13076  result += 1 */\n      add\n        /* \"@openzeppelin/contracts/utils/math/Math.sol\":13117:13123  result */\n      swap3\n        /* \"@openzeppelin/contracts/utils/math/Math.sol\":12214:13130  function log10(uint256 value) internal pure returns (uint256) {... */\n      swap2\n      pop\n      pop\n      jump\t// out\n        /* \"#utility.yul\":14:145   */\n    tag_302:\n      not(sub(shl(0xe0, 0x01), 0x01))\n        /* \"#utility.yul\":88:120   */\n      dup2\n      and\n        /* \"#utility.yul\":78:121   */\n      dup2\n      eq\n        /* \"#utility.yul\":68:139   */\n      tag_133\n      jumpi\n        /* \"#utility.yul\":135:136   */\n      0x00\n        /* \"#utility.yul\":132:133   */\n      dup1\n        /* \"#utility.yul\":125:137   */\n      revert\n        /* \"#utility.yul\":150:395   */\n    tag_23:\n        /* \"#utility.yul\":208:214   */\n      0x00\n        /* \"#utility.yul\":261:263   */\n      0x20\n        /* \"#utility.yul\":249:258   */\n      dup3\n        /* \"#utility.yul\":240:247   */\n      dup5\n        /* \"#utility.yul\":236:259   */\n      sub\n        /* \"#utility.yul\":232:264   */\n      slt\n        /* \"#utility.yul\":229:281   */\n      iszero\n      tag_314\n      jumpi\n        /* \"#utility.yul\":277:278   */\n      0x00\n        /* \"#utility.yul\":274:275   */\n      dup1\n        /* \"#utility.yul\":267:279   */\n      revert\n        /* \"#utility.yul\":229:281   */\n    tag_314:\n        /* \"#utility.yul\":316:325   */\n      dup2\n        /* \"#utility.yul\":303:326   */\n      calldataload\n        /* \"#utility.yul\":335:365   */\n      tag_238\n        /* \"#utility.yul\":359:364   */\n      dup2\n        /* \"#utility.yul\":335:365   */\n      tag_302\n      jump\t// in\n        /* \"#utility.yul\":592:892   */\n    tag_303:\n        /* \"#utility.yul\":645:648   */\n      0x00\n        /* \"#utility.yul\":683:688   */\n      dup2\n        /* \"#utility.yul\":677:689   */\n      mload\n        /* \"#utility.yul\":710:716   */\n      dup1\n        /* \"#utility.yul\":705:708   */\n      dup5\n        /* \"#utility.yul\":698:717   */\n      mstore\n        /* \"#utility.yul\":766:772   */\n      dup1\n        /* \"#utility.yul\":759:763   */\n      0x20\n        /* \"#utility.yul\":752:757   */\n      dup5\n        /* \"#utility.yul\":748:764   */\n      add\n        /* \"#utility.yul\":741:745   */\n      0x20\n        /* \"#utility.yul\":736:739   */\n      dup7\n        /* \"#utility.yul\":732:746   */\n      add\n        /* \"#utility.yul\":726:773   */\n      mcopy\n        /* \"#utility.yul\":818:819   */\n      0x00\n        /* \"#utility.yul\":811:815   */\n      0x20\n        /* \"#utility.yul\":802:808   */\n      dup3\n        /* \"#utility.yul\":797:800   */\n      dup7\n        /* \"#utility.yul\":793:809   */\n      add\n        /* \"#utility.yul\":789:816   */\n      add\n        /* \"#utility.yul\":782:820   */\n      mstore\n        /* \"#utility.yul\":881:885   */\n      0x20\n        /* \"#utility.yul\":874:876   */\n      0x1f\n        /* \"#utility.yul\":870:877   */\n      not\n        /* \"#utility.yul\":865:867   */\n      0x1f\n        /* \"#utility.yul\":857:863   */\n      dup4\n        /* \"#utility.yul\":853:868   */\n      add\n        /* \"#utility.yul\":849:878   */\n      and\n        /* \"#utility.yul\":844:847   */\n      dup6\n        /* \"#utility.yul\":840:879   */\n      add\n        /* \"#utility.yul\":836:886   */\n      add\n        /* \"#utility.yul\":829:886   */\n      swap2\n      pop\n      pop\n        /* \"#utility.yul\":592:892   */\n      swap3\n      swap2\n      pop\n      pop\n      jump\t// out\n        /* \"#utility.yul\":897:1128   */\n    tag_30:\n        /* \"#utility.yul\":1046:1048   */\n      0x20\n        /* \"#utility.yul\":1035:1044   */\n      dup2\n        /* \"#utility.yul\":1028:1049   */\n      mstore\n        /* \"#utility.yul\":1009:1013   */\n      0x00\n        /* \"#utility.yul\":1066:1122   */\n      tag_238\n        /* \"#utility.yul\":1118:1120   */\n      0x20\n        /* \"#utility.yul\":1107:1116   */\n      dup4\n        /* \"#utility.yul\":1103:1121   */\n      add\n        /* \"#utility.yul\":1095:1101   */\n      dup5\n        /* \"#utility.yul\":1066:1122   */\n      tag_303\n      jump\t// in\n        /* \"#utility.yul\":1133:1359   */\n    tag_33:\n        /* \"#utility.yul\":1192:1198   */\n      0x00\n        /* \"#utility.yul\":1245:1247   */\n      0x20\n        /* \"#utility.yul\":1233:1242   */\n      dup3\n        /* \"#utility.yul\":1224:1231   */\n      dup5\n        /* \"#utility.yul\":1220:1243   */\n      sub\n        /* \"#utility.yul\":1216:1248   */\n      slt\n        /* \"#utility.yul\":1213:1265   */\n      iszero\n      tag_321\n      jumpi\n        /* \"#utility.yul\":1261:1262   */\n      0x00\n        /* \"#utility.yul\":1258:1259   */\n      dup1\n        /* \"#utility.yul\":1251:1263   */\n      revert\n        /* \"#utility.yul\":1213:1265   */\n    tag_321:\n      pop\n        /* \"#utility.yul\":1306:1329   */\n      calldataload\n      swap2\n        /* \"#utility.yul\":1133:1359   */\n      swap1\n      pop\n      jump\t// out\n        /* \"#utility.yul\":1572:1745   */\n    tag_304:\n        /* \"#utility.yul\":1640:1660   */\n      dup1\n      calldataload\n      sub(shl(0xa0, 0x01), 0x01)\n        /* \"#utility.yul\":1689:1720   */\n      dup2\n      and\n        /* \"#utility.yul\":1679:1721   */\n      dup2\n      eq\n        /* \"#utility.yul\":1669:1739   */\n      tag_324\n      jumpi\n        /* \"#utility.yul\":1735:1736   */\n      0x00\n        /* \"#utility.yul\":1732:1733   */\n      dup1\n        /* \"#utility.yul\":1725:1737   */\n      revert\n        /* \"#utility.yul\":1669:1739   */\n    tag_324:\n        /* \"#utility.yul\":1572:1745   */\n      swap2\n      swap1\n      pop\n      jump\t// out\n        /* \"#utility.yul\":1750:2050   */\n    tag_39:\n        /* \"#utility.yul\":1818:1824   */\n      0x00\n        /* \"#utility.yul\":1826:1832   */\n      dup1\n        /* \"#utility.yul\":1879:1881   */\n      0x40\n        /* \"#utility.yul\":1867:1876   */\n      dup4\n        /* \"#utility.yul\":1858:1865   */\n      dup6\n        /* \"#utility.yul\":1854:1877   */\n      sub\n        /* \"#utility.yul\":1850:1882   */\n      slt\n        /* \"#utility.yul\":1847:1899   */\n      iszero\n      tag_326\n      jumpi\n        /* \"#utility.yul\":1895:1896   */\n      0x00\n        /* \"#utility.yul\":1892:1893   */\n      dup1\n        /* \"#utility.yul\":1885:1897   */\n      revert\n        /* \"#utility.yul\":1847:1899   */\n    tag_326:\n        /* \"#utility.yul\":1918:1947   */\n      tag_327\n        /* \"#utility.yul\":1937:1946   */\n      dup4\n        /* \"#utility.yul\":1918:1947   */\n      tag_304\n      jump\t// in\n    tag_327:\n        /* \"#utility.yul\":1908:1947   */\n      swap5\n        /* \"#utility.yul\":2016:2018   */\n      0x20\n        /* \"#utility.yul\":2001:2019   */\n      swap4\n      swap1\n      swap4\n      add\n        /* \"#utility.yul\":1988:2020   */\n      calldataload\n      swap4\n      pop\n      pop\n      pop\n        /* \"#utility.yul\":1750:2050   */\n      jump\t// out\n        /* \"#utility.yul\":2055:2429   */\n    tag_43:\n        /* \"#utility.yul\":2132:2138   */\n      0x00\n        /* \"#utility.yul\":2140:2146   */\n      dup1\n        /* \"#utility.yul\":2148:2154   */\n      0x00\n        /* \"#utility.yul\":2201:2203   */\n      0x60\n        /* \"#utility.yul\":2189:2198   */\n      dup5\n        /* \"#utility.yul\":2180:2187   */\n      dup7\n        /* \"#utility.yul\":2176:2199   */\n      sub\n        /* \"#utility.yul\":2172:2204   */\n      slt\n        /* \"#utility.yul\":2169:2221   */\n      iszero\n      tag_329\n      jumpi\n        /* \"#utility.yul\":2217:2218   */\n      0x00\n        /* \"#utility.yul\":2214:2215   */\n      dup1\n        /* \"#utility.yul\":2207:2219   */\n      revert\n        /* \"#utility.yul\":2169:2221   */\n    tag_329:\n        /* \"#utility.yul\":2240:2269   */\n      tag_330\n        /* \"#utility.yul\":2259:2268   */\n      dup5\n        /* \"#utility.yul\":2240:2269   */\n      tag_304\n      jump\t// in\n    tag_330:\n        /* \"#utility.yul\":2230:2269   */\n      swap3\n      pop\n        /* \"#utility.yul\":2288:2326   */\n      tag_331\n        /* \"#utility.yul\":2322:2324   */\n      0x20\n        /* \"#utility.yul\":2311:2320   */\n      dup6\n        /* \"#utility.yul\":2307:2325   */\n      add\n        /* \"#utility.yul\":2288:2326   */\n      tag_304\n      jump\t// in\n    tag_331:\n        /* \"#utility.yul\":2055:2429   */\n      swap3\n      swap6\n        /* \"#utility.yul\":2278:2326   */\n      swap3\n      swap5\n      pop\n      pop\n      pop\n        /* \"#utility.yul\":2395:2397   */\n      0x40\n        /* \"#utility.yul\":2380:2398   */\n      swap2\n      swap1\n      swap2\n      add\n        /* \"#utility.yul\":2367:2399   */\n      calldataload\n      swap1\n        /* \"#utility.yul\":2055:2429   */\n      jump\t// out\n        /* \"#utility.yul\":2434:2561   */\n    tag_268:\n        /* \"#utility.yul\":2495:2505   */\n      0x4e487b71\n        /* \"#utility.yul\":2490:2493   */\n      0xe0\n        /* \"#utility.yul\":2486:2506   */\n      shl\n        /* \"#utility.yul\":2483:2484   */\n      0x00\n        /* \"#utility.yul\":2476:2507   */\n      mstore\n        /* \"#utility.yul\":2526:2530   */\n      0x41\n        /* \"#utility.yul\":2523:2524   */\n      0x04\n        /* \"#utility.yul\":2516:2531   */\n      mstore\n        /* \"#utility.yul\":2550:2554   */\n      0x24\n        /* \"#utility.yul\":2547:2548   */\n      0x00\n        /* \"#utility.yul\":2540:2555   */\n      revert\n        /* \"#utility.yul\":2566:3282   */\n    tag_305:\n        /* \"#utility.yul\":2631:2636   */\n      0x00\n        /* \"#utility.yul\":2663:2664   */\n      dup1\n        /* \"#utility.yul\":2687:2705   */\n      0xffffffffffffffff\n        /* \"#utility.yul\":2679:2685   */\n      dup5\n        /* \"#utility.yul\":2676:2706   */\n      gt\n        /* \"#utility.yul\":2673:2729   */\n      iszero\n      tag_335\n      jumpi\n        /* \"#utility.yul\":2709:2727   */\n      tag_335\n      tag_268\n      jump\t// in\n    tag_335:\n      pop\n        /* \"#utility.yul\":2864:2866   */\n      0x40\n        /* \"#utility.yul\":2858:2867   */\n      mload\n      not(0x1f)\n        /* \"#utility.yul\":2777:2779   */\n      0x1f\n        /* \"#utility.yul\":2756:2771   */\n      dup6\n      add\n        /* \"#utility.yul\":2752:2781   */\n      dup2\n      and\n        /* \"#utility.yul\":2922:2924   */\n      0x3f\n        /* \"#utility.yul\":2910:2925   */\n      add\n        /* \"#utility.yul\":2906:2935   */\n      and\n        /* \"#utility.yul\":2894:2936   */\n      dup2\n      add\n        /* \"#utility.yul\":2987:3009   */\n      dup2\n      dup2\n      lt\n        /* \"#utility.yul\":2966:2984   */\n      0xffffffffffffffff\n        /* \"#utility.yul\":2951:2985   */\n      dup3\n      gt\n        /* \"#utility.yul\":2948:3010   */\n      or\n        /* \"#utility.yul\":2945:3033   */\n      iszero\n      tag_337\n      jumpi\n        /* \"#utility.yul\":3013:3031   */\n      tag_337\n      tag_268\n      jump\t// in\n    tag_337:\n        /* \"#utility.yul\":3049:3051   */\n      0x40\n        /* \"#utility.yul\":3042:3064   */\n      mstore\n        /* \"#utility.yul\":3097:3119   */\n      dup4\n      dup2\n      mstore\n        /* \"#utility.yul\":3082:3088   */\n      swap1\n      pop\n      dup1\n        /* \"#utility.yul\":3134:3150   */\n      dup3\n      dup5\n      add\n        /* \"#utility.yul\":3131:3156   */\n      dup6\n      lt\n        /* \"#utility.yul\":3128:3173   */\n      iszero\n      tag_338\n      jumpi\n        /* \"#utility.yul\":3169:3170   */\n      0x00\n        /* \"#utility.yul\":3166:3167   */\n      dup1\n        /* \"#utility.yul\":3159:3171   */\n      revert\n        /* \"#utility.yul\":3128:3173   */\n    tag_338:\n        /* \"#utility.yul\":3219:3225   */\n      dup4\n        /* \"#utility.yul\":3214:3217   */\n      dup4\n        /* \"#utility.yul\":3207:3211   */\n      0x20\n        /* \"#utility.yul\":3199:3205   */\n      dup4\n        /* \"#utility.yul\":3195:3212   */\n      add\n        /* \"#utility.yul\":3182:3226   */\n      calldatacopy\n        /* \"#utility.yul\":3274:3275   */\n      0x00\n        /* \"#utility.yul\":3267:3271   */\n      0x20\n        /* \"#utility.yul\":3258:3264   */\n      dup6\n        /* \"#utility.yul\":3250:3256   */\n      dup4\n        /* \"#utility.yul\":3246:3265   */\n      add\n        /* \"#utility.yul\":3242:3272   */\n      add\n        /* \"#utility.yul\":3235:3276   */\n      mstore\n      pop\n        /* \"#utility.yul\":2566:3282   */\n      swap4\n      swap3\n      pop\n      pop\n      pop\n      jump\t// out\n        /* \"#utility.yul\":3287:3738   */\n    tag_47:\n        /* \"#utility.yul\":3356:3362   */\n      0x00\n        /* \"#utility.yul\":3409:3411   */\n      0x20\n        /* \"#utility.yul\":3397:3406   */\n      dup3\n        /* \"#utility.yul\":3388:3395   */\n      dup5\n        /* \"#utility.yul\":3384:3407   */\n      sub\n        /* \"#utility.yul\":3380:3412   */\n      slt\n        /* \"#utility.yul\":3377:3429   */\n      iszero\n      tag_340\n      jumpi\n        /* \"#utility.yul\":3425:3426   */\n      0x00\n        /* \"#utility.yul\":3422:3423   */\n      dup1\n        /* \"#utility.yul\":3415:3427   */\n      revert\n        /* \"#utility.yul\":3377:3429   */\n    tag_340:\n        /* \"#utility.yul\":3465:3474   */\n      dup2\n        /* \"#utility.yul\":3452:3475   */\n      calldataload\n        /* \"#utility.yul\":3498:3516   */\n      0xffffffffffffffff\n        /* \"#utility.yul\":3490:3496   */\n      dup2\n        /* \"#utility.yul\":3487:3517   */\n      gt\n        /* \"#utility.yul\":3484:3534   */\n      iszero\n      tag_341\n      jumpi\n        /* \"#utility.yul\":3530:3531   */\n      0x00\n        /* \"#utility.yul\":3527:3528   */\n      dup1\n        /* \"#utility.yul\":3520:3532   */\n      revert\n        /* \"#utility.yul\":3484:3534   */\n    tag_341:\n        /* \"#utility.yul\":3553:3575   */\n      dup3\n      add\n        /* \"#utility.yul\":3606:3610   */\n      0x1f\n        /* \"#utility.yul\":3598:3611   */\n      dup2\n      add\n        /* \"#utility.yul\":3594:3621   */\n      dup5\n      sgt\n        /* \"#utility.yul\":3584:3639   */\n      tag_342\n      jumpi\n        /* \"#utility.yul\":3635:3636   */\n      0x00\n        /* \"#utility.yul\":3632:3633   */\n      dup1\n        /* \"#utility.yul\":3625:3637   */\n      revert\n        /* \"#utility.yul\":3584:3639   */\n    tag_342:\n        /* \"#utility.yul\":3658:3732   */\n      tag_168\n        /* \"#utility.yul\":3724:3731   */\n      dup5\n        /* \"#utility.yul\":3719:3721   */\n      dup3\n        /* \"#utility.yul\":3706:3722   */\n      calldataload\n        /* \"#utility.yul\":3701:3703   */\n      0x20\n        /* \"#utility.yul\":3697:3699   */\n      dup5\n        /* \"#utility.yul\":3693:3704   */\n      add\n        /* \"#utility.yul\":3658:3732   */\n      tag_305\n      jump\t// in\n        /* \"#utility.yul\":3925:4111   */\n    tag_63:\n        /* \"#utility.yul\":3984:3990   */\n      0x00\n        /* \"#utility.yul\":4037:4039   */\n      0x20\n        /* \"#utility.yul\":4025:4034   */\n      dup3\n        /* \"#utility.yul\":4016:4023   */\n      dup5\n        /* \"#utility.yul\":4012:4035   */\n      sub\n        /* \"#utility.yul\":4008:4040   */\n      slt\n        /* \"#utility.yul\":4005:4057   */\n      iszero\n      tag_346\n      jumpi\n        /* \"#utility.yul\":4053:4054   */\n      0x00\n        /* \"#utility.yul\":4050:4051   */\n      dup1\n        /* \"#utility.yul\":4043:4055   */\n      revert\n        /* \"#utility.yul\":4005:4057   */\n    tag_346:\n        /* \"#utility.yul\":4076:4105   */\n      tag_238\n        /* \"#utility.yul\":4095:4104   */\n      dup3\n        /* \"#utility.yul\":4076:4105   */\n      tag_304\n      jump\t// in\n        /* \"#utility.yul\":4116:4463   */\n    tag_71:\n        /* \"#utility.yul\":4181:4187   */\n      0x00\n        /* \"#utility.yul\":4189:4195   */\n      dup1\n        /* \"#utility.yul\":4242:4244   */\n      0x40\n        /* \"#utility.yul\":4230:4239   */\n      dup4\n        /* \"#utility.yul\":4221:4228   */\n      dup6\n        /* \"#utility.yul\":4217:4240   */\n      sub\n        /* \"#utility.yul\":4213:4245   */\n      slt\n        /* \"#utility.yul\":4210:4262   */\n      iszero\n      tag_349\n      jumpi\n        /* \"#utility.yul\":4258:4259   */\n      0x00\n        /* \"#utility.yul\":4255:4256   */\n      dup1\n        /* \"#utility.yul\":4248:4260   */\n      revert\n        /* \"#utility.yul\":4210:4262   */\n    tag_349:\n        /* \"#utility.yul\":4281:4310   */\n      tag_350\n        /* \"#utility.yul\":4300:4309   */\n      dup4\n        /* \"#utility.yul\":4281:4310   */\n      tag_304\n      jump\t// in\n    tag_350:\n        /* \"#utility.yul\":4271:4310   */\n      swap2\n      pop\n        /* \"#utility.yul\":4360:4362   */\n      0x20\n        /* \"#utility.yul\":4349:4358   */\n      dup4\n        /* \"#utility.yul\":4345:4363   */\n      add\n        /* \"#utility.yul\":4332:4364   */\n      calldataload\n        /* \"#utility.yul\":4407:4412   */\n      dup1\n        /* \"#utility.yul\":4400:4413   */\n      iszero\n        /* \"#utility.yul\":4393:4414   */\n      iszero\n        /* \"#utility.yul\":4386:4391   */\n      dup2\n        /* \"#utility.yul\":4383:4415   */\n      eq\n        /* \"#utility.yul\":4373:4433   */\n      tag_351\n      jumpi\n        /* \"#utility.yul\":4429:4430   */\n      0x00\n        /* \"#utility.yul\":4426:4427   */\n      dup1\n        /* \"#utility.yul\":4419:4431   */\n      revert\n        /* \"#utility.yul\":4373:4433   */\n    tag_351:\n        /* \"#utility.yul\":4452:4457   */\n      dup1\n        /* \"#utility.yul\":4442:4457   */\n      swap2\n      pop\n      pop\n        /* \"#utility.yul\":4116:4463   */\n      swap3\n      pop\n      swap3\n      swap1\n      pop\n      jump\t// out\n        /* \"#utility.yul\":4468:5181   */\n    tag_75:\n        /* \"#utility.yul\":4563:4569   */\n      0x00\n        /* \"#utility.yul\":4571:4577   */\n      dup1\n        /* \"#utility.yul\":4579:4585   */\n      0x00\n        /* \"#utility.yul\":4587:4593   */\n      dup1\n        /* \"#utility.yul\":4640:4643   */\n      0x80\n        /* \"#utility.yul\":4628:4637   */\n      dup6\n        /* \"#utility.yul\":4619:4626   */\n      dup8\n        /* \"#utility.yul\":4615:4638   */\n      sub\n        /* \"#utility.yul\":4611:4644   */\n      slt\n        /* \"#utility.yul\":4608:4661   */\n      iszero\n      tag_353\n      jumpi\n        /* \"#utility.yul\":4657:4658   */\n      0x00\n        /* \"#utility.yul\":4654:4655   */\n      dup1\n        /* \"#utility.yul\":4647:4659   */\n      revert\n        /* \"#utility.yul\":4608:4661   */\n    tag_353:\n        /* \"#utility.yul\":4680:4709   */\n      tag_354\n        /* \"#utility.yul\":4699:4708   */\n      dup6\n        /* \"#utility.yul\":4680:4709   */\n      tag_304\n      jump\t// in\n    tag_354:\n        /* \"#utility.yul\":4670:4709   */\n      swap4\n      pop\n        /* \"#utility.yul\":4728:4766   */\n      tag_355\n        /* \"#utility.yul\":4762:4764   */\n      0x20\n        /* \"#utility.yul\":4751:4760   */\n      dup7\n        /* \"#utility.yul\":4747:4765   */\n      add\n        /* \"#utility.yul\":4728:4766   */\n      tag_304\n      jump\t// in\n    tag_355:\n        /* \"#utility.yul\":4718:4766   */\n      swap3\n      pop\n        /* \"#utility.yul\":4835:4837   */\n      0x40\n        /* \"#utility.yul\":4820:4838   */\n      dup6\n      add\n        /* \"#utility.yul\":4807:4839   */\n      calldataload\n      swap2\n      pop\n        /* \"#utility.yul\":4914:4916   */\n      0x60\n        /* \"#utility.yul\":4899:4917   */\n      dup6\n      add\n        /* \"#utility.yul\":4886:4918   */\n      calldataload\n        /* \"#utility.yul\":4941:4959   */\n      0xffffffffffffffff\n        /* \"#utility.yul\":4930:4960   */\n      dup2\n      gt\n        /* \"#utility.yul\":4927:4977   */\n      iszero\n      tag_356\n      jumpi\n        /* \"#utility.yul\":4973:4974   */\n      0x00\n        /* \"#utility.yul\":4970:4971   */\n      dup1\n        /* \"#utility.yul\":4963:4975   */\n      revert\n        /* \"#utility.yul\":4927:4977   */\n    tag_356:\n        /* \"#utility.yul\":4996:5018   */\n      dup6\n      add\n        /* \"#utility.yul\":5049:5053   */\n      0x1f\n        /* \"#utility.yul\":5041:5054   */\n      dup2\n      add\n        /* \"#utility.yul\":5037:5064   */\n      dup8\n      sgt\n        /* \"#utility.yul\":5027:5082   */\n      tag_357\n      jumpi\n        /* \"#utility.yul\":5078:5079   */\n      0x00\n        /* \"#utility.yul\":5075:5076   */\n      dup1\n        /* \"#utility.yul\":5068:5080   */\n      revert\n        /* \"#utility.yul\":5027:5082   */\n    tag_357:\n        /* \"#utility.yul\":5101:5175   */\n      tag_358\n        /* \"#utility.yul\":5167:5174   */\n      dup8\n        /* \"#utility.yul\":5162:5164   */\n      dup3\n        /* \"#utility.yul\":5149:5165   */\n      calldataload\n        /* \"#utility.yul\":5144:5146   */\n      0x20\n        /* \"#utility.yul\":5140:5142   */\n      dup5\n        /* \"#utility.yul\":5136:5147   */\n      add\n        /* \"#utility.yul\":5101:5175   */\n      tag_305\n      jump\t// in\n    tag_358:\n        /* \"#utility.yul\":5091:5175   */\n      swap2\n      pop\n      pop\n        /* \"#utility.yul\":4468:5181   */\n      swap3\n      swap6\n      swap2\n      swap5\n      pop\n      swap3\n      pop\n      jump\t// out\n        /* \"#utility.yul\":5186:5446   */\n    tag_83:\n        /* \"#utility.yul\":5254:5260   */\n      0x00\n        /* \"#utility.yul\":5262:5268   */\n      dup1\n        /* \"#utility.yul\":5315:5317   */\n      0x40\n        /* \"#utility.yul\":5303:5312   */\n      dup4\n        /* \"#utility.yul\":5294:5301   */\n      dup6\n        /* \"#utility.yul\":5290:5313   */\n      sub\n        /* \"#utility.yul\":5286:5318   */\n      slt\n        /* \"#utility.yul\":5283:5335   */\n      iszero\n      tag_360\n      jumpi\n        /* \"#utility.yul\":5331:5332   */\n      0x00\n        /* \"#utility.yul\":5328:5329   */\n      dup1\n        /* \"#utility.yul\":5321:5333   */\n      revert\n        /* \"#utility.yul\":5283:5335   */\n    tag_360:\n        /* \"#utility.yul\":5354:5383   */\n      tag_361\n        /* \"#utility.yul\":5373:5382   */\n      dup4\n        /* \"#utility.yul\":5354:5383   */\n      tag_304\n      jump\t// in\n    tag_361:\n        /* \"#utility.yul\":5344:5383   */\n      swap2\n      pop\n        /* \"#utility.yul\":5402:5440   */\n      tag_362\n        /* \"#utility.yul\":5436:5438   */\n      0x20\n        /* \"#utility.yul\":5425:5434   */\n      dup5\n        /* \"#utility.yul\":5421:5439   */\n      add\n        /* \"#utility.yul\":5402:5440   */\n      tag_304\n      jump\t// in\n    tag_362:\n        /* \"#utility.yul\":5392:5440   */\n      swap1\n      pop\n        /* \"#utility.yul\":5186:5446   */\n      swap3\n      pop\n      swap3\n      swap1\n      pop\n      jump\t// out\n        /* \"#utility.yul\":5451:5831   */\n    tag_92:\n        /* \"#utility.yul\":5530:5531   */\n      0x01\n        /* \"#utility.yul\":5526:5538   */\n      dup2\n      dup2\n      shr\n      swap1\n        /* \"#utility.yul\":5573:5585   */\n      dup3\n      and\n      dup1\n        /* \"#utility.yul\":5594:5655   */\n      tag_364\n      jumpi\n        /* \"#utility.yul\":5648:5652   */\n      0x7f\n        /* \"#utility.yul\":5640:5646   */\n      dup3\n        /* \"#utility.yul\":5636:5653   */\n      and\n        /* \"#utility.yul\":5626:5653   */\n      swap2\n      pop\n        /* \"#utility.yul\":5594:5655   */\n    tag_364:\n        /* \"#utility.yul\":5701:5703   */\n      0x20\n        /* \"#utility.yul\":5693:5699   */\n      dup3\n        /* \"#utility.yul\":5690:5704   */\n      lt\n        /* \"#utility.yul\":5670:5688   */\n      dup2\n        /* \"#utility.yul\":5667:5705   */\n      sub\n        /* \"#utility.yul\":5664:5825   */\n      tag_365\n      jumpi\n        /* \"#utility.yul\":5747:5757   */\n      0x4e487b71\n        /* \"#utility.yul\":5742:5745   */\n      0xe0\n        /* \"#utility.yul\":5738:5758   */\n      shl\n        /* \"#utility.yul\":5735:5736   */\n      0x00\n        /* \"#utility.yul\":5728:5759   */\n      mstore\n        /* \"#utility.yul\":5782:5786   */\n      0x22\n        /* \"#utility.yul\":5779:5780   */\n      0x04\n        /* \"#utility.yul\":5772:5787   */\n      mstore\n        /* \"#utility.yul\":5810:5814   */\n      0x24\n        /* \"#utility.yul\":5807:5808   */\n      0x00\n        /* \"#utility.yul\":5800:5815   */\n      revert\n        /* \"#utility.yul\":5664:5825   */\n    tag_365:\n      pop\n        /* \"#utility.yul\":5451:5831   */\n      swap2\n      swap1\n      pop\n      jump\t// out\n        /* \"#utility.yul\":6571:6783   */\n    tag_306:\n        /* \"#utility.yul\":6613:6616   */\n      0x00\n        /* \"#utility.yul\":6651:6656   */\n      dup2\n        /* \"#utility.yul\":6645:6657   */\n      mload\n        /* \"#utility.yul\":6695:6701   */\n      dup1\n        /* \"#utility.yul\":6688:6692   */\n      0x20\n        /* \"#utility.yul\":6681:6686   */\n      dup5\n        /* \"#utility.yul\":6677:6693   */\n      add\n        /* \"#utility.yul\":6672:6675   */\n      dup6\n        /* \"#utility.yul\":6666:6702   */\n      mcopy\n        /* \"#utility.yul\":6757:6758   */\n      0x00\n        /* \"#utility.yul\":6721:6737   */\n      swap4\n      add\n        /* \"#utility.yul\":6746:6759   */\n      swap3\n      dup4\n      mstore\n      pop\n        /* \"#utility.yul\":6721:6737   */\n      swap1\n      swap2\n        /* \"#utility.yul\":6571:6783   */\n      swap1\n      pop\n      jump\t// out\n        /* \"#utility.yul\":6788:7055   */\n    tag_167:\n        /* \"#utility.yul\":6967:6970   */\n      0x00\n        /* \"#utility.yul\":6992:7049   */\n      tag_168\n        /* \"#utility.yul\":7018:7048   */\n      tag_371\n        /* \"#utility.yul\":7044:7047   */\n      dup4\n        /* \"#utility.yul\":7036:7042   */\n      dup7\n        /* \"#utility.yul\":7018:7048   */\n      tag_306\n      jump\t// in\n    tag_371:\n        /* \"#utility.yul\":7010:7016   */\n      dup5\n        /* \"#utility.yul\":6992:7049   */\n      tag_306\n      jump\t// in\n        /* \"#utility.yul\":7186:7704   */\n    tag_308:\n        /* \"#utility.yul\":7288:7290   */\n      0x1f\n        /* \"#utility.yul\":7283:7286   */\n      dup3\n        /* \"#utility.yul\":7280:7291   */\n      gt\n        /* \"#utility.yul\":7277:7698   */\n      iszero\n      tag_127\n      jumpi\n        /* \"#utility.yul\":7324:7329   */\n      dup1\n        /* \"#utility.yul\":7321:7322   */\n      0x00\n        /* \"#utility.yul\":7314:7330   */\n      mstore\n        /* \"#utility.yul\":7368:7372   */\n      0x20\n        /* \"#utility.yul\":7365:7366   */\n      0x00\n        /* \"#utility.yul\":7355:7373   */\n      keccak256\n        /* \"#utility.yul\":7438:7440   */\n      0x1f\n        /* \"#utility.yul\":7426:7436   */\n      dup5\n        /* \"#utility.yul\":7422:7441   */\n      add\n        /* \"#utility.yul\":7419:7420   */\n      0x05\n        /* \"#utility.yul\":7415:7442   */\n      shr\n        /* \"#utility.yul\":7409:7413   */\n      dup2\n        /* \"#utility.yul\":7405:7443   */\n      add\n        /* \"#utility.yul\":7474:7478   */\n      0x20\n        /* \"#utility.yul\":7462:7472   */\n      dup6\n        /* \"#utility.yul\":7459:7479   */\n      lt\n        /* \"#utility.yul\":7456:7503   */\n      iszero\n      tag_375\n      jumpi\n      pop\n        /* \"#utility.yul\":7497:7501   */\n      dup1\n        /* \"#utility.yul\":7456:7503   */\n    tag_375:\n        /* \"#utility.yul\":7552:7554   */\n      0x1f\n        /* \"#utility.yul\":7547:7550   */\n      dup5\n        /* \"#utility.yul\":7543:7555   */\n      add\n        /* \"#utility.yul\":7540:7541   */\n      0x05\n        /* \"#utility.yul\":7536:7556   */\n      shr\n        /* \"#utility.yul\":7530:7534   */\n      dup3\n        /* \"#utility.yul\":7526:7557   */\n      add\n        /* \"#utility.yul\":7516:7557   */\n      swap2\n      pop\n        /* \"#utility.yul\":7607:7688   */\n    tag_376:\n        /* \"#utility.yul\":7625:7627   */\n      dup2\n        /* \"#utility.yul\":7618:7623   */\n      dup2\n        /* \"#utility.yul\":7615:7628   */\n      lt\n        /* \"#utility.yul\":7607:7688   */\n      iszero\n      tag_230\n      jumpi\n        /* \"#utility.yul\":7684:7685   */\n      0x00\n        /* \"#utility.yul\":7670:7686   */\n      dup2\n      sstore\n        /* \"#utility.yul\":7651:7652   */\n      0x01\n        /* \"#utility.yul\":7640:7653   */\n      add\n        /* \"#utility.yul\":7607:7688   */\n      jump(tag_376)\n        /* \"#utility.yul\":7880:9179   */\n    tag_204:\n        /* \"#utility.yul\":8006:8009   */\n      dup2\n        /* \"#utility.yul\":8000:8010   */\n      mload\n        /* \"#utility.yul\":8033:8051   */\n      0xffffffffffffffff\n        /* \"#utility.yul\":8025:8031   */\n      dup2\n        /* \"#utility.yul\":8022:8052   */\n      gt\n        /* \"#utility.yul\":8019:8075   */\n      iszero\n      tag_382\n      jumpi\n        /* \"#utility.yul\":8055:8073   */\n      tag_382\n      tag_268\n      jump\t// in\n    tag_382:\n        /* \"#utility.yul\":8084:8181   */\n      tag_383\n        /* \"#utility.yul\":8174:8180   */\n      dup2\n        /* \"#utility.yul\":8134:8172   */\n      tag_384\n        /* \"#utility.yul\":8166:8170   */\n      dup5\n        /* \"#utility.yul\":8160:8171   */\n      sload\n        /* \"#utility.yul\":8134:8172   */\n      tag_92\n      jump\t// in\n    tag_384:\n        /* \"#utility.yul\":8128:8132   */\n      dup5\n        /* \"#utility.yul\":8084:8181   */\n      tag_308\n      jump\t// in\n    tag_383:\n        /* \"#utility.yul\":8230:8234   */\n      0x20\n        /* \"#utility.yul\":8261:8263   */\n      0x1f\n        /* \"#utility.yul\":8250:8264   */\n      dup3\n      gt\n        /* \"#utility.yul\":8278:8279   */\n      0x01\n        /* \"#utility.yul\":8273:8922   */\n      dup2\n      eq\n      tag_386\n      jumpi\n        /* \"#utility.yul\":8966:8967   */\n      0x00\n        /* \"#utility.yul\":8983:8989   */\n      dup4\n        /* \"#utility.yul\":8980:9069   */\n      iszero\n      tag_387\n      jumpi\n      pop\n        /* \"#utility.yul\":9035:9054   */\n      dup5\n      dup3\n      add\n        /* \"#utility.yul\":9029:9055   */\n      mload\n        /* \"#utility.yul\":8980:9069   */\n    tag_387:\n      not(0x00)\n        /* \"#utility.yul\":7837:7838   */\n      0x03\n        /* \"#utility.yul\":7833:7844   */\n      dup6\n      swap1\n      shl\n        /* \"#utility.yul\":7829:7853   */\n      shr\n        /* \"#utility.yul\":7825:7854   */\n      not\n        /* \"#utility.yul\":7815:7855   */\n      and\n        /* \"#utility.yul\":7861:7862   */\n      0x01\n        /* \"#utility.yul\":7857:7868   */\n      dup5\n      swap1\n      shl\n        /* \"#utility.yul\":7812:7869   */\n      or\n        /* \"#utility.yul\":9082:9163   */\n      dup5\n      sstore\n        /* \"#utility.yul\":8243:9173   */\n      jump(tag_230)\n        /* \"#utility.yul\":8273:8922   */\n    tag_386:\n        /* \"#utility.yul\":7133:7134   */\n      0x00\n        /* \"#utility.yul\":7126:7140   */\n      dup5\n      dup2\n      mstore\n        /* \"#utility.yul\":7170:7174   */\n      0x20\n        /* \"#utility.yul\":7157:7175   */\n      dup2\n      keccak256\n      not(0x1f)\n        /* \"#utility.yul\":8309:8329   */\n      dup6\n      and\n      swap2\n        /* \"#utility.yul\":8427:8649   */\n    tag_390:\n        /* \"#utility.yul\":8441:8448   */\n      dup3\n        /* \"#utility.yul\":8438:8439   */\n      dup2\n        /* \"#utility.yul\":8435:8449   */\n      lt\n        /* \"#utility.yul\":8427:8649   */\n      iszero\n      tag_392\n      jumpi\n        /* \"#utility.yul\":8523:8542   */\n      dup8\n      dup6\n      add\n        /* \"#utility.yul\":8517:8543   */\n      mload\n        /* \"#utility.yul\":8502:8544   */\n      dup3\n      sstore\n        /* \"#utility.yul\":8630:8634   */\n      0x20\n        /* \"#utility.yul\":8615:8635   */\n      swap5\n      dup6\n      add\n      swap5\n        /* \"#utility.yul\":8583:8584   */\n      0x01\n        /* \"#utility.yul\":8571:8585   */\n      swap1\n      swap3\n      add\n      swap2\n        /* \"#utility.yul\":8457:8469   */\n      add\n        /* \"#utility.yul\":8427:8649   */\n      jump(tag_390)\n    tag_392:\n        /* \"#utility.yul\":8431:8434   */\n      pop\n        /* \"#utility.yul\":8677:8683   */\n      dup5\n        /* \"#utility.yul\":8668:8675   */\n      dup3\n        /* \"#utility.yul\":8665:8684   */\n      lt\n        /* \"#utility.yul\":8662:8863   */\n      iszero\n      tag_393\n      jumpi\n        /* \"#utility.yul\":8738:8757   */\n      dup7\n      dup5\n      add\n        /* \"#utility.yul\":8732:8758   */\n      mload\n      not(0x00)\n        /* \"#utility.yul\":8821:8822   */\n      0x03\n        /* \"#utility.yul\":8817:8831   */\n      dup8\n      swap1\n      shl\n        /* \"#utility.yul\":8833:8836   */\n      0xf8\n        /* \"#utility.yul\":8813:8837   */\n      and\n        /* \"#utility.yul\":8809:8846   */\n      shr\n        /* \"#utility.yul\":8805:8847   */\n      not\n        /* \"#utility.yul\":8790:8848   */\n      and\n        /* \"#utility.yul\":8775:8849   */\n      dup2\n      sstore\n        /* \"#utility.yul\":8662:8863   */\n    tag_393:\n      pop\n      pop\n      pop\n      pop\n        /* \"#utility.yul\":8909:8910   */\n      0x01\n        /* \"#utility.yul\":8893:8907   */\n      swap1\n      dup2\n      shl\n        /* \"#utility.yul\":8889:8911   */\n      add\n        /* \"#utility.yul\":8876:8912   */\n      swap1\n      sstore\n      pop\n        /* \"#utility.yul\":7880:9179   */\n      jump\t// out\n        /* \"#utility.yul\":9184:9680   */\n    tag_217:\n      sub(shl(0xa0, 0x01), 0x01)\n        /* \"#utility.yul\":9415:9447   */\n      dup6\n      dup2\n      and\n        /* \"#utility.yul\":9397:9448   */\n      dup3\n      mstore\n        /* \"#utility.yul\":9484:9516   */\n      dup5\n      and\n        /* \"#utility.yul\":9479:9481   */\n      0x20\n        /* \"#utility.yul\":9464:9482   */\n      dup3\n      add\n        /* \"#utility.yul\":9457:9517   */\n      mstore\n        /* \"#utility.yul\":9548:9550   */\n      0x40\n        /* \"#utility.yul\":9533:9551   */\n      dup2\n      add\n        /* \"#utility.yul\":9526:9560   */\n      dup4\n      swap1\n      mstore\n        /* \"#utility.yul\":9596:9599   */\n      0x80\n        /* \"#utility.yul\":9591:9593   */\n      0x60\n        /* \"#utility.yul\":9576:9594   */\n      dup3\n      add\n        /* \"#utility.yul\":9569:9600   */\n      dup2\n      swap1\n      mstore\n      0x00\n      swap1\n        /* \"#utility.yul\":9617:9674   */\n      tag_395\n      swap1\n        /* \"#utility.yul\":9654:9673   */\n      dup4\n      add\n        /* \"#utility.yul\":9646:9652   */\n      dup5\n        /* \"#utility.yul\":9617:9674   */\n      tag_303\n      jump\t// in\n    tag_395:\n        /* \"#utility.yul\":9609:9674   */\n      swap7\n        /* \"#utility.yul\":9184:9680   */\n      swap6\n      pop\n      pop\n      pop\n      pop\n      pop\n      pop\n      jump\t// out\n        /* \"#utility.yul\":9685:9934   */\n    tag_220:\n        /* \"#utility.yul\":9754:9760   */\n      0x00\n        /* \"#utility.yul\":9807:9809   */\n      0x20\n        /* \"#utility.yul\":9795:9804   */\n      dup3\n        /* \"#utility.yul\":9786:9793   */\n      dup5\n        /* \"#utility.yul\":9782:9805   */\n      sub\n        /* \"#utility.yul\":9778:9810   */\n      slt\n        /* \"#utility.yul\":9775:9827   */\n      iszero\n      tag_397\n      jumpi\n        /* \"#utility.yul\":9823:9824   */\n      0x00\n        /* \"#utility.yul\":9820:9821   */\n      dup1\n        /* \"#utility.yul\":9813:9825   */\n      revert\n        /* \"#utility.yul\":9775:9827   */\n    tag_397:\n        /* \"#utility.yul\":9855:9864   */\n      dup2\n        /* \"#utility.yul\":9849:9865   */\n      mload\n        /* \"#utility.yul\":9874:9904   */\n      tag_238\n        /* \"#utility.yul\":9898:9903   */\n      dup2\n        /* \"#utility.yul\":9874:9904   */\n      tag_302\n      jump\t// in\n\n    auxdata: 0xa26469706673582212209d2285c63398ba50b6d5dff32a96a1d4beee666403b4829bca1ac72b1240ab0e64736f6c634300081a0033\n}\n",
				"bytecode": {
					"linkReferences": {},
					"object": "608060405234801561000f575f80fd5b5060405161152338038061152383398101604081905261002e916100b0565b6040518060400160405280600881526020016710d4d1140813919560c21b815250604051806040016040528060048152602001630435344560e41b815250815f908161007a9190610175565b5060016100878282610175565b5050600880546001600160a01b0319166001600160a01b0393909316929092179091555061022f565b5f602082840312156100c0575f80fd5b81516001600160a01b03811681146100d6575f80fd5b9392505050565b634e487b7160e01b5f52604160045260245ffd5b600181811c9082168061010557607f821691505b60208210810361012357634e487b7160e01b5f52602260045260245ffd5b50919050565b601f82111561017057805f5260205f20601f840160051c8101602085101561014e5750805b601f840160051c820191505b8181101561016d575f815560010161015a565b50505b505050565b81516001600160401b0381111561018e5761018e6100dd565b6101a28161019c84546100f1565b84610129565b6020601f8211600181146101d4575f83156101bd5750848201515b5f19600385901b1c1916600184901b17845561016d565b5f84815260208120601f198516915b8281101561020357878501518255602094850194600190920191016101e3565b508482101561022057868401515f19600387901b60f8161c191681555b50505050600190811b01905550565b6112e78061023c5f395ff3fe608060405234801561000f575f80fd5b50600436106100f0575f3560e01c806342966c6811610093578063a22cb46511610063578063a22cb465146101f9578063b88d4fde1461020c578063c87b56dd1461021f578063e985e9c514610232575f80fd5b806342966c68146101b85780636352211e146101cb57806370a08231146101de57806395d89b41146101f1575f80fd5b8063095ea7b3116100ce578063095ea7b31461015c57806323b872dd1461017157806333eba49a1461018457806342842e0e146101a5575f80fd5b806301ffc9a7146100f457806306fdde031461011c578063081812fc14610131575b5f80fd5b610107610102366004610e3f565b610245565b60405190151581526020015b60405180910390f35b61012461026f565b6040516101139190610e88565b61014461013f366004610e9a565b6102fe565b6040516001600160a01b039091168152602001610113565b61016f61016a366004610ecc565b610325565b005b61016f61017f366004610ef4565b610334565b610197610192366004610fb9565b6103c2565b604051908152602001610113565b61016f6101b3366004610ef4565b610408565b61016f6101c6366004610e9a565b610427565b6101446101d9366004610e9a565b61049c565b6101976101ec366004610ffe565b6104a6565b6101246104eb565b61016f610207366004611017565b6104fa565b61016f61021a366004611050565b610505565b61012461022d366004610e9a565b61051d565b6101076102403660046110c7565b610628565b5f6001600160e01b03198216632483248360e11b1480610269575061026982610655565b92915050565b60605f805461027d906110f8565b80601f01602080910402602001604051908101604052809291908181526020018280546102a9906110f8565b80156102f45780601f106102cb576101008083540402835291602001916102f4565b820191905f5260205f20905b8154815290600101906020018083116102d757829003601f168201915b5050505050905090565b5f610308826106a4565b505f828152600460205260409020546001600160a01b0316610269565b6103308282336106dc565b5050565b6001600160a01b03821661036257604051633250574960e11b81525f60048201526024015b60405180910390fd5b5f61036e8383336106e9565b9050836001600160a01b0316816001600160a01b0316146103bc576040516364283d7b60e01b81526001600160a01b0380861660048301526024820184905282166044820152606401610359565b50505050565b5f6103d1600780546001019055565b5f6103db60075490565b90506103e733826107db565b6103f1818461083c565b600854610269906001600160a01b031660016104fa565b61042283838360405180602001604052805f815250610505565b505050565b6104308161049c565b6001600160a01b0316336001600160a01b0316146104905760405162461bcd60e51b815260206004820152601e60248201527f596f7520617265206e6f7420746865206f776e6572206f6620746f6b656e00006044820152606401610359565b6104998161088b565b50565b5f610269826106a4565b5f6001600160a01b0382166104d0576040516322718ad960e21b81525f6004820152602401610359565b506001600160a01b03165f9081526003602052604090205490565b60606001805461027d906110f8565b6103303383836108c3565b610510848484610334565b6103bc3385858585610961565b6060610528826106a4565b505f8281526006602052604081208054610541906110f8565b80601f016020809104026020016040519081016040528092919081815260200182805461056d906110f8565b80156105b85780601f1061058f576101008083540402835291602001916105b8565b820191905f5260205f20905b81548152906001019060200180831161059b57829003601f168201915b505050505090505f6105d460408051602081019091525f815290565b905080515f036105e5575092915050565b8151156106175780826040516020016105ff929190611147565b60405160208183030381529060405292505050919050565b61062084610a89565b949350505050565b6001600160a01b039182165f90815260056020908152604080832093909416825291909152205460ff1690565b5f6001600160e01b031982166380ac58cd60e01b148061068557506001600160e01b03198216635b5e139f60e01b145b8061026957506301ffc9a760e01b6001600160e01b0319831614610269565b5f818152600260205260408120546001600160a01b03168061026957604051637e27328960e01b815260048101849052602401610359565b6104228383836001610afa565b5f828152600260205260408120546001600160a01b039081169083161561071557610715818486610bfe565b6001600160a01b0381161561074f576107305f855f80610afa565b6001600160a01b0381165f90815260036020526040902080545f190190555b6001600160a01b0385161561077d576001600160a01b0385165f908152600360205260409020805460010190555b5f8481526002602052604080822080546001600160a01b0319166001600160a01b0389811691821790925591518793918516917fddf252ad1be2c89b69c2b068fc378daa952ba7f163c4a11628f55a4df523b3ef91a4949350505050565b6001600160a01b03821661080457604051633250574960e11b81525f6004820152602401610359565b5f61081083835f6106e9565b90506001600160a01b03811615610422576040516339e3563760e11b81525f6004820152602401610359565b5f828152600660205260409020610853828261119f565b506040518281527ff8e1a15aba9398e019f0b49df1a4fde98ee17ae345cb5f6b5e2c27f5033e8ce79060200160405180910390a15050565b5f6108975f835f6106e9565b90506001600160a01b03811661033057604051637e27328960e01b815260048101839052602401610359565b6001600160a01b0382166108f557604051630b61174360e31b81526001600160a01b0383166004820152602401610359565b6001600160a01b038381165f81815260056020908152604080832094871680845294825291829020805460ff191686151590811790915591519182527f17307eab39ab6107e8899845ad3d59bd9653f200f220920489ca2b5937696c31910160405180910390a3505050565b6001600160a01b0383163b15610a8257604051630a85bd0160e11b81526001600160a01b0384169063150b7a02906109a390889088908790879060040161125a565b6020604051808303815f875af19250505080156109dd575060408051601f3d908101601f191682019092526109da91810190611296565b60015b610a44573d808015610a0a576040519150601f19603f3d011682016040523d82523d5f602084013e610a0f565b606091505b5080515f03610a3c57604051633250574960e11b81526001600160a01b0385166004820152602401610359565b805181602001fd5b6001600160e01b03198116630a85bd0160e11b14610a8057604051633250574960e11b81526001600160a01b0385166004820152602401610359565b505b5050505050565b6060610a94826106a4565b505f610aaa60408051602081019091525f815290565b90505f815111610ac85760405180602001604052805f815250610af3565b80610ad284610c62565b604051602001610ae3929190611147565b6040516020818303038152906040525b9392505050565b8080610b0e57506001600160a01b03821615155b15610bcf575f610b1d846106a4565b90506001600160a01b03831615801590610b495750826001600160a01b0316816001600160a01b031614155b8015610b5c5750610b5a8184610628565b155b15610b855760405163a9fbf51f60e01b81526001600160a01b0384166004820152602401610359565b8115610bcd5783856001600160a01b0316826001600160a01b03167f8c5be1e5ebec7d5bd14f71427d1e84f3dd0314c0f7b2291e5b200ac8c7c3b92560405160405180910390a45b505b50505f90815260046020526040902080546001600160a01b0319166001600160a01b0392909216919091179055565b610c09838383610cf2565b610422576001600160a01b038316610c3757604051637e27328960e01b815260048101829052602401610359565b60405163177e802f60e01b81526001600160a01b038316600482015260248101829052604401610359565b60605f610c6e83610d53565b60010190505f8167ffffffffffffffff811115610c8d57610c8d610f2e565b6040519080825280601f01601f191660200182016040528015610cb7576020820181803683370190505b5090508181016020015b5f19016f181899199a1a9b1b9c1cb0b131b232b360811b600a86061a8153600a8504945084610cc157509392505050565b5f6001600160a01b038316158015906106205750826001600160a01b0316846001600160a01b03161480610d2b5750610d2b8484610628565b806106205750505f908152600460205260409020546001600160a01b03908116911614919050565b5f8072184f03e93ff9f4daa797ed6e38ed64bf6a1f0160401b8310610d915772184f03e93ff9f4daa797ed6e38ed64bf6a1f0160401b830492506040015b6d04ee2d6d415b85acef81000000008310610dbd576d04ee2d6d415b85acef8100000000830492506020015b662386f26fc100008310610ddb57662386f26fc10000830492506010015b6305f5e1008310610df3576305f5e100830492506008015b6127108310610e0757612710830492506004015b60648310610e19576064830492506002015b600a83106102695760010192915050565b6001600160e01b031981168114610499575f80fd5b5f60208284031215610e4f575f80fd5b8135610af381610e2a565b5f81518084528060208401602086015e5f602082860101526020601f19601f83011685010191505092915050565b602081525f610af36020830184610e5a565b5f60208284031215610eaa575f80fd5b5035919050565b80356001600160a01b0381168114610ec7575f80fd5b919050565b5f8060408385031215610edd575f80fd5b610ee683610eb1565b946020939093013593505050565b5f805f60608486031215610f06575f80fd5b610f0f84610eb1565b9250610f1d60208501610eb1565b929592945050506040919091013590565b634e487b7160e01b5f52604160045260245ffd5b5f8067ffffffffffffffff841115610f5c57610f5c610f2e565b50604051601f19601f85018116603f0116810181811067ffffffffffffffff82111715610f8b57610f8b610f2e565b604052838152905080828401851015610fa2575f80fd5b838360208301375f60208583010152509392505050565b5f60208284031215610fc9575f80fd5b813567ffffffffffffffff811115610fdf575f80fd5b8201601f81018413610fef575f80fd5b61062084823560208401610f42565b5f6020828403121561100e575f80fd5b610af382610eb1565b5f8060408385031215611028575f80fd5b61103183610eb1565b915060208301358015158114611045575f80fd5b809150509250929050565b5f805f8060808587031215611063575f80fd5b61106c85610eb1565b935061107a60208601610eb1565b925060408501359150606085013567ffffffffffffffff81111561109c575f80fd5b8501601f810187136110ac575f80fd5b6110bb87823560208401610f42565b91505092959194509250565b5f80604083850312156110d8575f80fd5b6110e183610eb1565b91506110ef60208401610eb1565b90509250929050565b600181811c9082168061110c57607f821691505b60208210810361112a57634e487b7160e01b5f52602260045260245ffd5b50919050565b5f81518060208401855e5f93019283525090919050565b5f6106206111558386611130565b84611130565b601f82111561042257805f5260205f20601f840160051c810160208510156111805750805b601f840160051c820191505b81811015610a82575f815560010161118c565b815167ffffffffffffffff8111156111b9576111b9610f2e565b6111cd816111c784546110f8565b8461115b565b6020601f8211600181146111ff575f83156111e85750848201515b5f19600385901b1c1916600184901b178455610a82565b5f84815260208120601f198516915b8281101561122e578785015182556020948501946001909201910161120e565b508482101561124b57868401515f19600387901b60f8161c191681555b50505050600190811b01905550565b6001600160a01b03858116825284166020820152604081018390526080606082018190525f9061128c90830184610e5a565b9695505050505050565b5f602082840312156112a6575f80fd5b8151610af381610e2a56fea26469706673582212209d2285c63398ba50b6d5dff32a96a1d4beee666403b4829bca1ac72b1240ab0e64736f6c634300081a0033",
					"opcodes": "PUSH1 0x80 PUSH1 0x40 MSTORE CALLVALUE DUP1 ISZERO PUSH2 0xF JUMPI PUSH0 DUP1 REVERT JUMPDEST POP PUSH1 0x40 MLOAD PUSH2 0x1523 CODESIZE SUB DUP1 PUSH2 0x1523 DUP4 CODECOPY DUP2 ADD PUSH1 0x40 DUP2 SWAP1 MSTORE PUSH2 0x2E SWAP2 PUSH2 0xB0 JUMP JUMPDEST PUSH1 0x40 MLOAD DUP1 PUSH1 0x40 ADD PUSH1 0x40 MSTORE DUP1 PUSH1 0x8 DUP2 MSTORE PUSH1 0x20 ADD PUSH8 0x10D4D11408139195 PUSH1 0xC2 SHL DUP2 MSTORE POP PUSH1 0x40 MLOAD DUP1 PUSH1 0x40 ADD PUSH1 0x40 MSTORE DUP1 PUSH1 0x4 DUP2 MSTORE PUSH1 0x20 ADD PUSH4 0x4353445 PUSH1 0xE4 SHL DUP2 MSTORE POP DUP2 PUSH0 SWAP1 DUP2 PUSH2 0x7A SWAP2 SWAP1 PUSH2 0x175 JUMP JUMPDEST POP PUSH1 0x1 PUSH2 0x87 DUP3 DUP3 PUSH2 0x175 JUMP JUMPDEST POP POP PUSH1 0x8 DUP1 SLOAD PUSH1 0x1 PUSH1 0x1 PUSH1 0xA0 SHL SUB NOT AND PUSH1 0x1 PUSH1 0x1 PUSH1 0xA0 SHL SUB SWAP4 SWAP1 SWAP4 AND SWAP3 SWAP1 SWAP3 OR SWAP1 SWAP2 SSTORE POP PUSH2 0x22F JUMP JUMPDEST PUSH0 PUSH1 0x20 DUP3 DUP5 SUB SLT ISZERO PUSH2 0xC0 JUMPI PUSH0 DUP1 REVERT JUMPDEST DUP2 MLOAD PUSH1 0x1 PUSH1 0x1 PUSH1 0xA0 SHL SUB DUP2 AND DUP2 EQ PUSH2 0xD6 JUMPI PUSH0 DUP1 REVERT JUMPDEST SWAP4 SWAP3 POP POP POP JUMP JUMPDEST PUSH4 0x4E487B71 PUSH1 0xE0 SHL PUSH0 MSTORE PUSH1 0x41 PUSH1 0x4 MSTORE PUSH1 0x24 PUSH0 REVERT JUMPDEST PUSH1 0x1 DUP2 DUP2 SHR SWAP1 DUP3 AND DUP1 PUSH2 0x105 JUMPI PUSH1 0x7F DUP3 AND SWAP2 POP JUMPDEST PUSH1 0x20 DUP3 LT DUP2 SUB PUSH2 0x123 JUMPI PUSH4 0x4E487B71 PUSH1 0xE0 SHL PUSH0 MSTORE PUSH1 0x22 PUSH1 0x4 MSTORE PUSH1 0x24 PUSH0 REVERT JUMPDEST POP SWAP2 SWAP1 POP JUMP JUMPDEST PUSH1 0x1F DUP3 GT ISZERO PUSH2 0x170 JUMPI DUP1 PUSH0 MSTORE PUSH1 0x20 PUSH0 KECCAK256 PUSH1 0x1F DUP5 ADD PUSH1 0x5 SHR DUP2 ADD PUSH1 0x20 DUP6 LT ISZERO PUSH2 0x14E JUMPI POP DUP1 JUMPDEST PUSH1 0x1F DUP5 ADD PUSH1 0x5 SHR DUP3 ADD SWAP2 POP JUMPDEST DUP2 DUP2 LT ISZERO PUSH2 0x16D JUMPI PUSH0 DUP2 SSTORE PUSH1 0x1 ADD PUSH2 0x15A JUMP JUMPDEST POP POP JUMPDEST POP POP POP JUMP JUMPDEST DUP2 MLOAD PUSH1 0x1 PUSH1 0x1 PUSH1 0x40 SHL SUB DUP2 GT ISZERO PUSH2 0x18E JUMPI PUSH2 0x18E PUSH2 0xDD JUMP JUMPDEST PUSH2 0x1A2 DUP2 PUSH2 0x19C DUP5 SLOAD PUSH2 0xF1 JUMP JUMPDEST DUP5 PUSH2 0x129 JUMP JUMPDEST PUSH1 0x20 PUSH1 0x1F DUP3 GT PUSH1 0x1 DUP2 EQ PUSH2 0x1D4 JUMPI PUSH0 DUP4 ISZERO PUSH2 0x1BD JUMPI POP DUP5 DUP3 ADD MLOAD JUMPDEST PUSH0 NOT PUSH1 0x3 DUP6 SWAP1 SHL SHR NOT AND PUSH1 0x1 DUP5 SWAP1 SHL OR DUP5 SSTORE PUSH2 0x16D JUMP JUMPDEST PUSH0 DUP5 DUP2 MSTORE PUSH1 0x20 DUP2 KECCAK256 PUSH1 0x1F NOT DUP6 AND SWAP2 JUMPDEST DUP3 DUP2 LT ISZERO PUSH2 0x203 JUMPI DUP8 DUP6 ADD MLOAD DUP3 SSTORE PUSH1 0x20 SWAP5 DUP6 ADD SWAP5 PUSH1 0x1 SWAP1 SWAP3 ADD SWAP2 ADD PUSH2 0x1E3 JUMP JUMPDEST POP DUP5 DUP3 LT ISZERO PUSH2 0x220 JUMPI DUP7 DUP5 ADD MLOAD PUSH0 NOT PUSH1 0x3 DUP8 SWAP1 SHL PUSH1 0xF8 AND SHR NOT AND DUP2 SSTORE JUMPDEST POP POP POP POP PUSH1 0x1 SWAP1 DUP2 SHL ADD SWAP1 SSTORE POP JUMP JUMPDEST PUSH2 0x12E7 DUP1 PUSH2 0x23C PUSH0 CODECOPY PUSH0 RETURN INVALID PUSH1 0x80 PUSH1 0x40 MSTORE CALLVALUE DUP1 ISZERO PUSH2 0xF JUMPI PUSH0 DUP1 REVERT JUMPDEST POP PUSH1 0x4 CALLDATASIZE LT PUSH2 0xF0 JUMPI PUSH0 CALLDATALOAD PUSH1 0xE0 SHR DUP1 PUSH4 0x42966C68 GT PUSH2 0x93 JUMPI DUP1 PUSH4 0xA22CB465 GT PUSH2 0x63 JUMPI DUP1 PUSH4 0xA22CB465 EQ PUSH2 0x1F9 JUMPI DUP1 PUSH4 0xB88D4FDE EQ PUSH2 0x20C JUMPI DUP1 PUSH4 0xC87B56DD EQ PUSH2 0x21F JUMPI DUP1 PUSH4 0xE985E9C5 EQ PUSH2 0x232 JUMPI PUSH0 DUP1 REVERT JUMPDEST DUP1 PUSH4 0x42966C68 EQ PUSH2 0x1B8 JUMPI DUP1 PUSH4 0x6352211E EQ PUSH2 0x1CB JUMPI DUP1 PUSH4 0x70A08231 EQ PUSH2 0x1DE JUMPI DUP1 PUSH4 0x95D89B41 EQ PUSH2 0x1F1 JUMPI PUSH0 DUP1 REVERT JUMPDEST DUP1 PUSH4 0x95EA7B3 GT PUSH2 0xCE JUMPI DUP1 PUSH4 0x95EA7B3 EQ PUSH2 0x15C JUMPI DUP1 PUSH4 0x23B872DD EQ PUSH2 0x171 JUMPI DUP1 PUSH4 0x33EBA49A EQ PUSH2 0x184 JUMPI DUP1 PUSH4 0x42842E0E EQ PUSH2 0x1A5 JUMPI PUSH0 DUP1 REVERT JUMPDEST DUP1 PUSH4 0x1FFC9A7 EQ PUSH2 0xF4 JUMPI DUP1 PUSH4 0x6FDDE03 EQ PUSH2 0x11C JUMPI DUP1 PUSH4 0x81812FC EQ PUSH2 0x131 JUMPI JUMPDEST PUSH0 DUP1 REVERT JUMPDEST PUSH2 0x107 PUSH2 0x102 CALLDATASIZE PUSH1 0x4 PUSH2 0xE3F JUMP JUMPDEST PUSH2 0x245 JUMP JUMPDEST PUSH1 0x40 MLOAD SWAP1 ISZERO ISZERO DUP2 MSTORE PUSH1 0x20 ADD JUMPDEST PUSH1 0x40 MLOAD DUP1 SWAP2 SUB SWAP1 RETURN JUMPDEST PUSH2 0x124 PUSH2 0x26F JUMP JUMPDEST PUSH1 0x40 MLOAD PUSH2 0x113 SWAP2 SWAP1 PUSH2 0xE88 JUMP JUMPDEST PUSH2 0x144 PUSH2 0x13F CALLDATASIZE PUSH1 0x4 PUSH2 0xE9A JUMP JUMPDEST PUSH2 0x2FE JUMP JUMPDEST PUSH1 0x40 MLOAD PUSH1 0x1 PUSH1 0x1 PUSH1 0xA0 SHL SUB SWAP1 SWAP2 AND DUP2 MSTORE PUSH1 0x20 ADD PUSH2 0x113 JUMP JUMPDEST PUSH2 0x16F PUSH2 0x16A CALLDATASIZE PUSH1 0x4 PUSH2 0xECC JUMP JUMPDEST PUSH2 0x325 JUMP JUMPDEST STOP JUMPDEST PUSH2 0x16F PUSH2 0x17F CALLDATASIZE PUSH1 0x4 PUSH2 0xEF4 JUMP JUMPDEST PUSH2 0x334 JUMP JUMPDEST PUSH2 0x197 PUSH2 0x192 CALLDATASIZE PUSH1 0x4 PUSH2 0xFB9 JUMP JUMPDEST PUSH2 0x3C2 JUMP JUMPDEST PUSH1 0x40 MLOAD SWAP1 DUP2 MSTORE PUSH1 0x20 ADD PUSH2 0x113 JUMP JUMPDEST PUSH2 0x16F PUSH2 0x1B3 CALLDATASIZE PUSH1 0x4 PUSH2 0xEF4 JUMP JUMPDEST PUSH2 0x408 JUMP JUMPDEST PUSH2 0x16F PUSH2 0x1C6 CALLDATASIZE PUSH1 0x4 PUSH2 0xE9A JUMP JUMPDEST PUSH2 0x427 JUMP JUMPDEST PUSH2 0x144 PUSH2 0x1D9 CALLDATASIZE PUSH1 0x4 PUSH2 0xE9A JUMP JUMPDEST PUSH2 0x49C JUMP JUMPDEST PUSH2 0x197 PUSH2 0x1EC CALLDATASIZE PUSH1 0x4 PUSH2 0xFFE JUMP JUMPDEST PUSH2 0x4A6 JUMP JUMPDEST PUSH2 0x124 PUSH2 0x4EB JUMP JUMPDEST PUSH2 0x16F PUSH2 0x207 CALLDATASIZE PUSH1 0x4 PUSH2 0x1017 JUMP JUMPDEST PUSH2 0x4FA JUMP JUMPDEST PUSH2 0x16F PUSH2 0x21A CALLDATASIZE PUSH1 0x4 PUSH2 0x1050 JUMP JUMPDEST PUSH2 0x505 JUMP JUMPDEST PUSH2 0x124 PUSH2 0x22D CALLDATASIZE PUSH1 0x4 PUSH2 0xE9A JUMP JUMPDEST PUSH2 0x51D JUMP JUMPDEST PUSH2 0x107 PUSH2 0x240 CALLDATASIZE PUSH1 0x4 PUSH2 0x10C7 JUMP JUMPDEST PUSH2 0x628 JUMP JUMPDEST PUSH0 PUSH1 0x1 PUSH1 0x1 PUSH1 0xE0 SHL SUB NOT DUP3 AND PUSH4 0x24832483 PUSH1 0xE1 SHL EQ DUP1 PUSH2 0x269 JUMPI POP PUSH2 0x269 DUP3 PUSH2 0x655 JUMP JUMPDEST SWAP3 SWAP2 POP POP JUMP JUMPDEST PUSH1 0x60 PUSH0 DUP1 SLOAD PUSH2 0x27D SWAP1 PUSH2 0x10F8 JUMP JUMPDEST DUP1 PUSH1 0x1F ADD PUSH1 0x20 DUP1 SWAP2 DIV MUL PUSH1 0x20 ADD PUSH1 0x40 MLOAD SWAP1 DUP2 ADD PUSH1 0x40 MSTORE DUP1 SWAP3 SWAP2 SWAP1 DUP2 DUP2 MSTORE PUSH1 0x20 ADD DUP3 DUP1 SLOAD PUSH2 0x2A9 SWAP1 PUSH2 0x10F8 JUMP JUMPDEST DUP1 ISZERO PUSH2 0x2F4 JUMPI DUP1 PUSH1 0x1F LT PUSH2 0x2CB JUMPI PUSH2 0x100 DUP1 DUP4 SLOAD DIV MUL DUP4 MSTORE SWAP2 PUSH1 0x20 ADD SWAP2 PUSH2 0x2F4 JUMP JUMPDEST DUP3 ADD SWAP2 SWAP1 PUSH0 MSTORE PUSH1 0x20 PUSH0 KECCAK256 SWAP1 JUMPDEST DUP2 SLOAD DUP2 MSTORE SWAP1 PUSH1 0x1 ADD SWAP1 PUSH1 0x20 ADD DUP1 DUP4 GT PUSH2 0x2D7 JUMPI DUP3 SWAP1 SUB PUSH1 0x1F AND DUP3 ADD SWAP2 JUMPDEST POP POP POP POP POP SWAP1 POP SWAP1 JUMP JUMPDEST PUSH0 PUSH2 0x308 DUP3 PUSH2 0x6A4 JUMP JUMPDEST POP PUSH0 DUP3 DUP2 MSTORE PUSH1 0x4 PUSH1 0x20 MSTORE PUSH1 0x40 SWAP1 KECCAK256 SLOAD PUSH1 0x1 PUSH1 0x1 PUSH1 0xA0 SHL SUB AND PUSH2 0x269 JUMP JUMPDEST PUSH2 0x330 DUP3 DUP3 CALLER PUSH2 0x6DC JUMP JUMPDEST POP POP JUMP JUMPDEST PUSH1 0x1 PUSH1 0x1 PUSH1 0xA0 SHL SUB DUP3 AND PUSH2 0x362 JUMPI PUSH1 0x40 MLOAD PUSH4 0x32505749 PUSH1 0xE1 SHL DUP2 MSTORE PUSH0 PUSH1 0x4 DUP3 ADD MSTORE PUSH1 0x24 ADD JUMPDEST PUSH1 0x40 MLOAD DUP1 SWAP2 SUB SWAP1 REVERT JUMPDEST PUSH0 PUSH2 0x36E DUP4 DUP4 CALLER PUSH2 0x6E9 JUMP JUMPDEST SWAP1 POP DUP4 PUSH1 0x1 PUSH1 0x1 PUSH1 0xA0 SHL SUB AND DUP2 PUSH1 0x1 PUSH1 0x1 PUSH1 0xA0 SHL SUB AND EQ PUSH2 0x3BC JUMPI PUSH1 0x40 MLOAD PUSH4 0x64283D7B PUSH1 0xE0 SHL DUP2 MSTORE PUSH1 0x1 PUSH1 0x1 PUSH1 0xA0 SHL SUB DUP1 DUP7 AND PUSH1 0x4 DUP4 ADD MSTORE PUSH1 0x24 DUP3 ADD DUP5 SWAP1 MSTORE DUP3 AND PUSH1 0x44 DUP3 ADD MSTORE PUSH1 0x64 ADD PUSH2 0x359 JUMP JUMPDEST POP POP POP POP JUMP JUMPDEST PUSH0 PUSH2 0x3D1 PUSH1 0x7 DUP1 SLOAD PUSH1 0x1 ADD SWAP1 SSTORE JUMP JUMPDEST PUSH0 PUSH2 0x3DB PUSH1 0x7 SLOAD SWAP1 JUMP JUMPDEST SWAP1 POP PUSH2 0x3E7 CALLER DUP3 PUSH2 0x7DB JUMP JUMPDEST PUSH2 0x3F1 DUP2 DUP5 PUSH2 0x83C JUMP JUMPDEST PUSH1 0x8 SLOAD PUSH2 0x269 SWAP1 PUSH1 0x1 PUSH1 0x1 PUSH1 0xA0 SHL SUB AND PUSH1 0x1 PUSH2 0x4FA JUMP JUMPDEST PUSH2 0x422 DUP4 DUP4 DUP4 PUSH1 0x40 MLOAD DUP1 PUSH1 0x20 ADD PUSH1 0x40 MSTORE DUP1 PUSH0 DUP2 MSTORE POP PUSH2 0x505 JUMP JUMPDEST POP POP POP JUMP JUMPDEST PUSH2 0x430 DUP2 PUSH2 0x49C JUMP JUMPDEST PUSH1 0x1 PUSH1 0x1 PUSH1 0xA0 SHL SUB AND CALLER PUSH1 0x1 PUSH1 0x1 PUSH1 0xA0 SHL SUB AND EQ PUSH2 0x490 JUMPI PUSH1 0x40 MLOAD PUSH3 0x461BCD PUSH1 0xE5 SHL DUP2 MSTORE PUSH1 0x20 PUSH1 0x4 DUP3 ADD MSTORE PUSH1 0x1E PUSH1 0x24 DUP3 ADD MSTORE PUSH32 0x596F7520617265206E6F7420746865206F776E6572206F6620746F6B656E0000 PUSH1 0x44 DUP3 ADD MSTORE PUSH1 0x64 ADD PUSH2 0x359 JUMP JUMPDEST PUSH2 0x499 DUP2 PUSH2 0x88B JUMP JUMPDEST POP JUMP JUMPDEST PUSH0 PUSH2 0x269 DUP3 PUSH2 0x6A4 JUMP JUMPDEST PUSH0 PUSH1 0x1 PUSH1 0x1 PUSH1 0xA0 SHL SUB DUP3 AND PUSH2 0x4D0 JUMPI PUSH1 0x40 MLOAD PUSH4 0x22718AD9 PUSH1 0xE2 SHL DUP2 MSTORE PUSH0 PUSH1 0x4 DUP3 ADD MSTORE PUSH1 0x24 ADD PUSH2 0x359 JUMP JUMPDEST POP PUSH1 0x1 PUSH1 0x1 PUSH1 0xA0 SHL SUB AND PUSH0 SWAP1 DUP2 MSTORE PUSH1 0x3 PUSH1 0x20 MSTORE PUSH1 0x40 SWAP1 KECCAK256 SLOAD SWAP1 JUMP JUMPDEST PUSH1 0x60 PUSH1 0x1 DUP1 SLOAD PUSH2 0x27D SWAP1 PUSH2 0x10F8 JUMP JUMPDEST PUSH2 0x330 CALLER DUP4 DUP4 PUSH2 0x8C3 JUMP JUMPDEST PUSH2 0x510 DUP5 DUP5 DUP5 PUSH2 0x334 JUMP JUMPDEST PUSH2 0x3BC CALLER DUP6 DUP6 DUP6 DUP6 PUSH2 0x961 JUMP JUMPDEST PUSH1 0x60 PUSH2 0x528 DUP3 PUSH2 0x6A4 JUMP JUMPDEST POP PUSH0 DUP3 DUP2 MSTORE PUSH1 0x6 PUSH1 0x20 MSTORE PUSH1 0x40 DUP2 KECCAK256 DUP1 SLOAD PUSH2 0x541 SWAP1 PUSH2 0x10F8 JUMP JUMPDEST DUP1 PUSH1 0x1F ADD PUSH1 0x20 DUP1 SWAP2 DIV MUL PUSH1 0x20 ADD PUSH1 0x40 MLOAD SWAP1 DUP2 ADD PUSH1 0x40 MSTORE DUP1 SWAP3 SWAP2 SWAP1 DUP2 DUP2 MSTORE PUSH1 0x20 ADD DUP3 DUP1 SLOAD PUSH2 0x56D SWAP1 PUSH2 0x10F8 JUMP JUMPDEST DUP1 ISZERO PUSH2 0x5B8 JUMPI DUP1 PUSH1 0x1F LT PUSH2 0x58F JUMPI PUSH2 0x100 DUP1 DUP4 SLOAD DIV MUL DUP4 MSTORE SWAP2 PUSH1 0x20 ADD SWAP2 PUSH2 0x5B8 JUMP JUMPDEST DUP3 ADD SWAP2 SWAP1 PUSH0 MSTORE PUSH1 0x20 PUSH0 KECCAK256 SWAP1 JUMPDEST DUP2 SLOAD DUP2 MSTORE SWAP1 PUSH1 0x1 ADD SWAP1 PUSH1 0x20 ADD DUP1 DUP4 GT PUSH2 0x59B JUMPI DUP3 SWAP1 SUB PUSH1 0x1F AND DUP3 ADD SWAP2 JUMPDEST POP POP POP POP POP SWAP1 POP PUSH0 PUSH2 0x5D4 PUSH1 0x40 DUP1 MLOAD PUSH1 0x20 DUP2 ADD SWAP1 SWAP2 MSTORE PUSH0 DUP2 MSTORE SWAP1 JUMP JUMPDEST SWAP1 POP DUP1 MLOAD PUSH0 SUB PUSH2 0x5E5 JUMPI POP SWAP3 SWAP2 POP POP JUMP JUMPDEST DUP2 MLOAD ISZERO PUSH2 0x617 JUMPI DUP1 DUP3 PUSH1 0x40 MLOAD PUSH1 0x20 ADD PUSH2 0x5FF SWAP3 SWAP2 SWAP1 PUSH2 0x1147 JUMP JUMPDEST PUSH1 0x40 MLOAD PUSH1 0x20 DUP2 DUP4 SUB SUB DUP2 MSTORE SWAP1 PUSH1 0x40 MSTORE SWAP3 POP POP POP SWAP2 SWAP1 POP JUMP JUMPDEST PUSH2 0x620 DUP5 PUSH2 0xA89 JUMP JUMPDEST SWAP5 SWAP4 POP POP POP POP JUMP JUMPDEST PUSH1 0x1 PUSH1 0x1 PUSH1 0xA0 SHL SUB SWAP2 DUP3 AND PUSH0 SWAP1 DUP2 MSTORE PUSH1 0x5 PUSH1 0x20 SWAP1 DUP2 MSTORE PUSH1 0x40 DUP1 DUP4 KECCAK256 SWAP4 SWAP1 SWAP5 AND DUP3 MSTORE SWAP2 SWAP1 SWAP2 MSTORE KECCAK256 SLOAD PUSH1 0xFF AND SWAP1 JUMP JUMPDEST PUSH0 PUSH1 0x1 PUSH1 0x1 PUSH1 0xE0 SHL SUB NOT DUP3 AND PUSH4 0x80AC58CD PUSH1 0xE0 SHL EQ DUP1 PUSH2 0x685 JUMPI POP PUSH1 0x1 PUSH1 0x1 PUSH1 0xE0 SHL SUB NOT DUP3 AND PUSH4 0x5B5E139F PUSH1 0xE0 SHL EQ JUMPDEST DUP1 PUSH2 0x269 JUMPI POP PUSH4 0x1FFC9A7 PUSH1 0xE0 SHL PUSH1 0x1 PUSH1 0x1 PUSH1 0xE0 SHL SUB NOT DUP4 AND EQ PUSH2 0x269 JUMP JUMPDEST PUSH0 DUP2 DUP2 MSTORE PUSH1 0x2 PUSH1 0x20 MSTORE PUSH1 0x40 DUP2 KECCAK256 SLOAD PUSH1 0x1 PUSH1 0x1 PUSH1 0xA0 SHL SUB AND DUP1 PUSH2 0x269 JUMPI PUSH1 0x40 MLOAD PUSH4 0x7E273289 PUSH1 0xE0 SHL DUP2 MSTORE PUSH1 0x4 DUP2 ADD DUP5 SWAP1 MSTORE PUSH1 0x24 ADD PUSH2 0x359 JUMP JUMPDEST PUSH2 0x422 DUP4 DUP4 DUP4 PUSH1 0x1 PUSH2 0xAFA JUMP JUMPDEST PUSH0 DUP3 DUP2 MSTORE PUSH1 0x2 PUSH1 0x20 MSTORE PUSH1 0x40 DUP2 KECCAK256 SLOAD PUSH1 0x1 PUSH1 0x1 PUSH1 0xA0 SHL SUB SWAP1 DUP2 AND SWAP1 DUP4 AND ISZERO PUSH2 0x715 JUMPI PUSH2 0x715 DUP2 DUP5 DUP7 PUSH2 0xBFE JUMP JUMPDEST PUSH1 0x1 PUSH1 0x1 PUSH1 0xA0 SHL SUB DUP2 AND ISZERO PUSH2 0x74F JUMPI PUSH2 0x730 PUSH0 DUP6 PUSH0 DUP1 PUSH2 0xAFA JUMP JUMPDEST PUSH1 0x1 PUSH1 0x1 PUSH1 0xA0 SHL SUB DUP2 AND PUSH0 SWAP1 DUP2 MSTORE PUSH1 0x3 PUSH1 0x20 MSTORE PUSH1 0x40 SWAP1 KECCAK256 DUP1 SLOAD PUSH0 NOT ADD SWAP1 SSTORE JUMPDEST PUSH1 0x1 PUSH1 0x1 PUSH1 0xA0 SHL SUB DUP6 AND ISZERO PUSH2 0x77D JUMPI PUSH1 0x1 PUSH1 0x1 PUSH1 0xA0 SHL SUB DUP6 AND PUSH0 SWAP1 DUP2 MSTORE PUSH1 0x3 PUSH1 0x20 MSTORE PUSH1 0x40 SWAP1 KECCAK256 DUP1 SLOAD PUSH1 0x1 ADD SWAP1 SSTORE JUMPDEST PUSH0 DUP5 DUP2 MSTORE PUSH1 0x2 PUSH1 0x20 MSTORE PUSH1 0x40 DUP1 DUP3 KECCAK256 DUP1 SLOAD PUSH1 0x1 PUSH1 0x1 PUSH1 0xA0 SHL SUB NOT AND PUSH1 0x1 PUSH1 0x1 PUSH1 0xA0 SHL SUB DUP10 DUP2 AND SWAP2 DUP3 OR SWAP1 SWAP3 SSTORE SWAP2 MLOAD DUP8 SWAP4 SWAP2 DUP6 AND SWAP2 PUSH32 0xDDF252AD1BE2C89B69C2B068FC378DAA952BA7F163C4A11628F55A4DF523B3EF SWAP2 LOG4 SWAP5 SWAP4 POP POP POP POP JUMP JUMPDEST PUSH1 0x1 PUSH1 0x1 PUSH1 0xA0 SHL SUB DUP3 AND PUSH2 0x804 JUMPI PUSH1 0x40 MLOAD PUSH4 0x32505749 PUSH1 0xE1 SHL DUP2 MSTORE PUSH0 PUSH1 0x4 DUP3 ADD MSTORE PUSH1 0x24 ADD PUSH2 0x359 JUMP JUMPDEST PUSH0 PUSH2 0x810 DUP4 DUP4 PUSH0 PUSH2 0x6E9 JUMP JUMPDEST SWAP1 POP PUSH1 0x1 PUSH1 0x1 PUSH1 0xA0 SHL SUB DUP2 AND ISZERO PUSH2 0x422 JUMPI PUSH1 0x40 MLOAD PUSH4 0x39E35637 PUSH1 0xE1 SHL DUP2 MSTORE PUSH0 PUSH1 0x4 DUP3 ADD MSTORE PUSH1 0x24 ADD PUSH2 0x359 JUMP JUMPDEST PUSH0 DUP3 DUP2 MSTORE PUSH1 0x6 PUSH1 0x20 MSTORE PUSH1 0x40 SWAP1 KECCAK256 PUSH2 0x853 DUP3 DUP3 PUSH2 0x119F JUMP JUMPDEST POP PUSH1 0x40 MLOAD DUP3 DUP2 MSTORE PUSH32 0xF8E1A15ABA9398E019F0B49DF1A4FDE98EE17AE345CB5F6B5E2C27F5033E8CE7 SWAP1 PUSH1 0x20 ADD PUSH1 0x40 MLOAD DUP1 SWAP2 SUB SWAP1 LOG1 POP POP JUMP JUMPDEST PUSH0 PUSH2 0x897 PUSH0 DUP4 PUSH0 PUSH2 0x6E9 JUMP JUMPDEST SWAP1 POP PUSH1 0x1 PUSH1 0x1 PUSH1 0xA0 SHL SUB DUP2 AND PUSH2 0x330 JUMPI PUSH1 0x40 MLOAD PUSH4 0x7E273289 PUSH1 0xE0 SHL DUP2 MSTORE PUSH1 0x4 DUP2 ADD DUP4 SWAP1 MSTORE PUSH1 0x24 ADD PUSH2 0x359 JUMP JUMPDEST PUSH1 0x1 PUSH1 0x1 PUSH1 0xA0 SHL SUB DUP3 AND PUSH2 0x8F5 JUMPI PUSH1 0x40 MLOAD PUSH4 0xB611743 PUSH1 0xE3 SHL DUP2 MSTORE PUSH1 0x1 PUSH1 0x1 PUSH1 0xA0 SHL SUB DUP4 AND PUSH1 0x4 DUP3 ADD MSTORE PUSH1 0x24 ADD PUSH2 0x359 JUMP JUMPDEST PUSH1 0x1 PUSH1 0x1 PUSH1 0xA0 SHL SUB DUP4 DUP2 AND PUSH0 DUP2 DUP2 MSTORE PUSH1 0x5 PUSH1 0x20 SWAP1 DUP2 MSTORE PUSH1 0x40 DUP1 DUP4 KECCAK256 SWAP5 DUP8 AND DUP1 DUP5 MSTORE SWAP5 DUP3 MSTORE SWAP2 DUP3 SWAP1 KECCAK256 DUP1 SLOAD PUSH1 0xFF NOT AND DUP7 ISZERO ISZERO SWAP1 DUP2 OR SWAP1 SWAP2 SSTORE SWAP2 MLOAD SWAP2 DUP3 MSTORE PUSH32 0x17307EAB39AB6107E8899845AD3D59BD9653F200F220920489CA2B5937696C31 SWAP2 ADD PUSH1 0x40 MLOAD DUP1 SWAP2 SUB SWAP1 LOG3 POP POP POP JUMP JUMPDEST PUSH1 0x1 PUSH1 0x1 PUSH1 0xA0 SHL SUB DUP4 AND EXTCODESIZE ISZERO PUSH2 0xA82 JUMPI PUSH1 0x40 MLOAD PUSH4 0xA85BD01 PUSH1 0xE1 SHL DUP2 MSTORE PUSH1 0x1 PUSH1 0x1 PUSH1 0xA0 SHL SUB DUP5 AND SWAP1 PUSH4 0x150B7A02 SWAP1 PUSH2 0x9A3 SWAP1 DUP9 SWAP1 DUP9 SWAP1 DUP8 SWAP1 DUP8 SWAP1 PUSH1 0x4 ADD PUSH2 0x125A JUMP JUMPDEST PUSH1 0x20 PUSH1 0x40 MLOAD DUP1 DUP4 SUB DUP2 PUSH0 DUP8 GAS CALL SWAP3 POP POP POP DUP1 ISZERO PUSH2 0x9DD JUMPI POP PUSH1 0x40 DUP1 MLOAD PUSH1 0x1F RETURNDATASIZE SWAP1 DUP2 ADD PUSH1 0x1F NOT AND DUP3 ADD SWAP1 SWAP3 MSTORE PUSH2 0x9DA SWAP2 DUP2 ADD SWAP1 PUSH2 0x1296 JUMP JUMPDEST PUSH1 0x1 JUMPDEST PUSH2 0xA44 JUMPI RETURNDATASIZE DUP1 DUP1 ISZERO PUSH2 0xA0A JUMPI PUSH1 0x40 MLOAD SWAP2 POP PUSH1 0x1F NOT PUSH1 0x3F RETURNDATASIZE ADD AND DUP3 ADD PUSH1 0x40 MSTORE RETURNDATASIZE DUP3 MSTORE RETURNDATASIZE PUSH0 PUSH1 0x20 DUP5 ADD RETURNDATACOPY PUSH2 0xA0F JUMP JUMPDEST PUSH1 0x60 SWAP2 POP JUMPDEST POP DUP1 MLOAD PUSH0 SUB PUSH2 0xA3C JUMPI PUSH1 0x40 MLOAD PUSH4 0x32505749 PUSH1 0xE1 SHL DUP2 MSTORE PUSH1 0x1 PUSH1 0x1 PUSH1 0xA0 SHL SUB DUP6 AND PUSH1 0x4 DUP3 ADD MSTORE PUSH1 0x24 ADD PUSH2 0x359 JUMP JUMPDEST DUP1 MLOAD DUP2 PUSH1 0x20 ADD REVERT JUMPDEST PUSH1 0x1 PUSH1 0x1 PUSH1 0xE0 SHL SUB NOT DUP2 AND PUSH4 0xA85BD01 PUSH1 0xE1 SHL EQ PUSH2 0xA80 JUMPI PUSH1 0x40 MLOAD PUSH4 0x32505749 PUSH1 0xE1 SHL DUP2 MSTORE PUSH1 0x1 PUSH1 0x1 PUSH1 0xA0 SHL SUB DUP6 AND PUSH1 0x4 DUP3 ADD MSTORE PUSH1 0x24 ADD PUSH2 0x359 JUMP JUMPDEST POP JUMPDEST POP POP POP POP POP JUMP JUMPDEST PUSH1 0x60 PUSH2 0xA94 DUP3 PUSH2 0x6A4 JUMP JUMPDEST POP PUSH0 PUSH2 0xAAA PUSH1 0x40 DUP1 MLOAD PUSH1 0x20 DUP2 ADD SWAP1 SWAP2 MSTORE PUSH0 DUP2 MSTORE SWAP1 JUMP JUMPDEST SWAP1 POP PUSH0 DUP2 MLOAD GT PUSH2 0xAC8 JUMPI PUSH1 0x40 MLOAD DUP1 PUSH1 0x20 ADD PUSH1 0x40 MSTORE DUP1 PUSH0 DUP2 MSTORE POP PUSH2 0xAF3 JUMP JUMPDEST DUP1 PUSH2 0xAD2 DUP5 PUSH2 0xC62 JUMP JUMPDEST PUSH1 0x40 MLOAD PUSH1 0x20 ADD PUSH2 0xAE3 SWAP3 SWAP2 SWAP1 PUSH2 0x1147 JUMP JUMPDEST PUSH1 0x40 MLOAD PUSH1 0x20 DUP2 DUP4 SUB SUB DUP2 MSTORE SWAP1 PUSH1 0x40 MSTORE JUMPDEST SWAP4 SWAP3 POP POP POP JUMP JUMPDEST DUP1 DUP1 PUSH2 0xB0E JUMPI POP PUSH1 0x1 PUSH1 0x1 PUSH1 0xA0 SHL SUB DUP3 AND ISZERO ISZERO JUMPDEST ISZERO PUSH2 0xBCF JUMPI PUSH0 PUSH2 0xB1D DUP5 PUSH2 0x6A4 JUMP JUMPDEST SWAP1 POP PUSH1 0x1 PUSH1 0x1 PUSH1 0xA0 SHL SUB DUP4 AND ISZERO DUP1 ISZERO SWAP1 PUSH2 0xB49 JUMPI POP DUP3 PUSH1 0x1 PUSH1 0x1 PUSH1 0xA0 SHL SUB AND DUP2 PUSH1 0x1 PUSH1 0x1 PUSH1 0xA0 SHL SUB AND EQ ISZERO JUMPDEST DUP1 ISZERO PUSH2 0xB5C JUMPI POP PUSH2 0xB5A DUP2 DUP5 PUSH2 0x628 JUMP JUMPDEST ISZERO JUMPDEST ISZERO PUSH2 0xB85 JUMPI PUSH1 0x40 MLOAD PUSH4 0xA9FBF51F PUSH1 0xE0 SHL DUP2 MSTORE PUSH1 0x1 PUSH1 0x1 PUSH1 0xA0 SHL SUB DUP5 AND PUSH1 0x4 DUP3 ADD MSTORE PUSH1 0x24 ADD PUSH2 0x359 JUMP JUMPDEST DUP2 ISZERO PUSH2 0xBCD JUMPI DUP4 DUP6 PUSH1 0x1 PUSH1 0x1 PUSH1 0xA0 SHL SUB AND DUP3 PUSH1 0x1 PUSH1 0x1 PUSH1 0xA0 SHL SUB AND PUSH32 0x8C5BE1E5EBEC7D5BD14F71427D1E84F3DD0314C0F7B2291E5B200AC8C7C3B925 PUSH1 0x40 MLOAD PUSH1 0x40 MLOAD DUP1 SWAP2 SUB SWAP1 LOG4 JUMPDEST POP JUMPDEST POP POP PUSH0 SWAP1 DUP2 MSTORE PUSH1 0x4 PUSH1 0x20 MSTORE PUSH1 0x40 SWAP1 KECCAK256 DUP1 SLOAD PUSH1 0x1 PUSH1 0x1 PUSH1 0xA0 SHL SUB NOT AND PUSH1 0x1 PUSH1 0x1 PUSH1 0xA0 SHL SUB SWAP3 SWAP1 SWAP3 AND SWAP2 SWAP1 SWAP2 OR SWAP1 SSTORE JUMP JUMPDEST PUSH2 0xC09 DUP4 DUP4 DUP4 PUSH2 0xCF2 JUMP JUMPDEST PUSH2 0x422 JUMPI PUSH1 0x1 PUSH1 0x1 PUSH1 0xA0 SHL SUB DUP4 AND PUSH2 0xC37 JUMPI PUSH1 0x40 MLOAD PUSH4 0x7E273289 PUSH1 0xE0 SHL DUP2 MSTORE PUSH1 0x4 DUP2 ADD DUP3 SWAP1 MSTORE PUSH1 0x24 ADD PUSH2 0x359 JUMP JUMPDEST PUSH1 0x40 MLOAD PUSH4 0x177E802F PUSH1 0xE0 SHL DUP2 MSTORE PUSH1 0x1 PUSH1 0x1 PUSH1 0xA0 SHL SUB DUP4 AND PUSH1 0x4 DUP3 ADD MSTORE PUSH1 0x24 DUP2 ADD DUP3 SWAP1 MSTORE PUSH1 0x44 ADD PUSH2 0x359 JUMP JUMPDEST PUSH1 0x60 PUSH0 PUSH2 0xC6E DUP4 PUSH2 0xD53 JUMP JUMPDEST PUSH1 0x1 ADD SWAP1 POP PUSH0 DUP2 PUSH8 0xFFFFFFFFFFFFFFFF DUP2 GT ISZERO PUSH2 0xC8D JUMPI PUSH2 0xC8D PUSH2 0xF2E JUMP JUMPDEST PUSH1 0x40 MLOAD SWAP1 DUP1 DUP3 MSTORE DUP1 PUSH1 0x1F ADD PUSH1 0x1F NOT AND PUSH1 0x20 ADD DUP3 ADD PUSH1 0x40 MSTORE DUP1 ISZERO PUSH2 0xCB7 JUMPI PUSH1 0x20 DUP3 ADD DUP2 DUP1 CALLDATASIZE DUP4 CALLDATACOPY ADD SWAP1 POP JUMPDEST POP SWAP1 POP DUP2 DUP2 ADD PUSH1 0x20 ADD JUMPDEST PUSH0 NOT ADD PUSH16 0x181899199A1A9B1B9C1CB0B131B232B3 PUSH1 0x81 SHL PUSH1 0xA DUP7 MOD BYTE DUP2 MSTORE8 PUSH1 0xA DUP6 DIV SWAP5 POP DUP5 PUSH2 0xCC1 JUMPI POP SWAP4 SWAP3 POP POP POP JUMP JUMPDEST PUSH0 PUSH1 0x1 PUSH1 0x1 PUSH1 0xA0 SHL SUB DUP4 AND ISZERO DUP1 ISZERO SWAP1 PUSH2 0x620 JUMPI POP DUP3 PUSH1 0x1 PUSH1 0x1 PUSH1 0xA0 SHL SUB AND DUP5 PUSH1 0x1 PUSH1 0x1 PUSH1 0xA0 SHL SUB AND EQ DUP1 PUSH2 0xD2B JUMPI POP PUSH2 0xD2B DUP5 DUP5 PUSH2 0x628 JUMP JUMPDEST DUP1 PUSH2 0x620 JUMPI POP POP PUSH0 SWAP1 DUP2 MSTORE PUSH1 0x4 PUSH1 0x20 MSTORE PUSH1 0x40 SWAP1 KECCAK256 SLOAD PUSH1 0x1 PUSH1 0x1 PUSH1 0xA0 SHL SUB SWAP1 DUP2 AND SWAP2 AND EQ SWAP2 SWAP1 POP JUMP JUMPDEST PUSH0 DUP1 PUSH19 0x184F03E93FF9F4DAA797ED6E38ED64BF6A1F01 PUSH1 0x40 SHL DUP4 LT PUSH2 0xD91 JUMPI PUSH19 0x184F03E93FF9F4DAA797ED6E38ED64BF6A1F01 PUSH1 0x40 SHL DUP4 DIV SWAP3 POP PUSH1 0x40 ADD JUMPDEST PUSH14 0x4EE2D6D415B85ACEF8100000000 DUP4 LT PUSH2 0xDBD JUMPI PUSH14 0x4EE2D6D415B85ACEF8100000000 DUP4 DIV SWAP3 POP PUSH1 0x20 ADD JUMPDEST PUSH7 0x2386F26FC10000 DUP4 LT PUSH2 0xDDB JUMPI PUSH7 0x2386F26FC10000 DUP4 DIV SWAP3 POP PUSH1 0x10 ADD JUMPDEST PUSH4 0x5F5E100 DUP4 LT PUSH2 0xDF3 JUMPI PUSH4 0x5F5E100 DUP4 DIV SWAP3 POP PUSH1 0x8 ADD JUMPDEST PUSH2 0x2710 DUP4 LT PUSH2 0xE07 JUMPI PUSH2 0x2710 DUP4 DIV SWAP3 POP PUSH1 0x4 ADD JUMPDEST PUSH1 0x64 DUP4 LT PUSH2 0xE19 JUMPI PUSH1 0x64 DUP4 DIV SWAP3 POP PUSH1 0x2 ADD JUMPDEST PUSH1 0xA DUP4 LT PUSH2 0x269 JUMPI PUSH1 0x1 ADD SWAP3 SWAP2 POP POP JUMP JUMPDEST PUSH1 0x1 PUSH1 0x1 PUSH1 0xE0 SHL SUB NOT DUP2 AND DUP2 EQ PUSH2 0x499 JUMPI PUSH0 DUP1 REVERT JUMPDEST PUSH0 PUSH1 0x20 DUP3 DUP5 SUB SLT ISZERO PUSH2 0xE4F JUMPI PUSH0 DUP1 REVERT JUMPDEST DUP2 CALLDATALOAD PUSH2 0xAF3 DUP2 PUSH2 0xE2A JUMP JUMPDEST PUSH0 DUP2 MLOAD DUP1 DUP5 MSTORE DUP1 PUSH1 0x20 DUP5 ADD PUSH1 0x20 DUP7 ADD MCOPY PUSH0 PUSH1 0x20 DUP3 DUP7 ADD ADD MSTORE PUSH1 0x20 PUSH1 0x1F NOT PUSH1 0x1F DUP4 ADD AND DUP6 ADD ADD SWAP2 POP POP SWAP3 SWAP2 POP POP JUMP JUMPDEST PUSH1 0x20 DUP2 MSTORE PUSH0 PUSH2 0xAF3 PUSH1 0x20 DUP4 ADD DUP5 PUSH2 0xE5A JUMP JUMPDEST PUSH0 PUSH1 0x20 DUP3 DUP5 SUB SLT ISZERO PUSH2 0xEAA JUMPI PUSH0 DUP1 REVERT JUMPDEST POP CALLDATALOAD SWAP2 SWAP1 POP JUMP JUMPDEST DUP1 CALLDATALOAD PUSH1 0x1 PUSH1 0x1 PUSH1 0xA0 SHL SUB DUP2 AND DUP2 EQ PUSH2 0xEC7 JUMPI PUSH0 DUP1 REVERT JUMPDEST SWAP2 SWAP1 POP JUMP JUMPDEST PUSH0 DUP1 PUSH1 0x40 DUP4 DUP6 SUB SLT ISZERO PUSH2 0xEDD JUMPI PUSH0 DUP1 REVERT JUMPDEST PUSH2 0xEE6 DUP4 PUSH2 0xEB1 JUMP JUMPDEST SWAP5 PUSH1 0x20 SWAP4 SWAP1 SWAP4 ADD CALLDATALOAD SWAP4 POP POP POP JUMP JUMPDEST PUSH0 DUP1 PUSH0 PUSH1 0x60 DUP5 DUP7 SUB SLT ISZERO PUSH2 0xF06 JUMPI PUSH0 DUP1 REVERT JUMPDEST PUSH2 0xF0F DUP5 PUSH2 0xEB1 JUMP JUMPDEST SWAP3 POP PUSH2 0xF1D PUSH1 0x20 DUP6 ADD PUSH2 0xEB1 JUMP JUMPDEST SWAP3 SWAP6 SWAP3 SWAP5 POP POP POP PUSH1 0x40 SWAP2 SWAP1 SWAP2 ADD CALLDATALOAD SWAP1 JUMP JUMPDEST PUSH4 0x4E487B71 PUSH1 0xE0 SHL PUSH0 MSTORE PUSH1 0x41 PUSH1 0x4 MSTORE PUSH1 0x24 PUSH0 REVERT JUMPDEST PUSH0 DUP1 PUSH8 0xFFFFFFFFFFFFFFFF DUP5 GT ISZERO PUSH2 0xF5C JUMPI PUSH2 0xF5C PUSH2 0xF2E JUMP JUMPDEST POP PUSH1 0x40 MLOAD PUSH1 0x1F NOT PUSH1 0x1F DUP6 ADD DUP2 AND PUSH1 0x3F ADD AND DUP2 ADD DUP2 DUP2 LT PUSH8 0xFFFFFFFFFFFFFFFF DUP3 GT OR ISZERO PUSH2 0xF8B JUMPI PUSH2 0xF8B PUSH2 0xF2E JUMP JUMPDEST PUSH1 0x40 MSTORE DUP4 DUP2 MSTORE SWAP1 POP DUP1 DUP3 DUP5 ADD DUP6 LT ISZERO PUSH2 0xFA2 JUMPI PUSH0 DUP1 REVERT JUMPDEST DUP4 DUP4 PUSH1 0x20 DUP4 ADD CALLDATACOPY PUSH0 PUSH1 0x20 DUP6 DUP4 ADD ADD MSTORE POP SWAP4 SWAP3 POP POP POP JUMP JUMPDEST PUSH0 PUSH1 0x20 DUP3 DUP5 SUB SLT ISZERO PUSH2 0xFC9 JUMPI PUSH0 DUP1 REVERT JUMPDEST DUP2 CALLDATALOAD PUSH8 0xFFFFFFFFFFFFFFFF DUP2 GT ISZERO PUSH2 0xFDF JUMPI PUSH0 DUP1 REVERT JUMPDEST DUP3 ADD PUSH1 0x1F DUP2 ADD DUP5 SGT PUSH2 0xFEF JUMPI PUSH0 DUP1 REVERT JUMPDEST PUSH2 0x620 DUP5 DUP3 CALLDATALOAD PUSH1 0x20 DUP5 ADD PUSH2 0xF42 JUMP JUMPDEST PUSH0 PUSH1 0x20 DUP3 DUP5 SUB SLT ISZERO PUSH2 0x100E JUMPI PUSH0 DUP1 REVERT JUMPDEST PUSH2 0xAF3 DUP3 PUSH2 0xEB1 JUMP JUMPDEST PUSH0 DUP1 PUSH1 0x40 DUP4 DUP6 SUB SLT ISZERO PUSH2 0x1028 JUMPI PUSH0 DUP1 REVERT JUMPDEST PUSH2 0x1031 DUP4 PUSH2 0xEB1 JUMP JUMPDEST SWAP2 POP PUSH1 0x20 DUP4 ADD CALLDATALOAD DUP1 ISZERO ISZERO DUP2 EQ PUSH2 0x1045 JUMPI PUSH0 DUP1 REVERT JUMPDEST DUP1 SWAP2 POP POP SWAP3 POP SWAP3 SWAP1 POP JUMP JUMPDEST PUSH0 DUP1 PUSH0 DUP1 PUSH1 0x80 DUP6 DUP8 SUB SLT ISZERO PUSH2 0x1063 JUMPI PUSH0 DUP1 REVERT JUMPDEST PUSH2 0x106C DUP6 PUSH2 0xEB1 JUMP JUMPDEST SWAP4 POP PUSH2 0x107A PUSH1 0x20 DUP7 ADD PUSH2 0xEB1 JUMP JUMPDEST SWAP3 POP PUSH1 0x40 DUP6 ADD CALLDATALOAD SWAP2 POP PUSH1 0x60 DUP6 ADD CALLDATALOAD PUSH8 0xFFFFFFFFFFFFFFFF DUP2 GT ISZERO PUSH2 0x109C JUMPI PUSH0 DUP1 REVERT JUMPDEST DUP6 ADD PUSH1 0x1F DUP2 ADD DUP8 SGT PUSH2 0x10AC JUMPI PUSH0 DUP1 REVERT JUMPDEST PUSH2 0x10BB DUP8 DUP3 CALLDATALOAD PUSH1 0x20 DUP5 ADD PUSH2 0xF42 JUMP JUMPDEST SWAP2 POP POP SWAP3 SWAP6 SWAP2 SWAP5 POP SWAP3 POP JUMP JUMPDEST PUSH0 DUP1 PUSH1 0x40 DUP4 DUP6 SUB SLT ISZERO PUSH2 0x10D8 JUMPI PUSH0 DUP1 REVERT JUMPDEST PUSH2 0x10E1 DUP4 PUSH2 0xEB1 JUMP JUMPDEST SWAP2 POP PUSH2 0x10EF PUSH1 0x20 DUP5 ADD PUSH2 0xEB1 JUMP JUMPDEST SWAP1 POP SWAP3 POP SWAP3 SWAP1 POP JUMP JUMPDEST PUSH1 0x1 DUP2 DUP2 SHR SWAP1 DUP3 AND DUP1 PUSH2 0x110C JUMPI PUSH1 0x7F DUP3 AND SWAP2 POP JUMPDEST PUSH1 0x20 DUP3 LT DUP2 SUB PUSH2 0x112A JUMPI PUSH4 0x4E487B71 PUSH1 0xE0 SHL PUSH0 MSTORE PUSH1 0x22 PUSH1 0x4 MSTORE PUSH1 0x24 PUSH0 REVERT JUMPDEST POP SWAP2 SWAP1 POP JUMP JUMPDEST PUSH0 DUP2 MLOAD DUP1 PUSH1 0x20 DUP5 ADD DUP6 MCOPY PUSH0 SWAP4 ADD SWAP3 DUP4 MSTORE POP SWAP1 SWAP2 SWAP1 POP JUMP JUMPDEST PUSH0 PUSH2 0x620 PUSH2 0x1155 DUP4 DUP7 PUSH2 0x1130 JUMP JUMPDEST DUP5 PUSH2 0x1130 JUMP JUMPDEST PUSH1 0x1F DUP3 GT ISZERO PUSH2 0x422 JUMPI DUP1 PUSH0 MSTORE PUSH1 0x20 PUSH0 KECCAK256 PUSH1 0x1F DUP5 ADD PUSH1 0x5 SHR DUP2 ADD PUSH1 0x20 DUP6 LT ISZERO PUSH2 0x1180 JUMPI POP DUP1 JUMPDEST PUSH1 0x1F DUP5 ADD PUSH1 0x5 SHR DUP3 ADD SWAP2 POP JUMPDEST DUP2 DUP2 LT ISZERO PUSH2 0xA82 JUMPI PUSH0 DUP2 SSTORE PUSH1 0x1 ADD PUSH2 0x118C JUMP JUMPDEST DUP2 MLOAD PUSH8 0xFFFFFFFFFFFFFFFF DUP2 GT ISZERO PUSH2 0x11B9 JUMPI PUSH2 0x11B9 PUSH2 0xF2E JUMP JUMPDEST PUSH2 0x11CD DUP2 PUSH2 0x11C7 DUP5 SLOAD PUSH2 0x10F8 JUMP JUMPDEST DUP5 PUSH2 0x115B JUMP JUMPDEST PUSH1 0x20 PUSH1 0x1F DUP3 GT PUSH1 0x1 DUP2 EQ PUSH2 0x11FF JUMPI PUSH0 DUP4 ISZERO PUSH2 0x11E8 JUMPI POP DUP5 DUP3 ADD MLOAD JUMPDEST PUSH0 NOT PUSH1 0x3 DUP6 SWAP1 SHL SHR NOT AND PUSH1 0x1 DUP5 SWAP1 SHL OR DUP5 SSTORE PUSH2 0xA82 JUMP JUMPDEST PUSH0 DUP5 DUP2 MSTORE PUSH1 0x20 DUP2 KECCAK256 PUSH1 0x1F NOT DUP6 AND SWAP2 JUMPDEST DUP3 DUP2 LT ISZERO PUSH2 0x122E JUMPI DUP8 DUP6 ADD MLOAD DUP3 SSTORE PUSH1 0x20 SWAP5 DUP6 ADD SWAP5 PUSH1 0x1 SWAP1 SWAP3 ADD SWAP2 ADD PUSH2 0x120E JUMP JUMPDEST POP DUP5 DUP3 LT ISZERO PUSH2 0x124B JUMPI DUP7 DUP5 ADD MLOAD PUSH0 NOT PUSH1 0x3 DUP8 SWAP1 SHL PUSH1 0xF8 AND SHR NOT AND DUP2 SSTORE JUMPDEST POP POP POP POP PUSH1 0x1 SWAP1 DUP2 SHL ADD SWAP1 SSTORE POP JUMP JUMPDEST PUSH1 0x1 PUSH1 0x1 PUSH1 0xA0 SHL SUB DUP6 DUP2 AND DUP3 MSTORE DUP5 AND PUSH1 0x20 DUP3 ADD MSTORE PUSH1 0x40 DUP2 ADD DUP4 SWAP1 MSTORE PUSH1 0x80 PUSH1 0x60 DUP3 ADD DUP2 SWAP1 MSTORE PUSH0 SWAP1 PUSH2 0x128C SWAP1 DUP4 ADD DUP5 PUSH2 0xE5A JUMP JUMPDEST SWAP7 SWAP6 POP POP POP POP POP POP JUMP JUMPDEST PUSH0 PUSH1 0x20 DUP3 DUP5 SUB SLT ISZERO PUSH2 0x12A6 JUMPI PUSH0 DUP1 REVERT JUMPDEST DUP2 MLOAD PUSH2 0xAF3 DUP2 PUSH2 0xE2A JUMP INVALID LOG2 PUSH5 0x6970667358 0x22 SLT KECCAK256 SWAP14 0x22 DUP6 0xC6 CALLER SWAP9 0xBA POP 0xB6 0xD5 0xDF RETURN 0x2A SWAP7 LOG1 0xD4 0xBE 0xEE PUSH7 0x6403B4829BCA1A 0xC7 0x2B SLT BLOCKHASH 0xAB 0xE PUSH5 0x736F6C6343 STOP ADDMOD BYTE STOP CALLER "
				},
				"gasEstimates": {
					"creation": {
						"codeDepositCost": "967800",
						"executionCost": "infinite",
						"totalCost": "infinite"
					},
					"external": {
						"approve(address,uint256)": "31464",
						"balanceOf(address)": "2652",
						"burn(uint256)": "infinite",
						"getApproved(uint256)": "infinite",
						"isApprovedForAll(address,address)": "infinite",
						"mintToken(string)": "infinite",
						"name()": "infinite",
						"ownerOf(uint256)": "infinite",
						"safeTransferFrom(address,address,uint256)": "infinite",
						"safeTransferFrom(address,address,uint256,bytes)": "infinite",
						"setApprovalForAll(address,bool)": "26678",
						"supportsInterface(bytes4)": "infinite",
						"symbol()": "infinite",
						"tokenURI(uint256)": "infinite",
						"transferFrom(address,address,uint256)": "infinite"
					}
				},
				"methodIdentifiers": {
					"approve(address,uint256)": "095ea7b3",
					"balanceOf(address)": "70a08231",
					"burn(uint256)": "42966c68",
					"getApproved(uint256)": "081812fc",
					"isApprovedForAll(address,address)": "e985e9c5",
					"mintToken(string)": "33eba49a",
					"name()": "06fdde03",
					"ownerOf(uint256)": "6352211e",
					"safeTransferFrom(address,address,uint256)": "42842e0e",
					"safeTransferFrom(address,address,uint256,bytes)": "b88d4fde",
					"setApprovalForAll(address,bool)": "a22cb465",
					"supportsInterface(bytes4)": "01ffc9a7",
					"symbol()": "95d89b41",
					"tokenURI(uint256)": "c87b56dd",
					"transferFrom(address,address,uint256)": "23b872dd"
				}
			},
			"storageLayout": {
				"storage": [
					{
						"astId": 201,
						"contract": "contracts/NFT.sol:NFT",
						"label": "_name",
						"offset": 0,
						"slot": "0",
						"type": "t_string_storage"
					},
					{
						"astId": 203,
						"contract": "contracts/NFT.sol:NFT",
						"label": "_symbol",
						"offset": 0,
						"slot": "1",
						"type": "t_string_storage"
					},
					{
						"astId": 207,
						"contract": "contracts/NFT.sol:NFT",
						"label": "_owners",
						"offset": 0,
						"slot": "2",
						"type": "t_mapping(t_uint256,t_address)"
					},
					{
						"astId": 211,
						"contract": "contracts/NFT.sol:NFT",
						"label": "_balances",
						"offset": 0,
						"slot": "3",
						"type": "t_mapping(t_address,t_uint256)"
					},
					{
						"astId": 215,
						"contract": "contracts/NFT.sol:NFT",
						"label": "_tokenApprovals",
						"offset": 0,
						"slot": "4",
						"type": "t_mapping(t_uint256,t_address)"
					},
					{
						"astId": 221,
						"contract": "contracts/NFT.sol:NFT",
						"label": "_operatorApprovals",
						"offset": 0,
						"slot": "5",
						"type": "t_mapping(t_address,t_mapping(t_address,t_bool))"
					},
					{
						"astId": 1288,
						"contract": "contracts/NFT.sol:NFT",
						"label": "_tokenURIs",
						"offset": 0,
						"slot": "6",
						"type": "t_mapping(t_uint256,t_string_storage)"
					},
					{
						"astId": 3059,
						"contract": "contracts/NFT.sol:NFT",
						"label": "s_tokenIds",
						"offset": 0,
						"slot": "7",
						"type": "t_struct(Counter)1527_storage"
					},
					{
						"astId": 3061,
						"contract": "contracts/NFT.sol:NFT",
						"label": "s_marketplaceAddress",
						"offset": 0,
						"slot": "8",
						"type": "t_address"
					}
				],
				"types": {
					"t_address": {
						"encoding": "inplace",
						"label": "address",
						"numberOfBytes": "20"
					},
					"t_bool": {
						"encoding": "inplace",
						"label": "bool",
						"numberOfBytes": "1"
					},
					"t_mapping(t_address,t_bool)": {
						"encoding": "mapping",
						"key": "t_address",
						"label": "mapping(address => bool)",
						"numberOfBytes": "32",
						"value": "t_bool"
					},
					"t_mapping(t_address,t_mapping(t_address,t_bool))": {
						"encoding": "mapping",
						"key": "t_address",
						"label": "mapping(address => mapping(address => bool))",
						"numberOfBytes": "32",
						"value": "t_mapping(t_address,t_bool)"
					},
					"t_mapping(t_address,t_uint256)": {
						"encoding": "mapping",
						"key": "t_address",
						"label": "mapping(address => uint256)",
						"numberOfBytes": "32",
						"value": "t_uint256"
					},
					"t_mapping(t_uint256,t_address)": {
						"encoding": "mapping",
						"key": "t_uint256",
						"label": "mapping(uint256 => address)",
						"numberOfBytes": "32",
						"value": "t_address"
					},
					"t_mapping(t_uint256,t_string_storage)": {
						"encoding": "mapping",
						"key": "t_uint256",
						"label": "mapping(uint256 => string)",
						"numberOfBytes": "32",
						"value": "t_string_storage"
					},
					"t_string_storage": {
						"encoding": "bytes",
						"label": "string",
						"numberOfBytes": "32"
					},
					"t_struct(Counter)1527_storage": {
						"encoding": "inplace",
						"label": "struct Counters.Counter",
						"members": [
							{
								"astId": 1526,
								"contract": "contracts/NFT.sol:NFT",
								"label": "_value",
								"offset": 0,
								"slot": "0",
								"type": "t_uint256"
							}
						],
						"numberOfBytes": "32"
					},
					"t_uint256": {
						"encoding": "inplace",
						"label": "uint256",
						"numberOfBytes": "32"
					}
				}
			},
			"userdoc": {
				"kind": "user",
				"methods": {},
				"version": 1
			}
		}
	}
}